:100000000C94B5000C94DE000C94DE000C94DE0021
:100010000C94DE000C94DE000C94B4090C94DE0009
:100020000C94DE000C94DE000C94DE000C94E810BE
:100030000C94DE000C94DE000C9447100C94DE004F
:100040000C94DE000C94DE000C94DE000C94DE00B8
:100050000C94DE000C94DE000C94DE000C9408116D
:100060000C94DE000C94DE006E616E00696E66001A
:1000700000407A10F35A00A0724E18090010A5D45F
:10008000E80000E87648170000E40B54020000CABC
:100090009A3B000000E1F505000080969800000002
:1000A00040420F000000A086010000001027000061
:1000B0000000E803000000006400000000000A00E7
:1000C000000000000100000000002C76D888DC67EA
:1000D0004F0823DFC1DFAE59E1B1B796E5E3E45342
:1000E000C63AE651997696E8E6C28426EB898C9B5F
:1000F00062ED407C6FFCEFBC9C9F40F2BAA56FA5FF
:10010000F490055A2AF75C936B6CF9676DC11BFC80
:10011000E0E40D47FEF520E6B500D0ED902E03009B
:10012000943577050080841E080000204E0A0000E8
:1001300000C80C333333330F986E12831141EF8DA7
:100140002114893BE65516CFFEE6DB18D1844B38E7
:100150001BF77C1D901DA4BBE424203284725E2218
:100160008100C9F124ECA1E53D2711241FBECFEF8A
:10017000D8E0DEBFCDBF14BE0FB6F894A89580912D
:100180006000886180936000109260000FBE11E0F3
:10019000A0E0B1E0E8E0FDE302C005900D92A636D4
:1001A000B107D9F722E0A6E6B1E001C01D92AD3457
:1001B000B207E1F70E94B5170C94701E0C94000072
:1001C0008093C6008091C00085FFFCCF90E080E066
:1001D000089580910E0190910F010D960895DC0114
:1001E000E0910E01F0910F0181E0818F11968C91C9
:1001F000119782AF12964C91129750E070E060E038
:1002000043AF54AF65AF76AFFF9613968C9190E0F5
:10021000B0E0A0E080839183A283B3830895CF935D
:10022000DF9300D000D000D0CDB7DEB780911D02A3
:10023000815F0E943D0C20910E0130910F013A83A5
:10024000298380911D02D9015A968C935A97F901FE
:10025000148E158E168E178E90961D921D921D92DD
:100260001C9293975B961C9280EA90E00E94031B7D
:10027000FC01A981BA81A95ABF4F8D939C93A98192
:10028000BA81A95BBF4F1D921D921D921C921397BC
:10029000A981BA81AD5ABF4F1D921D921D921C9229
:1002A0001397A981BA81AD5BBF4F1D921D921D921C
:1002B0001C921397A981BA81DB961D921D921D9203
:1002C0001C92DE97A75ABF4F1D921D921D921C9241
:1002D0001397A981BA81A35ABF4F1D921D921D92F7
:1002E0001C921397A981BA81AB59BF4F1D921D92E1
:1002F0001D921C92139780EADF011D928A95E9F7FF
:10030000E981FA8115A216A217A210A616AA17AAA9
:1003100010AE11AE11AA12AA13AA14AA80911F023C
:1003200090912002A0912102B0912202EF58FF4F3C
:1003300080839183A283B383A981BA8199961D9208
:100340001D921D921C929C97FD0115A616A617A63C
:1003500010AAE55BFF4F108211821282138234963D
:100360001082118212821382B696108212961D920A
:100370001D921D921C92159716961C92169784EB4F
:1003800017968C938CE390E0A0E0B0E0E981FA81CD
:1003900080879187A287B3870E94260C20910E0147
:1003A00030910F013E832D83282F30E050E040E054
:1003B00029833A834B835C83AD81BE8118962D914E
:1003C0003D914D915C911B9769817A818B819C81D4
:1003D0000E94E21769837A838B839C83DC01CB01C3
:1003E0000196A11DB11DED81FE8182839383A483BB
:1003F000B5838485813071F1F0911902FD832091DC
:100400001A022983222379F19091B30081E091119E
:1004100032C081953D81332349F09091B4009923F6
:1004200041F1882369F08FEF60E004C0882341F038
:1004300060E08FEF0E942D0B8FE090E00E94200B78
:100440006D8189810E942D0BE0910E01F0910F01C9
:1004500081E0848726960FB6F894DEBF0FBECDBF2D
:10046000DF91CF910895FF2359F38091B40081115A
:10047000E7CF6FEFDFCF80E081953D813111CDCFA8
:10048000D5CFF894519A8CE090E09093C50080937A
:10049000C400E0ECF0E080818D7F8083E2ECF0E04E
:1004A000808186608083E1ECF0E0808188608083D9
:1004B00080E091E090934A028093490278940895F5
:1004C000CF93DF93C82FD62F811113C0662359F025
:1004D0008091B400811107C06FEF0E942D0B8FE057
:1004E00090E00E94200B6D2F8C2FDF91CF910C9408
:1004F0002D0B9091B30081E0911111C08195DD2306
:1005000049F09091B400992339F3882361F38FEF78
:1005100060E0E3CF882339F360E08FEFDECF80E047
:100520008195D111EECFF6CF1F93CF93DF93C82FD4
:10053000E0910E01F0910F0184858C1779F0C230A3
:10054000A1F1C330F1F0C13069F060E080E00E94B9
:100550002D0BE0910E01F0910F01C487DF91CF9137
:100560001F91089510911902D0911A02D11132C031
:10057000112309F441C08091B40081113DC06FEF97
:1005800035C0D0911B02DD2359F08091B400811158
:1005900007C06FEF0E942D0B8FE090E00E94200BB0
:1005A0006D2F80E00E942D0BD4CFD0911C02DD2353
:1005B00061F08091B300811108C060E08FEF0E946C
:1005C0002D0B8FE090E00E94200B60E08D2F0E94A9
:1005D0002D0BBFCF9091B30081E0911180E0819508
:1005E00011110FC0882341F060E08FEF0E942D0BA6
:1005F0008FE090E00E94200B612F8D2F0E942D0B29
:10060000A8CF9091B400992309F4B9CF8823A1F31E
:100610008FEF60E0EBCF08950F931F93E0910E01F1
:10062000F0910F0184858130F9F09EEF980F9230A0
:1006300008F06FC040911F0250912002609121028A
:1006400070912202268182819381A481B581820FDB
:10065000911DA11DB11D84179507A607B70708F4C2
:1006600067C01F910F91089540911F025091200281
:10067000609121027091220282819381A481B581CF
:100680000085118522853385800F911FA21FB31F1E
:1006900084179507A607B70720F780911F0290914E
:1006A0002002A0912102B091220282839383A4832D
:1006B000B5830E94260CE0910E01F0910F0180FF9E
:1006C00070C084858230D1F010911C02112361F03A
:1006D0008091B300811108C060E08FEF0E942D0B64
:1006E0008FE090E00E94200B60E0812F0E942D0B94
:1006F000E0910E01F0910F0182E084870E94260CA8
:10070000E0910E01F0910F0180FD69C08AE58683BA
:10071000A8CF882309F4A5CF60E080E00E942D0BCC
:10072000E0910E01F0910F0114861F910F91089531
:1007300080911F0290912002A0912102B09122028B
:1007400082839383A483B5830091190210911A02C6
:10075000111108C00023C1F08091B400811114C0B0
:100760006FEF0CC09091B30081E0911180E0819512
:10077000011138C0882341F060E08FEF0E942D0BFB
:100780008FE090E00E94200B602F812F0E942D0BA4
:10079000E0910E01F0910F0181E084871F910F918C
:1007A00008958485833009F4A9CF10911B02112389
:1007B00059F08091B400811107C06FEF0E942D0B9A
:1007C0008FE090E00E94200B612F80E00E942D0BB3
:1007D000E0910E01F0910F0183E084878FCF84EBCD
:1007E00086833FCF9091B400992309F4B9CF882331
:1007F00059F28FEF60E0C2CFCF93DF93C0910E012B
:10080000D0910F018A8D8E878DA18F878EA9888BBD
:10081000CE010D960E941113988F8F8BDF91CF918F
:100820000895E0910E01F0910F01DF01A95BBF4F28
:100830001D921D921D921C9213971C961D921D9243
:100840001D921C92139750971D921D921D921C92FF
:10085000139713AE14AE15AE16AE56961D921D929A
:100860001D921C92139714961D921D921D921C921C
:10087000139718961D921D921D921C921397E95A78
:10088000FF4F0190F081E02D80EADF011D928A95F3
:10089000E9F70895CF93DF93E0910E01F0910F01F6
:1008A000DF01A95ABF4F82AD90E0880F991F880FD2
:1008B000991F0D90BC91A02DA80FB91F4D915D916E
:1008C0006D917C911397452B462B472B89F541E081
:1008D00050E060E070E04D935D936D937C931397CF
:1008E000EF01CD5BDF4F88819981AA81BB810196A1
:1008F000A11DB11D88839983AA83BB8383AD94AD69
:10090000A5ADB6AD81309105A105B105A1F0029765
:10091000A105B10569F4ED5AFF4F80819181A28153
:10092000B3810196A11DB11D80839183A283B383FE
:10093000DF91CF910895E95BFF4F80819181A28182
:10094000B3810196A11DB11D80839183A283B383DE
:10095000DF91CF9108954F925F926F927F92AF9205
:10096000BF92CF92DF92EF92FF920F931F93CF939C
:10097000DF9300D000D000D0CDB7DEB720910E01BC
:1009800030910F013E832D83F90181A592A5A3A586
:10099000B4A50197A105B10509F439C1ED5BFF4F7D
:1009A000C080D180E280F380F901C114D104E10458
:1009B000F10409F0AEC0E55BFF4F10821182128294
:1009C000138226E030E040E050E086E0A82EB12C13
:1009D00000E010E0ED81FE81E15BFF4FC082D1823B
:1009E000E282F382ED81FE81E75AFF4FA082B1825D
:1009F00002831383AD81BE81A35ABF4F2C931196FE
:100A00003C93119712964C93129713965C930E9405
:100A1000260C00910E0110910F0199E2899F912DF2
:100A2000112492959F70B4E69B9F8019112490E049
:100A3000B0E0A0E0A8014B595F4FFA018083918399
:100A4000A283B3834C505109FA01C080D180E28067
:100A5000F3808C159D05AE05BF05E8F441E050E03C
:100A600060E070E0F80145A356A367A370A740912A
:100A70001F0250912002609121027091220245A72D
:100A800056A767A770AB44E650E060E070E041AB6A
:100A900052AB63AB74ABA801435A5F4FFA0140817C
:100AA0005181628173814C0D5D1D6E1D7F1DC816C5
:100AB000D906EA06FB0608F486C0481759076A07F4
:100AC0007B0790F4D80195961D921D921D921C9261
:100AD0009897F80111AA12AA13AA14AA9D961D921A
:100AE0001D921D921C92D09726960FB6F894DEBFE9
:100AF0000FBECDBFDF91CF911F910F91FF90EF906F
:100B0000DF90CF90BF90AF907F906F905F904F90AD
:100B10000895E95BFF4F2081318142815381A4E632
:100B2000B0E00E941918A70196010E94E21729015E
:100B30003A01ED81FE81E55BFF4F40825182628286
:100B40007382ED81FE81ED5AFF4F20813181428118
:100B50005381A4E6B0E00E941918A70196010E94F3
:100B6000E21769017A01ACE3B0E0A30192010E94AF
:100B70001918DC01CB01885A9D4FAF4FBF4F24E6B7
:100B8000422E512C612C712CBC01CD01A30192018C
:100B90000E94E21759018A01ACE3B0E0A701960177
:100BA0000E941918DC01CB01885A9D4FAF4FBF4FEF
:100BB00089839A83AB83BC83BC01CD01A3019201DD
:100BC0000E94E21707CF481759076A077B0708F406
:100BD00074CF82E090E0A0E0B0E0F80185A396A396
:100BE000A7A3B0A788EC90E0A0E0B0E081AB92AB07
:100BF000A3ABB4AB80911F0290912002A09121027F
:100C0000B091220285A796A7A7A7B0AB6DCF15A27A
:100C100016A217A210A616AA17AA10AE11AE15A6F4
:100C200016A617A610AA11A612A613A614A65CCF84
:100C3000CF92DF92EF92FF920F931F93CF93DF93A8
:100C400000D000D000D0CDB7DEB7E0910E01F0911A
:100C50000F0180A191A1A2A1B3A10196A11DB11D77
:100C600080A391A3A2A3B3A30E940C0380910E01C1
:100C700090910F019E838D83DC0159968C91599739
:100C8000813009F4B5C1ED81FE8185A196A1A7A1AE
:100C9000B0A50097A105B10509F0F8C040911F0269
:100CA000509120026091210270912202EF58FF4F73
:100CB000FA83E98380819181A281B3818D599F4F0D
:100CC000AF4FBF4F84179507A607B70708F494C026
:100CD00080E10E94C41080910E0190910F019E83CB
:100CE0008D83FC01EB58FF4F82E08083AD81BE8194
:100CF000D1961D921D921D921C92D497FD0185A143
:100D000096A1A7A1B0A50097A105B10509F0CFC094
:100D1000ED81FE81228D2687878786A9808BCF0172
:100D20000D960E941113AD81BE8158969C938E93AF
:100D3000579780911E028F9380911D028F938AE2B4
:100D400091E09F938F930E94C11DE0910E01F0915D
:100D50000F0182AD1F928F9381E291E09F938F9359
:100D60000E94C11DE0910E01F0910F0183A18F93AC
:100D700082A18F9381A18F9380A18F9382E391E0D1
:100D80009F938F930E94C11D80911F02909120021A
:100D9000A0912102B0912202BF93AF939F938F93B2
:100DA00081E491E09F938F930E94C11DE0910E0119
:100DB000F0910F01878D8F93868D8F93858D8F9303
:100DC000848D8F938DE491E09F938F930E94C11D3A
:100DD0000FB6F894DEBF0FBECDBF26960FB6F894BF
:100DE000DEBF0FBECDBFDF91CF911F910F91FF905E
:100DF000EF90DF90CF90089580911F029091200294
:100E0000A0912102B091220280839183A283B383B7
:100E10000E94AB0480910E0190910F019E838D83FF
:100E2000FC01E95BFF4F10821182128213823C9613
:100E300010821182128213827097108211821282A4
:100E40001382DC01DB961D921D921D921C92DE978F
:100E50007696108211821282138234961082118249
:100E600012821382389610821182128213823E9768
:100E70000190F081E02D80EADF011D928A95E9F76B
:100E8000ED81FE8185A196A1A7A1B0A58130910534
:100E9000A105B10509F492C082309105A105B10503
:100EA00009F474C00097A105B10509F411CF0091B0
:100EB0001F02109120022091210230912202ED8127
:100EC000FE81EF58FF4F4081518162817381ED8136
:100ED000FE81C1A8D2A8E3A8F4A84C0D5D1D6E1D2B
:100EE0007F1D42505109610971094017510762077E
:100EF000730708F00DCF15A216A217A210A681E065
:100F000090E0A0E0B0E081A792A7A3A7B4A7E95B17
:100F1000FF4F1082118212821382ED81FE81ED5A01
:100F2000FF4F1082118212821382ED81FE81ED5BF0
:100F3000FF4F1082118212821382AD81BE81DB9637
:100F40001D921D921D921C92DE97FD01E75AFF4FE4
:100F500010821182128213823496108211821282C0
:100F60001382389610821182128213823E9701906A
:100F7000F081E02D80EADF011D928A95E9F7ED818D
:100F8000FE8185A196A1A7A1B0A5C2CE8D819E812B
:100F90008B589F4F9A83898381E0A981BA818C9372
:100FA00084E00E94C410E0910E01F0910F01FE83D5
:100FB000ED8385A196A1A7A1B0A574CF8D819E8157
:100FC0008B589F4FDC011C9281E00E94C410E0917D
:100FD0000E01F0910F01FE83ED8385A196A1A7A1DB
:100FE000B0A582309105A105B10509F05BCFCECF48
:100FF00059961C925997FD01848D958DA68DB78DBC
:101000000196A11DB11D848F958FA68FB78F8091FA
:101010001F0290912002A0912102B0912202BC01F6
:10102000CD0124E630E040E050E00E94E217698301
:101030007A838B839C83623671058105910518F054
:101040000E944A0420CE84E00E94C410A0910E01A8
:10105000B0910F01BE83AD83F3CF8F929F92AF9279
:10106000BF92EF92FF920F931F93CF93DF93CDB771
:10107000DEB762970FB6F894DEBF0FBECDBF4B014F
:101080005C018D829E82AF82B886C901DA018987B0
:101090009A87AB87BC870D871E872D813E814F8144
:1010A0005885CA01B9010E943B1A5B018C01298550
:1010B0003A854B855C85CA01B9010E943B1A9B01A8
:1010C000AC01A982BA820B831C8369817A818B81EE
:1010D0009C810E94701869837A838B839C836981C9
:1010E0007A818B819C810E94AE1A8B015C0120E089
:1010F00030E048EC53E469831A838B83BC826981B6
:101100007A818B819C810E94DC1887FD42C08D8191
:101110009E81AF81B885B0588D839E83AF83B88799
:101120009801A501BC01CD010E94E1186F87788B61
:10113000898B9A8BAD85BE856D937D938D939C93A2
:10114000139789859A85AB85BC85B05889879A871E
:10115000AB87BC879801A501BC01CD010E94E118B5
:10116000D7016D937D938D939C93139781E090E0CD
:1011700062960FB6F894DEBF0FBECDBFDF91CF9160
:101180001F910F91FF90EF90BF90AF909F908F9025
:10119000089590E080E0ECCF089590E080E008951D
:1011A0000895BF92CF92DF92EF92FF920F931F9319
:1011B000CF93DF93F89414B817B81AB815B818B8C5
:1011C0001BB8529A5A9A14BC85E085BD8FEF87BD33
:1011D00082E080936E0010928000109281002FE8D0
:1011E0003BE0309389002093880080936F005398F0
:1011F000239891EA9093B0008093B1001092B400CC
:101200001092B3008BE080BF83E080937F0086E084
:1012100080937C0083E880937A0080917A008064D8
:1012200080937A0080917A0086FDFCCF10927C003A
:1012300083EA80937A0081E080937B0081E090E0F4
:101240000E94331E8F3F11F08093660010922E0291
:10125000C1E0C0932D02C0932C0210922B02109279
:101260002A0280E990E00E94331E80932902809137
:101270002902887311F0C09329021092260210925D
:1012800025028FEF90E09093240280932302109226
:101290001F0210922002109221021092220281E07D
:1012A0008093420282E49FE0909328028093270279
:1012B00080EB90E00E94331EC82F81EB90E00E94EB
:1012C000331ED82FD0931E02C0931D0285E090E0FC
:1012D0000E94331E80931C0289E090E00E94331E1E
:1012E00080931B028CE090E00E94331E80931A02D0
:1012F00084E190E00E94331E8093190201EE11E018
:101300008DEFE82E81E0F82E9DEFC92E91E0D92EC9
:10131000C0E2D0E0CE010E94331EB82ECE0101966D
:101320000E94331E9B2DF801819391938F01CE0172
:10133000C0960E94331EB82ECE01C1960E94331E65
:101340009B2DF701819391937F012296C016D106C0
:1013500009F77894DF91CF911F910F91FF90EF9053
:10136000DF90CF90BF9008950F920FB60F921F920B
:1013700011248F930FB6F894A8958091600088612E
:1013800080936000109260000FBE8F911F900F90AD
:101390000FBE0F9018953C01EB0110E099249A9430
:1013A00084E0C82E96E0A92E23E8B22E38E1D32E91
:1013B00049E2E42EE0914202E730E0F7F0E0EE5837
:1013C000F14E0C940418111102C0F3010995C0925A
:1013D000420211E0FE010995EDCF80912E028111AC
:1013E00003C1F894A0927C00B0927A0080917A00B8
:1013F000806480937A0080917A0086FDFCCF809192
:1014000078009091790078948B3AE2E09E070CF096
:10141000E4C08938F2E09F070CF0EDC087369240B7
:101420000CF4E2C0559A549A3B9A3A9A3D983C98EB
:10143000C1CF559854983B9A3A9A3D983C98EFEC16
:10144000F7E03197F1F700C00000559854983B98A9
:101450003A983D983C98FFEF21EE84E0F15020400F
:101460008040E1F700C00000A5CFF89480B7877FE7
:1014700080BF80917A008F7780937A0014B817B874
:101480001AB815B818B81BB80FB6F894A895D0922A
:1014900060000FBEE09260008091600080648093E5
:1014A000600083B7817F846083BFF89483B78160D5
:1014B00083BF7894889583B78E7F83BF789410928A
:1014C0002E02529A5A9A80917A00806880937A000C
:1014D00087E592E00197F1F700C0000080B78861CE
:1014E00080BF559A549A3B9A3A9A3D9A3C9AEFE1BA
:1014F000FEE43197F1F700C0000080912E028111C7
:101500005CC0559854983B983A983D983C9852CF77
:1015100080914002811125C01092B3001092B40056
:101520001092410247CF4899ECCF559A54983B9876
:101530003A983D983C988FEC97E00197F1F700C0FE
:101540000000559854983B983A983D983C989FEFE6
:10155000E1EEF4E09150E040F040E1F700C000001F
:1015600029CF9091400280914102981709F422CF2F
:10157000809140028093410280914002813009F4C1
:1015800041C0809140021092B3009092B40082302A
:1015900009F449C09092B3009092B4008FE295E7AD
:1015A0000197F1F700C000008091190290911A0292
:1015B0009093B3008093B400FDCE559A549A3B9813
:1015C0003A983D983C98FFEF20E782E0F1502040A8
:1015D0008040E1F700C0000094CF559854983B9AA2
:1015E0003A9A3D983C98E6CE559A549A3B983A9848
:1015F0003D983C98DFCE559854983B983A983D9A40
:101600003C9AD8CE9092B3001092B4008FE295E746
:101610000197F1F700C0000080911C028093B30095
:101620001092B400C7CEEFE2F5E73197F1F700C0B2
:10163000000080911B021092B3008093B400BACED8
:101640009C01892B49F08FEC97E00197F1F700C0DE
:10165000000021503109B9F708958093B3006093D9
:10166000B40008958FEF8093B3008093B4008FECA3
:1016700097E00197F1F700C000008FEC97E0019729
:10168000F1F700C000008FEC97E00197F1F700C080
:1016900000008FEC97E00197F1F700C000008FEC9D
:1016A00097E00197F1F700C000008FEC97E00197F9
:1016B000F1F700C000008FEC97E00197F1F700C050
:1016C00000008FEC97E00197F1F700C000008FEC6D
:1016D00097E00197F1F700C000008FEC97E00197C9
:1016E000F1F700C000008FEC97E00197F1F700C020
:1016F00000008FEC97E00197F1F700C000008FEC3D
:1017000097E00197F1F700C000008FEC97E0019798
:10171000F1F700C000008FEC97E00197F1F700C0EF
:101720000000089580912E0281111EC0F89487E078
:1017300080937C0083E880937A0080917A008064B3
:1017400080937A0080917A0086FDFCCF80917800AA
:101750009091790010927C0023EA20937A0021E096
:1017600020937B00789408958FEF9FEF08958091E8
:101770002E0281111EC0F89488EC80937C0087E8CB
:1017800080937A0080917A00806480937A008091BF
:101790007A0086FDFCCF80917800909179001092BC
:1017A0007C0023EA20937A0021E020937B00789448
:1017B00008958FEF9FEF08951F93CF93DF93F0E08D
:1017C000E0E080E016E0D3E8C3EA71E0A1E0B0E039
:1017D00060E8F89410937C00D0937A0090917A009E
:1017E000906490937A0090917A0096FDFCCF2091BE
:1017F000780030917900217090917A0090649093F4
:101800007A0090917A0096FDFCCF4091780050913B
:10181000790010927C00C0937A0070937B007894DA
:101820004170241302C06150A1F6222339F09D01BA
:101830000E2E01C0220F0A94EAF7822B3196E8306F
:10184000F10531F6DF91CF911F910895809110013C
:10185000982F990F990F990F982780913F0221E0B7
:10186000280F20933F028695869589279295969515
:10187000977089278093100108958093100108952F
:1018800080912E02811116C0F89486E080937C002E
:1018900083E880937A0080917A00806480937A0054
:1018A00080917A0086FDFCCF80917800909179003C
:1018B000789408958FEF9FEF08952F923F924F9263
:1018C0005F926F927F928F929F92AF92BF92CF92D0
:1018D000DF92EF92FF920F931F93CF93DF93CDB7D9
:1018E000DEB728970FB6F894DEBF0FBECDBF7C01E0
:1018F000DC0112960D90BC91A02DB887AF83A4385F
:10190000E3E0BE070CF477C0DC01ED90FC90809121
:10191000E1019091E201DD24DA948E159F0508F42F
:101920003BC20091E3011091E4010E151F0508F47C
:101930004AC30091E5011091E6010E151F0508F458
:1019400047C30091E7011091E8010E151F0508F447
:1019500044C30091E9011091EA010E151F0508F436
:1019600041C30091EB011091EC010E151F0508F425
:101970003EC30091ED011091EE010E151F0508F414
:101980003BC30091EF011091F0010E151F0508F403
:101990003CC30091F1011091F2010E151F0508F4EE
:1019A0003DC30091F3011091F4010E151F0508F4D9
:1019B00046C20091F5011091F6010E151F0508F4BD
:1019C00036C30091F7011091F8010E151F0508F4B8
:1019D00037C30091F9011091FA010E151F0508F4A3
:1019E00038C30091FB011091FC010E151F0508F48E
:1019F00039C31AE520C18091FD019091FE018A173B
:101A00009B0708F4B1C10091FF01109100020A1771
:101A10001B0708F4DBC100910102109102020A17B2
:101A20001B0708F4EEC200910302109104020A178A
:101A30001B0708F4EFC200910502109106020A1775
:101A40001B0708F4F8C100910702109108020A1759
:101A50001B0708F4E8C20091090210910A020A1754
:101A60001B0708F4E9C200910B0210910C020A173F
:101A70001B0708F4EAC200910D0210910E020A172A
:101A80001B0708F4EBC200910F02109110020A1715
:101A90001B0708F4ECC200911102109112020A1700
:101AA0001B0708F4E8C200911302109114020A17F0
:101AB0001B0708F4E4C200911502109116020A17E0
:101AC0001B0708F4E0C200911702109118028DE084
:101AD0002DE030E00A171B0708F47BC1412C512C84
:101AE00030ED3D8340E44E832CE0C22ED12CF60134
:101AF000EE0FFF1FE350FE4F80819181D801A81B9C
:101B0000B90B9D0150E040E029833A834B835C830D
:101B1000CA01BD010E9489199B01AC0169837A83C6
:101B20008B839C8369817A818B819C810E94701850
:101B30005B016C018F819885092E000CAA0BBB0BF1
:101B400089839A83AB83BC83BC01CD010E948B192E
:101B50003B014C01980150E040E029833A834B83DC
:101B60005C83CA01B8010E9489191B018C01920192
:101B70004D815E81A982BA82CB82DC8269817A81C1
:101B80008B819C810E943B1A9B01AC0129823A8285
:101B90000B831C8369817A818B819C810E946F18E1
:101BA0009B01AC0169827A828B829C8269817A81F5
:101BB0008B819C810E946F1820E030E040E251E46C
:101BC00069837A838B839C8369817A818B819C81F1
:101BD0000E943B1A69837A838B839C8369817A8113
:101BE0008B819C810E9453198B01A982BA82CB827E
:101BF000DC8269817A818B819C810E94531969837F
:101C00007A838B839C83C80169817A810E94CE1775
:101C1000D62E4F8158854D3B52400CF409C1D70157
:101C2000ED90FC908091E1019091E2018E159F056D
:101C300008F077CE10E0BFEF81E2810FDB1609F4E8
:101C4000ACC02D2D30E050E040E029833A834B8337
:101C50005C83CA01B9010E9489196B017C01812F43
:101C600090E0B0E0A0E089839A83AB83BC83BC01A1
:101C7000CD010E9489194B015C012F813885032E0B
:101C8000000C440B550B29833A834B835C83CA01B8
:101C9000B9010E948B198B018E839D839B01AC013E
:101CA00060E070E081E694E40E946F189601A7015D
:101CB00069837A838B839C8369817A818B819C8100
:101CC0000E943B1A6B017C0120E030E04FE254E4BB
:101CD00009831A838E818B839D819C8369817A819C
:101CE0008B819C810E946F189401A50169837A837E
:101CF0008B839C8369817A818B819C810E943B1AB2
:101D00009B01AC01C982DA82EB82FC8269817A8113
:101D10008B819C810E94701820E030E048E453E4FD
:101D200069837A838B839C8369817A818B819C818F
:101D30000E94E11820E030E044E052E469837A83B5
:101D40008B839C8369817A818B819C810E9470182E
:101D500069837A838B839C8369817A818B819C815F
:101D60000E945A19862F19C0AD3BB240ACF0D70182
:101D7000ED90FC908091E1019091E201D12C8E15C3
:101D80009F0508F0CECD812C912CA12CB12CC12C1B
:101D9000D12CE12CF12C71CF81E228960FB6F8946A
:101DA000DEBF0FBECDBFDF91CF911F910F91FF908E
:101DB000EF90DF90CF90BF90AF909F908F907F90EB
:101DC0006F905F904F903F902F90089581E021E0B9
:101DD00030E06901F1E0CF1AD108282F30E050E05F
:101DE00040E029833A834B835C83CA01B9010E9496
:101DF000891920E030E040E05FE369837A838B83D8
:101E00009C8369817A818B819C810E943B1A20E0AE
:101E100030E0A90169837A838B839C8369817A810D
:101E20008B819C810E9470182B018D839E835FCED5
:101E300081E2860FB2CF84E024E030E0CACF59E0DF
:101E4000652EE9E0F0E0EE0FFF1FE152FE4F8081CA
:101E50009181D801A81BB90B9D0150E040E0298376
:101E60003A834B835C83CA01BD010E9489199B019F
:101E7000AC0169837A838B839C8369817A818B81AE
:101E80009C810E947018962EA72EB82EC92EC701CD
:101E9000FF0CAA0BBB0B89839A83AB83BC83BC0169
:101EA000CD010E948B19762E872E7C01980150E07F
:101EB00040E029833A834B835C83CA01B8010E94C6
:101EC00089192B018C01862D90E0B0E0A0E0898378
:101ED0009A83AB83BC83BC01CD010E94891920E0A9
:101EE00030E040E05FE369837A838B839C83698180
:101EF0007A818B819C810E943B1A20E030E0A9010D
:101F000069837A838B839C8369817A818B819C81AD
:101F10000E947018292D3A2D4B2D5C2D69837A83F0
:101F20008B839C8369817A818B819C810E943B1A7F
:101F30009B01AC0149825A820B831C8369817A819F
:101F40008B819C810E946F189B01AC0179828A82EF
:101F5000EB82FC8269817A818B819C810E946F185F
:101F600020E030E040E251E469837A838B839C83F4
:101F700069817A818B819C810E943B1A69837A8373
:101F80008B839C8369817A818B819C810E94531908
:101F90008B019982AA82BB82CC8269817A818B81F2
:101FA0009C810E94531969837A838B839C83C80127
:101FB00069817A810E94CE17162F6F3F09F03BCEC0
:101FC00081E28D0DEACE66246394E1E0F0E03BCF40
:101FD00082E0682EE2E0F0E036CFB3E06B2EE3E083
:101FE000F0E031CFA4E06A2EE4E0F0E02CCFF5E0A1
:101FF0006F2EE5E0F0E027CFE6E06E2EE6E0F0E0C1
:1020000022CF82E022E030E0E4CE77E0672EE7E006
:10201000F0E019CF83E023E030E0DBCE68E0662E0D
:10202000E8E0F0E010CF85E025E030E0D2CE4AE0F5
:10203000642EEAE0F0E007CF86E026E030E0C9CE8B
:102040003BE0632EEBE0F0E0FECE87E027E030E0FF
:10205000C0CE2CE0622EECE0F0E0F5CE88E028E087
:1020600030E0B7CE9DE0692EEDE0F0E0ECCE89E007
:1020700029E030E0AECE8AE02AE030E0AACE8BE064
:102080002BE030E0A6CE8CE02CE030E0A2CE1F9218
:102090000F920FB60F9211242F933F934F935F939C
:1020A0006F937F938F939F93AF93BF93EF93FF9320
:1020B00080912502909126022091230230912402E2
:1020C000820F931F90932602809325028FEF90E05A
:1020D00090932402809323028FEF87BD80911F028B
:1020E00090912002A0912102B09122020196A11D9F
:1020F000B11D80931F0290932002A0932102B09300
:10210000220280912E0281110FC0809127029091AE
:10211000280220912502309126028217930720F48D
:1021200080914202843089F0FF91EF91BF91AF918D
:102130009F918F917F916F915F914F913F912F91DF
:102140000F900FBE0F901F901895E0911301F09122
:1021500014010995009741F30E94C913882351F097
:10216000E0911101F091120109951092260210924E
:102170002502DACF0E94931C9C0199279093240298
:102180008093230227BDD0CF80FF11C0559A81FFD5
:1021900011C0549A82FF11C03B9A83FF11C03A9A32
:1021A00084FF11C03D9A85FF11C03C9A089555984F
:1021B00081FDEFCF549882FDEFCF3B9883FDEFCFA9
:1021C0003A9884FDEFCF3D9885FDEFCF3C98089578
:1021D0001F921FB61F9211248F939F93109281001C
:1021E000109285001092840081E080932D028093EC
:1021F0002C0210922E0210927C0093EA90937A00A7
:1022000080937B009F918F911F901FBE1F90189508
:102210001F920F920FB60F9211240F931F932F93BB
:102220003F934F935F936F937F938F939F93AF935E
:10223000BF93EF93FF93CF93DF9300D000D0CDB740
:10224000DEB7209184003091850041E040932E025A
:1022500080912D028823D9F110928500109284007C
:102260004093810010922A0210922D0280912C023C
:102270008823A1F080917A0086FDFCCF80917800C0
:1022800090917900909332028093310281E08093A3
:102290007C0093EA90937A0080937B000F900F90DC
:1022A0000F900F90DF91CF91FF91EF91BF91AF9180
:1022B0009F918F917F916F915F914F913F912F915E
:1022C0001F910F910F900FBE0F901F901895C9018D
:1022D0008758910984379940A0F01092810010929C
:1022E00085001092840040932D0240932C0210929E
:1022F0002E0210927C0083EA80937A0040937B0048
:10230000CDCF26583109A4EFB0E00E940A186983A6
:102310007A838B839C83AA27BB271B81183008F400
:1023200065C040932D0280912C0281113CC08091A8
:102330002B02E82FF0E0ED5CFD4F90912A02908394
:102340008F5F80932B028C3009F0A8CF1092810010
:10235000109285001092840040932C0210922E025D
:1023600000913D0210913E0283E392E00E9411131E
:102370000817190709F092CFE0913C02E7FF47C028
:1023800098E79E0F933030F0539823981092B40042
:102390001092B300E058EB3008F080CFF0E0E7583F
:1023A000F14E0C94041880917A0086FDFCCF809148
:1023B0007800909179009093300280932F021092D0
:1023C0007C0083EA80937A0081E080937B00909187
:1023D0002A029923B9F01092810010928500109280
:1023E000840080932C0210922E0258CF21E030E01E
:1023F00001C0220F8A95EAF780912A02822B8093EE
:102400002A024CCF10922C0210922B0247CFE0915F
:102410001501F09116016FE272E083E392E00995F5
:102420003DCF80913302823009F485C008F06CC042
:10243000882309F4BEC080913402909135029093B4
:102440001E0280931D02109240028091420286304B
:1024500009F424CF539A239A1092B4001092B30037
:1024600086E0809342021ACF80914202863099F032
:10247000539A239A1092B4001092B300559854982E
:102480003B983A983D983C98109240021092410235
:1024900086E0809342022091330281E090E002C006
:1024A000880F991F2A95E2F720911D0230911E0294
:1024B00082239323892B09F479C081E08093400221
:1024C000EDCE82E080934202E9CE85E08093420225
:1024D000E5CE81E080934202E1CE10924202DECE50
:1024E00080914202833009F4D9CE80914202843037
:1024F00009F4D4CE539A239A1092B4001092B300E8
:1025000083E080934202CACE833061F1843009F0C7
:102510009CCF209140028091390290913802233063
:10252000C1F01092410223E02093400290931A02DE
:10253000809319028ACF90914002809136029130A7
:10254000F9F01092410291E09093400280931C02B6
:102550007CCF209119022813E4CF20911A02921304
:10256000E0CF73CF9091400280913702923069F0B2
:102570001092410292E09093400280931B0265CF3B
:1025800090911C029813DDCF60CF90911B0298139D
:10259000EFCF5BCFF0E0E0E0099580916E008D7F9A
:1025A00080936E0016BCE0E0F0E7099510924002BF
:1025B00075CE80914202863009F070CE60911D0286
:1025C00080EB90E00E943B1E60911E0281EB90E048
:1025D0000E943B1E60911C0285E090E00E943B1E21
:1025E00060911B0289E090E00E943B1E60911A02FC
:1025F0008CE090E00E943B1E6091190284E190E023
:102600000E943B1E539823981092B4001092B3007E
:1026100081E08093420280913302882309F43ECE08
:1026200014CFFC0120818FEF9FEF8227082E829527
:10263000807F8025092E982F82958F700826869599
:1026400098278927880F880F880F80252181822766
:10265000082E8295807F8025092E982F82958F7075
:102660000826869598278927880F880F880F802548
:1026700022818227082E8295807F8025092E982F1F
:1026800082958F700826869598278927880F880F4E
:10269000880F802523818227082E8295807F8025C0
:1026A000092E982F82958F7008268695982789275E
:1026B000880F880F880F802524818227082E829515
:1026C000807F8025092E982F82958F700826869509
:1026D00098278927880F880F880F802525818227D2
:1026E000082E8295807F8025092E982F82958F70E5
:1026F0000826869598278927880F880F880F8025B8
:1027000026818227082E8295807F8025092E982F8A
:1027100082958F700826869598278927880F880FBD
:10272000880F802527818227082E8295807F80252B
:10273000092E982F82958F700826869598278927CD
:10274000880F880F880F802520858227082E829584
:10275000807F8025092E982F82958F700826869578
:1027600098278927880F880F880F80252185822741
:10277000082E8295807F8025092E982F82958F7054
:102780000826869598278927880F880F880F802527
:1027900008950FB6F894A4B1209129022A2B24B9E8
:1027A00021E030912902203029F0000025B1232BAF
:1027B00025B904C000000000000000C000000000B7
:1027C0000000309525B1232325B92EEA2A95F1F78B
:1027D0002BEE30B735FF0AC0A4B9309129023095ED
:1027E00025B1232325B90FBE80E0089500002A9566
:1027F00081F721E030912902203029F0000025B135
:10280000232B25B904C000000000000000C0000018
:1028100000000000309525B1232325B9000024E5F0
:102820002A95F1F7FC018CE0619170E0660F771F4B
:10283000616072609AE041E050E09A0126233723FC
:10284000232B30912902203029F0000025B1232BC1
:1028500025B904C000000000000000C00000000016
:102860000000309525B1232325B9000021E52A95E4
:10287000F1F7440F551F9A9501F78A95A9F620B7ED
:10288000206120BFA4B930912902309525B12323BE
:1028900025B90FBE81E00895A3E1B0E0E2E5F4E1DF
:1028A0000C9424187C011B015A01DC0117961C9220
:1028B0001E92169713968C9181FF4DC3FE0131969F
:1028C0004F01D70113969C91F10193FD859193FFE0
:1028D00081911F01882309F4F1C2853239F493FDF7
:1028E000859193FF81911F01853239F4B70190E002
:1028F0000E94911D65015601E4CF10E0712C612CFE
:10290000BFE1B61538F08B3211F190F4803209F145
:10291000833229F167FC3CC020ED280F2A3050F5A6
:1029200066FE20C0EAE01E9F200D1124122F06C073
:102930008D3291F0803371F7689460F8F10193FD66
:10294000859193FF81911F018111DACF21C0689495
:1029500061F8689462F8F2CF689463F8EFCF6894F6
:1029600064F8ECCFFAE07F9E200D1124722E68945B
:1029700065F8E4CF8E3229F466FCA0C2689466F84C
:10298000DDCF8C3619F4689467F8D8CF8836B1F269
:102990009BEB980F933008F06FC0689464F8805EEA
:1029A00066FE16E0262D2F73622E853609F06CC068
:1029B000689466F867FE72C0812F1C3308F08BE3C1
:1029C00044244394480E27E0D5014D915D916D91CB
:1029D0007D916D014C875D876E877F87042DA401F3
:1029E0006C857D858E859F850E94A31C5C01B981C5
:1029F000BC87B0FF03C00DE2B3FF07C00BE261FC70
:102A000004C0062D047062FC00E2EC85EC705E2EC2
:102A100009F454C00111A2C2F3E0512CF715A0F43F
:102A200083E0572C581A63FC08C0B70180E290E09D
:102A30000E94911D5A945110F8CF002329F0B7013C
:102A4000802F90E00E94911DFC8508E610E0F3FDC8
:102A500002C00CE610E0262D2071622EF801849150
:102A6000811123C0552009F446CFB70180E290E0E0
:102A70000E94911D5A94F6CF9BE9980F933008F06D
:102A80002DC1E89464F88CCF863619F4689467F801
:102A900091CF112309F48ECF11508CCF212F1830F4
:102AA00010F027E017E0412C8FCF61108052B70162
:102AB00090E00E94911D0F5F1F4FD0CF67FE7AC03C
:102AC0004A0CFC85F4FF04C08A81813309F44A94DE
:102AD00014140CF092C028E0241510F488E0482E5D
:102AE00085E090E067FE06C0C501B7FE02C080E049
:102AF00090E0019601110196112331F0212F30E071
:102B00002F5F3F4F820F931F7816190619F014F0AC
:102B1000572C581A862D897011F4511073C0002358
:102B200029F0B701802F90E00E94911D63FC02C044
:102B300051106FC067FE88C03501B7FE02C0712C0E
:102B4000612CC50186199709A401480F591F598B9B
:102B5000488BB501641971097B8B6A8B012F10E0DA
:102B6000119501951109A614B7040CF459C0AA894E
:102B7000BB89A615B7050CF053C0E889F989818196
:102B8000F1E06F1A7108601671060CF44BC0B701C2
:102B900090E00E94911D2FEF6216720629F4B70192
:102BA0008EE290E00E94911D888999890196998B07
:102BB000888BD9CF66FC94CFE12FF0E0EA15FB05B6
:102BC0003CF03CEFA3163FEFB30614F0689467F8AF
:102BD0003296E80DF91D01C01150112319F08291B0
:102BE0008033D1F367FE7CCF44244394410E1A1501
:102BF0001B0431F02CF01A1973CF4424439470CF86
:102C000010E06ECFB70180E290E00E94911D5A94CF
:102C100084CFB70180E390E00E94911D5A9488CF41
:102C200080E3AECFA614B70441F49A81963350F4F2
:102C3000953319F43C8534FF05C0B70190E00E943C
:102C4000911D10CF81E3F9CF8A81813319F04C8532
:102C50004F7E4C87B70190E00E94911D112399F09F
:102C6000B7018EE290E00E94911D1E5F02E0802F6E
:102C70000F5FF401E80FF11D8081B70190E00E9421
:102C8000911D1013F4CF85E664FC85E490E0B70154
:102C90000E94911DB7FC06C0A114B104C1F45C856B
:102CA00054FF15C0B194A194B1088DE2B70190E032
:102CB0000E94911D80E37AE0A716B10454F4B70195
:102CC00090E00E94911DB701C501C096B8CF8BE27C
:102CD000EDCF8F5F6AE0A61AB108EDCF8336B9F069
:102CE000833709F43AC0833509F04DC0D501AD9062
:102CF000BD906D01612F70E066FC02C06FEF7FEF49
:102D0000C5010E947B1D8C01689467F80CC06501A9
:102D100082E0C80ED11CD5018C91898301E010E0BE
:102D20005401E89467F863FC04C07016110609F0BA
:102D300018F5572C0115110509F494CEF50167FC1F
:102D4000859167FE81915F01B70190E00E94911D1E
:102D500051105A9401501109EDCFF501A190B19095
:102D60006F01612F70E066FC02C06FEF7FEFC5015D
:102D70000E94861D8C01D5CFB70180E290E00E94B1
:102D8000911D7A94D2CF843619F0893609F06FC03C
:102D900067FE64C0F50161917191819191916F011C
:102DA000B62DBF766B2E97FF09C0909580957095D4
:102DB00061957F4F8F4F9F4F689467F82AE030E00E
:102DC000A4010E94D51DA82EA818BA2C062D66FEB7
:102DD0000AC00E7FA11638F464FE04C062FC02C073
:102DE000062D0E7EB12E04FF8EC0FE01EA0DF11DF0
:102DF0008081803309F080C0097E502F5870552E95
:102E000003FD90C000FF8AC01A2DB71410F4170DEF
:102E10001B1904FF8DC0B70180E390E00E94911D53
:102E200002FF07C088E701FD88E590E0B7010E9436
:102E3000911DA11608F488C0AA940A2D10E00F5F16
:102E40001F4F080D191DD8018E918D01B70190E01B
:102E50000E94911D08151905B1F704CED5016D9199
:102E60007D916D01072E000C880B990B99CF062DD3
:102E70008537E1F40F7E2AE030E007FF35C0D50149
:102E80004D915D916D917D916D014C875D876E8750
:102E90007F87A4016C857D858E859F850E94D51DC9
:102EA000A82EA818602EE89467F88FCF097F803786
:102EB00091F058F4883589F08F36A1F0F7018681BA
:102EC00097816396E2E10C9440188837B9F704FDC6
:102ED000046020E1D1CF0061FACF64FC066020E1FC
:102EE00032E0CBCF28E0C8CFF501819191916F01FD
:102EF000AC0170E060E0C9CF02FD02C0B3947DCFA9
:102F0000B394B3947ACF802F867809F476CFF6CF36
:102F1000B70180E290E00E94911DB394B714C0F312
:102F2000512C77CF572C5B18B71408F472CFF8CF19
:102F3000802F867809F47DCF8BE201FF80E207FDC8
:102F40008DE2B70190E073CFB70180E390E00E947B
:102F5000911D11506ECF8FEF9FEFB3CF24E0512C16
:102F6000271508F06CCD84E05CCD0E94D1080E944A
:102F700041028FEE90E0909316018093150189EE47
:102F800090E0909314018093130168E176E08FE064
:102F900091E00E94CB0990E080E0089597FB072E16
:102FA00016F4009407D077FD09D00E945B1807FC47
:102FB00005D03EF4909581959F4F08957095619549
:102FC0007F4F0895A1E21A2EAA1BBB1BFD010DC065
:102FD000AA1FBB1FEE1FFF1FA217B307E407F507C9
:102FE00020F0A21BB30BE40BF50B661F771F881FA5
:102FF000991F1A9469F760957095809590959B013B
:10300000AC01BD01CF010895EE0FFF1F0590F491B3
:10301000E02D0994A29FB001B39FC001A39F700D42
:10302000811D1124911DB29F700D811D1124911DD0
:1030300008950E940A18A59F900DB49F900DA49F1B
:10304000800D911D112408952F923F924F925F920F
:103050006F927F928F929F92AF92BF92CF92DF92A8
:10306000EF92FF920F931F93CF93DF93CDB7DEB70D
:10307000CA1BDB0B0FB6F894DEBF0FBECDBF0994A1
:103080002A88398848885F846E847D848C849B84F8
:10309000AA84B984C884DF80EE80FD800C811B8106
:1030A000AA81B981CE0FD11D0FB6F894DEBF0FBE35
:1030B000CDBFED010895AA1BBB1B51E107C0AA1F9C
:1030C000BB1FA617B70710F0A61BB70B881F991FC9
:1030D0005A95A9F780959095BC01CD010895505857
:1030E000BB27AA270E9487180C94011A0E94F31983
:1030F00038F00E94FA1920F039F49F3F19F426F4B1
:103100000C94F0190EF4E095E7FB0C94EA19E92F02
:103110000E94121A58F3BA176207730784079507BB
:1031200020F079F4A6F50C94341A0EF4E0950B2EE9
:10313000BA2FA02D0B01B90190010C01CA01A00109
:103140001124FF27591B99F0593F50F4503E68F164
:103150001A16F040A22F232F342F4427585FF3CFA5
:10316000469537952795A795F0405395C9F77EF476
:103170001F16BA0B620B730B840BBAF09150A1F0BF
:10318000FF0FBB1F661F771F881FC2F70EC0BA0F45
:10319000621F731F841F48F4879577956795B795CD
:1031A000F7959E3F08F0B0CF9395880F08F09927C8
:1031B000EE0F9795879508950E94C61908F481E04F
:1031C00008950E94F5180C94011A0E94FA1958F0FB
:1031D0000E94F31940F029F45F3F29F00C94EA199A
:1031E00051110C94351A0C94F0190E94121A68F3BC
:1031F0009923B1F3552391F3951B550BBB27AA27B0
:1032000062177307840738F09F5F5F4F220F331FE9
:10321000441FAA1FA9F335D00E2E3AF0E0E832D0B1
:1032200091505040E695001CCAF72BD0FE2F29D0B4
:10323000660F771F881FBB1F261737074807AB0786
:10324000B0E809F0BB0B802DBF01FF2793585F4FFB
:103250003AF09E3F510578F00C94EA190C94351A17
:103260005F3FE4F3983ED4F3869577956795B795DD
:10327000F7959F5FC9F7880F911D9695879597F9E8
:103280000895E1E0660F771F881FBB1F6217730761
:103290008407BA0720F0621B730B840BBA0BEE1F76
:1032A00088F7E09508950E945A196894B1110C941A
:1032B000351A08950E941A1A88F09F5798F0B92F6E
:1032C0009927B751B0F0E1F0660F771F881F991F5B
:1032D0001AF0BA95C9F714C0B13091F00E94341AAF
:1032E000B1E008950C94341A672F782F8827B85FBF
:1032F00039F0B93FCCF3869577956795B395D9F7B3
:103300003EF490958095709561957F4F8F4F9F4FBC
:103310000895E89409C097FB3EF4909580957095C8
:1033200061957F4F8F4F9F4F9923A9F0F92F96E911
:10333000BB279395F695879577956795B795F11186
:10334000F8CFFAF4BB0F11F460FF1BC06F5F7F4F23
:103350008F4F9F4F16C0882311F096E911C0772335
:1033600021F09EE8872F762F05C0662371F096E83E
:10337000862F70E060E02AF09A95660F771F881F0D
:10338000DAF7880F9695879597F90895990F0008B1
:10339000550FAA0BE0E8FEEF16161706E807F90727
:1033A000C0F012161306E407F50798F0621B730BC2
:1033B000840B950B39F40A2661F0232B242B252B43
:1033C00021F408950A2609F4A140A6958FEF811DE6
:1033D000811D089597F99F6780E870E060E0089587
:1033E0009FEF80EC089500240A941616170618061D
:1033F0000906089500240A941216130614060506F9
:103400000895092E0394000C11F4882352F0BB0F89
:1034100040F4BF2B11F460FF04C06F5F7F4F8F4FEC
:103420009F4F089557FD9058440F551F59F05F3F27
:1034300071F04795880F97FB991F61F09F3F79F0D6
:1034400087950895121613061406551FF2CF469558
:10345000F1DF08C0161617061806991FF1CF8695DA
:103460007105610508940895E894BB2766277727BE
:10347000CB0197F908950E944E1A0C94011A0E94EC
:10348000F31938F00E94FA1920F0952311F00C94EA
:10349000EA190C94F01911240C94351A0E94121A8E
:1034A00070F3959FC1F3950F50E0551F629FF00197
:1034B000729FBB27F00DB11D639FAA27F00DB11DB0
:1034C000AA1F649F6627B00DA11D661F829F222739
:1034D000B00DA11D621F739FB00DA11D621F839FC0
:1034E000A00D611D221F749F3327A00D611D231F96
:1034F000849F600D211D822F762F6A2F11249F57E4
:1035000050409AF0F1F088234AF0EE0FFF1FBB1FE6
:10351000661F771F881F91505040A9F79E3F5105A5
:1035200080F00C94EA190C94351A5F3FE4F3983E4E
:10353000D4F3869577956795B795F795E7959F5F4F
:10354000C1F7FE2B880F911D9695879597F90895E1
:1035500019F416F40C94F0190C94EE1A0E941A1A2D
:10356000B8F39923C9F3B6F39F57550B87FF0E9411
:10357000FC1A0024A0E640EA9001805856959795E1
:1035800028F4805C660F771F881F20F02617370706
:10359000480730F4621B730B840B202931294A2B16
:1035A000A69517940794202531254A2758F7660FCA
:1035B000771F881F20F026173707480730F4620B63
:1035C000730B840B200D311D411DA09581F7B901AE
:1035D000842F9158880F9695879508959F3F31F0D5
:1035E000915020F4879577956795B795880F911D31
:1035F0009695879597F9089591505040660F771FDB
:10360000881FD2F708950F931F93CF93DF939C01E8
:10361000029710F422E030E0E0914302F09144027E
:1036200090E080E0B0E0A0E0309791F4009709F4DA
:1036300045C0821B930B84309105B8F58A819B812C
:103640006115710569F1FB0193838283FE0111C04D
:10365000408151810281138142175307F0F04217D4
:10366000530799F4109761F012960C9312971396E2
:103670001C933296CF01DF91CF911F910F91089546
:103680000093430210934402F4CF009719F04817B7
:10369000590718F4CA01BD01EF01DF01F801C4CFD9
:1036A0009093440280934302D1CFFE01E80FF91FAB
:1036B00021933193029799838883DCCF80914502CF
:1036C00090914602892B41F48091190190911A0141
:1036D00090934602809345028091170190911801C2
:1036E000009741F48DB79EB740911B0150911C018A
:1036F000841B950B4091450250914602481759078B
:1037000008F0B8CF841B950B8217930708F4B2CF4B
:10371000B9016E5F7F4F8617970708F4ABCF640F30
:10372000751F7093460260934502FA01219331930D
:10373000A1CFCF93DF939C010097E9F0FC01329772
:1037400013821282C0914302D0914402DE0190E0C4
:1037500080E02097A1F480819181280F391F80910A
:103760004502909146028217930709F067C0F093D3
:103770004602E0934502DF91CF910895DA01AE173A
:10378000BF0708F041C012964D915C911397CD018F
:103790004115510599F7DC011396FC93EE931297AE
:1037A0004D915D91A40FB51FEA17FB0781F42081AD
:1037B00031812E5F3F4F240F351FDC0111963C9362
:1037C0002E932281338113963C932E931297B0E06F
:1037D000A0E08A819B810097B1F5FE0181919191D2
:1037E000E80FF91F80914502909146028E179F07BE
:1037F00011F6109759F51092440210924302D0939B
:103800004602C0934502B7CFB383A2834081518162
:10381000240F351FA217B30771F44E5F5F4F2D9130
:103820003C911197420F531F5183408312962D9163
:103830003C9133832283009709F0ADCFF09344028B
:10384000E093430298CFDE01EC01C3CF13961C92A4
:103850001E921297D4CFCF92DF92EF92FF92CF9326
:10386000DF93CDB7DEB72A970FB6F894DEBF0FBE51
:10387000CDBF89879A87A985BA852D913D914D91B4
:103880005C9129833A834B835C83232B242B252B48
:1038900041F424E239ED4BE557E029833A834B8329
:1038A0005C8369817A818B819C812DE133EF41E0DA
:1038B00050E00E94491E69017A01A7EAB1E49B0128
:1038C000AC010E94191869837A838B839C83ACEEC8
:1038D000B4EFA70196010E946B1E9B01AC01898188
:1038E0009A81AB81BC81820F931FA41FB51FB7FFC4
:1038F00003C00197A109B048E985FA8580839183C7
:10390000A283B3839F772A960FB6F894DEBF0FBECB
:10391000CDBFDF91CF91FF90EF90DF90CF900895D2
:103920000E942B1C08958DE191E00E942B1C0895AC
:10393000B0E0A0E080931D0190931E01A0931F01B1
:10394000B09320010895283008F027E03327DA01EA
:10395000990F311D87FD916000966105710539F45D
:1039600032602E5F3D9330E32A95E1F708959F3F43
:1039700030F080387105610509F03C5F3C5F3D9394
:10398000913008F08068911DDF93CF931F930F93C0
:10399000FF92EF92192F987F9695E92F969596951D
:1039A000E90FFF27E653FF4F99273327EE24FF2423
:1039B000A701E70105900894079428F4360FE71E45
:1039C000F81E491F511D660F771F881F991F069407
:1039D000A1F70590079428F4E70EF81E491F561F1B
:1039E000C11D770F881F991F661F0694A1F70590C8
:1039F000079428F4F80E491F561FC71FD11D880FC2
:103A0000991F661F771F0694A1F70590079420F46D
:103A1000490F561FC71FD81F990F661F771F881F92
:103A20000694A9F784911095177041F0D695C79523
:103A300057954795F794E7941A95C1F7E0E7F0E0BA
:103A400068941590159135916591959105907FE257
:103A50007395E118F10A430B560BC90BD009C0F757
:103A6000E10CF11E431F561FC91FD01D7EF4703399
:103A700011F48A95E6CFE894015030F0080F0AF46B
:103A80000027021708F4202F2395022F7A3328F0FD
:103A900079E37D932A95E9F710C07D932A9589F6FD
:103AA000069497956795379517951794E118F10A3D
:103AB000430B560BC90BD00998F023957E91739553
:103AC0007A3308F070E37C932013B8F77E9170612D
:103AD0007D9330F0839571E37D9370E32A95E1F750
:103AE0001124EF90FF900F911F91CF91DF919927B3
:103AF00087FD90950895FC0105906150704001107C
:103B0000D8F7809590958E0F9F1F0895FC01615006
:103B1000704001900110D8F7809590958E0F9F1FEF
:103B200008950F931F93CF93DF93182F092FEB0165
:103B30008B8181FD09C01FEF0FEF812F902FDF9147
:103B4000CF911F910F91089582FF14C02E813F8164
:103B50008C819D81281739073CF4E881F981CF01D8
:103B600001969983888310838E819F8101969F831C
:103B70008E83E3CFE885F985812F0995892BA1F301
:103B8000DACFB0E0A0E0E7ECFDE10C943418FE01E0
:103B9000359661917191AF018091490290914A02ED
:103BA0000E944C14E2E00C945018FA01AA27283025
:103BB00051F1203181F1E8946F936E7F6E5F7F4FFA
:103BC0008F4F9F4FAF4FB1E03ED0B4E03CD0670F76
:103BD000781F891F9A1FA11D680F791F8A1F911DC9
:103BE000A11D6A0F711D811D911DA11D20D009F419
:103BF00068943F912AE0269F11243019305D31935B
:103C0000DEF6CF010895462F4770405D4193B3E043
:103C10000FD0C9F7F6CF462F4F70405D4A3318F0EA
:103C2000495D31FD4052419302D0A9F7EACFB4E09B
:103C3000A6959795879577956795BA95C9F7009753
:103C40006105710508959B01AC010A2E06945795F4
:103C5000479537952795BA95C9F7620F731F841F4B
:103C6000951FA01D0895F999FECF92BD81BDF89AC8
:103C7000992780B50895262FF999FECF1FBA92BDD6
:103C800081BD20BD0FB6F894FA9AF99A0FBE01963D
:103C90000895052E97FB1EF400940E94601E57FDA8
:103CA00007D00E94E21707FC03D04EF40C94601E6C
:103CB00050954095309521953F4F4F4F5F4F089558
:103CC00090958095709561957F4F8F4F9F4F089588
:103CD000B7FF0C9419180E941918821B930B0895B2
:103CE000F894FFCF350A190AED09E309EA09930AA6
:103CF000880ACD124E114E11CA126D126912651248
:083D000061127012341211125D
:103D08000000000200000000E00000000000660162
:103D1800AAD008CD08CC0800004D02200001000000
:103D2800004E65696768626F722049443A202564CD
:103D38000A00436F6E7461646F723A20256C640ADE
:103D4800005469636B733A20256C640A004D6573EF
:103D580073616765732052656365697665643A20A7
:063D6800256C640A000056
:00000001FF
