:100000000C94B5000C94DE000C94DE000C94DE0021
:100010000C94DE000C94DE000C941B020C94DE00A9
:100020000C94DE000C94DE000C94DE000C944F095E
:100030000C94DE000C94DE000C94AE080C94DE00F0
:100040000C94DE000C94DE000C94DE000C94DE00B8
:100050000C94DE000C94DE000C94DE000C946F090E
:100060000C94DE000C94DE006E616E00696E66001A
:1000700000407A10F35A00A0724E18090010A5D45F
:10008000E80000E87648170000E40B54020000CABC
:100090009A3B000000E1F505000080969800000002
:1000A00040420F000000A086010000001027000061
:1000B0000000E803000000006400000000000A00E7
:1000C000000000000100000000002C76D888DC67EA
:1000D0004F0823DFC1DFAE59E1B1B796E5E3E45342
:1000E000C63AE651997696E8E6C28426EB898C9B5F
:1000F00062ED407C6FFCEFBC9C9F40F2BAA56FA5FF
:10010000F490055A2AF75C936B6CF9676DC11BFC80
:10011000E0E40D47FEF520E6B500D0ED902E03009B
:10012000943577050080841E080000204E0A0000E8
:1001300000C80C333333330F986E12831141EF8DA7
:100140002114893BE65516CFFEE6DB18D1844B38E7
:100150001BF77C1D901DA4BBE424203284725E2218
:100160008100C9F124ECA1E53D2711241FBECFEF8A
:10017000D8E0DEBFCDBF14BE0FB6F894A89580912D
:100180006000886180936000109260000FBE11E0F3
:10019000A0E0B1E0EAE3FAE202C005900D92A438D3
:1001A000B107D9F721E0A4E8B1E001C01D92A63E55
:1001B000B207E1F70E941C100C9409150C94000082
:1001C0000895AF92BF92CF92DF92EF92FF920F937A
:1001D0001F93CF93DF9327E4A22E21E0B22E0BE0F2
:1001E00011E0C0E2D0E084E00E942B09F501C1904B
:1001F000D190E190F1905F0199278F2D7E2D6D2D8B
:10020000CE010E94A71480E00E942B096C2DCE0124
:1002100001960E94A71484E00E942B09F801C19066
:10022000D190E190F1908F0199278F2D7E2D6D2D2A
:10023000CE01C0960E94A71480E00E942B096C2D6D
:10024000CE01C1960E94A7142296CE33D10559F64D
:10025000DF91CF911F910F91FF90EF90DF90CF90A2
:10026000BF90AF900895089590E080E008950895BC
:10027000BF92CF92DF92EF92FF920F931F93CF9393
:10028000DF93F89414B817B81AB815B818B81BB893
:10029000529A5A9A14BC85E085BD8FEF87BD82E0E3
:1002A00080936E0010928000109281002FE83BE056
:1002B000309389002093880080936F00539823988F
:1002C00091EA9093B0008093B1001092B400109224
:1002D000B3008BE080BF83E080937F0086E0809353
:1002E0007C0083E880937A0080917A008064809318
:1002F0007A0080917A0086FDFCCF10927C0083EA20
:1003000080937A0081E080937B0081E090E00E94FE
:100310009F148F3F11F0809366001092D101C1E0CD
:10032000C093D001C093CF011092CE011092CD01A5
:1003300080E990E00E949F148093CC018091CC01D1
:10034000887311F0C093CC011092C9011092C801BA
:100350008FEF90E09093C7018093C6011092C20185
:100360001092C3011092C4011092C50181E08093E4
:10037000E50182E49FE09093CB018093CA0180EB7A
:1003800090E00E949F14C82F81EB90E00E949F1480
:10039000D82FD093C101C093C00185E090E00E94A6
:1003A0009F148093BF0189E090E00E949F14809386
:1003B000BE018CE090E00E949F148093BD0184E117
:1003C00090E00E949F148093BC0104E811E080EA51
:1003D000E82E81E0F82E90EAC92E91E0D92EC0E2F5
:1003E000D0E0CE010E949F14B82ECE0101960E944B
:1003F0009F149B2DF801819391938F01CE01C0969C
:100400000E949F14B82ECE01C1960E949F149B2D6E
:10041000F701819391937F012296C016D10609F7C7
:100420007894DF91CF911F910F91FF90EF90DF9023
:10043000CF90BF9008950F920FB60F921F92112484
:100440008F930FB6F894A89580916000886180938F
:100450006000109260000FBE8F911F900F900FBE32
:100460000F9018953C01EB0110E099249A9484E0D8
:10047000C82E96E0A92E23E8B22E38E1D32E49E209
:10048000E42EE091E501E730E0F7F0E0E55FFA4EB9
:100490000C943B10111102C0F3010995C092E501C3
:1004A00011E0FE010995EDCF8091D101811103C1C9
:1004B000F894A0927C00B0927A0080917A008064D7
:1004C00080937A0080917A0086FDFCCF809178003D
:1004D0009091790078948B3AE2E09E070CF0E4C0AA
:1004E0008938F2E09F070CF0EDC0873692400CF49B
:1004F000E2C0559A549A3B9A3A9A3D983C98C1CF9B
:10050000559854983B9A3A9A3D983C98EFECF7E00E
:100510003197F1F700C00000559854983B983A98ED
:100520003D983C98FFEF21EE84E0F1502040804060
:10053000E1F700C00000A5CFF89480B7877F80BFA7
:1005400080917A008F7780937A0014B817B81AB820
:1005500015B818B81BB80FB6F894A895D0926000DB
:100560000FBEE09260008091600080648093600024
:1005700083B7817F846083BFF89483B7816083BF32
:100580007894889583B78E7F83BF78941092D10139
:10059000529A5A9A80917A00806880937A0087E50F
:1005A00092E00197F1F700C0000080B7886180BF3A
:1005B000559A549A3B9A3A9A3D9A3C9AEFE1FEE456
:1005C0003197F1F700C000008091D10181115CC02A
:1005D000559854983B983A983D983C9852CF8091C2
:1005E000E301811125C01092B3001092B400109263
:1005F000E40147CF4899ECCF559A54983B983A98E4
:100600003D983C988FEC97E00197F1F700C000000F
:10061000559854983B983A983D983C989FEFE1EE56
:10062000F4E09150E040F040E1F700C0000029CF35
:100630009091E3018091E401981709F422CF809111
:10064000E3018093E4018091E301813009F441C02A
:100650008091E3011092B3009092B400823009F4CB
:1006600049C09092B3009092B4008FE295E7019751
:10067000F1F700C000008091BC019091BD01909302
:10068000B3008093B400FDCE559A549A3B983A98A3
:100690003D983C98FFEF20E782E0F15020408040F9
:1006A000E1F700C0000094CF559854983B9A3A9ACD
:1006B0003D983C98E6CE559A549A3B983A983D9886
:1006C0003C98DFCE559854983B983A983D9A3C9A7E
:1006D000D8CE9092B3001092B4008FE295E70197C4
:1006E000F1F700C000008091BF018093B300109229
:1006F000B400C7CEEFE2F5E73197F1F700C0000094
:100700008091BE011092B3008093B400BACE9C01D8
:10071000892B49F08FEC97E00197F1F700C00000BA
:1007200021503109B9F708958093B3006093B40064
:1007300008958FEF8093B3008093B4008FEC97E01F
:100740000197F1F700C000008FEC97E00197F1F7F7
:1007500000C000008FEC97E00197F1F700C00000A7
:100760008FEC97E00197F1F700C000008FEC97E065
:100770000197F1F700C000008FEC97E00197F1F7C7
:1007800000C000008FEC97E00197F1F700C0000077
:100790008FEC97E00197F1F700C000008FEC97E035
:1007A0000197F1F700C000008FEC97E00197F1F797
:1007B00000C000008FEC97E00197F1F700C0000047
:1007C0008FEC97E00197F1F700C000008FEC97E005
:1007D0000197F1F700C000008FEC97E00197F1F767
:1007E00000C000008FEC97E00197F1F700C0000017
:1007F00008958091D10181111EC0F89487E0809303
:100800007C0083E880937A0080917A0080648093F2
:100810007A0080917A0086FDFCCF809178009091DB
:10082000790010927C0023EA20937A0021E0209343
:100830007B00789408958FEF9FEF08958091D10108
:1008400081111EC0F89488EC80937C0087E8809327
:100850007A0080917A00806480937A0080917A0097
:1008600086FDFCCF809178009091790010927C00F9
:1008700023EA20937A0021E020937B007894089566
:100880008FEF9FEF08951F93CF93DF93F0E0E0E0A9
:1008900080E016E0D3E8C3EA71E0A1E0B0E060E8F0
:1008A000F89410937C00D0937A0090917A00906431
:1008B00090937A0090917A0096FDFCCF2091780079
:1008C00030917900217090917A00906490937A0031
:1008D00090917A0096FDFCCF40917800509179007C
:1008E00010927C00C0937A0070937B0078944170E2
:1008F000241302C06150A1F6222339F09D010E2E6F
:1009000001C0220F0A94EAF7822B3196E830F105F4
:1009100031F6DF91CF911F91089580910001982FBA
:10092000990F990F990F98278091E20121E0280FE4
:100930002093E201869586958927929596959770E2
:100940008927809300010895809300010895809184
:10095000D101811116C0F89486E080937C0083E871
:1009600080937A0080917A00806480937A008091ED
:100970007A0086FDFCCF8091780090917900789480
:1009800008958FEF9FEF08952F923F924F925F92BD
:100990006F927F928F929F92AF92BF92CF92DF928F
:1009A000EF92FF920F931F93CF93DF93CDB7DEB7F4
:1009B00028970FB6F894DEBF0FBECDBF7C01DC01D7
:1009C00012960D90BC91A02DB887AF83A438E3E0B8
:1009D000BE070CF477C0DC01ED90FC90809184019F
:1009E00090918501DD24DA948E159F0508F43BC2B1
:1009F00000918601109187010E151F0508F44AC366
:100A000000918801109189010E151F0508F447C354
:100A100000918A0110918B010E151F0508F444C343
:100A200000918C0110918D010E151F0508F441C332
:100A300000918E0110918F010E151F0508F43EC321
:100A400000919001109191010E151F0508F43BC310
:100A500000919201109193010E151F0508F43CC3FB
:100A600000919401109195010E151F0508F43DC3E6
:100A700000919601109197010E151F0508F446C2CA
:100A800000919801109199010E151F0508F436C3C5
:100A900000919A0110919B010E151F0508F437C3B0
:100AA00000919C0110919D010E151F0508F438C39B
:100AB00000919E0110919F010E151F0508F439C386
:100AC0001AE520C18091A0019091A1018A179B078E
:100AD00008F4B1C10091A2011091A3010A171B07EC
:100AE00008F4DBC10091A4011091A5010A171B07AE
:100AF00008F4EEC20091A6011091A7010A171B0786
:100B000008F4EFC20091A8011091A9010A171B0770
:100B100008F4F8C10091AA011091AB010A171B0754
:100B200008F4E8C20091AC011091AD010A171B074F
:100B300008F4E9C20091AE011091AF010A171B073A
:100B400008F4EAC20091B0011091B1010A171B0725
:100B500008F4EBC20091B2011091B3010A171B0710
:100B600008F4ECC20091B4011091B5010A171B07FB
:100B700008F4E8C20091B6011091B7010A171B07EB
:100B800008F4E4C20091B8011091B9010A171B07DB
:100B900008F4E0C20091BA011091BB018DE02DE094
:100BA00030E00A171B0708F47BC1412C512C30EDB3
:100BB0003D8340E44E832CE0C22ED12CF601EE0F93
:100BC000FF1FE056FE4F80819181D801A81BB90B11
:100BD0009D0150E040E029833A834B835C83CA0146
:100BE000BD010E94B0119B01AC0169837A838B83A4
:100BF0009C8369817A818B819C810E949C105B011E
:100C00006C018F819885092E000CAA0BBB0B898380
:100C10009A83AB83BC83BC01CD010E94B2113B011E
:100C20004C01980150E040E029833A834B835C8378
:100C3000CA01B8010E94B0111B018C0192014D81C3
:100C40005E81A982BA82CB82DC8269817A818B81C2
:100C50009C810E943E129B01AC0129823A820B8347
:100C60001C8369817A818B819C810E949B109B01EE
:100C7000AC0169827A828B829C8269817A818B81C4
:100C80009C810E949B1020E030E040E251E46983A7
:100C90007A838B839C8369817A818B819C810E947A
:100CA0003E1269837A838B839C8369817A818B81ED
:100CB0009C810E947A118B01A982BA82CB82DC824C
:100CC00069817A818B819C810E947A1169837A8300
:100CD0008B839C83C80169817A810E942710D62E5C
:100CE0004F8158854D3B52400CF409C1D701ED901E
:100CF000FC9080918401909185018E159F0508F0EC
:100D000077CE10E0BFEF81E2810FDB1609F4ACC0B3
:100D10002D2D30E050E040E029833A834B835C8303
:100D2000CA01B9010E94B0116B017C01812F90E0D2
:100D3000B0E0A0E089839A83AB83BC83BC01CD0182
:100D40000E94B0114B015C012F813885032E000CED
:100D5000440B550B29833A834B835C83CA01B90149
:100D60000E94B2118B018E839D839B01AC0160E0D8
:100D700070E081E694E40E949B109601A7016983CC
:100D80007A838B839C8369817A818B819C810E9489
:100D90003E126B017C0120E030E04FE254E4098315
:100DA0001A838E818B839D819C8369817A818B815B
:100DB0009C810E949B109401A50169837A838B8397
:100DC0009C8369817A818B819C810E943E129B0168
:100DD000AC01C982DA82EB82FC8269817A818B81E3
:100DE0009C810E949C1020E030E048E453E4698339
:100DF0007A838B839C8369817A818B819C810E9419
:100E0000081120E030E044E052E469837A838B8368
:100E10009C8369817A818B819C810E949C1069836B
:100E20007A838B839C8369817A818B819C810E94E8
:100E30008111862F19C0AD3BB240ACF0D701ED90C7
:100E4000FC908091840190918501D12C8E159F0595
:100E500008F0CECD812C912CA12CB12CC12CD12C01
:100E6000E12CF12C71CF81E228960FB6F894DEBF09
:100E70000FBECDBFDF91CF911F910F91FF90EF90EB
:100E8000DF90CF90BF90AF909F908F907F906F90AA
:100E90005F904F903F902F90089581E021E030E0E7
:100EA0006901F1E0CF1AD108282F30E050E040E08E
:100EB00029833A834B835C83CA01B9010E94B01134
:100EC00020E030E040E05FE369837A838B839C839A
:100ED00069817A818B819C810E943E1220E030E002
:100EE000A90169837A838B839C8369817A818B8151
:100EF0009C810E949C102B018D839E835FCE81E29A
:100F0000860FB2CF84E024E030E0CACF59E0652EEE
:100F1000E9E0F0E0EE0FFF1FEE57FE4F8081918178
:100F2000D801A81BB90B9D0150E040E029833A830A
:100F30004B835C83CA01BD010E94B0119B01AC01CF
:100F400069837A838B839C8369817A818B819C817D
:100F50000E949C10962EA72EB82EC92EC701FF0CFA
:100F6000AA0BBB0B89839A83AB83BC83BC01CD01E5
:100F70000E94B211762E872E7C01980150E040E04D
:100F800029833A834B835C83CA01B8010E94B01164
:100F90002B018C01862D90E0B0E0A0E089839A833C
:100FA000AB83BC83BC01CD010E94B01120E030E0D6
:100FB00040E05FE369837A838B839C8369817A81D4
:100FC0008B819C810E943E1220E030E0A901698360
:100FD0007A838B839C8369817A818B819C810E9437
:100FE0009C10292D3A2D4B2D5C2D69837A838B83A0
:100FF0009C8369817A818B819C810E943E129B0136
:10100000AC0149825A820B831C8369817A818B816E
:101010009C810E949B109B01AC0179828A82EB82A9
:10102000FC8269817A818B819C810E949B1020E0E7
:1010300030E040E251E469837A838B839C83698149
:101040007A818B819C810E943E1269837A838B8393
:101050009C8369817A818B819C810E947A118B01AA
:101060009982AA82BB82CC8269817A818B819C81A0
:101070000E947A1169837A838B839C83C80169817A
:101080007A810E942710162F6F3F09F03BCE81E234
:101090008D0DEACE66246394E1E0F0E03BCF82E080
:1010A000682EE2E0F0E036CFB3E06B2EE3E0F0E054
:1010B00031CFA4E06A2EE4E0F0E02CCFF5E06F2E13
:1010C000E5E0F0E027CFE6E06E2EE6E0F0E022CFAC
:1010D00082E022E030E0E4CE77E0672EE7E0F0E067
:1010E00019CF83E023E030E0DBCE68E0662EE8E055
:1010F000F0E010CF85E025E030E0D2CE4AE0642E6B
:10110000EAE0F0E007CF86E026E030E0C9CE3BE041
:10111000632EEBE0F0E0FECE87E027E030E0C0CECB
:101120002CE0622EECE0F0E0F5CE88E028E030E044
:10113000B7CE9DE0692EEDE0F0E0ECCE89E029E04D
:1011400030E0AECE8AE02AE030E0AACE8BE02BE0A1
:1011500030E0A6CE8CE02CE030E0A2CE1F920F92C1
:101160000FB60F9211242F933F934F935F936F937A
:101170007F938F939F93AF93BF93EF93FF93809150
:10118000C8019091C9012091C6013091C701820F19
:10119000931F9093C9018093C8018FEF90E09093C3
:1011A000C7018093C6018FEF87BD8091C2019091E6
:1011B000C301A091C401B091C5010196A11DB11D4B
:1011C0008093C2019093C301A093C401B093C50161
:1011D0008091D10181110FC08091CA019091CB0102
:1011E0002091C8013091C9018217930720F48091A2
:1011F000E501843089F0FF91EF91BF91AF919F910C
:101200008F917F916F915F914F913F912F910F90AF
:101210000FBE0F901F901895E0910301F09104010B
:101220000995009741F30E94300C882351F0E0911A
:101230000101F091020109951092C9011092C801B3
:10124000DACF0E9413139C0199279093C7018093D2
:10125000C60127BDD0CF80FF11C0559A81FF11C0B4
:10126000549A82FF11C03B9A83FF11C03A9A84FFBF
:1012700011C03D9A85FF11C03C9A0895559881FD93
:10128000EFCF549882FDEFCF3B9883FDEFCF3A9894
:1012900084FDEFCF3D9885FDEFCF3C9808951F92D8
:1012A0001FB61F9211248F939F931092810010926A
:1012B00085001092840081E08093D0018093CF015B
:1012C0001092D10110927C0093EA90937A0080935F
:1012D0007B009F918F911F901FBE1F9018951F92AA
:1012E0000F920FB60F9211240F931F932F933F93DA
:1012F0004F935F936F937F938F939F93AF93BF931E
:10130000EF93FF93CF93DF9300D000D0CDB7DEB73C
:10131000209184003091850041E04093D10180917B
:10132000D0018823D9F11092850010928400409357
:1013300081001092CD011092D0018091CF018823BD
:10134000A1F080917A0086FDFCCF80917800909189
:1013500079009093D5018093D40181E080937C0043
:1013600093EA90937A0080937B000F900F900F90F8
:101370000F90DF91CF91FF91EF91BF91AF919F912E
:101380008F917F916F915F914F913F912F911F911D
:101390000F910F900FBE0F901F901895C90187589D
:1013A000910984379940A0F0109281001092850035
:1013B000109284004093D0014093CF011092D1014C
:1013C00010927C0083EA80937A0040937B00CDCF1B
:1013D00026583109A4EFB0E00E94411069837A8356
:1013E0008B839C83AA27BB271B81183008F465C018
:1013F0004093D0018091CF0181113CC08091CE01FA
:10140000E82FF0E0EA52FE4F9091CD0190838F5F7C
:101410008093CE018C3009F0A8CF109281001092F9
:101420008500109284004093CF011092D101009169
:10143000E0011091E10186ED91E00E94780B081720
:10144000190709F092CFE091DF01E7FF47C098E765
:101450009E0F933030F0539823981092B40010925E
:10146000B300E058EB3008F080CFF0E0EE5EFA4ECB
:101470000C943B1080917A0086FDFCCF809178001F
:10148000909179009093D3018093D20110927C00C7
:1014900083EA80937A0081E080937B009091CD0174
:1014A0009923B9F010928100109285001092840067
:1014B0008093CF011092D10158CF21E030E001C0DC
:1014C000220F8A95EAF78091CD01822B8093CD017E
:1014D0004CCF1092CF011092CE0147CFE091050181
:1014E000F091060162ED71E086ED91E009953DCF46
:1014F0008091D601823009F485C008F06CC0882341
:1015000009F4BEC08091D7019091D8019093C10198
:101510008093C0011092E3018091E501863009F4C7
:1015200024CF539A239A1092B4001092B30086E00D
:101530008093E5011ACF8091E501863099F0539AA6
:10154000239A1092B4001092B300559854983B9887
:101550003A983D983C981092E3011092E40186E09D
:101560008093E5012091D60181E090E002C0880FD0
:10157000991F2A95E2F72091C0013091C101822381
:101580009323892B09F479C081E08093E301EDCEA8
:1015900082E08093E501E9CE85E08093E501E5CE28
:1015A00081E08093E501E1CE1092E501DECE8091ED
:1015B000E501833009F4D9CE8091E501843009F446
:1015C000D4CE539A239A1092B4001092B30083E0C1
:1015D0008093E501CACE833061F1843009F09CCF5D
:1015E0002091E3018091DC019091DB012330C1F077
:1015F0001092E40123E02093E3019093BD018093D6
:10160000BC018ACF9091E3018091D9019130F9F02A
:101610001092E40191E09093E3018093BF017CCFAD
:101620002091BC012813E4CF2091BD019213E0CF9B
:1016300073CF9091E3018091DA01923069F01092BA
:10164000E40192E09093E3018093BE0165CF909115
:10165000BF019813DDCF60CF9091BE019813EFCFFB
:101660005BCFF0E0E0E0099580916E008D7F809384
:101670006E0016BCE0E0F0E709951092E30175CE2C
:101680008091E501863009F070CE6091C00180EB59
:1016900090E00E94A7146091C10181EB90E00E944C
:1016A000A7146091BF0185E090E00E94A7146091AB
:1016B000BE0189E090E00E94A7146091BD018CE01A
:1016C00090E00E94A7146091BC0184E190E00E9428
:1016D000A714539823981092B4001092B30081E09D
:1016E0008093E5018091D601882309F43ECE14CF82
:1016F000FC0120818FEF9FEF8227082E8295807F4B
:101700008025092E982F82958F7008268695982718
:101710008927880F880F880F802521818227082E2E
:101720008295807F8025092E982F82958F700826BC
:10173000869598278927880F880F880F8025228112
:101740008227082E8295807F8025092E982F8295EA
:101750008F700826869598278927880F880F880F0D
:10176000802523818227082E8295807F8025092E5F
:10177000982F82958F700826869598278927880F3D
:10178000880F880F802524818227082E8295807FEC
:101790008025092E982F82958F7008268695982788
:1017A0008927880F880F880F802525818227082E9A
:1017B0008295807F8025092E982F82958F7008262C
:1017C000869598278927880F880F880F802526817E
:1017D0008227082E8295807F8025092E982F82955A
:1017E0008F700826869598278927880F880F880F7D
:1017F000802527818227082E8295807F8025092ECB
:10180000982F82958F700826869598278927880FAC
:10181000880F880F802520858227082E8295807F5B
:101820008025092E982F82958F70082686959827F7
:101830008927880F880F880F802521858227082E09
:101840008295807F8025092E982F82958F7008269B
:10185000869598278927880F880F880F80250895F7
:101860000FB6F894A4B12091CC012A2B24B921E021
:101870003091CC01203029F0000025B1232B25B96F
:1018800004C000000000000000C0000000000000D4
:10189000309525B1232325B92EEA2A95F1F72BEEB1
:1018A00030B735FF0AC0A4B93091CC01309525B1CD
:1018B000232325B90FBE80E0089500002A9581F703
:1018C00021E03091CC01203029F0000025B1232BFC
:1018D00025B904C000000000000000C000000000A6
:1018E0000000309525B1232325B9000024E52A9571
:1018F000F1F7FC018CE0619170E0660F771F616089
:1019000072609AE041E050E09A0126233723232BAE
:101910003091CC01203029F0000025B1232B25B9CE
:1019200004C000000000000000C000000000000033
:10193000309525B1232325B9000021E52A95F1F73B
:10194000440F551F9A9501F78A95A9F620B7206193
:1019500020BFA4B93091CC01309525B1232325B9FE
:101960000FBE81E00895A3E1B0E0E9EBFCE00C9448
:1019700050107C011B015A01DC0117961C921E922B
:10198000169713968C9181FF4DC3FE0131964F013E
:10199000D70113969C91F10193FD859193FF81915D
:1019A0001F01882309F4F1C2853239F493FD859132
:1019B00093FF81911F01853239F4B70190E00E94B5
:1019C000111465015601E4CF10E0712C612CBFE1C8
:1019D000B61538F08B3211F190F4803209F1833270
:1019E00029F167FC3CC020ED280F2A3050F566FE37
:1019F00020C0EAE01E9F200D1124122F06C08D3258
:101A000091F0803371F7689460F8F10193FD85914E
:101A100093FF81911F018111DACF21C0689461F891
:101A2000689462F8F2CF689463F8EFCF689464F832
:101A3000ECCFFAE07F9E200D1124722E689465F899
:101A4000E4CF8E3229F466FCA0C2689466F8DDCF3C
:101A50008C3619F4689467F8D8CF8836B1F29BEBCE
:101A6000980F933008F06FC0689464F8805E66FE4B
:101A700016E0262D2F73622E853609F06CC068940F
:101A800066F867FE72C0812F1C3308F08BE3442494
:101A90004394480E27E0D5014D915D916D917D9164
:101AA0006D014C875D876E877F87042DA4016C854F
:101AB0007D858E859F850E9423135C01B981BC873B
:101AC000B0FF03C00DE2B3FF07C00BE261FC04C02E
:101AD000062D047062FC00E2EC85EC705E2E09F4C9
:101AE00054C00111A2C2F3E0512CF715A0F483E019
:101AF000572C581A63FC08C0B70180E290E00E949E
:101B000011145A945110F8CF002329F0B701802FF7
:101B100090E00E941114FC8508E610E0F3FD02C07D
:101B20000CE610E0262D2071622EF80184918111BF
:101B300023C0552009F446CFB70180E290E00E940F
:101B400011145A94F6CF9BE9980F933008F02DC1E9
:101B5000E89464F88CCF863619F4689467F891CFCE
:101B6000112309F48ECF11508CCF212F183010F093
:101B700027E017E0412C8FCF61108052B70190E031
:101B80000E9411140F5F1F4FD0CF67FE7AC04A0C1E
:101B9000FC85F4FF04C08A81813309F44A9414144B
:101BA0000CF092C028E0241510F488E0482E85E05F
:101BB00090E067FE06C0C501B7FE02C080E090E07D
:101BC000019601110196112331F0212F30E02F5F92
:101BD0003F4F820F931F7816190619F014F0572CF7
:101BE000581A862D897011F4511073C0002329F002
:101BF000B701802F90E00E94111463FC02C05110C5
:101C00006FC067FE88C03501B7FE02C0712C612C21
:101C1000C50186199709A401480F591F598B488B94
:101C2000B501641971097B8B6A8B012F10E0119546
:101C300001951109A614B7040CF459C0AA89BB89EF
:101C4000A615B7050CF053C0E889F9898181F1E048
:101C50006F1A7108601671060CF44BC0B70190E062
:101C60000E9411142FEF6216720629F4B7018EE25A
:101C700090E00E941114888999890196998B888B2C
:101C8000D9CF66FC94CFE12FF0E0EA15FB053CF0DC
:101C90003CEFA3163FEFB30614F0689467F8329652
:101CA000E80DF91D01C01150112319F08291803304
:101CB000D1F367FE7CCF44244394410E1A151B04D4
:101CC00031F02CF01A1973CF4424439470CF10E0F4
:101CD0006ECFB70180E290E00E9411145A9484CF35
:101CE000B70180E390E00E9411145A9488CF80E3FA
:101CF000AECFA614B70441F49A81963350F49533CD
:101D000019F43C8534FF05C0B70190E00E9411141E
:101D100010CF81E3F9CF8A81813319F04C854F7E52
:101D20004C87B70190E00E941114112399F0B7017C
:101D30008EE290E00E9411141E5F02E0802F0F5F80
:101D4000F401E80FF11D8081B70190E00E941114A9
:101D50001013F4CF85E664FC85E490E0B7010E949F
:101D60001114B7FC06C0A114B104C1F45C8554FF82
:101D700015C0B194A194B1088DE2B70190E00E9422
:101D8000111480E37AE0A716B10454F4B70190E08F
:101D90000E941114B701C501C096B8CF8BE2EDCFF8
:101DA0008F5F6AE0A61AB108EDCF8336B9F08337AA
:101DB00009F43AC0833509F04DC0D501AD90BD900E
:101DC0006D01612F70E066FC02C06FEF7FEFC5010F
:101DD0000E94FB138C01689467F80CC0650182E0D7
:101DE000C80ED11CD5018C91898301E010E054010B
:101DF000E89467F863FC04C07016110609F018F542
:101E0000572C0115110509F494CEF50167FC859155
:101E100067FE81915F01B70190E00E94111451109B
:101E20005A9401501109EDCFF501A190B1906F01C5
:101E3000612F70E066FC02C06FEF7FEFC5010E946A
:101E400006148C01D5CFB70180E290E00E941114F6
:101E50007A94D2CF843619F0893609F06FC067FEC4
:101E600064C0F50161917191819191916F01B62DDD
:101E7000BF766B2E97FF09C0909580957095619500
:101E80007F4F8F4F9F4F689467F82AE030E0A4019E
:101E90000E944114A82EA818BA2C062D66FE0AC06E
:101EA0000E7FA11638F464FE04C062FC02C0062D49
:101EB0000E7EB12E04FF8EC0FE01EA0DF11D808161
:101EC000803309F080C0097E502F5870552E03FDD5
:101ED00090C000FF8AC01A2DB71410F4170D1B19FB
:101EE00004FF8DC0B70180E390E00E94111402FF4F
:101EF00007C088E701FD88E590E0B7010E94111452
:101F0000A11608F488C0AA940A2D10E00F5F1F4F95
:101F1000080D191DD8018E918D01B70190E00E9426
:101F2000111408151905B1F704CED5016D917D91F5
:101F30006D01072E000C880B990B99CF062D853764
:101F4000E1F40F7E2AE030E007FF35C0D5014D9166
:101F50005D916D917D916D014C875D876E877F8767
:101F6000A4016C857D858E859F850E944114A82ED5
:101F7000A818602EE89467F88FCF097F803791F01A
:101F800058F4883589F08F36A1F0F7018681978162
:101F90006396E2E10C946C108837B9F704FD046095
:101FA00020E1D1CF0061FACF64FC066020E132E08D
:101FB000CBCF28E0C8CFF501819191916F01AC01A1
:101FC00070E060E0C9CF02FD02C0B3947DCFB3944E
:101FD000B3947ACF802F867809F476CFF6CFB70105
:101FE00080E290E00E941114B394B714C0F3512C16
:101FF00077CF572C5B18B71408F472CFF8CF802F27
:10200000867809F47DCF8BE201FF80E207FD8DE247
:10201000B70190E073CFB70180E390E00E94111404
:1020200011506ECF8FEF9FEFB3CF24E0512C2715C7
:1020300008F06CCD84E05CCD0E94380160EE70E069
:1020400081EE90E00E94320290E080E0089597FBDC
:10205000072E16F4009407D077FD09D00E94871050
:1020600007FC05D03EF4909581959F4F089570959B
:1020700061957F4F0895EE0FFF1F0590F491E02DBD
:102080000994A29FB001B39FC001A39F700D811D51
:102090001124911DB29F700D811D1124911D089571
:1020A0002F923F924F925F926F927F928F929F9268
:1020B000AF92BF92CF92DF92EF92FF920F931F9356
:1020C000CF93DF93CDB7DEB7CA1BDB0B0FB6F89407
:1020D000DEBF0FBECDBF09942A88398848885F8447
:1020E0006E847D848C849B84AA84B984C884DF80B8
:1020F000EE80FD800C811B81AA81B981CE0FD11D9C
:102100000FB6F894DEBF0FBECDBFED010895AA1B38
:10211000BB1B51E107C0AA1FBB1FA617B70710F0D2
:10212000A61BB70B881F991F5A95A9F78095909504
:10213000BC01CD0108955058BB27AA270E94B310B7
:102140000C9404120E94F61138F00E94FD1120F048
:1021500039F49F3F19F426F40C94F3110EF4E09532
:10216000E7FB0C94ED11E92F0E94151258F3BA17F2
:10217000620773078407950720F079F4A6F50C949D
:1021800037120EF4E0950B2EBA2FA02D0B01B901DA
:1021900090010C01CA01A0011124FF27591B99F0DD
:1021A000593F50F4503E68F11A16F040A22F232FE9
:1021B000342F4427585FF3CF469537952795A79539
:1021C000F0405395C9F77EF41F16BA0B620B730BE0
:1021D000840BBAF09150A1F0FF0FBB1F661F771F51
:1021E000881FC2F70EC0BA0F621F731F841F48F406
:1021F000879577956795B795F7959E3F08F0B0CF8F
:102200009395880F08F09927EE0F97958795089575
:102210000E941C110C9404120E94FD1158F00E949F
:10222000F61140F029F45F3F29F00C94ED115111A3
:102230000C9438120C94F3110E94151268F3992330
:10224000B1F3552391F3951B550BBB27AA276217B2
:102250007307840738F09F5F5F4F220F331F441FBF
:10226000AA1FA9F335D00E2E3AF0E0E832D09150F3
:102270005040E695001CCAF72BD0FE2F29D0660FE0
:10228000771F881FBB1F261737074807AB07B0E823
:1022900009F0BB0B802DBF01FF2793585F4F3AF029
:1022A0009E3F510578F00C94ED110C9438125F3F6D
:1022B000E4F3983ED4F3869577956795B795F795AF
:1022C0009F5FC9F7880F911D9695879597F9089597
:1022D000E1E0660F771F881FBB1F62177307840733
:1022E000BA0720F0621B730B840BBA0BEE1F88F742
:1022F000E09508950E9481116894B1110C943812F0
:1023000008950E941D1288F09F5798F0B92F9927C1
:10231000B751B0F0E1F0660F771F881F991F1AF0D0
:10232000BA95C9F714C0B13091F00E943712B1E0EC
:1023300008950C943712672F782F8827B85F39F0EB
:10234000B93FCCF3869577956795B395D9F73EF469
:1023500090958095709561957F4F8F4F9F4F089511
:10236000E89409C097FB3EF490958095709561952F
:102370007F4F8F4F9F4F9923A9F0F92F96E9BB27E5
:102380009395F695879577956795B795F111F8CF61
:10239000FAF4BB0F11F460FF1BC06F5F7F4F8F4FCC
:1023A0009F4F16C0882311F096E911C0772321F0C2
:1023B0009EE8872F762F05C0662371F096E8862F5A
:1023C00070E060E02AF09A95660F771F881FDAF7B1
:1023D000880F9695879597F9089597F99F6780E8F4
:1023E00070E060E008959FEF80EC089500240A9467
:1023F0001616170618060906089500240A941216E0
:102400001306140605060895092E0394000C11F412
:10241000882352F0BB0F40F4BF2B11F460FF04C0BF
:102420006F5F7F4F8F4F9F4F089557FD9058440F18
:10243000551F59F05F3F71F04795880F97FB991F23
:1024400061F09F3F79F087950895121613061406E0
:10245000551FF2CF4695F1DF08C01616170618066D
:10246000991FF1CF86957105610508940895E89448
:10247000BB2766277727CB0197F908950E94511251
:102480000C9404120E94F61138F00E94FD1120F005
:10249000952311F00C94ED110C94F31111240C946C
:1024A00038120E94151270F3959FC1F3950F50E0FA
:1024B000551F629FF001729FBB27F00DB11D639FF6
:1024C000AA27F00DB11DAA1F649F6627B00DA11D9C
:1024D000661F829F2227B00DA11D621F739FB00D42
:1024E000A11D621F839FA00D611D221F749F3327B2
:1024F000A00D611D231F849F600D211D822F762F4B
:102500006A2F11249F5750409AF0F1F088234AF027
:10251000EE0FFF1FBB1F661F771F881F9150504093
:10252000A9F79E3F510580F00C94ED110C943812E0
:102530005F3FE4F3983ED4F3869577956795B7951A
:10254000F795E7959F5FC1F7FE2B880F911D969534
:10255000879597F90895CF92DF92EF92FF92CF93EC
:10256000DF93CDB7DEB72A970FB6F894DEBF0FBE64
:10257000CDBF89879A87A985BA852D913D914D91C7
:102580005C9129833A834B835C83232B242B252B5B
:1025900041F424E239ED4BE557E029833A834B833C
:1025A0005C8369817A818B819C812DE133EF41E0ED
:1025B00050E00E94B51469017A01A7EAB1E49B01D9
:1025C000AC010E94D41469837A838B839C83ACEE24
:1025D000B4EFA70196010E94E2149B01AC0189812E
:1025E0009A81AB81BC81820F931FA41FB51FB7FFD7
:1025F00003C00197A109B048E985FA8580839183DA
:10260000A283B3839F772A960FB6F894DEBF0FBEDE
:10261000CDBFDF91CF91FF90EF90DF90CF900895E5
:102620000E94AB12089587E091E00E94AB120895DA
:10263000B0E0A0E08093070190930801A093090106
:10264000B0930A010895283008F027E03327DA0113
:10265000990F311D87FD916000966105710539F470
:1026600032602E5F3D9330E32A95E1F708959F3F56
:1026700030F080387105610509F03C5F3C5F3D93A7
:10268000913008F08068911DDF93CF931F930F93D3
:10269000FF92EF92192F987F9695E92F9695969530
:1026A000E90FFF27E653FF4F99273327EE24FF2436
:1026B000A701E70105900894079428F4360FE71E58
:1026C000F81E491F511D660F771F881F991F06941A
:1026D000A1F70590079428F4E70EF81E491F561F2E
:1026E000C11D770F881F991F661F0694A1F70590DB
:1026F000079428F4F80E491F561FC71FD11D880FD5
:10270000991F661F771F0694A1F70590079420F480
:10271000490F561FC71FD81F990F661F771F881FA5
:102720000694A9F784911095177041F0D695C79536
:1027300057954795F794E7941A95C1F7E0E7F0E0CD
:1027400068941590159135916591959105907FE26A
:102750007395E118F10A430B560BC90BD009C0F76A
:10276000E10CF11E431F561FC91FD01D7EF47033AC
:1027700011F48A95E6CFE894015030F0080F0AF47E
:102780000027021708F4202F2395022F7A3328F010
:1027900079E37D932A95E9F710C07D932A9589F610
:1027A000069497956795379517951794E118F10A50
:1027B000430B560BC90BD00998F023957E91739566
:1027C0007A3308F070E37C932013B8F77E91706140
:1027D0007D9330F0839571E37D9370E32A95E1F763
:1027E0001124EF90FF900F911F91CF91DF919927C6
:1027F00087FD90950895FC0105906150704001108F
:10280000D8F7809590958E0F9F1F0895FC01615019
:10281000704001900110D8F7809590958E0F9F1F02
:1028200008950F931F93CF93DF93182F092FEB0178
:102830008B8181FD09C01FEF0FEF812F902FDF915A
:10284000CF911F910F91089582FF14C02E813F8177
:102850008C819D81281739073CF4E881F981CF01EB
:1028600001969983888310838E819F8101969F832F
:102870008E83E3CFE885F985812F0995892BA1F314
:10288000DACFFA01AA27283051F1203181F1E894FA
:102890006F936E7F6E5F7F4F8F4F9F4FAF4FB1E053
:1028A0003ED0B4E03CD0670F781F891F9A1FA11D4E
:1028B000680F791F8A1F911DA11D6A0F711D811D4F
:1028C000911DA11D20D009F468943F912AE0269F14
:1028D00011243019305D3193DEF6CF010895462F73
:1028E0004770405D4193B3E00FD0C9F7F6CF462F54
:1028F0004F70405D4A3318F0495D31FD40524193BD
:1029000002D0A9F7EACFB4E0A69597958795779579
:102910006795BA95C9F700976105710508959B0100
:10292000AC010A2E06945795479537952795BA9589
:10293000C9F7620F731F841F951FA01D0895F99991
:10294000FECF92BD81BDF89A992780B50895262FB4
:10295000F999FECF1FBA92BD81BD20BD0FB6F89484
:10296000FA9AF99A0FBE01960895052E97FB1EF468
:1029700000940E94CC1457FD07D00E94E71407FC76
:1029800003D04EF40C94CC1450954095309521957D
:102990003F4F4F4F5F4F089590958095709561958B
:1029A0007F4F8F4F9F4F08950E944110A59F900D1C
:1029B000B49F900DA49F800D911D11240895B7FF21
:1029C0000C94D4140E94D414821B930B0895A1E29A
:1029D0001A2EAA1BBB1BFD010DC0AA1FBB1FEE1F99
:1029E000FF1FA217B307E407F50720F0A21BB30BE4
:1029F000E40BF50B661F771F881F991F1A9469F760
:102A000060957095809590959B01AC01BD01CF01BB
:102A10000895F894FFCF9C02800254024A025102AA
:102A2000FA02EF02340BB509B509310BD40AD00A0A
:0A2A3000CC0AC80AD70A9B0A780AEC
:102A3A00AA370134013301010000004A04000040B2
:102A4A000400003804000017040000F6030000C068
:102A5A00030000710300003703000009030000D7D8
:102A6A00020000A9020000850200006B0200003883
:102A7A000200001302000015010000110100000A03
:102A8A00010000FA000000E7000000D5000000C4C1
:102A9A00000000B5000000AB0000009F0000009499
:102AAA000000008D000000830000007A0000007121
:042ABA000000000018
:00000001FF
