:100000000C94B5000C94DE000C94DE000C94DE0021
:100010000C94DE000C94DE000C94D6070C94DE00E9
:100020000C94DE000C94DE000C94DE000C94E10DC8
:100030000C94DE000C94DE000C94410D0C94DE0058
:100040000C94DE000C94DE000C94DE000C94DE00B8
:100050000C94DE000C94DE000C94DE000C94010E77
:100060000C94DE000C94DE006E616E00696E66001A
:1000700000407A10F35A00A0724E18090010A5D45F
:10008000E80000E87648170000E40B54020000CABC
:100090009A3B000000E1F505000080969800000002
:1000A00040420F000000A086010000001027000061
:1000B0000000E803000000006400000000000A00E7
:1000C000000000000100000000002C76D888DC67EA
:1000D0004F0823DFC1DFAE59E1B1B796E5E3E45342
:1000E000C63AE651997696E8E6C28426EB898C9B5F
:1000F00062ED407C6FFCEFBC9C9F40F2BAA56FA5FF
:10010000F490055A2AF75C936B6CF9676DC11BFC80
:10011000E0E40D47FEF520E6B500D0ED902E03009B
:10012000943577050080841E080000204E0A0000E8
:1001300000C80C333333330F986E12831141EF8DA7
:100140002114893BE65516CFFEE6DB18D1844B38E7
:100150001BF77C1D901DA4BBE424203284725E2218
:100160008100C9F124ECA1E53D2711241FBECFEF8A
:10017000D8E0DEBFCDBF14BE0FB6F894A89580912D
:100180006000886180936000109260000FBE11E0F3
:10019000A0E0B1E0E6ECF6E302C005900D92A431D8
:1001A000B107D9F721E0A4E1B1E001C01D92A53F5C
:1001B000B207E1F70E949E140C944F1B0C940000B0
:1001C00080910001909101010895CF93DF93DC01AC
:1001D000E0910001F0910101EB01488159816A81B0
:1001E0007B81458756876787708B81E0848711966E
:1001F0004C91119750E070E060E047AB50AF61AFB9
:1002000072AF12964C91129750E070E060E043AFED
:1002100054AF65AF76AFFF9613968C9190E0B0E047
:10022000A0E080839183A283B383DF91CF9108956F
:10023000CF93DF9300D000D000D0CDB7DEB7809150
:10024000F0018B5E0E94450A20910001309101016E
:100250003A8329838091F0019091F101B0E0A0E010
:10026000F901868F978FA0A3B1A388EC90E00E943C
:10027000F617FC01A981BA81A95ABF4F8D939C93AF
:10028000A981BA81A95BBF4F1D921D921D921C923C
:100290001397A981BA81AD5ABF4F1D921D921D922D
:1002A0001C921397A981BA81AD5BBF4F1D921D921D
:1002B0001D921C921397A981BA81DB961D921D9203
:1002C0001D921C92DE97A75ABF4F1D921D921D9240
:1002D0001C921397A981BA81A35ABF4F1D921D92F8
:1002E0001D921C921397A981BA81AB59BF4F1D92E1
:1002F0001D921D921C92139788ECDF011D928A9526
:10030000E9F7E981FA8112A213A214A215A213AA95
:1003100014AA15AA16AA16A617A610AA11AA8091A1
:10032000BA019091BB01A091BC01B091BD01EF5801
:10033000FF4F80839183A283B383A981BA8196966C
:100340001D921D921D921C929997FD0112A613A653
:1003500014A615A6E55BFF4F10821182128213824C
:10036000349610821182128213829D012B583F4FC6
:10037000D9011C9280E00E94BE0DE0910001F09135
:100380000101138A148A158A168A178A84EB808FD2
:1003900088E790E0A0E0B0E0818F928FA38FB48FC8
:1003A0000E942D0AE0910001F0910101FE83ED838E
:1003B000282F30E050E040E029833A834B835C8370
:1003C000218D328D438D548D69817A818B819C8101
:1003D0000E94D51469837A838B839C83DC01CB01D3
:1003E0000196A11DB11DED81FE81838B948BA58BA0
:1003F000B68B858D882349F060E080E00E942F094C
:10040000E0910001F0910101158E26960FB6F89447
:10041000DEBF0FBECDBFDF91CF910895CF93DF93A5
:10042000C82FD62F811113C0662359F08091B400D4
:10043000811107C06FEF0E942F098FE090E00E94AA
:1004400024096D2F8C2FDF91CF910C942F0990915F
:10045000B30081E0911111C08195DD2349F09091A5
:10046000B400992339F3882361F38FEF60E0E3CF81
:10047000882339F360E08FEFDECF80E08195D111E2
:10048000EECFF6CF1F93CF93DF93C82FE0910001FB
:10049000F0910101858D8C1779F0C230A1F1C33044
:1004A000F1F0C13069F060E080E00E942F09E09136
:1004B0000001F0910101C58FDF91CF911F91089547
:1004C0001091F301D091F201D11132C0112309F43E
:1004D00041C08091B40081113DC06FEF35C0D09113
:1004E000E001DD2359F08091B400811107C06FEF66
:1004F0000E942F098FE090E00E9424096D2F80E078
:100500000E942F09D4CFD091F401DD2361F08091B6
:10051000B300811108C060E08FEF0E942F098FE0C7
:1005200090E00E94240960E08D2F0E942F09BFCF28
:100530009091B30081E0911180E0819511110FC07D
:10054000882341F060E08FEF0E942F098FE090E058
:100550000E942409612F8D2F0E942F09A8CF90910E
:10056000B400992309F4B9CF8823A1F38FEF60E099
:10057000EBCF08950F931F93E0910001F0910101DB
:10058000858D813009F461C09EEF980F923008F09C
:100590004EC04091BA015091BB016091BC01709175
:1005A000BD01278983899489A589B689820F911D08
:1005B000A11DB11D84179507A607B707A8F580915F
:1005C000BA019091BB01A091BC01B091BD01838B98
:1005D000948BA58BB68B0091F3011091F20111233E
:1005E00009F48BC09091B30081E09111ACC081956A
:1005F000002309F4AAC09091B400992309F484C09F
:10060000882341F08FEF60E00E942F098FE090E097
:100610000E942409602F812F0E942F09E091000180
:10062000F091010181E0858F1F910F91089588233A
:10063000D9F360E080E00E942F09E0910001F09181
:100640000101158E1F910F9108954091BA015091AB
:10065000BB016091BC017091BD0183899489A5891A
:10066000B689018D128D238D348D800F911FA21FAD
:10067000B31F84179507A607B707B0F68091BA0194
:100680009091BB01A091BC01B091BD01838B948B73
:10069000A58BB68B0E942D0AE0910001F09101011B
:1006A00080FF34C0858D8230D1F01091F401112388
:1006B00061F08091B300811108C060E08FEF0E946B
:1006C0002F098FE090E00E94240960E0812F0E94B2
:1006D0002F09E0910001F091010182E0858F0E94D5
:1006E0002D0AE0910001F0910101608D0E94B51486
:1006F0009F5F978B1F910F910895002309F48ACF74
:100700008091B400811186CF6FEF7ECF858D8330CD
:1007100031F31091E001112359F08091B40081115F
:1007200007C06FEF0E942F098FE090E00E9424091C
:10073000612F80E00E942F09E0910001F0910101FA
:1007400083E0858FCCCF80E052CF882309F462CF3D
:1007500060E08FEF59CFCF93DF93C0910001D0912C
:1007600001018E8D89838AA18A838BA98B83CE0117
:100770000E94F90F9B878A87DF91CF910895E091BE
:100780000001F0910101DF01A95BBF4F1D921D9295
:100790001D921C9213971C961D921D921D921C92E5
:1007A000139750971D921D921D921C92139713AE92
:1007B00014AE15AE16AE56961D921D921D921C9249
:1007C000139714961D921D921D921C9213971896C2
:1007D0001D921D921D921C921397E95AFF4F019092
:1007E000F081E02D88ECDF011D928A95E9F70895EC
:1007F000CF93DF93E0910001F0910101EF01C95A1D
:10080000DF4F87A990AD880F991F880F991FA88186
:10081000B981A80FB91F4D915D916D917C9113978E
:10082000452B462B472B79F541E050E060E070E026
:100830004D935D936D937C93139764978881998111
:10084000AA81BB810196A11DB11D88839983AA83CA
:10085000BB8383AD94ADA5ADB6AD81309105A10547
:10086000B105A1F00297A105B10569F4ED5AFF4F5A
:1008700080819181A281B3810196A11DB11D8083E8
:100880009183A283B383DF91CF910895E95BFF4FFA
:1008900080819181A281B3810196A11DB11D8083C8
:1008A0009183A283B383DF91CF910895CF92DF929A
:1008B000EF92FF92CF93DF93E0910001F09101015D
:1008C000C090BA01D090BB01E090BC01F090BD0196
:1008D000AF014B585F4FDA012C91EF01CF58DF4F3A
:1008E00088819981AA81BB8188519C4FAF4FBF4FAE
:1008F000C816D906EA06FB0620F1211130C081E0B6
:10090000FA0180838091BA019091BB01A091BC0152
:10091000B091BD0188839983AA83BB8380E10E9443
:10092000BE0DE0910001F09101018485813081F4D8
:100930001486DF91CF91FF90EF90DF90CF900C94D1
:10094000F8032223D1F0213049F38485813081F3EB
:10095000DF91CF91FF90EF90DF90CF900895DA0173
:100960001C928091BA019091BB01A091BC01B09101
:10097000BD0188839983AA83BB8381E00E94BE0D59
:10098000E0910001F0910101DF01AB58BF4F2C91C4
:10099000DACF4F925F926F927F928F929F92AF9237
:1009A000BF92CF92DF92EF92FF920F931F93CF935C
:1009B000DF9300D000D000D0CDB7DEB7209100018A
:1009C000309101013E832D83F90186A197A1A0A555
:1009D000B1A50197A105B10509F43BC1ED5BFF4F3E
:1009E000C080D180E280F380F901C114D104E10418
:1009F000F10409F0ACC0E55BFF4F10821182128256
:100A00001382ED81FE81E15BFF4F10821182128221
:100A1000138224E030E040E050E084E0E82EF12C46
:100A200000E010E0ED81FE81E75AFF4FE082F182A5
:100A300002831383AD81BE81A35ABF4F2C931196BD
:100A40003C93119712964C93129713965C930E94C5
:100A50002D0AA0900001B090010199E2899F912D8B
:100A6000112492959F70B4E69B9F8019112490E009
:100A7000B0E0A0E0A5014B595F4FFA01808391835C
:100A8000A283B3834C505109FA0100811181228164
:100A9000338180179107A207B307C8F441E050E003
:100AA00060E070E0F50142A353A364A375A3C09076
:100AB000BA01D090BB01E090BC01F090BD01C2A68C
:100AC000D3A6E4A6F5A646A757A760AB71ABB501C0
:100AD000635A7F4FFB014081518162817381400FD6
:100AE000511F621F731F081719072A073B0708F4D5
:100AF00090C0481759076A077B0790F4D501929672
:100B00001D921D921D921C929597F50116A617A68F
:100B100010AA11AA9A961D921D921D921C929D9741
:100B200026960FB6F894DEBF0FBECDBFDF91CF91F2
:100B30001F910F91FF90EF90DF90CF90BF90AF90FB
:100B40009F908F907F906F905F904F900895E95B9A
:100B5000FF4F2081318142815381A4E6B0E00E94A1
:100B60000C15A70196010E94D51449015A01ED8187
:100B7000FE81E55BFF4F80829182A282B382ED818C
:100B8000FE81ED5AFF4F2081318142815381A4E6DD
:100B9000B0E00E940C15A70196010E94D51429010E
:100BA0003A01ED81FE81E15BFF4F4082518262821A
:100BB0007382ACE3B0E0A50194010E940C159B0187
:100BC000AC0120573E4F4F4F5F4F94E6892E912C3A
:100BD000A12CB12CCA01B901A50194010E94D51420
:100BE00079018A01ACE3B0E0A30192010E940C15E7
:100BF000DC01CB0180579E4FAF4FBF4F89839A8353
:100C0000AB83BC83BC01CD01A50194010E94D51426
:100C100009CF481759076A077B0708F46ACF82E0B3
:100C200090E0A0E0B0E0F50182A393A3A4A3B5A354
:100C300086A797A7A0ABB1AB8091BA019091BB01F9
:100C4000A091BC01B091BD0182A793A7A4A7B5A7AD
:100C500067CF12A213A214A215A213AA14AA15AA4E
:100C600016AA12A613A614A615A616A217A210A6B7
:100C700011A656CF8F929F92AF92BF92EF92FF92A2
:100C80000F931F93CF93DF93CDB7DEB762970FB665
:100C9000F894DEBF0FBECDBF4B015C018D829E82FA
:100CA000AF82B886C901DA0189879A87AB87BC878A
:100CB0000D871E872D813E814F815885CA01B9015C
:100CC0000E942E175B018C0129853A854B855C8536
:100CD000CA01B9010E942E179B01AC01A982BA82F8
:100CE0000B831C8369817A818B819C810E946315AF
:100CF00069837A838B839C8369817A818B819C81D0
:100D00000E94A1178B015C0120E030E048EC53E425
:100D100069831A838B83BC8269817A818B819C81F0
:100D20000E94CF1587FD42C08D819E81AF81B8851D
:100D3000B0588D839E83AF83B8879801A501BC010D
:100D4000CD010E94D4156F87788B898B9A8BAD85E6
:100D5000BE856D937D938D939C93139789859A851A
:100D6000AB85BC85B05889879A87AB87BC879801CB
:100D7000A501BC01CD010E94D415D7016D937D93CF
:100D80008D939C93139781E090E062960FB6F89450
:100D9000DEBF0FBECDBFDF91CF911F910F91FF90AE
:100DA000EF90BF90AF909F908F90089590E080E07B
:100DB000ECCF089590E080E00895089555985498F8
:100DC0003B9A3A9A3D983C980895559A549A3B9884
:100DD0003A983D983C980895559854983B983A987D
:100DE0003D983C980895AF92BF92DF92EF92FF92A8
:100DF0000F931F93CF93DF93F89414B817B81AB8D2
:100E000015B818B81BB8529A5A9A14BC85E085BD1B
:100E10008FEF87BD82E080936E0010928000109269
:100E200081002FE83BE03093890020938800809375
:100E30006F005398239891EA9093B0008093B1008B
:100E40001092B4001092B3008BE080BF83E08093D7
:100E50007F0086E080937C0083E880937A00809115
:100E60007A00806480937A0080917A0086FDFCCFBE
:100E700010927C0083EA80937A0081E080937B006B
:100E800081E090E00E94121B8F3F11F0809366007A
:100E90001092BE01C1E0C0939701C093DB01109294
:100EA000B5011092EF0180E990E00E94121B80933F
:100EB000B4018091B401887311F0C093B401109211
:100EC000DF011092DE018FEF90E09093DD018093BF
:100ED000DC011092BA011092BB011092BC01109279
:100EE000BD0181E08093920182E49FE09093EE0146
:100EF0008093ED0180EB90E00E94121BC82F81EBE4
:100F000090E00E94121BD82FD093F101C093F00102
:100F100085E090E00E94121B8093F40189E090E04C
:100F20000E94121B8093E0018CE090E00E94121B53
:100F30008093F20184E190E00E94121B8093F30100
:100F40000FEB11E088E9E82E81E0F82E9BEDA92E49
:100F500091E0B92EC0E2D0E0CE010E94121BD82E43
:100F6000CE0101960E94121B9D2DF8018193919351
:100F70008F01CE01C0960E94121BD82ECE01C196C1
:100F80000E94121B9D2DF701819391937F01229660
:100F9000A016B10609F77894DF91CF911F910F91B8
:100FA000FF90EF90DF90BF90AF9008950F920FB633
:100FB0000F921F9211248F930FB6F894A8958091E9
:100FC0006000886180936000109260000FBE8F9176
:100FD0001F900F900FBE0F9018953C01EB0110E091
:100FE00099249A9484E0C82E96E0A92E23E8B22E84
:100FF00038E1D32E49E2E42EE0919201E730E0F7A8
:10100000F0E0EF5AF44E0C94F714111102C0F30102
:101010000995C092920111E0FE010995EDCF8091F2
:10102000BE018111E9C0F894A0927C00B0927A00D0
:1010300080917A00806480937A0080917A0086FDA6
:10104000FCCF809178009091790078948B3AE2E01F
:101050009E070CF0CEC08938F2E09F070CF0CFC09D
:10106000873692400CF4C8C0559A549A3B9A3A9AE3
:101070003D983C98C1CF0E94DE06EFECF7E0319737
:10108000F1F700C000000E94EC06FFEF21EE84E0C3
:10109000F15020408040E1F700C00000ADCFF8944F
:1010A00080B7877F80BF80917A008F7780937A00A6
:1010B00014B817B81AB815B818B81BB80FB6F89402
:1010C000A895D09260000FBEE09260008091600011
:1010D00080648093600083B7817F846083BFF894CD
:1010E00083B7816083BF7894889583B78E7F83BFF1
:1010F00078941092BE01529A5A9A80917A00806830
:1011000080937A0087E592E00197F1F700C0000034
:1011100080B7886180BF559A549A3B9A3A9A3D9A13
:101120003C9AEFE1FEE43197F1F700C000008091B6
:10113000BE01811152C00E94EC065ECF80919001E9
:10114000811121C01092B3001092B400109291014D
:1011500053CF4899F0CF559A54983B983A983D9878
:101160003C988FEC97E00197F1F700C000000E94D7
:10117000EC069FEFE1EEF4E09150E040F040E1F743
:1011800000C0000039CF9091900180919101981793
:1011900009F432CF80919001809391018091900168
:1011A0008130A1F1809190011092B3009092B4002F
:1011B0008230E9F19092B3009092B4008FE295E70B
:1011C0000197F1F700C000008091F3019091F201C6
:1011D0009093B3008093B4000FCF0E94E506FFEF19
:1011E00020E782E0F15020408040E1F700C000009D
:1011F000A2CF0E94DE0600CF0E94E506FDCE5598E4
:1012000054983B983A983D9A3C9AF6CE9092B30007
:101210001092B4008FE295E70197F1F700C000004B
:101220008091F4018093B3001092B400E5CEEFE218
:10123000F5E73197F1F700C000008091E0011092CE
:10124000B3008093B400D8CE07C0EFECF7E031973D
:10125000F1F700C0000001970097B9F70895809357
:10126000B3006093B40008958FEF8093B300809330
:10127000B4008FEC97E00197F1F700C000008FEC0D
:1012800097E00197F1F700C000008FEC97E001971D
:10129000F1F700C000008FEC97E00197F1F700C074
:1012A00000008FEC97E00197F1F700C000008FEC91
:1012B00097E00197F1F700C000008FEC97E00197ED
:1012C000F1F700C000008FEC97E00197F1F700C044
:1012D00000008FEC97E00197F1F700C000008FEC61
:1012E00097E00197F1F700C000008FEC97E00197BD
:1012F000F1F700C000008FEC97E00197F1F700C014
:1013000000008FEC97E00197F1F700C000008FEC30
:1013100097E00197F1F700C000008FEC97E001978C
:10132000F1F700C0000008958091BE0181111EC038
:10133000F89487E080937C0083E880937A00809122
:101340007A00806480937A0080917A0086FDFCCFD9
:10135000809178009091790010927C0023EA20938C
:101360007A0021E020937B00789408958FEF9FEF1F
:1013700008958091BE0181111EC0F89488EC80937D
:101380007C0087E880937A0080917A008064809363
:101390007A0080917A0086FDFCCF80917800909150
:1013A000790010927C0023EA20937A0021E02093B8
:1013B0007B00789408958FEF9FEF08950F931F930C
:1013C000CF93DF93F0E0E0E080E006E013E8D3EABB
:1013D000C1E0A1E0B0E060E870E0F89400937C0028
:1013E00010937A0090917A00906490937A00909193
:1013F0007A0096FDFCCF2091780030917900217021
:1014000090917A00906490937A0090917A0096FD82
:10141000FCCF409178005091790010927C00D093DD
:101420007A00C0937B0078944170241303C061500C
:10143000710999F6222339F09D010E2E01C0220F69
:101440000A94EAF7822B3196E830F10509F0C3CF10
:10145000DF91CF911F910F91089520910201822F6A
:10146000880F880F880F282790918F0181E0890FBE
:1014700080938F01822F829586958770822796951B
:10148000969589278093020108958093020108951B
:101490008091BE01811116C0F89486E080937C0093
:1014A00083E880937A0080917A00806480937A0048
:1014B00080917A0086FDFCCF809178009091790030
:1014C000789408958FEF9FEF08952F923F924F9257
:1014D0005F926F927F928F929F92AF92BF92CF92C4
:1014E000DF92EF92FF920F931F93CF93DF9300D081
:1014F00000D000D0CDB7DEB71C01DC0112960D90F4
:10150000BC91A02DBE83AD83A438E3E0BE072CF1CF
:10151000DC01ED90FC908091BF019091C0018E158F
:101520009F0508F0C1C181E226960FB6F894DEBF90
:101530000FBECDBFDF91CF911F910F91FF90EF9024
:10154000DF90CF90BF90AF909F908F907F906F90E3
:101550005F904F903F902F900895809198019091C7
:1015600099018A179B0708F079C0AD3BB240DCF2C5
:10157000D101ED90FC908091BF019091C0018E153A
:101580009F0508F4B0C119820091C1011091C201F8
:101590000E151F0508F4B1C10091C3011091C401DB
:1015A0000E151F0508F409C20091C5011091C6016E
:1015B0000E151F0508F406C20091C7011091C8015D
:1015C0000E151F0508F403C20091C9011091CA014C
:1015D0000E151F0508F400C20091CB011091CC013B
:1015E0000E151F0508F4FDC10091CD011091CE012B
:1015F0000E151F0508F402C20091CF011091D00111
:101600000E151F0508F403C20091D1011091D201FB
:101610000E151F0508F400C20091D3011091D401EA
:101620000E151F0508F401C20091D5011091D601D5
:101630000E151F0508F4FEC10091D7011091D801C5
:101640000E151F0508F403C20091D9011091DA01AB
:101650000E151F0508F404C21AE5D6C000919A01C0
:1016600010919B010A171B0708F4C0C100919C014F
:1016700010919D010A171B0708F4BCC100919E013F
:1016800010919F010A171B0708F4BDC10091A0012A
:101690001091A1010A171B0708F42BC10091A201A8
:1016A0001091A3010A171B0708F4BBC10091A40104
:1016B0001091A5010A171B0708F4C1C10091A601EA
:1016C0001091A7010A171B0708F4BDC10091A801DA
:1016D0001091A9010A171B0708F4BEC10091AA01C5
:1016E0001091AB010A171B0708F4E1C00091AC018F
:1016F0001091AD010A171B0708F4B7C10091AE01A4
:101700001091AF010A171B0708F4B3C10091B00193
:101710001091B1010A171B0708F4AFC10091B20183
:101720001091B3016DE08DE090E00A171B0708F4FB
:10173000C1C080E090E0A0EDB0E489839A83AB83E0
:10174000BC832CE0E22EF12CF701EE0FFF1FE856D0
:10175000FE4F80819181B801681B790B90E080E099
:101760000E947C169B01AC010E9463156B017C01F9
:10177000AD81BE81BD01BB0F880B990B0E947E1607
:101780004B015C01B80190E080E00E947C162B01C7
:101790003C0129813A814B815C81C701B6010E94DD
:1017A0002E179B01AC01C301B2010E9462159B017F
:1017B000AC01C501B4010E94621520E030E040E2B6
:1017C00051E40E942E170E9446168B01C701B601F4
:1017D0000E944616AB01C801BA010E94C114698378
:1017E000ED81FE8181E2860FED3BF2400CF49CCE50
:1017F000D101ED90FC908091BF019091C0018E15B8
:101800009F0508F0C1CE10E0B98181E2810FBF3F92
:1018100009F48ACE6B2F70E090E080E00E947C1685
:101820004B015C01612F70E090E080E00E947C162B
:101830002B013C012D813E81B901330F880B990B9F
:101840000E947E166B017C01AC019B0160E070E0A0
:1018500081E694E40E946215A50194010E942E176E
:101860004B015C0120E030E04FE254E4C701B601D7
:101870000E946215A30192010E942E179B01AC01E8
:10188000C501B4010E94631520E030E048E453E450
:101890000E94D41520E030E044E052E40E94631539
:1018A0000E944D16862F40CEBFEFB9836DCE69E002
:1018B00089E090E07C01F1E0EF1AF10870E090E03F
:1018C00080E00E947C1620E030E040E05FE30E9470
:1018D0002E1720E030E0A9010E94631569837A8306
:1018E0008B839C8331CF412C512C32015301420117
:1018F000A1CF64E084E090E0DDCF33243394E1E0D5
:10190000F0E0EE0FFF1FE354FE4F80819181B8019C
:10191000681B790B90E080E00E947C169B01AC0173
:101920000E9463154B015C01B701FF0C880B990BFA
:101930000E947E162B013C01B80190E080E00E94DD
:101940007C166B017C01632D70E090E080E00E94CA
:101950007C1620E030E040E05FE30E942E1720E09C
:1019600030E0A9010E946315A50194010E942E1781
:101970009B01AC01C701B6010E9462159B01AC013D
:10198000C301B2010E94621520E030E040E251E460
:101990000E942E170E9446168B01C501B4010E94B9
:1019A0004616AB01C801BA010E94C114162F6F3F41
:1019B00009F02ACF89818F5DB7CD82E0382EE2E031
:1019C000F0E09FCFB3E03B2EE3E0F0E09ACFA4E05D
:1019D0003A2EE4E0F0E095CFF5E03F2EE5E0F0E0D0
:1019E00090CFE6E03E2EE6E0F0E08BCF61E081E0D4
:1019F00090E060CF62E082E090E05CCF77E0372E4D
:101A0000E7E0F0E07ECF63E083E090E053CF68E072
:101A1000362EE8E0F0E075CF59E0352EE9E0F0E051
:101A200070CF65E085E090E045CF4AE0342EEAE0F3
:101A3000F0E067CF3BE0332EEBE0F0E062CF66E012
:101A400086E090E037CF67E087E090E033CF2CE08E
:101A5000322EECE0F0E055CF68E088E090E02ACF4D
:101A60009DE0392EEDE0F0E04CCF6AE08AE090E0B6
:101A700021CF6BE08BE090E01DCF6CE08CE090E03C
:101A800019CF1F920F920FB60F9211242F933F93ED
:101A90004F935F936F937F938F939F93AF93BF9376
:101AA000EF93FF938091DE019091DF012091DC01A3
:101AB0003091DD01820F931F9093DF018093DE014F
:101AC0008FEF90E09093DD018093DC018FEF87BD75
:101AD0008091BA019091BB01A091BC01B091BD0170
:101AE0000196A11DB11D8093BA019093BB01A093F3
:101AF000BC01B093BD018091BE0181110FC08091E6
:101B0000ED019091EE012091DE013091DF0182170D
:101B1000930720F480919201843089F0FF91EF9136
:101B2000BF91AF919F918F917F916F915F914F91F5
:101B30003F912F910F900FBE0F901F901895E0913D
:101B40000501F09106010995009741F30E94B2103A
:101B5000882351F0E0910301F0910401099510925E
:101B6000DF011092DE01DACF0E9486199C01332733
:101B70003093DD012093DC0187BDD0CF80FF16C0FC
:101B8000559A81FF16C0549A82FF16C03B9A83FF74
:101B900016C03A9A84FF05C03D9A85FF05C03C9A5D
:101BA00008953D9885FDFBCF3C980895559881FD9B
:101BB000EACF549882FDEACF3B9883FDEACF3A986A
:101BC000E9CF1F921FB61F9211248F939F931092FB
:101BD0008100109285001092840081E0809397012B
:101BE0008093DB011092BE0110927C0093EA9093E7
:101BF0007A0080937B009F918F911F901FBE1F9052
:101C000018951F920F920FB60F9211242F933F93A6
:101C10004F935F936F937F938F939F93AF93BF93F4
:101C2000CF93DF93EF93FF93209184003091850051
:101C300041E04093BE01809197018823A9F1109261
:101C4000850010928400409381001092EF01109261
:101C500097018091DB018823A1F080917A0086FDB5
:101C6000FCCF80917800909179009093B901809396
:101C7000B80181E080937C0093EA90937A0080938E
:101C80007B00FF91EF91DF91CF91BF91AF919F9139
:101C90008F917F916F915F914F913F912F910F9015
:101CA0000FBE0F901F901895C9018758910984376E
:101CB0009940A0F01092810010928500109284004B
:101CC000409397014093DB011092BE0110927C007B
:101CD00083EA80937A0040937B00D3CF2658310962
:101CE000A4EFB0E00E94FD14AA27BB27883008F4B7
:101CF00065C0409397018091DB0181113CC08091C8
:101D0000B501E82FF0E0EF51FE4F9091EF01908385
:101D10008F5F8093B5018C3009F0B3CF10928100B2
:101D200010928500109284004093DB011092BE0156
:101D3000C091EB01D091EC0181EE91E00E94F90F8E
:101D4000C817D90709F09DCFE091EA01E7FF47C026
:101D500098E79E0F933030F0539823981092B40078
:101D60001092B300E058EB3008F08BCFF0E0E85A67
:101D7000F44E0C94F71480917A0086FDFCCF80918C
:101D80007800909179009093B7018093B6011092FA
:101D90007C0083EA80937A0081E080937B009091BD
:101DA000EF019923B9F010928100109285001092F2
:101DB00084008093DB011092BE0163CF21E030E00C
:101DC00001C0220F8A95EAF78091EF01822B809360
:101DD000EF0157CF1092DB011092B50152CFE09185
:101DE0000701F091080166EB71E081EE91E0099541
:101DF00048CF8091E101823009F4E3C008F06BC064
:101E0000882309F4A6C0813009F0D7C08091E2018F
:101E10009091E3019093F1018093F0011092900171
:101E200080919201863009F42CCF539A239A109214
:101E3000B4001092B30086E08093920122CF80918B
:101E40009201863079F0539A239A1092B40010923E
:101E5000B3000E94EC06109290011092910186E06E
:101E6000809392012091E10181E090E002C0880F0F
:101E7000991F2A95E2F72091F0013091F101822318
:101E80009323892B09F462C081E080939001F9CEFD
:101E900080919201833009F4F4CE809192018430D4
:101EA00009F4EFCE539A239A1092B4001092B30023
:101EB00083E080939201E5CE82E080939201E1CEAF
:101EC00085E080939201DDCE81E080939201D9CEAE
:101ED00010929201D6CE833051F1843009F06DC05A
:101EE000209190018091E7019091E6012330B1F0BB
:101EF0001092910123E0209390019093F20180933E
:101F0000F3018ECFF0E0E0E0099580916E008D7FC7
:101F100080936E0016BCE0E0F0E709952091F30194
:101F20002813E6CF2091F2012913E2CF79CF9091C7
:101F300090018091E501923009F451C01092910115
:101F400092E0909390018093E0016ACF109290010B
:101F500098CE80919201863009F093CE6091F00185
:101F600080EB90E00E941A1B6091F10181EB90E000
:101F70000E941A1B6091F40185E090E00E941A1BF8
:101F80006091E00189E090E00E941A1B6091F201EB
:101F90008CE090E00E941A1B6091F30184E190E0D4
:101FA0000E941A1B539823981092B4001092B30009
:101FB00081E0809392018091E101882309F461CE50
:101FC0002FCF909190018091E401913069F01092AF
:101FD000910191E0909390018093F40121CF909131
:101FE000E0019813ABCF1CCF9091F4019813EFCF81
:101FF00017CFFC0180812FEF3FEF2827022E22957B
:10200000207F2025032E322F22952F700226269521
:1020100032272327220F220F220F202581812827F4
:10202000022E2295207F2025032E322F22952F70FD
:102030000226269532272327220F220F220F202542
:1020400082812827022E2295207F2025032E322FE1
:1020500022952F700226269532272327220F220F42
:10206000220F202583812827022E2295207F2025DC
:10207000032E322F22952F700226269532272327F2
:10208000220F220F220F202584812827022E22953D
:10209000207F2025032E322F22952F700226269591
:1020A00032272327220F220F220F20258581282760
:1020B000022E2295207F2025032E322F22952F706D
:1020C0000226269532272327220F220F220F2025B2
:1020D00086812827022E2295207F2025032E322F4D
:1020E00022952F700226269532272327220F220FB2
:1020F000220F202587812827022E2295207F202548
:10210000032E322F22952F70022626953227232761
:10211000220F220F220F202580852827022E2295AC
:10212000207F2025032E322F22952F700226269500
:1021300032272327220F220F220F20254185C90194
:102140008427082E8295807F8025092E982F8295DE
:102150008F700826869598278927880F880F880F03
:10216000802508950FB6F894A4B12091B4012A2BCC
:1021700024B921E03091B401203029F0000025B1CC
:10218000232B25B904C000000000000000C000009F
:1021900000000000309525B1232325B92EEA2A95A9
:1021A000F1F72BEE30B735FF0AC0A4B93091B40176
:1021B000309525B1232325B90FBE80E00895000096
:1021C0002A9581F721E03091B401203029F00000F8
:1021D00025B1232B25B904C000000000000000C079
:1021E000000000000000309525B1232325B9000030
:1021F00024E52A95F1F7FC018CE0619170E0660F0F
:10220000771F616072609AE041E050E09A012623F6
:102210003723232B3091B401203029F0000025B161
:10222000232B25B904C000000000000000C00000FE
:1022300000000000309525B1232325B9000021E5D9
:102240002A95F1F7440F551F9A9501F78A95A9F63B
:1022500020B7206120BFA4B93091B401309525B1D9
:10226000232325B90FBE81E00895A3E1B0E0EBE39D
:10227000F1E10C9417157C011B015A01DC01179642
:102280001C921E92169713968C9181FF4DC3FE01EE
:1022900031964F01D70113969C91F10193FD8591E1
:1022A00093FF81911F01882309F4F1C2853239F42B
:1022B00093FD859193FF81911F01853239F4B70118
:1022C00090E00E94841A65015601E4CF10E0712C61
:1022D000612CBFE1B61538F08B3211F190F48032E9
:1022E00009F1833229F167FC3CC020ED280F2A3028
:1022F00050F566FE20C0EAE01E9F200D1124122F2B
:1023000006C08D3291F0803371F7689460F8F10166
:1023100093FD859193FF81911F018111DACF21C037
:10232000689461F8689462F8F2CF689463F8EFCF2C
:10233000689464F8ECCFFAE07F9E200D1124722E91
:10234000689465F8E4CF8E3229F466FCA0C26894E4
:1023500066F8DDCF8C3619F4689467F8D8CF8836E4
:10236000B1F29BEB980F933008F06FC0689464F85B
:10237000805E66FE16E0262D2F73622E853609F0EC
:102380006CC0689466F867FE72C0812F1C3308F039
:102390008BE344244394480E27E0D5014D915D9191
:1023A0006D917D916D014C875D876E877F87042DD0
:1023B000A4016C857D858E859F850E9496195C01A0
:1023C000B981BC87B0FF03C00DE2B3FF07C00BE2C9
:1023D00061FC04C0062D047062FC00E2EC85EC7028
:1023E0005E2E09F454C00111A2C2F3E0512CF7157E
:1023F000A0F483E0572C581A63FC08C0B70180E2B0
:1024000090E00E94841A5A945110F8CF002329F0CA
:10241000B701802F90E00E94841AFC8508E610E046
:10242000F3FD02C00CE610E0262D2071622EF801AB
:102430008491811123C0552009F446CFB70180E271
:1024400090E00E94841A5A94F6CF9BE9980F93303B
:1024500008F02DC1E89464F88CCF863619F468949E
:1024600067F891CF112309F48ECF11508CCF212F13
:10247000183010F027E017E0412C8FCF6110805208
:10248000B70190E00E94841A0F5F1F4FD0CF67FE04
:102490007AC04A0CFC85F4FF04C08A81813309F4B8
:1024A0004A9414140CF092C028E0241510F488E02B
:1024B000482E85E090E067FE06C0C501B7FE02C069
:1024C00080E090E0019601110196112331F0212F57
:1024D00030E02F5F3F4F820F931F7816190619F0D7
:1024E00014F0572C581A862D897011F4511073C0AE
:1024F000002329F0B701802F90E00E94841A63FC2A
:1025000002C051106FC067FE88C03501B7FE02C01F
:10251000712C612CC50186199709A401480F591F18
:10252000598B488BB501641971097B8B6A8B012F1C
:1025300010E0119501951109A614B7040CF459C0C7
:10254000AA89BB89A615B7050CF053C0E889F9899B
:102550008181F1E06F1A7108601671060CF44BC0AE
:10256000B70190E00E94841A2FEF6216720629F4D8
:10257000B7018EE290E00E94841A888999890196B9
:10258000998B888BD9CF66FC94CFE12FF0E0EA15C8
:10259000FB053CF03CEFA3163FEFB30614F0689444
:1025A00067F83296E80DF91D01C01150112319F09A
:1025B00082918033D1F367FE7CCF44244394410E53
:1025C0001A151B0431F02CF01A1973CF44244394CC
:1025D00070CF10E06ECFB70180E290E00E94841AC5
:1025E0005A9484CFB70180E390E00E94841A5A94F1
:1025F00088CF80E3AECFA614B70441F49A81963316
:1026000050F4953319F43C8534FF05C0B70190E0D0
:102610000E94841A10CF81E3F9CF8A81813319F0A7
:102620004C854F7E4C87B70190E00E94841A11239D
:1026300099F0B7018EE290E00E94841A1E5F02E0DA
:10264000802F0F5FF401E80FF11D8081B70190E04A
:102650000E94841A1013F4CF85E664FC85E490E0B0
:10266000B7010E94841AB7FC06C0A114B104C1F4DA
:102670005C8554FF15C0B194A194B1088DE2B701F7
:1026800090E00E94841A80E37AE0A716B10454F423
:10269000B70190E00E94841AB701C501C096B8CF77
:1026A0008BE2EDCF8F5F6AE0A61AB108EDCF8336DB
:1026B000B9F0833709F43AC0833509F04DC0D5012C
:1026C000AD90BD906D01612F70E066FC02C06FEFB0
:1026D0007FEFC5010E946E1A8C01689467F80CC0E8
:1026E000650182E0C80ED11CD5018C91898301E07F
:1026F00010E05401E89467F863FC04C070161106FA
:1027000009F018F5572C0115110509F494CEF501BF
:1027100067FC859167FE81915F01B70190E00E949F
:10272000841A51105A9401501109EDCFF501A1906E
:10273000B1906F01612F70E066FC02C06FEF7FEF18
:10274000C5010E94791A8C01D5CFB70180E290E0D3
:102750000E94841A7A94D2CF843619F0893609F00F
:102760006FC067FE64C0F501619171918191919193
:102770006F01B62DBF766B2E97FF09C0909580959F
:10278000709561957F4F8F4F9F4F689467F82AE04F
:1027900030E0A4010E94B41AA82EA818BA2C062D65
:1027A00066FE0AC00E7FA11638F464FE04C062FC07
:1027B00002C0062D0E7EB12E04FF8EC0FE01EA0D72
:1027C000F11D8081803309F080C0097E502F587040
:1027D000552E03FD90C000FF8AC01A2DB71410F4C7
:1027E000170D1B1904FF8DC0B70180E390E00E9414
:1027F000841A02FF07C088E701FD88E590E0B70171
:102800000E94841AA11608F488C0AA940A2D10E028
:102810000F5F1F4F080D191DD8018E918D01B70153
:1028200090E00E94841A08151905B1F704CED5016D
:102830006D917D916D01072E000C880B990B99CF3E
:10284000062D8537E1F40F7E2AE030E007FF35C022
:10285000D5014D915D916D917D916D014C875D87A5
:102860006E877F87A4016C857D858E859F850E94FC
:10287000B41AA82EA818602EE89467F88FCF097FA5
:10288000803791F058F4883589F08F36A1F0F70140
:10289000868197816396E2E10C9433158837B9F706
:1028A00004FD046020E1D1CF0061FACF64FC066032
:1028B00020E132E0CBCF28E0C8CFF50181919191A2
:1028C0006F01AC0170E060E0C9CF02FD02C0B394BB
:1028D0007DCFB394B3947ACF802F867809F476CFE6
:1028E000F6CFB70180E290E00E94841AB394B71447
:1028F000C0F3512C77CF572C5B18B71408F472CF64
:10290000F8CF802F867809F47DCF8BE201FF80E23B
:1029100007FD8DE2B70190E073CFB70180E390E04F
:102920000E94841A11506ECF8FEF9FEFB3CF24E037
:10293000512C271508F06CCD84E05CCD0E94F30685
:1029400085EE90E0909308018093070180EE90E07F
:10295000909306018093050166E574E088E191E0BB
:102960000E94ED0790E080E00895991B79E004C093
:10297000991F961708F0961B881F7A95C9F78095BE
:10298000089597FB072E16F4009407D077FD09D021
:102990000E944E1507FC05D03EF4909581959F4FFF
:1029A0000895709561957F4F0895A1E21A2EAA1B94
:1029B000BB1BFD010DC0AA1FBB1FEE1FFF1FA217EF
:1029C000B307E407F50720F0A21BB30BE40BF50BEC
:1029D000661F771F881F991F1A9469F76095709575
:1029E000809590959B01AC01BD01CF010895EE0F3C
:1029F000FF1F0590F491E02D0994A29FB001B39FB1
:102A0000C001A39F700D811D1124911DB29F700DF7
:102A1000811D1124911D08950E94FD14A59F900D04
:102A2000B49F900DA49F800D911D112408952F92A5
:102A30003F924F925F926F927F928F929F92AF924E
:102A4000BF92CF92DF92EF92FF920F931F93CF939B
:102A5000DF93CDB7DEB7CA1BDB0B0FB6F894DEBF32
:102A60000FBECDBF09942A88398848885F846E8458
:102A70007D848C849B84AA84B984C884DF80EE80A2
:102A8000FD800C811B81AA81B981CE0FD11D0FB6AB
:102A9000F894DEBF0FBECDBFED010895AA1BBB1B8E
:102AA00051E107C0AA1FBB1FA617B70710F0A61B4E
:102AB000B70B881F991F5A95A9F780959095BC016F
:102AC000CD0108955058BB27AA270E947A150C946F
:102AD000F4160E94E61638F00E94ED1620F039F444
:102AE0009F3F19F426F40C94E3160EF4E095E7FBEF
:102AF0000C94DD16E92F0E94051758F3BA176207E8
:102B000073078407950720F079F4A6F50C9427172E
:102B10000EF4E0950B2EBA2FA02D0B01B9019001F8
:102B20000C01CA01A0011124FF27591B99F0593F3C
:102B300050F4503E68F11A16F040A22F232F342F84
:102B40004427585FF3CF469537952795A795F040D2
:102B50005395C9F77EF41F16BA0B620B730B840BE7
:102B6000BAF09150A1F0FF0FBB1F661F771F881F9F
:102B7000C2F70EC0BA0F621F731F841F48F48795F7
:102B800077956795B795F7959E3F08F0B0CF9395E9
:102B9000880F08F09927EE0F9795879508950E9462
:102BA000B91608F481E008950E94E8150C94F41613
:102BB0000E94ED1658F00E94E61640F029F45F3F9F
:102BC00029F00C94DD1651110C9428170C94E3167F
:102BD0000E94051768F39923B1F3552391F3951BD0
:102BE000550BBB27AA2762177307840738F09F5F2E
:102BF0005F4F220F331F441FAA1FA9F335D00E2E9B
:102C00003AF0E0E832D091505040E695001CCAF707
:102C10002BD0FE2F29D0660F771F881FBB1F2617CA
:102C200037074807AB07B0E809F0BB0B802DBF01A1
:102C3000FF2793585F4F3AF09E3F510578F00C9470
:102C4000DD160C9428175F3FE4F3983ED4F3869585
:102C500077956795B795F7959F5FC9F7880F911D91
:102C60009695879597F90895E1E0660F771F881F7D
:102C7000BB1F621773078407BA0720F0621B730B30
:102C8000840BBA0BEE1F88F7E09508950E944D164D
:102C90006894B1110C94281708950E940D1788F0BC
:102CA0009F5798F0B92F9927B751B0F0E1F0660F10
:102CB000771F881F991F1AF0BA95C9F714C0B13051
:102CC00091F00E942717B1E008950C942717672F01
:102CD000782F8827B85F39F0B93FCCF38695779580
:102CE0006795B395D9F73EF4909580957095619569
:102CF0007F4F8F4F9F4F0895E89409C097FB3EF494
:102D000090958095709561957F4F8F4F9F4F992338
:102D1000A9F0F92F96E9BB279395F69587957795B6
:102D20006795B795F111F8CFFAF4BB0F11F460FF76
:102D30001BC06F5F7F4F8F4F9F4F16C0882311F0CE
:102D400096E911C0772321F09EE8872F762F05C0E2
:102D5000662371F096E8862F70E060E02AF09A957D
:102D6000660F771F881FDAF7880F9695879597F972
:102D70000895990F0008550FAA0BE0E8FEEF16160C
:102D80001706E807F907C0F012161306E407F5075F
:102D900098F0621B730B840B950B39F40A2661F0D3
:102DA000232B242B252B21F408950A2609F4A14076
:102DB000A6958FEF811D811D089597F99F6780E883
:102DC00070E060E008959FEF80EC089500240A947D
:102DD0001616170618060906089500240A941216F6
:102DE0001306140605060895092E0394000C11F429
:102DF000882352F0BB0F40F4BF2B11F460FF04C0D6
:102E00006F5F7F4F8F4F9F4F089557FD9058440F2E
:102E1000551F59F05F3F71F04795880F97FB991F39
:102E200061F09F3F79F087950895121613061406F6
:102E3000551FF2CF4695F1DF08C016161706180683
:102E4000991FF1CF86957105610508940895E8945E
:102E5000BB2766277727CB0197F908950E94411772
:102E60000C94F4160E94E61638F00E94ED1620F03D
:102E7000952311F00C94DD160C94E31611240C9498
:102E800028170E94051770F3959FC1F3950F50E026
:102E9000551F629FF001729FBB27F00DB11D639F0C
:102EA000AA27F00DB11DAA1F649F6627B00DA11DB2
:102EB000661F829F2227B00DA11D621F739FB00D58
:102EC000A11D621F839FA00D611D221F749F3327C8
:102ED000A00D611D231F849F600D211D822F762F61
:102EE0006A2F11249F5750409AF0F1F088234AF03E
:102EF000EE0FFF1FBB1F661F771F881F91505040AA
:102F0000A9F79E3F510580F00C94DD160C9428170C
:102F10005F3FE4F3983ED4F3869577956795B79530
:102F2000F795E7959F5FC1F7FE2B880F911D96954A
:102F3000879597F9089519F416F40C94E3160C94F8
:102F4000E1170E940D17B8F39923C9F3B6F39F5701
:102F5000550B87FF0E94EF170024A0E640EA90017E
:102F600080585695979528F4805C660F771F881FC8
:102F700020F026173707480730F4621B730B840BC9
:102F8000202931294A2BA69517940794202531250D
:102F90004A2758F7660F771F881F20F02617370734
:102FA000480730F4620B730B840B200D311D411D5B
:102FB000A09581F7B901842F9158880F9695879530
:102FC00008959F3F31F0915020F48795779567954C
:102FD000B795880F911D9695879597F9089591500B
:102FE0005040660F771F881FD2F708950F931F93E5
:102FF000CF93DF939C01029710F422E030E0E09140
:103000009301F091940190E080E0B0E0A0E030976F
:1030100091F4009709F445C0821B930B843091050D
:10302000B8F58A819B816115710569F1FB01938374
:103030008283FE0111C040815181028113814217B8
:103040005307F0F04217530799F4109761F0129666
:103050000C93129713961C933296CF01DF91CF9168
:103060001F910F9108950093930110939401F4CF51
:10307000009719F04817590718F4CA01BD01EF016C
:10308000DF01F801C4CF9093940180939301D1CFD5
:10309000FE01E80FF91F21933193029799838883EA
:1030A000DCCF8091950190919601892B41F480911C
:1030B0000B0190910C019093960180939501809162
:1030C000090190910A01009741F48DB79EB7409194
:1030D0000D0150910E01841B950B4091950150916B
:1030E00096014817590708F0B8CF841B950B821733
:1030F000930708F4B2CFB9016E5F7F4F8617970729
:1031000008F4ABCF640F751F70939601609395011F
:10311000FA0121933193A1CFCF93DF939C010097C4
:10312000E9F0FC01329713821282C0919301D09191
:103130009401DE0190E080E02097A1F480819181EC
:10314000280F391F8091950190919601821793075E
:1031500009F067C0F0939601E0939501DF91CF915C
:103160000895DA01AE17BF0708F041C012964D91DD
:103170005C911397CD014115510599F7DC01139628
:10318000FC93EE9312974D915D91A40FB51FEA1732
:10319000FB0781F4208131812E5F3F4F240F351FC3
:1031A000DC0111963C932E932281338113963C933C
:1031B0002E931297B0E0A0E08A819B810097B1F531
:1031C000FE0181919191E80FF91F809195019091F5
:1031D00096018E179F0711F6109759F510929401DA
:1031E00010929301D0939601C0939501B7CFB3830A
:1031F000A28340815181240F351FA217B30771F4B8
:103200004E5F5F4F2D913C911197420F531F518399
:10321000408312962D913C9133832283009709F0CD
:10322000ADCFF0939401E093930198CFDE01EC01D0
:10323000C3CF13961C921E921297D4CFCF92DF92D7
:10324000EF92FF92CF93DF93CDB7DEB72A970FB6F9
:10325000F894DEBF0FBECDBF89879A87A985BA854E
:103260002D913D914D915C9129833A834B835C83F1
:10327000232B242B252B41F424E239ED4BE557E099
:1032800029833A834B835C8369817A818B819C811A
:103290002DE133EF41E050E00E94281B69017A01E3
:1032A000A7EAB1E49B01AC010E940C1569837A8303
:1032B0008B839C83ACEEB4EFA70196010E944A1B5E
:1032C0009B01AC0189819A81AB81BC81820F931FE4
:1032D000A41FB51FB7FF03C00197A109B048E98536
:1032E000FA8580839183A283B3839F772A960FB652
:1032F000F894DEBF0FBECDBFDF91CF91FF90EF906E
:10330000DF90CF9008950E941E1908958FE091E0FC
:103310000E941E190895B0E0A0E080930F019093E1
:103320001001A0931101B09312010895283008F004
:1033300027E03327DA01990F311D87FD9160009650
:103340006105710539F432602E5F3D9330E32A95B3
:10335000E1F708959F3F30F080387105610509F06D
:103360003C5F3C5F3D93913008F08068911DDF9396
:10337000CF931F930F93FF92EF92192F987F9695FB
:10338000E92F96959695E90FFF27E653FF4F99276A
:103390003327EE24FF24A701E70105900894079442
:1033A00028F4360FE71EF81E491F511D660F771FC0
:1033B000881F991F0694A1F70590079428F4E70E3B
:1033C000F81E491F561FC11D770F881F991F661FC2
:1033D0000694A1F70590079428F4F80E491F561F8C
:1033E000C71FD11D880F991F661F771F0694A1F76D
:1033F0000590079420F4490F561FC71FD81F990F37
:10340000661F771F881F0694A9F78491109517707F
:1034100041F0D695C79557954795F794E7941A9537
:10342000C1F7E0E7F0E0689415901591359165914A
:10343000959105907FE27395E118F10A430B560BC5
:10344000C90BD009C0F7E10CF11E431F561FC91F5D
:10345000D01D7EF4703311F48A95E6CFE8940150C4
:1034600030F0080F0AF40027021708F4202F2395E4
:10347000022F7A3328F079E37D932A95E9F710C07B
:103480007D932A9589F606949795679537951795B4
:103490001794E118F10A430B560BC90BD00998F0A9
:1034A00023957E9173957A3308F070E37C93201313
:1034B000B8F77E9170617D9330F0839571E37D93D1
:1034C00070E32A95E1F71124EF90FF900F911F917F
:1034D000CF91DF91992787FD90950895FC01059084
:1034E000615070400110D8F7809590958E0F9F1F06
:1034F0000895FC016150704001900110D8F780954B
:1035000090958E0F9F1F08950F931F93CF93DF9376
:10351000182F092FEB018B8181FD09C01FEF0FEFE1
:10352000812F902FDF91CF911F910F91089582FFEE
:1035300014C02E813F818C819D81281739073CF46E
:10354000E881F981CF0101969983888310838E8168
:103550009F8101969F838E83E3CFE885F985812F34
:103560000995892BA1F3DACFFA01AA27283051F166
:10357000203181F1E8946F936E7F6E5F7F4F8F4FA4
:103580009F4FAF4FB1E03ED0B4E03CD0670F781F03
:10359000891F9A1FA11D680F791F8A1F911DA11DE8
:1035A0006A0F711D811D911DA11D20D009F4689421
:1035B0003F912AE0269F11243019305D3193DEF6C9
:1035C000CF010895462F4770405D4193B3E00FD07F
:1035D000C9F7F6CF462F4F70405D4A3318F0495D6A
:1035E00031FD4052419302D0A9F7EACFB4E0A6954D
:1035F0009795879577956795BA95C9F7009761056F
:10360000710508959B01AC010A2E069457954795C4
:1036100037952795BA95C9F7620F731F841F951FB9
:10362000A01D0895F999FECF92BD81BDF89A992702
:1036300080B50895262FF999FECF1FBA92BD81BD9E
:1036400020BD0FB6F894FA9AF99A0FBE0196089524
:10365000052E97FB1EF400940E943F1B57FD07D0D8
:103660000E94D51407FC03D04EF40C943F1B5095D8
:103670004095309521953F4F4F4F5F4F089590955E
:103680008095709561957F4F8F4F9F4F0895B7FF3D
:103690000C940C150E940C15821B930B0895F89442
:1036A000FFCF4F083B080F0805080C08A9089E0823
:1036B000850F410E410E820F680F640F600F5C0F83
:0636C000480F1F0FF90E78
:1036C6001401AADD06DA06D9060000F5012000017C
:0436D60000000000F0
:00000001FF
