:100000000C94B5000C94DE000C94DE000C94DE0021
:100010000C94DE000C94DE000C942F080C94DE008F
:100020000C94DE000C94DE000C94DE000C943A0E6E
:100030000C94DE000C94DE000C949A0D0C94DE00FF
:100040000C94DE000C94DE000C94DE000C94DE00B8
:100050000C94DE000C94DE000C94DE000C945A0E1E
:100060000C94DE000C94DE006E616E00696E66001A
:1000700000407A10F35A00A0724E18090010A5D45F
:10008000E80000E87648170000E40B54020000CABC
:100090009A3B000000E1F505000080969800000002
:1000A00040420F000000A086010000001027000061
:1000B0000000E803000000006400000000000A00E7
:1000C000000000000100000000002C76D888DC67EA
:1000D0004F0823DFC1DFAE59E1B1B796E5E3E45342
:1000E000C63AE651997696E8E6C28426EB898C9B5F
:1000F00062ED407C6FFCEFBC9C9F40F2BAA56FA5FF
:10010000F490055A2AF75C936B6CF9676DC11BFC80
:10011000E0E40D47FEF520E6B500D0ED902E03009B
:10012000943577050080841E080000204E0A0000E8
:1001300000C80C333333330F986E12831141EF8DA7
:100140002114893BE65516CFFEE6DB18D1844B38E7
:100150001BF77C1D901DA4BBE424203284725E2218
:100160008100C9F124ECA1E53D2711241FBECFEF8A
:10017000D8E0DEBFCDBF14BE0FB6F894A89580912D
:100180006000886180936000109260000FBE11E0F3
:10019000A0E0B1E0E0E6F7E302C005900D92A431E3
:1001A000B107D9F721E0A4E1B1E001C01D92A83F59
:1001B000B207E1F70E94F7140C949C1B0C9400000A
:1001C00080910001909101010895CF93DF93DC01AC
:1001D000E0910001F0910101EB01488159816A81B0
:1001E0007B81458756876787708B81E0848711966E
:1001F0004C91119750E070E060E047AB50AF61AFB9
:1002000072AF12964C91129750E070E060E043AFED
:1002100054AF65AF76AFEF01EF9613964C911397FD
:1002200050E070E060E0488359836A837B83EB5B36
:10023000FF4F14968C918083DF91CF910895CF93D7
:10024000DF9300D000D000D0CDB7DEB78091F301AE
:100250008B5E0E949E0A20910001309101013A8339
:1002600029838091F3019091F401B0E0A0E0F901BD
:10027000868F978FA0A3B1A388EC90E00E944318CB
:10028000FC01A981BA81A65ABF4F8D939C93A98185
:10029000BA81A65BBF4F1D921D921D921C921397AF
:1002A000A981BA81AA5ABF4F1D921D921D921C921C
:1002B0001397A981BA81AA5BBF4F1D921D921D920F
:1002C0001C921397A981BA81DB961D921D921D92F3
:1002D0001C92DE97A45ABF4F1D921D921D921C9234
:1002E0001397A981BA81A05ABF4F1D921D921D92EA
:1002F0001C921397A981BA81A859BF4F1D921D92D4
:100300001D921C92139788ECDF011D928A95E9F7E4
:10031000E981FA8112A213A214A215A213AA14AAA7
:1003200015AA16AA16A617A610AA11AA8091BD0191
:100330009091BE01A091BF01B091C001EC58FF4F58
:1003400080839183A283B383A981BA8196961D92FB
:100350001D921D921C929997FD0112A613A614A638
:1003600015A6E25BFF4F108211821282138234962F
:1003700010821182128213829D0128583F4FD901A9
:100380001C9280E00E94170EE0910001F0910101A3
:10039000138A148A158A168A178A84EB808F88E755
:1003A00090E0A0E0B0E0818F928FA38FB48F0E9485
:1003B000860AE0910001F0910101FE83ED83282F70
:1003C00030E050E040E029833A834B835C83218D09
:1003D000328D438D548D69817A818B819C810E94FD
:1003E000221569837A838B839C83DC01CB01019680
:1003F000A11DB11DED81FE81838B948BA58BB68BE6
:10040000EC5BFF4F1082ED81FE81EB5BFF4F1082B2
:10041000AD81BE815D968C91882349F060E080E0DB
:100420000E948809E0910001F0910101158E269645
:100430000FB6F894DEBF0FBECDBFDF91CF91089508
:10044000CF93DF93C82FD62F811113C0662359F0A5
:100450008091B400811107C06FEF0E9488098FE07E
:1004600090E00E947D096D2F8C2FDF91CF910C942D
:1004700088099091B30081E0911111C08195DD232D
:1004800049F09091B400992339F3882361F38FEFF9
:1004900060E0E3CF882339F360E08FEFDECF80E0C8
:1004A0008195D111EECFF6CF1F93CF93DF93C82F55
:1004B000E0910001F0910101858D8C1779F0C23037
:1004C000A1F1C330F1F0C13069F060E080E00E943A
:1004D0008809E0910001F0910101C58FDF91CF9172
:1004E0001F9108951091F601D091F501D11132C0FC
:1004F000112309F441C08091B40081113DC06FEF18
:1005000035C0D091E301DD2359F08091B400811111
:1005100007C06FEF0E9488098FE090E00E947D097C
:100520006D2F80E00E948809D4CFD091F701DD23A0
:1005300061F08091B300811108C060E08FEF0E94EC
:1005400088098FE090E00E947D0960E08D2F0E9475
:100550008809BFCF9091B30081E0911180E081952F
:1005600011110FC0882341F060E08FEF0E948809CD
:100570008FE090E00E947D09612F8D2F0E948809F5
:10058000A8CF9091B400992309F4B9CF8823A1F39F
:100590008FEF60E0EBCF08950F931F93E091000180
:1005A000F0910101858D813009F461C09EEF980FB3
:1005B000923008F04EC04091BD015091BE01609153
:1005C000BF017091C001278983899489A589B68963
:1005D000820F911DA11DB11D84179507A607B707AE
:1005E000A8F58091BD019091BE01A091BF01B0918D
:1005F000C001838B948BA58BB68B0091F601109173
:10060000F501112309F488C09091B30081E09111A4
:10061000ACC08195002309F4AAC09091B40099233D
:1006200009F481C0882341F08FEF60E00E948809BF
:100630008FE090E00E947D09602F812F0E94880941
:10064000E0910001F091010181E0858F1F910F91F0
:1006500008958823D9F360E080E00E948809E09142
:100660000001F0910101158E1F910F9108954091A5
:10067000BD015091BE016091BF017091C00183899D
:100680009489A589B689018D128D238D348D800FB3
:10069000911FA21FB31F84179507A607B707B0F6CF
:1006A0008091BD019091BE01A091BF01B091C001A8
:1006B000838B948BA58BB68B0E94860AE0910001F8
:1006C000F091010180FF31C0858D8230D1F0109111
:1006D000F701112361F08091B300811108C060E03F
:1006E0008FEF0E9488098FE090E00E947D0960E012
:1006F000812F0E948809E0910001F091010182E0C0
:10070000858F0E94860AE0910001F091010180FD31
:1007100029C08AE5878B9ACF002309F48DCF809179
:10072000B400811189CF6FEF81CF858D833049F37C
:100730001091E301112359F08091B400811107C099
:100740006FEF0E9488098FE090E00E947D09612F81
:1007500080E00E948809E0910001F091010183E0AE
:10076000858FCFCF84EB878B71CF80E052CF8823EA
:1007700009F462CF60E08FEF59CFCF93DF93C09140
:100780000001D09101018E8D89838AA18A838BA972
:100790008B83FE01EC5BFF4F80818C83CE010E9436
:1007A00052109B878A87DF91CF910895E0910001D5
:1007B000F0910101DF01A65BBF4F1D921D921D92BA
:1007C0001C9213971C961D921D921D921C921397BA
:1007D00050971D921D921D921C92139713AE14AE4A
:1007E00015AE16AE56961D921D921D921C92139731
:1007F00014961D921D921D921C92139718961D928D
:100800001D921D921C921397E65AFF4F0190F081A2
:10081000E02D88ECDF011D928A95E9F70895CF93CA
:10082000DF93E0910001F0910101EF01C65ADF4F23
:1008300087A990AD880F991F880F991FA881B9814A
:10084000A80FB91F4D915D916D917C911397452B28
:10085000462B472B79F541E050E060E070E04D9386
:100860005D936D937C931397649788819981AA8196
:10087000BB810196A11DB11D88839983AA83BB8387
:1008800083AD94ADA5ADB6AD81309105A105B1059F
:10089000A1F00297A105B10569F4EA5AFF4F8081E2
:1008A0009181A281B3810196A11DB11D80839183A5
:1008B000A283B383DF91CF910895E65BFF4F8081E0
:1008C0009181A281B3810196A11DB11D8083918385
:1008D000A283B383DF91CF910895CF92DF92EF92FD
:1008E000FF920F931F93CF93DF93E0910001F0915C
:1008F0000101DF01A858BF4F8C912091F301309185
:10090000F401EF0121313105D1F1CB5BDF4F98814B
:10091000913081F0882339F1813079F084858130FC
:10092000B1F0DF91CF911F910F91FF90EF90DF9089
:10093000CF900895811116C09C9380E10E94170EFC
:10094000E0910001F09101018485813051F7148616
:10095000DF91CF911F910F91FF90EF90DF90CF909B
:100960000C940F041C9281E00E94170EE09100018C
:10097000F0910101DF01A858BF4F8C91CDCFCC5829
:10098000DF4F488159816A817B810091BD011091BF
:10099000BE012091BF013091C0016A017B0194E644
:1009A000C90ED11CE11CF11C0C151D052E053F05BF
:1009B00030F1EC5BFF4F91E090834A565F4F6F4FF1
:1009C0007F4F811123C09C938091BD019091BE0106
:1009D000A091BF01B091C00184179507A607B70782
:1009E00008F4ABCF8091BD019091BE01A091BF01F1
:1009F000B091C00188839983AA83BB839ECFDF0116
:100A0000AC5BBF4F1C92811187CFADCF1C92809100
:100A1000BD019091BE01A091BF01B091C0018417AA
:100A20009507A607B70708F49ECF8091BD01909166
:100A3000BE01A091BF01B091C00188839983AA83B0
:100A4000BB8391CF4F925F926F927F928F929F92D2
:100A5000AF92BF92CF92DF92EF92FF920F931F93CC
:100A6000CF93DF9300D000D000D0CDB7DEB7209178
:100A70000001309101013E832D83F90186A197A1E8
:100A8000A0A5B1A50197A105B10509F43BC1EA5B99
:100A9000FF4FC080D180E280F380F901C114D104FE
:100AA000E104F10409F0ACC0E25BFF4F1082118257
:100AB00012821382ED81FE81EE5AFF4F1082118265
:100AC0001282138224E030E040E050E084E0E82E1F
:100AD000F12C00E010E0ED81FE81E45AFF4FE0824E
:100AE000F18202831383AD81BE81A05ABF4F2C9344
:100AF00011963C93119712964C93129713965C9310
:100B00000E94860AA0900001B090010199E2899F9D
:100B1000912D112492959F70B4E69B9F801911240A
:100B200090E0B0E0A0E0A50148595F4FFA01808352
:100B30009183A283B3834C505109FA010081118142
:100B40002281338180179107A207B307C8F441E0DF
:100B500050E060E070E0F50142A353A364A375A3E5
:100B6000C090BD01D090BE01E090BF01F090C001E7
:100B7000C2A6D3A6E4A6F5A646A757A760AB71AB5D
:100B8000B501605A7F4FFB014081518162817381C1
:100B9000400F511F621F731F081719072A073B07D1
:100BA00008F490C0481759076A077B0790F4D501ED
:100BB00092961D921D921D921C929597F50116A674
:100BC00017A610AA11AA9A961D921D921D921C9208
:100BD0009D9726960FB6F894DEBF0FBECDBFDF916E
:100BE000CF911F910F91FF90EF90DF90CF90BF902A
:100BF000AF909F908F907F906F905F904F900895EF
:100C0000E65BFF4F2081318142815381A4E6B0E051
:100C10000E945915A70196010E94221549015A0107
:100C2000ED81FE81E25BFF4F80829182A282B382DE
:100C3000ED81FE81EA5AFF4F20813181428153814B
:100C4000A4E6B0E00E945915A70196010E94221562
:100C500029013A01ED81FE81EE5AFF4F4082518217
:100C600062827382ACE3B0E0A50194010E94591541
:100C70009B01AC0120573E4F4F4F5F4F94E6892EAA
:100C8000912CA12CB12CCA01B901A50194010E949B
:100C9000221579018A01ACE3B0E0A30192010E9420
:100CA0005915DC01CB0180579E4FAF4FBF4F898351
:100CB0009A83AB83BC83BC01CD01A50194010E9442
:100CC000221509CF481759076A077B0708F46ACF2E
:100CD00082E090E0A0E0B0E0F50182A393A3A4A39A
:100CE000B5A386A797A7A0ABB1AB8091BD019091AA
:100CF000BE01A091BF01B091C00182A793A7A4A794
:100D0000B5A767CF12A213A214A215A213AA14AA00
:100D100015AA16AA12A613A614A615A616A217A2FD
:100D200010A611A656CF8F929F92AF92BF92EF92CC
:100D3000FF920F931F93CF93DF93CDB7DEB76297E8
:100D40000FB6F894DEBF0FBECDBF4B015C018D82A4
:100D50009E82AF82B886C901DA0189879A87AB87FC
:100D6000BC870D871E872D813E814F815885CA0122
:100D7000B9010E947B175B018C0129853A854B855F
:100D80005C85CA01B9010E947B179B01AC01A98255
:100D9000BA820B831C8369817A818B819C810E943A
:100DA000B01569837A838B839C8369817A818B8177
:100DB0009C810E94EE178B015C0120E030E048EC42
:100DC00053E469831A838B83BC8269817A818B8126
:100DD0009C810E941C1687FD42C08D819E81AF813F
:100DE000B885B0588D839E83AF83B8879801A501DD
:100DF000BC01CD010E9421166F87788B898B9A8B5D
:100E0000AD85BE856D937D938D939C931397898556
:100E10009A85AB85BC85B05889879A87AB87BC8794
:100E20009801A501BC01CD010E942116D7016D9347
:100E30007D938D939C93139781E090E062960FB61B
:100E4000F894DEBF0FBECDBFDF91CF911F910F9100
:100E5000FF90EF90BF90AF909F908F90089590E09B
:100E600080E0ECCF089590E080E0089508955598D3
:100E700054983B9A3A9A3D983C980895559A549ABA
:100E80003B983A983D983C980895559854983B98CB
:100E90003A983D983C980895AF92BF92DF92EF92B6
:100EA000FF920F931F93CF93DF93F89414B817B862
:100EB0001AB815B818B81BB8529A5A9A14BC85E0DB
:100EC00085BD8FEF87BD82E080936E001092800019
:100ED000109281002FE83BE0309389002093880036
:100EE00080936F005398239891EA9093B000809379
:100EF000B1001092B4001092B3008BE080BF83E089
:100F000080937F0086E080937C0083E880937A0062
:100F100080917A00806480937A0080917A0086FDC7
:100F2000FCCF10927C0083EA80937A0081E080936A
:100F30007B0081E090E00E945F1B8F3F11F0809367
:100F400066001092C101C1E0C0939A01C093DE0116
:100F50001092B8011092F20180E990E00E945F1BAC
:100F60008093B7018091B701887311F0C093B701E6
:100F70001092E2011092E1018FEF90E09093E00176
:100F80008093DF011092BD011092BE011092BF014B
:100F90001092C00181E08093950182E49FE09093DC
:100FA000F1018093F00180EB90E00E945F1BC82F5D
:100FB00081EB90E00E945F1BD82FD093F401C09387
:100FC000F30185E090E00E945F1B8093F70189E0C8
:100FD00090E00E945F1B8093E3018CE090E00E9410
:100FE0005F1B8093F50184E190E00E945F1B80937A
:100FF000F60102EC11E08BE9E82E81E0F82E9EED7F
:10100000A92E91E0B92EC0E2D0E0CE010E945F1B74
:10101000D82ECE0101960E945F1B9D2DF801819371
:1010200091938F01CE01C0960E945F1BD82ECE01F6
:10103000C1960E945F1B9D2DF701819391937F01C3
:101040002296A016B10609F77894DF91CF911F91EF
:101050000F91FF90EF90DF90BF90AF9008950F92A7
:101060000FB60F921F9211248F930FB6F894A89584
:1010700080916000886180936000109260000FBED4
:101080008F911F900F900FBE0F9018953C01EB01B0
:1010900010E099249A9484E0C82E96E0A92E23E8C3
:1010A000B22E38E1D32E49E2E42EE0919501E730EB
:1010B000E0F7F0E0E256F44E0C944415111102C032
:1010C000F3010995C092950111E0FE010995EDCF5C
:1010D0008091C1018111E9C0F894A0927C00B09286
:1010E0007A0080917A00806480937A0080917A00FF
:1010F00086FDFCCF809178009091790078948B3AAE
:10110000E2E09E070CF0CEC08938F2E09F070CF0B9
:10111000CFC0873692400CF4C8C0559A549A3B9A77
:101120003A9A3D983C98C1CF0E943707EFECF7E020
:101130003197F1F700C000000E944507FFEF21EE54
:1011400084E0F15020408040E1F700C00000ADCFC6
:10115000F89480B7877F80BF80917A008F778093E3
:101160007A0014B817B81AB815B818B81BB80FB663
:10117000F894A895D09260000FBEE0926000809134
:10118000600080648093600083B7817F846083BF48
:10119000F89483B7816083BF7894889583B78E7FF6
:1011A00083BF78941092C101529A5A9A80917A0022
:1011B000806880937A0087E592E00197F1F700C09C
:1011C000000080B7886180BF559A549A3B9A3A9A3A
:1011D0003D9A3C9AEFE1FEE43197F1F700C0000040
:1011E0008091C101811152C00E9445075ECF80915C
:1011F0009301811121C01092B3001092B40010929B
:10120000940153CF4899F0CF559A54983B983A9807
:101210003D983C988FEC97E00197F1F700C00000F3
:101220000E9445079FEFE1EEF4E09150E040F0406E
:10123000E1F700C0000039CF9091930180919401B3
:10124000981709F432CF8091930180939401809193
:1012500093018130A1F1809193011092B30090929B
:10126000B4008230E9F19092B3009092B4008FE222
:1012700095E70197F1F700C000008091F601909189
:10128000F5019093B3008093B4000FCF0E943E0706
:10129000FFEF20E782E0F15020408040E1F700C0FE
:1012A0000000A2CF0E94370700CF0E943E07FDCE6C
:1012B000559854983B983A983D9A3C9AF6CE90921D
:1012C000B3001092B4008FE295E70197F1F700C0E8
:1012D00000008091F7018093B3001092B400E5CE36
:1012E000EFE2F5E73197F1F700C000008091E301EC
:1012F0001092B3008093B400D8CE07C0EFECF7E0B3
:101300003197F1F700C0000001970097B9F70895F1
:101310008093B3006093B40008958FEF8093B3007F
:101320008093B4008FEC97E00197F1F700C00000C4
:101330008FEC97E00197F1F700C000008FEC97E089
:101340000197F1F700C000008FEC97E00197F1F7EB
:1013500000C000008FEC97E00197F1F700C000009B
:101360008FEC97E00197F1F700C000008FEC97E059
:101370000197F1F700C000008FEC97E00197F1F7BB
:1013800000C000008FEC97E00197F1F700C000006B
:101390008FEC97E00197F1F700C000008FEC97E029
:1013A0000197F1F700C000008FEC97E00197F1F78B
:1013B00000C000008FEC97E00197F1F700C000003B
:1013C0008FEC97E00197F1F700C000008FEC97E0F9
:1013D0000197F1F700C0000008958091C1018111CB
:1013E0001EC0F89487E080937C0083E880937A00A5
:1013F00080917A00806480937A0080917A0086FDE3
:10140000FCCF809178009091790010927C0023EAC3
:1014100020937A0021E020937B00789408958FEF49
:101420009FEF08958091C10181111EC0F89488EC4E
:1014300080937C0087E880937A0080917A008064B2
:1014400080937A0080917A0086FDFCCF80917800AD
:101450009091790010927C0023EA20937A0021E099
:1014600020937B00789408958FEF9FEF08950F935A
:101470001F93CF93DF93F0E0E0E080E006E013E815
:10148000D3EAC1E0A1E0B0E060E870E0F894009336
:101490007C0010937A0090917A00906490937A0087
:1014A00090917A0096FDFCCF2091780030917900E0
:1014B000217090917A00906490937A0090917A00D4
:1014C00096FDFCCF409178005091790010927C00FD
:1014D000D0937A00C0937B0078944170241303C0AA
:1014E0006150710999F6222339F09D010E2E01C039
:1014F000220F0A94EAF7822B3196E830F10509F0C1
:10150000C3CFDF91CF911F910F91089520910201D8
:10151000822F880F880F880F28279091920181E0F1
:10152000890F80939201822F8295869587708227FA
:1015300096959695892780930201089580930201DC
:1015400008958091C101811116C0F89486E08093BE
:101550007C0083E880937A0080917A008064809395
:101560007A0080917A0086FDFCCF8091780090917E
:101570007900789408958FEF9FEF08952F923F920E
:101580004F925F926F927F928F929F92AF92BF9293
:10159000CF92DF92EF92FF920F931F93CF93DF933F
:1015A00000D000D000D0CDB7DEB71C01DC01129610
:1015B0000D90BC91A02DBE83AD83A438E3E0BE079F
:1015C0002CF1DC01ED90FC908091C2019091C3015F
:1015D0008E159F0508F0C1C181E226960FB6F894DA
:1015E000DEBF0FBECDBFDF91CF911F910F91FF9056
:1015F000EF90DF90CF90BF90AF909F908F907F90B3
:101600006F905F904F903F902F90089580919B0135
:1016100090919C018A179B0708F079C0AD3BB240BE
:10162000DCF2D101ED90FC908091C2019091C30158
:101630008E159F0508F4B0C119820091C401109164
:10164000C5010E151F0508F4B1C10091C601109126
:10165000C7010E151F0508F409C20091C8011091B9
:10166000C9010E151F0508F406C20091CA011091A8
:10167000CB010E151F0508F403C20091CC01109197
:10168000CD010E151F0508F400C20091CE01109186
:10169000CF010E151F0508F4FDC10091D001109176
:1016A000D1010E151F0508F402C20091D20110915C
:1016B000D3010E151F0508F403C20091D401109147
:1016C000D5010E151F0508F400C20091D601109136
:1016D000D7010E151F0508F401C20091D801109121
:1016E000D9010E151F0508F4FEC10091DA01109111
:1016F000DB010E151F0508F403C20091DC011091F7
:10170000DD010E151F0508F404C21AE5D6C00091CC
:101710009D0110919E010A171B0708F4C0C100919A
:101720009F011091A0010A171B0708F4BCC100918A
:10173000A1011091A2010A171B0708F4BDC1009175
:10174000A3011091A4010A171B0708F42BC10091F3
:10175000A5011091A6010A171B0708F4BBC100914F
:10176000A7011091A8010A171B0708F4C1C1009135
:10177000A9011091AA010A171B0708F4BDC1009125
:10178000AB011091AC010A171B0708F4BEC1009110
:10179000AD011091AE010A171B0708F4E1C00091DA
:1017A000AF011091B0010A171B0708F4B7C10091EF
:1017B000B1011091B2010A171B0708F4B3C10091DF
:1017C000B3011091B4010A171B0708F4AFC10091CF
:1017D000B5011091B6016DE08DE090E00A171B078E
:1017E00008F4C1C080E090E0A0EDB0E489839A8362
:1017F000AB83BC832CE0E22EF12CF701EE0FFF1F30
:10180000E556FE4F80819181B801681B790B90E00D
:1018100080E00E94C9169B01AC010E94B0156B01CB
:101820007C01AD81BE81BD01BB0F880B990B0E946D
:10183000CB164B015C01B80190E080E00E94C91614
:101840002B013C0129813A814B815C81C701B601A2
:101850000E947B179B01AC01C301B2010E94AF152E
:101860009B01AC01C501B4010E94AF1520E030E03E
:1018700040E251E40E947B170E9493168B01C7013E
:10188000B6010E949316AB01C801BA010E940E1561
:101890006983ED81FE8181E2860FED3BF2400CF41D
:1018A0009CCED101ED90FC908091C2019091C3013A
:1018B0008E159F0508F0C1CE10E0B98181E2810F3D
:1018C000BF3F09F48ACE6B2F70E090E080E00E9469
:1018D000C9164B015C01612F70E090E080E00E942E
:1018E000C9162B013C012D813E81B901330F880BB4
:1018F000990B0E94CB166B017C01AC019B0160E04F
:1019000070E081E694E40E94AF15A50194010E9465
:101910007B174B015C0120E030E04FE254E4C7014B
:10192000B6010E94AF15A30192010E947B179B0193
:10193000AC01C501B4010E94B01520E030E048E4DC
:1019400053E40E94211620E030E044E052E40E947B
:10195000B0150E949A16862F40CEBFEFB9836DCE88
:1019600069E089E090E07C01F1E0EF1AF10870E0B5
:1019700090E080E00E94C91620E030E040E05FE3A4
:101980000E947B1720E030E0A9010E94B015698316
:101990007A838B839C8331CF412C512C32015301AC
:1019A0004201A1CF64E084E090E0DDCF33243394A2
:1019B000E1E0F0E0EE0FFF1FE054FE4F80819181E7
:1019C000B801681B790B90E080E00E94C9169B016A
:1019D000AC010E94B0154B015C01B701FF0C880BF4
:1019E000990B0E94CB162B013C01B80190E080E0DE
:1019F0000E94C9166B017C01632D70E090E080E0CD
:101A00000E94C91620E030E040E05FE30E947B17AF
:101A100020E030E0A9010E94B015A50194010E94C8
:101A20007B179B01AC01C701B6010E94AF159B015A
:101A3000AC01C301B2010E94AF1520E030E040E2EA
:101A400051E40E947B170E9493168B01C501B401DB
:101A50000E949316AB01C801BA010E940E15162F01
:101A60006F3F09F02ACF89818F5DB7CD82E0382E94
:101A7000E2E0F0E09FCFB3E03B2EE3E0F0E09ACF6E
:101A8000A4E03A2EE4E0F0E095CFF5E03F2EE5E06B
:101A9000F0E090CFE6E03E2EE6E0F0E08BCF61E0B4
:101AA00081E090E060CF62E082E090E05CCF77E0A0
:101AB000372EE7E0F0E07ECF63E083E090E053CFA5
:101AC00068E0362EE8E0F0E075CF59E0352EE9E029
:101AD000F0E070CF65E085E090E045CF4AE0342E3D
:101AE000EAE0F0E067CF3BE0332EEBE0F0E062CFDE
:101AF00066E086E090E037CF67E087E090E033CFA4
:101B00002CE0322EECE0F0E055CF68E088E090E089
:101B10002ACF9DE0392EEDE0F0E04CCF6AE08AE07C
:101B200090E021CF6BE08BE090E01DCF6CE08CE08B
:101B300090E019CF1F920F920FB60F9211242F939E
:101B40003F934F935F936F937F938F939F93AF9345
:101B5000BF93EF93FF938091E1019091E201209177
:101B6000DF013091E001820F931F9093E201809397
:101B7000E1018FEF90E09093E0018093DF018FEF20
:101B800087BD8091BD019091BE01A091BF01B09130
:101B9000C0010196A11DB11D8093BD019093BE01AE
:101BA000A093BF01B093C0018091C10181110FC00A
:101BB0008091F0019091F1012091E1013091E201D9
:101BC0008217930720F480919501843089F0FF916A
:101BD000EF91BF91AF919F918F917F916F915F91A5
:101BE0004F913F912F910F900FBE0F901F9018951E
:101BF000E0910501F09106010995009741F30E94DB
:101C00000B11882351F0E0910301F0910401099533
:101C10001092E2011092E101DACF0E94D3199C01E7
:101C200033273093E0012093DF0187BDD0CF80FFC1
:101C300016C0559A81FF16C0549A82FF16C03B9A6F
:101C400083FF16C03A9A84FF05C03D9A85FF05C000
:101C50003C9A08953D9885FDFBCF3C980895559892
:101C600081FDEACF549882FDEACF3B9883FDEACF0D
:101C70003A98E9CF1F921FB61F9211248F939F931A
:101C800010928100109285001092840081E0809370
:101C90009A018093DE011092C10110927C0093EAB8
:101CA00090937A0080937B009F918F911F901FBE2D
:101CB0001F9018951F920F920FB60F9211242F9319
:101CC0003F934F935F936F937F938F939F93AF93C4
:101CD000BF93CF93DF93EF93FF93209184003091D4
:101CE000850041E04093C10180919A018823A9F1C8
:101CF0001092850010928400409381001092F201AE
:101D000010929A018091DE018823A1F080917A00DF
:101D100086FDFCCF80917800909179009093BC0172
:101D20008093BB0181E080937C0093EA90937A00DA
:101D300080937B00FF91EF91DF91CF91BF91AF91A5
:101D40009F918F917F916F915F914F913F912F91D3
:101D50000F900FBE0F901F901895C90187589109D9
:101D600084379940A0F01092810010928500109263
:101D7000840040939A014093DE011092C1011092B9
:101D80007C0083EA80937A0040937B00D3CF26586F
:101D90003109A4EFB0E00E944A15AA27BB2788307A
:101DA00008F465C040939A018091DE0181113CC026
:101DB0008091B801E82FF0E0EC51FE4F9091F201D4
:101DC00090838F5F8093B8018C3009F0B3CF10926D
:101DD000810010928500109284004093DE011092E1
:101DE000C101C091EE01D091EF0184EE91E00E941B
:101DF0005210C817D90709F09DCFE091ED01E7FF18
:101E000047C098E79E0F933030F053982398109274
:101E1000B4001092B300E058EB3008F08BCFF0E044
:101E2000EB55F44E0C94441580917A0086FDFCCF5E
:101E300080917800909179009093BA018093B901D4
:101E400010927C0083EA80937A0081E080937B008B
:101E50009091F2019923B9F01092810010928500BF
:101E6000109284008093DE011092C10163CF21E0C3
:101E700030E001C0220F8A95EAF78091F201822BAF
:101E80008093F20157CF1092DE011092B80152CF29
:101E9000E0910701F091080169EB71E084EE91E0B7
:101EA000099548CF8091E401823009F4E3C008F03D
:101EB0006BC0882309F4A6C0813009F0D7C0809197
:101EC000E5019091E6019093F4018093F301109263
:101ED000930180919501863009F42CCF539A239A6F
:101EE0001092B4001092B30086E08093950122CF47
:101EF00080919501863079F0539A239A1092B4001C
:101F00001092B3000E944507109293011092940121
:101F100086E0809395012091E40181E090E002C089
:101F2000880F991F2A95E2F72091F3013091F4016F
:101F300082239323892B09F462C081E0809393016B
:101F4000F9CE80919501833009F4F4CE809195010A
:101F5000843009F4EFCE539A239A1092B400109271
:101F6000B30083E080939501E5CE82E080939501F4
:101F7000E1CE85E080939501DDCE81E080939501EF
:101F8000D9CE10929501D6CE833051F1843009F02C
:101F90006DC0209193018091EA019091E901233075
:101FA000B1F01092940123E0209393019093F501F6
:101FB0008093F6018ECFF0E0E0E0099580916E000D
:101FC0008D7F80936E0016BCE0E0F0E709952091CC
:101FD000F6012813E6CF2091F5012913E2CF79CF3E
:101FE000909193018091E801923009F451C01092D0
:101FF000940192E0909393018093E3016ACF109251
:10200000930198CE80919501863009F093CE60912E
:10201000F30180EB90E00E94671B6091F40181EB7B
:1020200090E00E94671B6091F70185E090E00E94BC
:10203000671B6091E30189E090E00E94671B60915B
:10204000F5018CE090E00E94671B6091F60184E14D
:1020500090E00E94671B539823981092B40010924E
:10206000B30081E0809395018091E401882309F415
:1020700061CE2FCF909193018091E701913069F06B
:102080001092940191E0909393018093F70121CFF6
:102090009091E3019813ABCF1CCF9091F701981367
:1020A000EFCF17CFFC0180812FEF3FEF2827022EC3
:1020B0002295207F2025032E322F22952F70022675
:1020C000269532272327220F220F220F20258181D8
:1020D0002827022E2295207F2025032E322F22959D
:1020E0002F700226269532272327220F220F220F38
:1020F000202582812827022E2295207F2025032E4D
:10210000322F22952F700226269532272327220F61
:10211000220F220F202583812827022E2295207F3F
:102120002025032E322F22952F7002262695322746
:102130002327220F220F220F202584812827022EF9
:102140002295207F2025032E322F22952F700226E4
:10215000269532272327220F220F220F2025858143
:102160002827022E2295207F2025032E322F22950C
:102170002F700226269532272327220F220F220FA7
:10218000202586812827022E2295207F2025032EB8
:10219000322F22952F700226269532272327220FD1
:1021A000220F220F202587812827022E2295207FAB
:1021B0002025032E322F22952F70022626953227B6
:1021C0002327220F220F220F202580852827022E69
:1021D0002295207F2025032E322F22952F70022654
:1021E000269532272327220F220F220F20254185F3
:1021F000C9018427082E8295807F8025092E982F7B
:1022000082958F700826869598278927880F880FD2
:10221000880F802508950FB6F894A4B12091B701D6
:102220002A2B24B921E03091B701203029F0000099
:1022300025B1232B25B904C000000000000000C018
:10224000000000000000309525B1232325B92EEAB7
:102250002A95F1F72BEE30B735FF0AC0A4B93091BB
:10226000B701309525B1232325B90FBE80E008952D
:1022700000002A9581F721E03091B701203029F044
:10228000000025B1232B25B904C000000000000088
:1022900000C0000000000000309525B1232325B9BF
:1022A000000024E52A95F1F7FC018CE0619170E0D3
:1022B000660F771F616072609AE041E050E09A011A
:1022C00026233723232B3091B701203029F000003B
:1022D00025B1232B25B904C000000000000000C078
:1022E000000000000000309525B1232325B900002F
:1022F00021E52A95F1F7440F551F9A9501F78A9524
:10230000A9F620B7206120BFA4B93091B70130955C
:1023100025B1232325B90FBE81E00895A3E1B0E0E4
:10232000E4E9F1E10C9464157C011B015A01DC0124
:1023300017961C921E92169713968C9181FF4DC38F
:10234000FE0131964F01D70113969C91F10193FD47
:10235000859193FF81911F01882309F4F1C2853291
:1023600039F493FD859193FF81911F01853239F4F2
:10237000B70190E00E94D11A65015601E4CF10E048
:10238000712C612CBFE1B61538F08B3211F190F44D
:10239000803209F1833229F167FC3CC020ED280F1F
:1023A0002A3050F566FE20C0EAE01E9F200D112461
:1023B000122F06C08D3291F0803371F7689460F867
:1023C000F10193FD859193FF81911F018111DACF76
:1023D00021C0689461F8689462F8F2CF689463F859
:1023E000EFCF689464F8ECCFFAE07F9E200D1124C3
:1023F000722E689465F8E4CF8E3229F466FCA0C290
:10240000689466F8DDCF8C3619F4689467F8D8CFF5
:102410008836B1F29BEB980F933008F06FC0689448
:1024200064F8805E66FE16E0262D2F73622E8536D8
:1024300009F06CC0689466F867FE72C0812F1C3387
:1024400008F08BE344244394480E27E0D5014D91D6
:102450005D916D917D916D014C875D876E877F8762
:10246000042DA4016C857D858E859F850E94E319CE
:102470005C01B981BC87B0FF03C00DE2B3FF07C0A8
:102480000BE261FC04C0062D047062FC00E2EC85E6
:10249000EC705E2E09F454C00111A2C2F3E0512C7D
:1024A000F715A0F483E0572C581A63FC08C0B70155
:1024B00080E290E00E94D11A5A945110F8CF002384
:1024C00029F0B701802F90E00E94D11AFC8508E620
:1024D00010E0F3FD02C00CE610E0262D2071622E04
:1024E000F8018491811123C0552009F446CFB7012A
:1024F00080E290E00E94D11A5A94F6CF9BE9980F9F
:10250000933008F02DC1E89464F88CCF863619F426
:10251000689467F891CF112309F48ECF11508CCFB6
:10252000212F183010F027E017E0412C8FCF6110D9
:102530008052B70190E00E94D11A0F5F1F4FD0CF99
:1025400067FE7AC04A0CFC85F4FF04C08A8181339F
:1025500009F44A9414140CF092C028E0241510F4E5
:1025600088E0482E85E090E067FE06C0C501B7FE12
:1025700002C080E090E0019601110196112331F034
:10258000212F30E02F5F3F4F820F931F78161906DF
:1025900019F014F0572C581A862D897011F4511027
:1025A00073C0002329F0B701802F90E00E94D11A58
:1025B00063FC02C051106FC067FE88C03501B7FED2
:1025C00002C0712C612CC50186199709A401480F1E
:1025D000591F598B488BB501641971097B8B6A8B24
:1025E000012F10E0119501951109A614B7040CF400
:1025F00059C0AA89BB89A615B7050CF053C0E88954
:10260000F9898181F1E06F1A7108601671060CF486
:102610004BC0B70190E00E94D11A2FEF62167206EC
:1026200029F4B7018EE290E00E94D11A8889998935
:102630000196998B888BD9CF66FC94CFE12FF0E07F
:10264000EA15FB053CF03CEFA3163FEFB30614F090
:10265000689467F83296E80DF91D01C011501123F6
:1026600019F082918033D1F367FE7CCF44244394E8
:10267000410E1A151B0431F02CF01A1973CF4424A3
:10268000439470CF10E06ECFB70180E290E00E94DB
:10269000D11A5A9484CFB70180E390E00E94D11AF6
:1026A0005A9488CF80E3AECFA614B70441F49A8140
:1026B000963350F4953319F43C8534FF05C0B701C7
:1026C00090E00E94D11A10CF81E3F9CF8A81813343
:1026D00019F04C854F7E4C87B70190E00E94D11ACB
:1026E000112399F0B7018EE290E00E94D11A1E5F8B
:1026F00002E0802F0F5FF401E80FF11D8081B70128
:1027000090E00E94D11A1013F4CF85E664FC85E4B2
:1027100090E0B7010E94D11AB7FC06C0A114B10421
:10272000C1F45C8554FF15C0B194A194B1088DE249
:10273000B70190E00E94D11A80E37AE0A716B104B5
:1027400054F4B70190E00E94D11AB701C501C096B8
:10275000B8CF8BE2EDCF8F5F6AE0A61AB108EDCF5C
:102760008336B9F0833709F43AC0833509F04DC098
:10277000D501AD90BD906D01612F70E066FC02C087
:102780006FEF7FEFC5010E94BB1A8C01689467F858
:102790000CC0650182E0C80ED11CD5018C918983E3
:1027A00001E010E05401E89467F863FC04C070167F
:1027B000110609F018F5572C0115110509F494CEEE
:1027C000F50167FC859167FE81915F01B70190E09B
:1027D0000E94D11A51105A9401501109EDCFF50100
:1027E000A190B1906F01612F70E066FC02C06FEFA5
:1027F0007FEFC5010E94C61A8C01D5CFB70180E2D8
:1028000090E00E94D11A7A94D2CF843619F089369A
:1028100009F06FC067FE64C0F5016191719181910B
:1028200091916F01B62DBF766B2E97FF09C09095E1
:102830008095709561957F4F8F4F9F4F689467F893
:102840002AE030E0A4010E94011BA82EA818BA2C8F
:10285000062D66FE0AC00E7FA11638F464FE04C081
:1028600062FC02C0062D0E7EB12E04FF8EC0FE015A
:10287000EA0DF11D8081803309F080C0097E502F60
:102880005870552E03FD90C000FF8AC01A2DB71452
:1028900010F4170D1B1904FF8DC0B70180E390E001
:1028A0000E94D11A02FF07C088E701FD88E590E089
:1028B000B7010E94D11AA11608F488C0AA940A2D63
:1028C00010E00F5F1F4F080D191DD8018E918D016B
:1028D000B70190E00E94D11A08151905B1F704CE8E
:1028E000D5016D917D916D01072E000C880B990B20
:1028F00099CF062D8537E1F40F7E2AE030E007FFFF
:1029000035C0D5014D915D916D917D916D014C87E3
:102910005D876E877F87A4016C857D858E859F8509
:102920000E94011BA82EA818602EE89467F88FCF8C
:10293000097F803791F058F4883589F08F36A1F0FF
:10294000F701868197816396E2E10C9480158837C0
:10295000B9F704FD046020E1D1CF0061FACF64FC37
:10296000066020E132E0CBCF28E0C8CFF5018191AD
:1029700091916F01AC0170E060E0C9CF02FD02C02F
:10298000B3947DCFB394B3947ACF802F867809F433
:1029900076CFF6CFB70180E290E00E94D11AB394CF
:1029A000B714C0F3512C77CF572C5B18B71408F429
:1029B00072CFF8CF802F867809F47DCF8BE201FFAC
:1029C00080E207FD8DE2B70190E073CFB70180E3AD
:1029D00090E00E94D11A11506ECF8FEF9FEFB3CFCE
:1029E00024E0512C271508F06CCD84E05CCD0E94CA
:1029F0004C0785EE90E0909308018093070180EEEC
:102A000090E090930601809305016DE674E08FE1FC
:102A100091E00E94460890E080E0089597FB072E21
:102A200016F4009407D077FD09D00E949B1507FC8F
:102A300005D03EF4909581959F4F089570956195CE
:102A40007F4F0895A1E21A2EAA1BBB1BFD010DC0EA
:102A5000AA1FBB1FEE1FFF1FA217B307E407F5074E
:102A600020F0A21BB30BE40BF50B661F771F881F2A
:102A7000991F1A9469F760957095809590959B01C0
:102A8000AC01BD01CF010895EE0FFF1F0590F49139
:102A9000E02D0994A29FB001B39FC001A39F700DC8
:102AA000811D1124911DB29F700D811D1124911D56
:102AB00008950E944A15A59F900DB49F900DA49F64
:102AC000800D911D112408952F923F924F925F9295
:102AD0006F927F928F929F92AF92BF92CF92DF922E
:102AE000EF92FF920F931F93CF93DF93CDB7DEB793
:102AF000CA1BDB0B0FB6F894DEBF0FBECDBF099427
:102B00002A88398848885F846E847D848C849B847D
:102B1000AA84B984C884DF80EE80FD800C811B818B
:102B2000AA81B981CE0FD11D0FB6F894DEBF0FBEBA
:102B3000CDBFED010895AA1BBB1B51E107C0AA1F21
:102B4000BB1FA617B70710F0A61BB70B881F991F4E
:102B50005A95A9F780959095BC01CD0108955058DC
:102B6000BB27AA270E94C7150C9441170E94331750
:102B700038F00E943A1720F039F49F3F19F426F4F8
:102B80000C9430170EF4E095E7FB0C942A17E92F0C
:102B90000E94521758F3BA17620773078407950704
:102BA00020F079F4A6F50C9474170EF4E0950B2E32
:102BB000BA2FA02D0B01B90190010C01CA01A0018F
:102BC0001124FF27591B99F0593F50F4503E68F1EA
:102BD0001A16F040A22F232F342F4427585FF3CF2B
:102BE000469537952795A795F0405395C9F77EF4FC
:102BF0001F16BA0B620B730B840BBAF09150A1F045
:102C0000FF0FBB1F661F771F881FC2F70EC0BA0FCA
:102C1000621F731F841F48F4879577956795B79552
:102C2000F7959E3F08F0B0CF9395880F08F099274D
:102C3000EE0F9795879508950E94061708F481E096
:102C400008950E9435160C9441170E943A1758F0C7
:102C50000E94331740F029F45F3F29F00C942A17A3
:102C600051110C9475170C9430170E94521768F389
:102C70009923B1F3552391F3951B550BBB27AA2735
:102C800062177307840738F09F5F5F4F220F331F6F
:102C9000441FAA1FA9F335D00E2E3AF0E0E832D037
:102CA00091505040E695001CCAF72BD0FE2F29D03A
:102CB000660F771F881FBB1F261737074807AB070C
:102CC000B0E809F0BB0B802DBF01FF2793585F4F81
:102CD0003AF09E3F510578F00C942A170C94751722
:102CE0005F3FE4F3983ED4F3869577956795B79563
:102CF000F7959F5FC9F7880F911D9695879597F96E
:102D00000895E1E0660F771F881FBB1F62177307E6
:102D10008407BA0720F0621B730B840BBA0BEE1FFB
:102D200088F7E09508950E949A166894B1110C9462
:102D3000751708950E945A1788F09F5798F0B92F79
:102D40009927B751B0F0E1F0660F771F881F991FE0
:102D50001AF0BA95C9F714C0B13091F00E947417F7
:102D6000B1E008950C947417672F782F8827B85F07
:102D700039F0B93FCCF3869577956795B395D9F738
:102D80003EF490958095709561957F4F8F4F9F4F42
:102D90000895E89409C097FB3EF49095809570954E
:102DA00061957F4F8F4F9F4F9923A9F0F92F96E997
:102DB000BB279395F695879577956795B795F1110C
:102DC000F8CFFAF4BB0F11F460FF1BC06F5F7F4FA9
:102DD0008F4F9F4F16C0882311F096E911C07723BB
:102DE00021F09EE8872F762F05C0662371F096E8C4
:102DF000862F70E060E02AF09A95660F771F881F93
:102E0000DAF7880F9695879597F90895990F000836
:102E1000550FAA0BE0E8FEEF16161706E807F907AC
:102E2000C0F012161306E407F50798F0621B730B47
:102E3000840B950B39F40A2661F0232B242B252BC8
:102E400021F408950A2609F4A140A6958FEF811D6B
:102E5000811D089597F99F6780E870E060E008950C
:102E60009FEF80EC089500240A94161617061806A2
:102E70000906089500240A9412161306140605067E
:102E80000895092E0394000C11F4882352F0BB0F0F
:102E900040F4BF2B11F460FF04C06F5F7F4F8F4F72
:102EA0009F4F089557FD9058440F551F59F05F3FAD
:102EB00071F04795880F97FB991F61F09F3F79F05C
:102EC00087950895121613061406551FF2CF4695DE
:102ED000F1DF08C0161617061806991FF1CF869560
:102EE0007105610508940895E894BB276627772744
:102EF000CB0197F908950E948E170C9441170E94F8
:102F0000331738F00E943A1720F0952311F00C94F3
:102F10002A170C94301711240C9475170E9452171D
:102F200070F3959FC1F3950F50E0551F629FF0011C
:102F3000729FBB27F00DB11D639FAA27F00DB11D35
:102F4000AA1F649F6627B00DA11D661F829F2227BE
:102F5000B00DA11D621F739FB00DA11D621F839F45
:102F6000A00D611D221F749F3327A00D611D231F1B
:102F7000849F600D211D822F762F6A2F11249F5769
:102F800050409AF0F1F088234AF0EE0FFF1FBB1F6C
:102F9000661F771F881F91505040A9F79E3F51052B
:102FA00080F00C942A170C9475175F3FE4F3983E59
:102FB000D4F3869577956795B795F795E7959F5FD5
:102FC000C1F7FE2B880F911D9695879597F9089567
:102FD00019F416F40C9430170C942E180E945A17FA
:102FE000B8F39923C9F3B6F39F57550B87FF0E9497
:102FF0003C180024A0E640EA900180585695979529
:1030000028F4805C660F771F881F20F0261737078B
:10301000480730F4621B730B840B202931294A2B9B
:10302000A69517940794202531254A2758F7660F4F
:10303000771F881F20F026173707480730F4620BE8
:10304000730B840B200D311D411DA09581F7B90133
:10305000842F9158880F9695879508959F3F31F05A
:10306000915020F4879577956795B795880F911DB6
:103070009695879597F9089591505040660F771F60
:10308000881FD2F708950F931F93CF93DF939C016E
:10309000029710F422E030E0E0919601F091970160
:1030A00090E080E0B0E0A0E0309791F4009709F460
:1030B00045C0821B930B84309105B8F58A819B81B2
:1030C0006115710569F1FB0193838283FE0111C0D3
:1030D000408151810281138142175307F0F042175A
:1030E000530799F4109761F012960C931297139668
:1030F0001C933296CF01DF91CF911F910F910895CC
:103100000093960110939701F4CF009719F0481798
:10311000590718F4CA01BD01EF01DF01F801C4CF5E
:103120009093970180939601D1CFFE01E80FF91F8C
:1031300021933193029799838883DCCF8091980102
:1031400090919901892B41F480910B0190910C0190
:1031500090939901809398018091090190910A01BF
:10316000009741F48DB79EB740910D0150910E012B
:10317000841B950B4091980150919901481759076C
:1031800008F0B8CF841B950B8217930708F4B2CFD1
:10319000B9016E5F7F4F8617970708F4ABCF640FB6
:1031A000751F7093990160939801FA0121933193EF
:1031B000A1CFCF93DF939C010097E9F0FC013297F8
:1031C00013821282C0919601D0919701DE0190E0A6
:1031D00080E02097A1F480819181280F391F809190
:1031E0009801909199018217930709F067C0F093B5
:1031F0009901E0939801DF91CF910895DA01AE171C
:10320000BF0708F041C012964D915C911397CD0114
:103210004115510599F7DC011396FC93EE93129733
:103220004D915D91A40FB51FEA17FB0781F4208132
:1032300031812E5F3F4F240F351FDC0111963C93E7
:103240002E932281338113963C932E931297B0E0F4
:10325000A0E08A819B810097B1F5FE018191919157
:10326000E80FF91F80919801909199018E179F079F
:1032700011F6109759F51092970110929601D0937C
:103280009901C0939801B7CFB383A2834081518144
:10329000240F351FA217B30771F44E5F5F4F2D91B6
:1032A0003C911197420F531F5183408312962D91E9
:1032B0003C9133832283009709F0ADCFF0939701BF
:1032C000E093960198CFDE01EC01C3CF13961C92D8
:1032D0001E921297D4CFCF92DF92EF92FF92CF93AC
:1032E000DF93CDB7DEB72A970FB6F894DEBF0FBED7
:1032F000CDBF89879A87A985BA852D913D914D913A
:103300005C9129833A834B835C83232B242B252BCD
:1033100041F424E239ED4BE557E029833A834B83AE
:103320005C8369817A818B819C812DE133EF41E05F
:1033300050E00E94751B69017A01A7EAB1E49B0184
:10334000AC010E94591569837A838B839C83ACEE10
:10335000B4EFA70196010E94971B9B01AC018981E4
:103360009A81AB81BC81820F931FA41FB51FB7FF49
:1033700003C00197A109B048E985FA85808391834C
:10338000A283B3839F772A960FB6F894DEBF0FBE51
:10339000CDBFDF91CF91FF90EF90DF90CF90089558
:1033A0000E946B1908958FE091E00E946B190895B7
:1033B000B0E0A0E080930F0190931001A093110161
:1033C000B09312010895283008F027E03327DA017E
:1033D000990F311D87FD916000966105710539F4E3
:1033E00032602E5F3D9330E32A95E1F708959F3FC9
:1033F00030F080387105610509F03C5F3C5F3D931A
:10340000913008F08068911DDF93CF931F930F9345
:10341000FF92EF92192F987F9695E92F96959695A2
:10342000E90FFF27E653FF4F99273327EE24FF24A8
:10343000A701E70105900894079428F4360FE71ECA
:10344000F81E491F511D660F771F881F991F06948C
:10345000A1F70590079428F4E70EF81E491F561FA0
:10346000C11D770F881F991F661F0694A1F705904D
:10347000079428F4F80E491F561FC71FD11D880F47
:10348000991F661F771F0694A1F70590079420F4F3
:10349000490F561FC71FD81F990F661F771F881F18
:1034A0000694A9F784911095177041F0D695C795A9
:1034B00057954795F794E7941A95C1F7E0E7F0E040
:1034C00068941590159135916591959105907FE2DD
:1034D0007395E118F10A430B560BC90BD009C0F7DD
:1034E000E10CF11E431F561FC91FD01D7EF470331F
:1034F00011F48A95E6CFE894015030F0080F0AF4F1
:103500000027021708F4202F2395022F7A3328F082
:1035100079E37D932A95E9F710C07D932A9589F682
:10352000069497956795379517951794E118F10AC2
:10353000430B560BC90BD00998F023957E917395D8
:103540007A3308F070E37C932013B8F77E917061B2
:103550007D9330F0839571E37D9370E32A95E1F7D5
:103560001124EF90FF900F911F91CF91DF91992738
:1035700087FD90950895FC01059061507040011001
:10358000D8F7809590958E0F9F1F0895FC0161508C
:10359000704001900110D8F7809590958E0F9F1F75
:1035A00008950F931F93CF93DF93182F092FEB01EB
:1035B0008B8181FD09C01FEF0FEF812F902FDF91CD
:1035C000CF911F910F91089582FF14C02E813F81EA
:1035D0008C819D81281739073CF4E881F981CF015E
:1035E00001969983888310838E819F8101969F83A2
:1035F0008E83E3CFE885F985812F0995892BA1F387
:10360000DACFFA01AA27283051F1203181F1E8946C
:103610006F936E7F6E5F7F4F8F4F9F4FAF4FB1E0C5
:103620003ED0B4E03CD0670F781F891F9A1FA11DC0
:10363000680F791F8A1F911DA11D6A0F711D811DC1
:10364000911DA11D20D009F468943F912AE0269F86
:1036500011243019305D3193DEF6CF010895462FE5
:103660004770405D4193B3E00FD0C9F7F6CF462FC6
:103670004F70405D4A3318F0495D31FD405241932F
:1036800002D0A9F7EACFB4E0A695979587957795EC
:103690006795BA95C9F700976105710508959B0173
:1036A000AC010A2E06945795479537952795BA95FC
:1036B000C9F7620F731F841F951FA01D0895F99904
:1036C000FECF92BD81BDF89A992780B50895262F27
:1036D000F999FECF1FBA92BD81BD20BD0FB6F894F7
:1036E000FA9AF99A0FBE01960895052E97FB1EF4DB
:1036F00000940E948C1B57FD07D00E94221507FCE6
:1037000003D04EF40C948C1B509540953095219528
:103710003F4F4F4F5F4F08959095809570956195FD
:103720007F4F8F4F9F4F0895B7FF0C9459150E94FC
:103730005915821B930B0895F894FFCFA80894089D
:1037400068085E0865080209F708DE0F9A0E9A0EEF
:10375000DB0FC10FBD0FB90FB50FA10F780F520FBF
:103760001401AA3607330732070000F801200001D0
:043770000000000055
:00000001FF
