:100000000C94B5000C94DE000C94DE000C94DE0021
:100010000C94DE000C94DE000C947E060C94DE0042
:100020000C94DE000C94DE000C94DE000C94B20DF7
:100030000C94DE000C94DE000C94110D0C94DE0088
:100040000C94DE000C94DE000C94DE000C94DE00B8
:100050000C94DE000C94DE000C94DE000C94D20DA7
:100060000C94DE000C94DE006E616E00696E66001A
:1000700000407A10F35A00A0724E18090010A5D45F
:10008000E80000E87648170000E40B54020000CABC
:100090009A3B000000E1F505000080969800000002
:1000A00040420F000000A086010000001027000061
:1000B0000000E803000000006400000000000A00E7
:1000C000000000000100000000002C76D888DC67EA
:1000D0004F0823DFC1DFAE59E1B1B796E5E3E45342
:1000E000C63AE651997696E8E6C28426EB898C9B5F
:1000F00062ED407C6FFCEFBC9C9F40F2BAA56FA5FF
:10010000F490055A2AF75C936B6CF9676DC11BFC80
:10011000E0E40D47FEF520E6B500D0ED902E03009B
:10012000943577050080841E080000204E0A0000E8
:1001300000C80C333333330F986E12831141EF8DA7
:100140002114893BE65516CFFEE6DB18D1844B38E7
:100150001BF77C1D901DA4BBE424203284725E2218
:100160008100C9F124ECA1E53D2711241FBECFEF8A
:10017000D8E0DEBFCDBF14BE0FB6F894A89580912D
:100180006000886180936000109260000FBE11E0F3
:10019000A0E0B1E0ECE4F4E302C005900D92A435D8
:1001A000B107D9F722E0A4E5B1E001C01D92AB335D
:1001B000B207E1F70E947F140C94121A0C9400000D
:1001C0008093C6008091C00085FFFCCF90E080E066
:1001D000089580910E0190910F010895CF93DF93C0
:1001E000DC01E0910E01F0910F01EB014881598192
:1001F0006A817B81458756876787708B81E084871A
:1002000011964C91119750E070E060E047AB50AF11
:1002100061AF72AF12964C91129750E070E060E0BF
:1002200043AF54AF65AF76AFEF01EF9613964C91A5
:10023000139750E070E060E0488359836A837B83C2
:10024000E458FF4F14968C918083DF91CF910895ED
:10025000CF93DF9300D000D000D0CDB7DEB7809130
:100260000F028B5E0E940709E0910E01F0910F01D1
:1002700080910F0290911002B0E0A0E0868F978FDE
:10028000A0A3B1A3DF01AB58BF4F1D921D921D92D9
:100290001C92139714961C9213961C92138A148A1C
:1002A000158A168A178A84EB808F88E790E0A0E091
:1002B000B0E0818F928FA38FB48F0E94F0082091BD
:1002C0000E0130910F013E832D83282F30E050E046
:1002D00040E029833A834B835C83ED81FE81218D4D
:1002E000328D438D548D69817A818B819C810E94EE
:1002F000AC1469837A838B839C83DC01CB010196E8
:10030000A11DB11DED81FE81838B948BA58BB68BD6
:1003100080910F02909110029C01215131092230ED
:100320003105C8F4ED81FE81858D882349F060E0B8
:1003300080E00E94F707E0910E01F0910F01158E09
:1003400080E026960FB6F894DEBF0FBECDBFDF91DA
:10035000CF910C948E0D449729F3858D813081F3D4
:10036000F0910B02FD8320910C0229832223F1F0EE
:100370009091B30081E0911180E081953D81311130
:100380001DC0882341F060E08FEF0E94F7078FE0E7
:1003900090E00E94EA076D8189810E94F707E09151
:1003A0000E01F0910F0181E0858FCACFFF2399F3F1
:1003B0008091B4008111EFCF6FEFE7CF9091B4003F
:1003C0009923D1F3882339F38FEF60E0DECFF894DF
:1003D000519A8CE090E09093C5008093C400E0ECCB
:1003E000F0E080818D7F8083E2ECF0E080818660A8
:1003F0008083E1ECF0E080818860808380E091E0A0
:10040000909338028093370278940895CF93DF93C6
:10041000C82FD62F811113C0662359F08091B400E4
:10042000811107C06FEF0E94F7078FE090E00E94F4
:10043000EA076D2F8C2FDF91CF910C94F7079091E5
:10044000B30081E0911111C08195DD2349F09091B5
:10045000B400992339F3882361F38FEF60E0E3CF91
:10046000882339F360E08FEFDECF80E08195D111F2
:10047000EECFF6CF1F93CF93DF93C82FE0910E01FD
:10048000F0910F01858D8C1779F0C230A1F1C33046
:10049000F1F0C13069F060E080E00E94F707E09180
:1004A0000E01F0910F01C58FDF91CF911F9108953B
:1004B00010910B02D0910C02D11132C0112309F41A
:1004C00041C08091B40081113DC06FEF35C0D09123
:1004D0000D02DD2359F08091B400811107C06FEF48
:1004E0000E94F7078FE090E00E94EA076D2F80E0FE
:1004F0000E94F707D4CFD0910E02DD2361F08091E6
:10050000B300811108C060E08FEF0E94F7078FE011
:1005100090E00E94EA0760E08D2F0E94F707BFCFAE
:100520009091B30081E0911180E0819511110FC08D
:10053000882341F060E08FEF0E94F7078FE090E0A2
:100540000E94EA07612F8D2F0E94F707A8CF909194
:10055000B400992309F4B9CF8823A1F38FEF60E0A9
:10056000EBCF0F931F93E0910E01F0910F01858D5A
:100570008130F9F09EEF980F923008F06FC04091F3
:100580001102509112026091130270911402278996
:1005900083899489A589B689820F911DA11DB11DFA
:1005A00084179507A607B70708F467C01F910F9136
:1005B00008954091110250911202609113027091BE
:1005C000140283899489A589B689018D128D238DA2
:1005D000348D800F911FA21FB31F84179507A607A4
:1005E000B70720F78091110290911202A091130297
:1005F000B0911402838B948BA58BB68B0E94F0086C
:10060000E0910E01F0910F0180FF70C0858D823066
:10061000D1F010910E02112361F08091B30081118D
:1006200008C060E08FEF0E94F7078FE090E00E9423
:10063000EA0760E0812F0E94F707E0910E01F09138
:100640000F0182E0858F0E94F008E0910E01F09189
:100650000F0180FD69C08AE5878BA8CF882309F444
:10066000A5CF60E080E00E94F707E0910E01F091D5
:100670000F01158E1F910F91089580911102909195
:100680001202A0911302B0911402838B948BA58B5C
:10069000B68B00910B0210910C02111108C00023BF
:1006A000C1F08091B400811114C06FEF0CC0909123
:1006B000B30081E0911180E08195011138C0882359
:1006C00041F060E08FEF0E94F7078FE090E00E941A
:1006D000EA07602F812F0E94F707E0910E01F09149
:1006E0000F0181E0858F1F910F910895858D8330D3
:1006F00009F4A9CF10910D02112359F08091B40093
:10070000811107C06FEF0E94F7078FE090E00E9411
:10071000EA07612F80E00E94F707E0910E01F09157
:100720000F0183E0858F8FCF84EB878B3FCF909134
:10073000B400992309F4B9CF882359F28FEF60E010
:10074000C2CF0F931F93CF93DF9300D000D000D080
:10075000CDB7DEB780910E0190910F019E838D83FE
:10076000FC01EB58FF4F60817181828193816F5F43
:100770007F4F8F4F9F4F6083718382839383AD81BF
:10078000BE815E960D911D912D913C919197013105
:1007900011052105310509F4B1C01C968C911C97F7
:1007A000813009F497C0023111052105310509F0A6
:1007B00082C0ED81FE81E758FF4F90811BEA919F37
:1007C000812D1124282F26958E7F820F292F281BFB
:1007D000981709F4B2C0213009F4C7C0223009F4D7
:1007E000DEC0ED81FE81868D818382A1828383A913
:1007F000838394831186CF010E94DB0FAD81BE817C
:100800001B969C938E931A97E0910E01F0910F0125
:1008100082AD8F9381AD8F9380AD8F9387A98F9396
:100820008BE191E09F938F930E945819E0910E0104
:10083000F0910F01EB58FF4F83818F9382818F934B
:1008400081818F9380818F938DE291E09F938F932D
:100850000E9458198091110290911202A0911302E6
:10086000B0911402BF93AF939F938F938CE391E069
:100870009F938F930E945819E0910E01F0910F0100
:10088000E758FF4F80811F928F9388E491E09F93F8
:100890008F930E9458190FB6F894DEBF0FBECDBFDC
:1008A00026960FB6F894DEBF0FBECDBFDF91CF9175
:1008B0001F910F910895043111052105310509F4A7
:1008C00078CF0E94B10280910E0190910F019E831A
:1008D0008D836FCF1C961C921C97FD01E458FF4F2F
:1008E000808133979081981708F05DCF8083023123
:1008F00011052105310509F45CCFDDCF2CEA30E08C
:1009000040E050E00E94AC1469837A838B839C831F
:100910006B3A710581059105A1F6ED81FE81E758DD
:10092000FF4F80818F5F80830E94B10280910E0112
:1009300090910F019E838D833CCF81E00E948E0DAC
:10094000E0910E01F0910F01FE83ED83E758FF4F18
:100950009081919F112D1124212F26951E7F120F1A
:10096000292F211B213009F039CF80E10E948E0D03
:1009700080910E0190910F019E838D83FC01E758B9
:10098000FF4F90818BEA989F812D1124282F269567
:100990008E7F820F292F281B223009F022CF85E17C
:1009A0000E948E0DA0910E01B0910F01BE83AD8308
:1009B000FD01E758FF4F908114CFCF93DF93C09193
:1009C0000E01D0910F018E8D89838AA18A838BA914
:1009D0008B83FE01E758FF4F80818C831986CE01FF
:1009E0000E94DB0F9B878A87DF91CF9108958F92BA
:1009F0009F92AF92BF92EF92FF920F931F93CF936C
:100A0000DF93CDB7DEB762970FB6F894DEBF0FBEA7
:100A1000CDBF4B015C018D829E82AF82B886C90139
:100A2000DA0189879A87AB87BC870D871E872D815E
:100A30003E814F815885CA01B9010E94FA165B01B7
:100A40008C0129853A854B855C85CA01B9010E94D4
:100A5000FA169B01AC01A982BA820B831C836981BF
:100A60007A818B819C810E942F1569837A838B8385
:100A70009C8369817A818B819C810E946D178B0197
:100A80005C0120E030E048E453E469831A838B83FF
:100A9000BC8269817A818B819C810E949B1587FD34
:100AA00042C08D819E81AF81B885B0588D839E8371
:100AB000AF83B8879801A501BC01CD010E94A015A4
:100AC0006F87788B898B9A8BAD85BE856D937D936F
:100AD0008D939C93139789859A85AB85BC85B05877
:100AE00089879A87AB87BC879801A501BC01CD0196
:100AF0000E94A015D7016D937D938D939C931397BE
:100B000081E090E062960FB6F894DEBF0FBECDBFD5
:100B1000DF91CF911F910F91FF90EF90BF90AF9019
:100B20009F908F90089590E080E0ECCF089590E042
:100B300080E008950895BF92CF92DF92EF92FF92E6
:100B40000F931F93CF93DF93F89414B817B81AB884
:100B500015B818B81BB8529A5A9A14BC85E085BDCE
:100B60008FEF87BD82E080936E001092800010921C
:100B700081002FE83BE03093890020938800809328
:100B80006F005398239891EA9093B0008093B1003E
:100B90001092B4001092B3008BE080BF83E080938A
:100BA0007F0086E080937C0083E880937A008091C8
:100BB0007A00806480937A0080917A0086FDFCCF71
:100BC00010927C0083EA80937A0081E080937B001E
:100BD00081E090E00E94CA198F3F11F08093660077
:100BE00010922002C1E0C0931F02C0931E02109217
:100BF0001D0210921C0280E990E00E94CA198093A5
:100C00001B0280911B02887311F0C0931B0210928B
:100C10001802109217028FEF90E0909316028093C3
:100C200015021092110210921202109213021092E9
:100C3000140281E08093340282E49FE090931A02D0
:100C40008093190280EB90E00E94CA19C82F81EBB3
:100C500090E00E94CA19D82FD0931002C0930F02BF
:100C600085E090E00E94CA1980930E0289E090E02E
:100C70000E94CA1980930D028CE090E00E94CA196C
:100C800080930C0284E190E00E94CA1980930B02C9
:100C900003ED11E08FEEE82E81E0F82E9FEEC92ED5
:100CA00091E0D92EC0E2D0E0CE010E94CA19B82E40
:100CB000CE0101960E94CA199B2DF8018193919350
:100CC0008F01CE01C0960E94CA19B82ECE01C196DE
:100CD0000E94CA199B2DF701819391937F0122965F
:100CE000C016D10609F77894DF91CF911F910F912B
:100CF000FF90EF90DF90CF90BF9008950F920FB6C6
:100D00000F921F9211248F930FB6F894A89580919B
:100D10006000886180936000109260000FBE8F9128
:100D20001F900F900FBE0F9018953C01EB0110E043
:100D300099249A9484E0C82E96E0A92E23E8B22E36
:100D400038E1D32E49E2E42EE0913402E730E0F7B7
:100D5000F0E0EC5EF54E0C94CE14111102C0F301DC
:100D60000995C092340211E0FE010995EDCF809102
:100D70002002811103C1F894A0927C00B0927A0005
:100D800080917A00806480937A0080917A0086FD59
:100D9000FCCF809178009091790078948B3AE2E0D2
:100DA0009E070CF0E4C08938F2E09F070CF0EDC01C
:100DB000873692400CF4E2C0559A549A3B9A3A9A7C
:100DC0003D983C98C1CF559854983B9A3A9A3D9893
:100DD0003C98EFECF7E03197F1F700C00000559830
:100DE00054983B983A983D983C98FFEF21EE84E068
:100DF000F15020408040E1F700C00000A5CFF894FA
:100E000080B7877F80BF80917A008F7780937A0048
:100E100014B817B81AB815B818B81BB80FB6F894A4
:100E2000A895D09260000FBEE092600080916000B3
:100E300080648093600083B7817F846083BFF8946F
:100E400083B7816083BF7894889583B78E7F83BF93
:100E5000789410922002529A5A9A80917A0080686F
:100E600080937A0087E592E00197F1F700C00000D7
:100E700080B7886180BF559A549A3B9A3A9A3D9AB6
:100E80003C9AEFE1FEE43197F1F700C00000809159
:100E9000200281115CC0559854983B983A983D982F
:100EA0003C9852CF80913202811125C01092B3003C
:100EB0001092B4001092330247CF4899ECCF559A64
:100EC00054983B983A983D983C988FEC97E001975E
:100ED000F1F700C00000559854983B983A983D9817
:100EE0003C989FEFE1EEF4E09150E040F040E1F7F4
:100EF00000C0000029CF90913202809133029817F0
:100F000009F422CF80913202809333028091320221
:100F1000813009F441C0809132021092B300909266
:100F2000B400823009F449C09092B3009092B400AA
:100F30008FE295E70197F1F700C0000080910B0266
:100F400090910C029093B3008093B400FDCE559A1B
:100F5000549A3B983A983D983C98FFEF20E782E0FE
:100F6000F15020408040E1F700C0000094CF559838
:100F700054983B9A3A9A3D983C98E6CE559A549AA2
:100F80003B983A983D983C98DFCE559854983B98BA
:100F90003A983D9A3C9AD8CE9092B3001092B40001
:100FA0008FE295E70197F1F700C0000080910E02F3
:100FB0008093B3001092B400C7CEEFE2F5E731970B
:100FC000F1F700C0000080910D021092B3008093F1
:100FD000B400BACE9C01892B49F08FEC97E00197C1
:100FE000F1F700C0000021503109B9F7089580934E
:100FF000B3006093B40008958FEF8093B3008093A3
:10100000B4008FEC97E00197F1F700C000008FEC7F
:1010100097E00197F1F700C000008FEC97E001978F
:10102000F1F700C000008FEC97E00197F1F700C0E6
:1010300000008FEC97E00197F1F700C000008FEC03
:1010400097E00197F1F700C000008FEC97E001975F
:10105000F1F700C000008FEC97E00197F1F700C0B6
:1010600000008FEC97E00197F1F700C000008FECD3
:1010700097E00197F1F700C000008FEC97E001972F
:10108000F1F700C000008FEC97E00197F1F700C086
:1010900000008FEC97E00197F1F700C000008FECA3
:1010A00097E00197F1F700C000008FEC97E00197FF
:1010B000F1F700C0000008958091200281111EC048
:1010C000F89487E080937C0083E880937A00809195
:1010D0007A00806480937A0080917A0086FDFCCF4C
:1010E000809178009091790010927C0023EA2093FF
:1010F0007A0021E020937B00789408958FEF9FEF92
:1011000008958091200281111EC0F89488EC80938C
:101110007C0087E880937A0080917A0080648093D5
:101120007A0080917A0086FDFCCF809178009091C2
:10113000790010927C0023EA20937A0021E020932A
:101140007B00789408958FEF9FEF08951F93CF93BE
:10115000DF93F0E0E0E080E016E0D3E8C3EA71E07E
:10116000A1E0B0E060E8F89410937C00D0937A009E
:1011700090917A00906490937A0090917A0096FD15
:10118000FCCF2091780030917900217090917A0005
:10119000906490937A0090917A0096FDFCCF4091F4
:1011A00078005091790010927C00C0937A0070937F
:1011B0007B0078944170241302C06150A1F6222371
:1011C00039F09D010E2E01C0220F0A94EAF7822BFE
:1011D0003196E830F10531F6DF91CF911F910895F6
:1011E00080911001982F990F990F990F982780914E
:1011F000310221E0280F20933102869586958927B8
:101200009295969597708927809310010895809301
:101210001001089580912002811116C0F89486E093
:1012200080937C0083E880937A0080917A008064C8
:1012300080937A0080917A0086FDFCCF80917800BF
:1012400090917900789408958FEF9FEF08952F92F1
:101250003F924F925F926F927F928F929F92AF9246
:10126000BF92CF92DF92EF92FF920F931F93CF9393
:10127000DF93CDB7DEB728970FB6F894DEBF0FBE69
:10128000CDBF7C01DC0112960D90BC91A02DB887DA
:10129000AF83A438E3E0BE070CF477C0DC01ED9027
:1012A000FC908091D3019091D401DD24DA948E15C5
:1012B0009F0508F43BC20091D5011091D6010E158F
:1012C0001F0508F44AC30091D7011091D8010E15EB
:1012D0001F0508F447C30091D9011091DA010E15DA
:1012E0001F0508F444C30091DB011091DC010E15C9
:1012F0001F0508F441C30091DD011091DE010E15B8
:101300001F0508F43EC30091DF011091E0010E15A6
:101310001F0508F43BC30091E1011091E2010E1595
:101320001F0508F43CC30091E3011091E4010E1580
:101330001F0508F43DC30091E5011091E6010E156B
:101340001F0508F446C20091E7011091E8010E154F
:101350001F0508F436C30091E9011091EA010E154A
:101360001F0508F437C30091EB011091EC010E1535
:101370001F0508F438C30091ED011091EE010E1520
:101380001F0508F439C31AE520C18091EF0190913F
:10139000F0018A179B0708F4B1C10091F101109187
:1013A000F2010A171B0708F4DBC10091F301109149
:1013B000F4010A171B0708F4EEC20091F501109121
:1013C000F6010A171B0708F4EFC20091F70110910C
:1013D000F8010A171B0708F4F8C10091F9011091F0
:1013E000FA010A171B0708F4E8C20091FB011091EB
:1013F000FC010A171B0708F4E9C20091FD011091D6
:10140000FE010A171B0708F4EAC20091FF011091C0
:1014100000020A171B0708F4EBC2009101021091A9
:1014200002020A171B0708F4ECC200910302109194
:1014300004020A171B0708F4E8C200910502109184
:1014400006020A171B0708F4E4C200910702109174
:1014500008020A171B0708F4E0C200910902109164
:101460000A028DE02DE030E00A171B0708F47BC16B
:10147000412C512C30ED3D8340E44E832CE0C22EB4
:10148000D12CF601EE0FFF1FE151FE4F80819181BB
:10149000D801A81BB90B9D0150E040E029833A8395
:1014A0004B835C83CA01BD010E9448169B01AC01BD
:1014B00069837A838B839C8369817A818B819C8108
:1014C0000E942F155B016C018F819885092E000CFD
:1014D000AA0BBB0B89839A83AB83BC83BC01CD0170
:1014E0000E944A163B014C01980150E040E02983DC
:1014F0003A834B835C83CA01B8010E9448161B01E2
:101500008C0192014D815E81A982BA82CB82DC82FC
:1015100069817A818B819C810E94FA169B01AC01C2
:1015200029823A820B831C8369817A818B819C8119
:101530000E942E159B01AC0169827A828B829C826B
:1015400069817A818B819C810E942E1520E030E098
:1015500040E251E469837A838B839C8369817A8139
:101560008B819C810E94FA1669837A838B839C838A
:1015700069817A818B819C810E9412168B01A982DC
:10158000BA82CB82DC8269817A818B819C810E94C4
:10159000121669837A838B839C83C80169817A815F
:1015A0000E949814D62E4F8158854D3B52400CF422
:1015B00009C1D701ED90FC908091D3019091D401A5
:1015C0008E159F0508F077CE10E0BFEF81E2810F06
:1015D000DB1609F4ACC02D2D30E050E040E029834B
:1015E0003A834B835C83CA01B9010E9448166B01A0
:1015F0007C01812F90E0B0E0A0E089839A83AB83E7
:10160000BC83BC01CD010E9448164B015C012F81B7
:101610003885032E000C440B550B29833A834B83EA
:101620005C83CA01B9010E944A168B018E839D8397
:101630009B01AC0160E070E081E694E40E942E150D
:101640009601A70169837A838B839C8369817A8160
:101650008B819C810E94FA166B017C0120E030E0B6
:101660004FE254E409831A838E818B839D819C838E
:1016700069817A818B819C810E942E159401A5013C
:1016800069837A838B839C8369817A818B819C8136
:101690000E94FA169B01AC01C982DA82EB82FC82BD
:1016A00069817A818B819C810E942F1520E030E036
:1016B00048E453E469837A838B839C8369817A81CC
:1016C0008B819C810E94A01520E030E044E052E430
:1016D00069837A838B839C8369817A818B819C81E6
:1016E0000E942F1569837A838B839C8369817A8119
:1016F0008B819C810E941916862F19C0AD3BB24088
:10170000ACF0D701ED90FC908091D3019091D40181
:10171000D12C8E159F0508F0CECD812C912CA12CBB
:10172000B12CC12CD12CE12CF12C71CF81E2289667
:101730000FB6F894DEBF0FBECDBFDF91CF911F91E2
:101740000F91FF90EF90DF90CF90BF90AF909F9060
:101750008F907F906F905F904F903F902F90089563
:1017600081E021E030E06901F1E0CF1AD108282FB3
:1017700030E050E040E029833A834B835C83CA0128
:10178000B9010E94481620E030E040E05FE3698341
:101790007A838B839C8369817A818B819C810E946F
:1017A000FA1620E030E0A90169837A838B839C8359
:1017B00069817A818B819C810E942F152B018D83F9
:1017C0009E835FCE81E2860FB2CF84E024E030E0DA
:1017D000CACF59E0652EE9E0F0E0EE0FFF1FEF52AF
:1017E000FE4F80819181D801A81BB90B9D0150E06B
:1017F00040E029833A834B835C83CA01BD010E9488
:1018000048169B01AC0169837A838B839C83698131
:101810007A818B819C810E942F15962EA72EB82E3F
:10182000C92EC701FF0CAA0BBB0B89839A83AB831C
:10183000BC83BC01CD010E944A16762E872E7C0106
:10184000980150E040E029833A834B835C83CA01CE
:10185000B8010E9448162B018C01862D90E0B0E063
:10186000A0E089839A83AB83BC83BC01CD010E9435
:10187000481620E030E040E05FE369837A838B83A1
:101880009C8369817A818B819C810E94FA1620E079
:1018900030E0A90169837A838B839C8369817A8193
:1018A0008B819C810E942F15292D3A2D4B2D5C2D6B
:1018B00069837A838B839C8369817A818B819C8104
:1018C0000E94FA169B01AC0149825A820B831C8349
:1018D00069817A818B819C810E942E159B01AC01CC
:1018E00079828A82EB82FC8269817A818B819C81F8
:1018F0000E942E1520E030E040E251E469837A83B3
:101900008B839C8369817A818B819C810E94FA16EA
:1019100069837A838B839C8369817A818B819C81A3
:101920000E9412168B019982AA82BB82CC826981A5
:101930007A818B819C810E94121669837A838B83C2
:101940009C83C80169817A810E949814162F6F3F89
:1019500009F03BCE81E28D0DEACE66246394E1E08E
:10196000F0E03BCF82E0682EE2E0F0E036CFB3E07B
:101970006B2EE3E0F0E031CFA4E06A2EE4E0F0E08B
:101980002CCFF5E06F2EE5E0F0E027CFE6E06E2EFD
:10199000E6E0F0E022CF82E022E030E0E4CE77E043
:1019A000672EE7E0F0E019CF83E023E030E0DBCE04
:1019B00068E0662EE8E0F0E010CF85E025E030E05A
:1019C000D2CE4AE0642EEAE0F0E007CF86E026E0DF
:1019D00030E0C9CE3BE0632EEBE0F0E0FECE87E0E6
:1019E00027E030E0C0CE2CE0622EECE0F0E0F5CE57
:1019F00088E028E030E0B7CE9DE0692EEDE0F0E031
:101A0000ECCE89E029E030E0AECE8AE02AE030E09A
:101A1000AACE8BE02BE030E0A6CE8CE02CE030E0CC
:101A2000A2CE1F920F920FB60F9211242F933F93C5
:101A30004F935F936F937F938F939F93AF93BF93D6
:101A4000EF93FF9380911702909118022091150255
:101A500030911602820F931F909318028093170201
:101A60008FEF90E090931602809315028FEF87BD61
:101A70008091110290911202A0911302B091140270
:101A80000196A11DB11D8093110290931202A093A3
:101A90001302B09314028091200281110FC0809133
:101AA000190290911A0220911702309118028217A0
:101AB000930720F480913402843089F0FF91EF91F4
:101AC000BF91AF919F918F917F916F915F914F9156
:101AD0003F912F910F900FBE0F901F901895E0919E
:101AE0001301F09114010995009741F30E9493109E
:101AF000882351F0E0911101F091120109951092A3
:101B0000180210921702DACF0E942A189C01992716
:101B1000909316028093150227BDD0CF80FF11C08D
:101B2000559A81FF11C0549A82FF11C03B9A83FFDE
:101B300011C03A9A84FF11C03D9A85FF11C03C9AAA
:101B40000895559881FDEFCF549882FDEFCF3B98D3
:101B500083FDEFCF3A9884FDEFCF3D9885FDEFCF21
:101B60003C9808951F921FB61F9211248F939F9344
:101B700010928100109285001092840081E0809381
:101B80001F0280931E021092200210927C0093EAA2
:101B900090937A0080937B009F918F911F901FBE3E
:101BA0001F9018951F920F920FB60F9211240F934A
:101BB0001F932F933F934F935F936F937F938F93D5
:101BC0009F93AF93BF93EF93FF93CF93DF9300D097
:101BD00000D0CDB7DEB7209184003091850041E080
:101BE0004093200280911F028823D9F11092850032
:101BF000109284004093810010921C0210921F02E8
:101C000080911E028823A1F080917A0086FDFCCF8E
:101C10008091780090917900909324028093230220
:101C200081E080937C0093EA90937A0080937B001C
:101C30000F900F900F900F90DF91CF91FF91EF9148
:101C4000BF91AF919F918F917F916F915F914F91D4
:101C50003F912F911F910F910F900FBE0F901F90EA
:101C60001895C9018758910984379940A0F01092BE
:101C70008100109285001092840040931F024093CF
:101C80001E021092200210927C0083EA80937A0058
:101C900040937B00CDCF26583109A4EFB0E00E94DD
:101CA000D41469837A838B839C83AA27BB271B81E7
:101CB000183008F465C040931F0280911E02811104
:101CC0003CC080911D02E82FF0E0EB5DFD4F90914C
:101CD0001C0290838F5F80931D028C3009F0A8CF87
:101CE00010928100109285001092840040931E0291
:101CF0001092200200912F021091300285E292E0B2
:101D00000E94DB0F0817190709F092CFE0912E020D
:101D1000E7FF47C098E79E0F933030F05398239821
:101D20001092B4001092B300E058EB3008F080CF6E
:101D3000F0E0E55EF54E0C94CE1480917A0086FDBD
:101D4000FCCF80917800909179009093220280934B
:101D5000210210927C0083EA80937A0081E08093D4
:101D60007B0090911C029923B9F01092810010928F
:101D700085001092840080931E021092200258CF9A
:101D800021E030E001C0220F8A95EAF780911C0221
:101D9000822B80931C024CCF10921E0210921D02C7
:101DA00047CFE0911501F091160161E272E085E202
:101DB00092E009953DCF80912502823009F485C0DB
:101DC00008F06CC0882309F4BEC08091260290916F
:101DD00027029093100280930F021092320280919A
:101DE0003402863009F424CF539A239A1092B40017
:101DF0001092B30086E0809334021ACF80913402AF
:101E0000863099F0539A239A1092B4001092B3003E
:101E1000559854983B983A983D983C9810923202C5
:101E20001092330286E0809334022091250281E0F3
:101E300090E002C0880F991F2A95E2F720910F02C7
:101E40003091100282239323892B09F479C081E019
:101E500080933202EDCE82E080933402E9CE85E0B9
:101E600080933402E5CE81E080933402E1CE10927B
:101E70003402DECE80913402833009F4D9CE8091D1
:101E80003402843009F4D4CE539A239A1092B400C9
:101E90001092B30083E080933402CACE833061F1A4
:101EA000843009F09CCF2091320280912B029091D6
:101EB0002A022330C1F01092330223E02093320231
:101EC00090930C0280930B028ACF90913202809102
:101ED00028029130F9F01092330291E0909332028F
:101EE00080930E027CCF20910B022813E4CF209127
:101EF0000C029213E0CF73CF9091320280912902AD
:101F0000923069F01092330292E090933202809303
:101F10000D0265CF90910E029813DDCF60CF9091A6
:101F20000D029813EFCF5BCFF0E0E0E009958091D0
:101F30006E008D7F80936E0016BCE0E0F0E709959F
:101F40001092320275CE80913402863009F070CE44
:101F500060910F0280EB90E00E94D2196091100214
:101F600081EB90E00E94D21960910E0285E090E032
:101F70000E94D21960910D0289E090E00E94D2196E
:101F800060910C028CE090E00E94D21960910B02EB
:101F900084E190E00E94D219539823981092B400E3
:101FA0001092B30081E0809334028091250288234F
:101FB00009F43ECE14CFFC0120818FEF9FEF8227E2
:101FC000082E8295807F8025092E982F82958F700C
:101FD0000826869598278927880F880F880F8025DF
:101FE00021818227082E8295807F8025092E982FB7
:101FF00082958F700826869598278927880F880FE5
:10200000880F802522818227082E8295807F802557
:10201000092E982F82958F700826869598278927F4
:10202000880F880F880F802523818227082E8295AC
:10203000807F8025092E982F82958F70082686959F
:1020400098278927880F880F880F80252481822769
:10205000082E8295807F8025092E982F82958F707B
:102060000826869598278927880F880F880F80254E
:1020700025818227082E8295807F8025092E982F22
:1020800082958F700826869598278927880F880F54
:10209000880F802526818227082E8295807F8025C3
:1020A000092E982F82958F70082686959827892764
:1020B000880F880F880F802527818227082E829518
:1020C000807F8025092E982F82958F70082686950F
:1020D00098278927880F880F880F802520858227D9
:1020E000082E8295807F8025092E982F82958F70EB
:1020F0000826869598278927880F880F880F8025BE
:1021000021858227082E8295807F8025092E982F91
:1021100082958F700826869598278927880F880FC3
:10212000880F802508950FB6F894A4B120911B0262
:102130002A2B24B921E030911B02203029F0000025
:1021400025B1232B25B904C000000000000000C009
:10215000000000000000309525B1232325B92EEAA8
:102160002A95F1F72BEE30B735FF0AC0A4B93091AC
:102170001B02309525B1232325B90FBE80E00895B9
:1021800000002A9581F721E030911B02203029F0D0
:10219000000025B1232B25B904C000000000000079
:1021A00000C0000000000000309525B1232325B9B0
:1021B000000024E52A95F1F7FC018CE0619170E0C4
:1021C000660F771F616072609AE041E050E09A010B
:1021D00026233723232B30911B02203029F00000C7
:1021E00025B1232B25B904C000000000000000C069
:1021F000000000000000309525B1232325B9000020
:1022000021E52A95F1F7440F551F9A9501F78A9514
:10221000A9F620B7206120BFA4B930911B023095E8
:1022200025B1232325B90FBE81E00895A3E1B0E0D5
:10223000ECE1F1E10C94E3147C011B015A01DC0197
:1022400017961C921E92169713968C9181FF4DC380
:10225000FE0131964F01D70113969C91F10193FD38
:10226000859193FF81911F01882309F4F1C2853282
:1022700039F493FD859193FF81911F01853239F4E3
:10228000B70190E00E94281965015601E4CF10E0E3
:10229000712C612CBFE1B61538F08B3211F190F43E
:1022A000803209F1833229F167FC3CC020ED280F10
:1022B0002A3050F566FE20C0EAE01E9F200D112452
:1022C000122F06C08D3291F0803371F7689460F858
:1022D000F10193FD859193FF81911F018111DACF67
:1022E00021C0689461F8689462F8F2CF689463F84A
:1022F000EFCF689464F8ECCFFAE07F9E200D1124B4
:10230000722E689465F8E4CF8E3229F466FCA0C280
:10231000689466F8DDCF8C3619F4689467F8D8CFE6
:102320008836B1F29BEB980F933008F06FC0689439
:1023300064F8805E66FE16E0262D2F73622E8536C9
:1023400009F06CC0689466F867FE72C0812F1C3378
:1023500008F08BE344244394480E27E0D5014D91C7
:102360005D916D917D916D014C875D876E877F8753
:10237000042DA4016C857D858E859F850E943A1869
:102380005C01B981BC87B0FF03C00DE2B3FF07C099
:102390000BE261FC04C0062D047062FC00E2EC85D7
:1023A000EC705E2E09F454C00111A2C2F3E0512C6E
:1023B000F715A0F483E0572C581A63FC08C0B70146
:1023C00080E290E00E9428195A945110F8CF00231F
:1023D00029F0B701802F90E00E942819FC8508E6BB
:1023E00010E0F3FD02C00CE610E0262D2071622EF5
:1023F000F8018491811123C0552009F446CFB7011B
:1024000080E290E00E9428195A94F6CF9BE9980F39
:10241000933008F02DC1E89464F88CCF863619F417
:10242000689467F891CF112309F48ECF11508CCFA7
:10243000212F183010F027E017E0412C8FCF6110CA
:102440008052B70190E00E9428190F5F1F4FD0CF34
:1024500067FE7AC04A0CFC85F4FF04C08A81813390
:1024600009F44A9414140CF092C028E0241510F4D6
:1024700088E0482E85E090E067FE06C0C501B7FE03
:1024800002C080E090E0019601110196112331F025
:10249000212F30E02F5F3F4F820F931F78161906D0
:1024A00019F014F0572C581A862D897011F4511018
:1024B00073C0002329F0B701802F90E00E942819F3
:1024C00063FC02C051106FC067FE88C03501B7FEC3
:1024D00002C0712C612CC50186199709A401480F0F
:1024E000591F598B488BB501641971097B8B6A8B15
:1024F000012F10E0119501951109A614B7040CF4F1
:1025000059C0AA89BB89A615B7050CF053C0E88944
:10251000F9898181F1E06F1A7108601671060CF477
:102520004BC0B70190E00E9428192FEF6216720687
:1025300029F4B7018EE290E00E94281988899989D0
:102540000196998B888BD9CF66FC94CFE12FF0E070
:10255000EA15FB053CF03CEFA3163FEFB30614F081
:10256000689467F83296E80DF91D01C011501123E7
:1025700019F082918033D1F367FE7CCF44244394D9
:10258000410E1A151B0431F02CF01A1973CF442494
:10259000439470CF10E06ECFB70180E290E00E94CC
:1025A00028195A9484CFB70180E390E00E9428193B
:1025B0005A9488CF80E3AECFA614B70441F49A8131
:1025C000963350F4953319F43C8534FF05C0B701B8
:1025D00090E00E94281910CF81E3F9CF8A818133DE
:1025E00019F04C854F7E4C87B70190E00E94281966
:1025F000112399F0B7018EE290E00E9428191E5F26
:1026000002E0802F0F5FF401E80FF11D8081B70118
:1026100090E00E9428191013F4CF85E664FC85E44D
:1026200090E0B7010E942819B7FC06C0A114B104BC
:10263000C1F45C8554FF15C0B194A194B1088DE23A
:10264000B70190E00E94281980E37AE0A716B10450
:1026500054F4B70190E00E942819B701C501C09653
:10266000B8CF8BE2EDCF8F5F6AE0A61AB108EDCF4D
:102670008336B9F0833709F43AC0833509F04DC089
:10268000D501AD90BD906D01612F70E066FC02C078
:102690006FEF7FEFC5010E9412198C01689467F8F3
:1026A0000CC0650182E0C80ED11CD5018C918983D4
:1026B00001E010E05401E89467F863FC04C0701670
:1026C000110609F018F5572C0115110509F494CEDF
:1026D000F50167FC859167FE81915F01B70190E08C
:1026E0000E94281951105A9401501109EDCFF5019B
:1026F000A190B1906F01612F70E066FC02C06FEF96
:102700007FEFC5010E941D198C01D5CFB70180E272
:1027100090E00E9428197A94D2CF843619F0893635
:1027200009F06FC067FE64C0F501619171918191FC
:1027300091916F01B62DBF766B2E97FF09C09095D2
:102740008095709561957F4F8F4F9F4F689467F884
:102750002AE030E0A4010E946C19A82EA818BA2C17
:10276000062D66FE0AC00E7FA11638F464FE04C072
:1027700062FC02C0062D0E7EB12E04FF8EC0FE014B
:10278000EA0DF11D8081803309F080C0097E502F51
:102790005870552E03FD90C000FF8AC01A2DB71443
:1027A00010F4170D1B1904FF8DC0B70180E390E0F2
:1027B0000E94281902FF07C088E701FD88E590E024
:1027C000B7010E942819A11608F488C0AA940A2DFE
:1027D00010E00F5F1F4F080D191DD8018E918D015C
:1027E000B70190E00E94281908151905B1F704CE29
:1027F000D5016D917D916D01072E000C880B990B11
:1028000099CF062D8537E1F40F7E2AE030E007FFEF
:1028100035C0D5014D915D916D917D916D014C87D4
:102820005D876E877F87A4016C857D858E859F85FA
:102830000E946C19A82EA818602EE89467F88FCF14
:10284000097F803791F058F4883589F08F36A1F0F0
:10285000F701868197816396E2E10C94FF14883733
:10286000B9F704FD046020E1D1CF0061FACF64FC28
:10287000066020E132E0CBCF28E0C8CFF50181919E
:1028800091916F01AC0170E060E0C9CF02FD02C020
:10289000B3947DCFB394B3947ACF802F867809F424
:1028A00076CFF6CFB70180E290E00E942819B3946A
:1028B000B714C0F3512C77CF572C5B18B71408F41A
:1028C00072CFF8CF802F867809F47DCF8BE201FF9D
:1028D00080E207FD8DE2B70190E073CFB70180E39E
:1028E00090E00E94281911506ECF8FEF9FEFB3CF69
:1028F00024E0512C271508F06CCD84E05CCD0E94BB
:102900009B050E94E7018EEE90E090931601809364
:10291000150189EE90E0909314018093130161EA10
:1029200073E088E291E00E94950690E080E00895CF
:1029300097FB072E16F4009407D077FD09D00E946C
:102940001A1507FC05D03EF4909581959F4F089588
:10295000709561957F4F0895A1E21A2EAA1BBB1BAB
:10296000FD010DC0AA1FBB1FEE1FFF1FA217B3075B
:10297000E407F50720F0A21BB30BE40BF50B661F71
:10298000771F881F991F1A9469F760957095809535
:1029900090959B01AC01BD01CF010895EE0FFF1F83
:1029A0000590F491E02D0994A29FB001B39FC0015E
:1029B000A39F700D811D1124911DB29F700D811D6B
:1029C0001124911D08952F923F924F925F926F9222
:1029D0007F928F929F92AF92BF92CF92DF92EF92AF
:1029E000FF920F931F93CF93DF93CDB7DEB7CA1B30
:1029F000DB0B0FB6F894DEBF0FBECDBF09942A885B
:102A0000398848885F846E847D848C849B84AA8402
:102A1000B984C884DF80EE80FD800C811B81AA818F
:102A2000B981CE0FD11D0FB6F894DEBF0FBECDBF5A
:102A3000ED010895AA1BBB1B51E107C0AA1FBB1FD4
:102A4000A617B70710F0A61BB70B881F991F5A953A
:102A5000A9F780959095BC01CD0108955058BB27EA
:102A6000AA270E9446150C94C0160E94B21638F090
:102A70000E94B91620F039F49F3F19F426F40C9403
:102A8000AF160EF4E095E7FB0C94A916E92F0E940F
:102A9000D11658F3BA17620773078407950720F019
:102AA00079F4A6F50C94F3160EF4E0950B2EBA2FDC
:102AB000A02D0B01B90190010C01CA01A001112444
:102AC000FF27591B99F0593F50F4503E68F11A16F0
:102AD000F040A22F232F342F4427585FF3CF469581
:102AE00037952795A795F0405395C9F77EF41F16A3
:102AF000BA0B620B730B840BBAF09150A1F0FF0F6D
:102B0000BB1F661F771F881FC2F70EC0BA0F621F58
:102B1000731F841F48F4879577956795B795F79548
:102B20009E3F08F0B0CF9395880F08F09927EE0FDD
:102B30009795879508950E94851608F481E0089579
:102B40000E94B4150C94C0160E94B91658F00E9449
:102B5000B21640F029F45F3F29F00C94A9165111E8
:102B60000C94F4160C94AF160E94D11668F39923B6
:102B7000B1F3552391F3951B550BBB27AA27621779
:102B80007307840738F09F5F5F4F220F331F441F86
:102B9000AA1FA9F335D00E2E3AF0E0E832D09150BA
:102BA0005040E695001CCAF72BD0FE2F29D0660FA7
:102BB000771F881FBB1F261737074807AB07B0E8EA
:102BC00009F0BB0B802DBF01FF2793585F4F3AF0F0
:102BD0009E3F510578F00C94A9160C94F4165F3FB3
:102BE000E4F3983ED4F3869577956795B795F79576
:102BF0009F5FC9F7880F911D9695879597F908955E
:102C0000E1E0660F771F881FBB1F621773078407F9
:102C1000BA0720F0621B730B840BBA0BEE1F88F708
:102C2000E09508950E9419166894B1110C94F41659
:102C300008950E94D91688F09F5798F0B92F9927C8
:102C4000B751B0F0E1F0660F771F881F991F1AF097
:102C5000BA95C9F714C0B13091F00E94F316B1E0F3
:102C600008950C94F316672F782F8827B85F39F0F2
:102C7000B93FCCF3869577956795B395D9F73EF430
:102C800090958095709561957F4F8F4F9F4F0895D8
:102C9000E89409C097FB3EF49095809570956195F6
:102CA0007F4F8F4F9F4F9923A9F0F92F96E9BB27AC
:102CB0009395F695879577956795B795F111F8CF28
:102CC000FAF4BB0F11F460FF1BC06F5F7F4F8F4F93
:102CD0009F4F16C0882311F096E911C0772321F089
:102CE0009EE8872F762F05C0662371F096E8862F21
:102CF00070E060E02AF09A95660F771F881FDAF778
:102D0000880F9695879597F90895990F0008550FA4
:102D1000AA0BE0E8FEEF16161706E807F907C0F061
:102D200012161306E407F50798F0621B730B840B69
:102D3000950B39F40A2661F0232B242B252B21F443
:102D400008950A2609F4A140A6958FEF811D811DE3
:102D5000089597F99F6780E870E060E008959FEF1D
:102D600080EC089500240A94161617061806090622
:102D7000089500240A9412161306140605060895F1
:102D8000092E0394000C11F4882352F0BB0F40F479
:102D9000BF2B11F460FF04C06F5F7F4F8F4F9F4FB9
:102DA000089557FD9058440F551F59F05F3F71F03B
:102DB0004795880F97FB991F61F09F3F79F08795A2
:102DC0000895121613061406551FF2CF4695F1DF2B
:102DD00008C0161617061806991FF1CF86957105BB
:102DE000610508940895E894BB2766277727CB01EF
:102DF00097F908950E940D170C94C0160E94B21600
:102E000038F00E94B91620F0952311F00C94A91601
:102E10000C94AF1611240C94F4160E94D11670F382
:102E2000959FC1F3950F50E0551F629FF001729F6F
:102E3000BB27F00DB11D639FAA27F00DB11DAA1F7E
:102E4000649F6627B00DA11D661F829F2227B00DCB
:102E5000A11D621F739FB00DA11D621F839FA00D56
:102E6000611D221F749F3327A00D611D231F849FA6
:102E7000600D211D822F762F6A2F11249F575040FD
:102E80009AF0F1F088234AF0EE0FFF1FBB1F661F78
:102E9000771F881F91505040A9F79E3F510580F041
:102EA0000C94A9160C94F4165F3FE4F3983ED4F307
:102EB000869577956795B795F795E7959F5FC1F7E5
:102EC000FE2B880F911D9695879597F9089519F413
:102ED00016F40C94AF160C94AD170E94D916B8F3E3
:102EE0009923C9F3B6F39F57550B87FF0E94BB1771
:102EF0000024A0E640EA900180585695979528F462
:102F0000805C660F771F881F20F026173707480759
:102F100030F4621B730B840B202931294A2BA695B0
:102F200017940794202531254A2758F7660F771FF5
:102F3000881F20F026173707480730F4620B730B01
:102F4000840B200D311D411DA09581F7B901842FFF
:102F50009158880F9695879508959F3F31F091502D
:102F600020F4879577956795B795880F911D96956D
:102F7000879597F9089591505040660F771F881FE5
:102F8000D2F70895CF92DF92EF92FF92CF93DF9323
:102F9000CDB7DEB72A970FB6F894DEBF0FBECDBF10
:102FA00089879A87A985BA852D913D914D915C912C
:102FB00029833A834B835C83232B242B252B41F4D9
:102FC00024E239ED4BE557E029833A834B835C8358
:102FD00069817A818B819C812DE133EF41E050E062
:102FE0000E94E01969017A01A7EAB1E49B01AC01F2
:102FF0000E94FF1969837A838B839C83ACEEB4EFC4
:10300000A70196010E940D1A9B01AC0189819A814A
:10301000AB81BC81820F931FA41FB51FB7FF03C0F4
:103020000197A109B048E985FA8580839183A2833D
:10303000B3839F772A960FB6F894DEBF0FBECDBF3D
:10304000DF91CF91FF90EF90DF90CF9008950E9495
:10305000C217089587E191E00E94C2170895B0E079
:10306000A0E08093170190931801A0931901B093E9
:103070001A010895283008F027E03327DA01990F64
:10308000311D87FD916000966105710539F432604C
:103090002E5F3D9330E32A95E1F708959F3F30F08E
:1030A00080387105610509F03C5F3C5F3D939130CC
:1030B00008F08068911DDF93CF931F930F93FF92C9
:1030C000EF92192F987F9695E92F96959695E90F8F
:1030D000FF27E653FF4F99273327EE24FF24A7014C
:1030E000E70105900894079428F4360FE71EF81EB0
:1030F000491F511D660F771F881F991F0694A1F75E
:103100000590079428F4E70EF81E491F561FC11DAD
:10311000770F881F991F661F0694A1F705900794E3
:1031200028F4F80E491F561FC71FD11D880F991F7D
:10313000661F771F0694A1F70590079420F4490FA6
:10314000561FC71FD81F990F661F771F881F069429
:10315000A9F784911095177041F0D695C7955795AA
:103160004795F794E7941A95C1F7E0E7F0E0689483
:103170001590159135916591959105907FE2739524
:10318000E118F10A430B560BC90BD009C0F7E10C4B
:10319000F11E431F561FC91FD01D7EF4703311F45A
:1031A0008A95E6CFE894015030F0080F0AF4002722
:1031B000021708F4202F2395022F7A3328F079E3A1
:1031C0007D932A95E9F710C07D932A9589F6069498
:1031D00097956795379517951794E118F10A430B62
:1031E000560BC90BD00998F023957E9173957A33CD
:1031F00008F070E37C932013B8F77E9170617D93A3
:1032000030F0839571E37D9370E32A95E1F7112403
:10321000EF90FF900F911F91CF91DF91992787FD3C
:1032200090950895FC010590615070400110D8F709
:10323000809590958E0F9F1F0895FC0161507040FE
:1032400001900110D8F7809590958E0F9F1F0895DB
:103250000F931F93CF93DF93182F092FEB018B81CF
:1032600081FD09C01FEF0FEF812F902FDF91CF91CC
:103270001F910F91089582FF14C02E813F818C8190
:103280009D81281739073CF4E881F981CF01019627
:103290009983888310838E819F8101969F838E837B
:1032A000E3CFE885F985812F0995892BA1F3DACF42
:1032B000B0E0A0E0EEE5F9E10C94F314FE013596E0
:1032C00061917191AF0180913702909138020E9413
:1032D0001611E2E00C940F15FA01AA27283051F1DB
:1032E000203181F1E8946F936E7F6E5F7F4F8F4F37
:1032F0009F4FAF4FB1E03ED0B4E03CD0670F781F96
:10330000891F9A1FA11D680F791F8A1F911DA11D7A
:103310006A0F711D811D911DA11D20D009F46894B3
:103320003F912AE0269F11243019305D3193DEF65B
:10333000CF010895462F4770405D4193B3E00FD011
:10334000C9F7F6CF462F4F70405D4A3318F0495DFC
:1033500031FD4052419302D0A9F7EACFB4E0A695DF
:103360009795879577956795BA95C9F70097610501
:10337000710508959B01AC010A2E06945795479557
:1033800037952795BA95C9F7620F731F841F951F4C
:10339000A01D0895F999FECF92BD81BDF89A992795
:1033A00080B50895262FF999FECF1FBA92BD81BD31
:1033B00020BD0FB6F894FA9AF99A0FBE01960895B7
:1033C000052E97FB1EF400940E94F71957FD07D0B5
:1033D0000E94AC1407FC03D04EF40C94F7195095DE
:1033E0004095309521953F4F4F4F5F4F08959095F1
:1033F0008095709561957F4F8F4F9F4F08950E94E4
:10340000D414A59F900DB49F900DA49F800D911D85
:1034100011240895B7FF0C94FF190E94FF19821B15
:10342000930B0895F894FFCFFF06E306B706AD06A9
:10343000B4065D075207970F180E180E940F370F3A
:0C344000330F2F0F2B0F3A0FFE0EDB0E88
:10344C000000000200000000E00000000000540139
:10345C00AA9A0597059605010000004E65696768F4
:10346C00626F722049443A20256C640A00436F6EE7
:10347C007461646F723A20256C640A005469636B42
:10348C00733A20256C640A004369636C6F733A20AD
:04349C0025640A0099
:00000001FF
