:100000000C94B5000C94DE000C94DE000C94DE0021
:100010000C94DE000C94DE000C94A1050C94DE0020
:100020000C94DE000C94DE000C94DE000C94D50CD5
:100030000C94DE000C94DE000C94340C0C94DE0066
:100040000C94DE000C94DE000C94DE000C94DE00B8
:100050000C94DE000C94DE000C94DE000C94F50C85
:100060000C94DE000C94DE006E616E00696E66001A
:1000700000407A10F35A00A0724E18090010A5D45F
:10008000E80000E87648170000E40B54020000CABC
:100090009A3B000000E1F505000080969800000002
:1000A00040420F000000A086010000001027000061
:1000B0000000E803000000006400000000000A00E7
:1000C000000000000100000000002C76D888DC67EA
:1000D0004F0823DFC1DFAE59E1B1B796E5E3E45342
:1000E000C63AE651997696E8E6C28426EB898C9B5F
:1000F00062ED407C6FFCEFBC9C9F40F2BAA56FA5FF
:10010000F490055A2AF75C936B6CF9676DC11BFC80
:10011000E0E40D47FEF520E6B500D0ED902E03009B
:10012000943577050080841E080000204E0A0000E8
:1001300000C80C333333330F986E12831141EF8DA7
:100140002114893BE65516CFFEE6DB18D1844B38E7
:100150001BF77C1D901DA4BBE424203284725E2218
:100160008100C9F124ECA1E53D2711241FBECFEF8A
:10017000D8E0DEBFCDBF14BE0FB6F894A89580912D
:100180006000886180936000109260000FBE11E0F3
:10019000A0E0B1E0E6E6F2E302C005900D92AE30D9
:1001A000B107D9F721E0AEE0B1E001C01D92AF3E4A
:1001B000B207E1F70E94A2130C941F190C940000DF
:1001C00080910001909101010895CF93DF93DC01AC
:1001D000E0910001F0910101EB01488159816A81B0
:1001E0007B81458756876787708B81E0848711966E
:1001F0004C91119750E070E060E047AB50AF61AFB9
:1002000072AF12964C91129750E070E060E043AFED
:1002100054AF65AF76AFEF01EF9613964C911397FD
:1002200050E070E060E0488359836A837B83E45840
:10023000FF4F14968C918083DF91CF910895CF93D7
:10024000DF9300D000D000D0CDB7DEB78091C901D8
:100250008B5E0E942A08E0910001F09101018091DB
:10026000C9019091CA01B0E0A0E0868F978FA0A34A
:10027000B1A34091CB015091CC016091CD0170911F
:10028000CE01DF01AB58BF4F4D935D936D937C93CF
:10029000139714961C9213961C92138A148A158A2B
:1002A000168A178A84EB808F88E790E0A0E0B0E0A0
:1002B000818F928FA38FB48F0E9413082091000129
:1002C000309101013E832D83282F30E050E040E043
:1002D00029833A834B835C83ED81FE81218D328DAE
:1002E000438D548D69817A818B819C810E94CD13CD
:1002F00069837A838B839C83DC01CB010196A11DEA
:10030000B11DED81FE81838B948BA58BB68B809183
:10031000C9019091CA01419769F1858D8130F9F049
:10032000F091C501FD832091C601298321112FC0C1
:10033000FF2359F08091B400811107C06FEF0E9434
:100340001A078FE090E00E940D076D8189810E945D
:100350001A07E0910001F091010181E0858F80E0B2
:1003600026960FB6F894DEBF0FBECDBFDF91CF91BA
:100370000C94B10C858D882391F360E080E00E949D
:100380001A07E0910001F0910101158EE8CF9091DC
:10039000B30081E0911119C081953D8131110BC0ED
:1003A000882399F260E08FEF0E941A078FE090E0B7
:1003B0000E940D07CACF9091B400992309F4BECFD3
:1003C000882319F28FEF60E0EFCF80E081953D81C7
:1003D0003111F1CFE5CFCF93DF93C82FD62F811105
:1003E00013C0662359F08091B400811107C06FEFEC
:1003F0000E941A078FE090E00E940D076D2F8C2F4E
:10040000DF91CF910C941A079091B30081E0911184
:1004100011C08195DD2349F09091B400992339F3FF
:10042000882361F38FEF60E0E3CF882339F360E046
:100430008FEFDECF80E08195D111EECFF6CF1F9305
:10044000CF93DF93C82FE0910001F0910101858DDA
:100450008C1779F0C230A1F1C330F1F0C13069F0EE
:1004600060E080E00E941A07E0910001F091010134
:10047000C58FDF91CF911F9108951091C501D09143
:10048000C601D11132C0112309F441C08091B400DA
:1004900081113DC06FEF35C0D091C701DD2359F008
:1004A0008091B400811107C06FEF0E941A078FE09E
:1004B00090E00E940D076D2F80E00E941A07D4CFB4
:1004C000D091C801DD2361F08091B300811108C093
:1004D00060E08FEF0E941A078FE090E00E940D0706
:1004E00060E08D2F0E941A07BFCF9091B30081E08A
:1004F000911180E0819511110FC0882341F060E0D7
:100500008FEF0E941A078FE090E00E940D07612F85
:100510008D2F0E941A07A8CF9091B400992309F457
:10052000B9CF8823A1F38FEF60E0EBCF0F931F9338
:10053000E0910001F0910101858D8130F9F09EEF8D
:10054000980F923008F06FC04091CB015091CC01D0
:100550006091CD017091CE01278983899489A58905
:10056000B689820F911DA11DB11D84179507A6079D
:10057000B70708F467C01F910F9108954091CB0110
:100580005091CC016091CD017091CE018389948905
:10059000A589B689018D128D238D348D800F911F11
:1005A000A21FB31F84179507A607B70720F78091EE
:1005B000CB019091CC01A091CD01B091CE01838B64
:1005C000948BA58BB68B0E941308E0910001F091EB
:1005D000010180FF70C0858D8230D1F01091C8017B
:1005E000112361F08091B300811108C060E08FEFAA
:1005F0000E941A078FE090E00E940D0760E0812FB3
:100600000E941A07E0910001F091010182E0858FBC
:100610000E941308E0910001F091010180FD69C082
:100620008AE5878BA8CF882309F4A5CF60E080E016
:100630000E941A07E0910001F0910101158E1F91AF
:100640000F9108958091CB019091CC01A091CD01A3
:10065000B091CE01838B948BA58BB68B0091C50195
:100660001091C601111108C00023C1F08091B4009F
:10067000811114C06FEF0CC09091B30081E0911113
:1006800080E08195011138C0882341F060E08FEF50
:100690000E941A078FE090E00E940D07602F812FC3
:1006A0000E941A07E0910001F091010181E0858F1D
:1006B0001F910F910895858D833009F4A9CF109172
:1006C000C701112359F08091B400811107C06FEF69
:1006D0000E941A078FE090E00E940D07612F80E0D2
:1006E0000E941A07E0910001F091010183E0858FDB
:1006F0008FCF84EB878B3FCF9091B400992309F47F
:10070000B9CF882359F28FEF60E0C2CF0F931F93C8
:10071000CF93DF930E949602E0910001F0910101D6
:10072000868D978DA0A1B1A14197A105B105E9F1F1
:10073000DF01A758BF4F8C919485913069F180FFFC
:100740001DC080E10E94B10CC0910001D091010157
:10075000FE01E758FF4F80819E8D99839AA19A836D
:100760009BA99B838C831986CE010E94FE0E9B87DA
:100770008A87DF91CF911F910F91089581E00E94A8
:10078000B10CC0910001D0910101FE01E758FF4F6B
:10079000808180FFE1CFD5CF1486E458FF4F908150
:1007A000891768F69C93892FCACF0091CB011091CD
:1007B000CC012091CD013091CE01DF01A758BF4F70
:1007C0008C91EB58FF4F40815181628173814C596C
:1007D0005F4F6F4F7F4F041715072607370708F441
:1007E000AECF8F5F8C934091CB015091CC01609143
:1007F000CD017091CE0140835183628373839FCF7B
:10080000CF93DF93C0910001D09101018E8D898338
:100810008AA18A838BA98B83FE01E758FF4F8081D1
:100820008C831986CE010E94FE0E9B878A87DF91FA
:10083000CF9108958F929F92AF92BF92EF92FF92C5
:100840000F931F93CF93DF93CDB7DEB762970FB6A9
:10085000F894DEBF0FBECDBF4B015C018D829E823E
:10086000AF82B886C901DA0189879A87AB87BC87CE
:100870000D871E872D813E814F815885CA01B901A0
:100880000E941B165B018C0129853A854B855C858E
:10089000CA01B9010E941B169B01AC01A982BA8250
:1008A0000B831C8369817A818B819C810E94501407
:1008B00069837A838B839C8369817A818B819C8114
:1008C0000E948E168B015C0120E030E048E453E486
:1008D00069831A838B83BC8269817A818B819C8135
:1008E0000E94BC1487FD42C08D819E81AF81B88576
:1008F000B0588D839E83AF83B8879801A501BC0152
:10090000CD010E94C1146F87788B898B9A8BAD853E
:10091000BE856D937D938D939C93139789859A855E
:10092000AB85BC85B05889879A87AB87BC8798010F
:10093000A501BC01CD010E94C114D7016D937D9327
:100940008D939C93139781E090E062960FB6F89494
:10095000DEBF0FBECDBFDF91CF911F910F91FF90F2
:10096000EF90BF90AF909F908F90089590E080E0BF
:10097000ECCF089590E080E008950895BF92CF9263
:10098000DF92EF92FF920F931F93CF93DF93F89430
:1009900014B817B81AB815B818B81BB8529A5A9A9A
:1009A00014BC85E085BD8FEF87BD82E080936E002B
:1009B00010928000109281002FE83BE03093890074
:1009C0002093880080936F005398239891EA909326
:1009D000B0008093B1001092B4001092B3008BE08D
:1009E00080BF83E080937F0086E080937C0083E873
:1009F00080937A0080917A00806480937A0080915D
:100A00007A0086FDFCCF10927C0083EA80937A0006
:100A100081E080937B0081E090E00E94D7188F3FB7
:100A200011F0809366001092DA01C1E0C093D90101
:100A3000C093D8011092D7011092D60180E990E0BE
:100A40000E94D7188093D5018091D501887311F049
:100A5000C093D5011092D2011092D1018FEF90E096
:100A60009093D0018093CF011092CB011092CC01D2
:100A70001092CD011092CE0181E08093EE0182E4CC
:100A80009FE09093D4018093D30180EB90E00E948B
:100A9000D718C82F81EB90E00E94D718D82FD09399
:100AA000CA01C093C90185E090E00E94D7188093E5
:100AB000C80189E090E00E94D7188093C7018CE0BC
:100AC00090E00E94D7188093C60184E190E00E94D4
:100AD000D7188093C5010DE811E089EAE82E81E07E
:100AE000F82E99EAC92E91E0D92EC0E2D0E0CE01CD
:100AF0000E94D718B82ECE0101960E94D7189B2DC0
:100B0000F801819391938F01CE01C0960E94D7186E
:100B1000B82ECE01C1960E94D7189B2DF701819364
:100B200091937F012296C016D10609F77894DF9140
:100B3000CF911F910F91FF90EF90DF90CF90BF90DA
:100B400008950F920FB60F921F9211248F930FB634
:100B5000F894A8958091600088618093600010925D
:100B600060000FBE8F911F900F900FBE0F901895D1
:100B70003C01EB0110E099249A9484E0C82E96E0A1
:100B8000A92E23E8B22E38E1D32E49E2E42EE091DB
:100B9000EE01E730E0F7F0E0EF5DF64E0C94EF1376
:100BA000111102C0F3010995C092EE0111E0FE019E
:100BB0000995EDCF8091DA01811103C1F894A092DB
:100BC0007C00B0927A0080917A00806480937A00F1
:100BD00080917A0086FDFCCF809178009091790019
:100BE00078948B3AE2E09E070CF0E4C08938F2E09A
:100BF0009F070CF0EDC0873692400CF4E2C0559A86
:100C0000549A3B9A3A9A3D983C98C1CF559854983B
:100C10003B9A3A9A3D983C98EFECF7E03197F1F720
:100C200000C00000559854983B983A983D983C98DD
:100C3000FFEF21EE84E0F15020408040E1F700C05A
:100C40000000A5CFF89480B7877F80BF80917A009D
:100C50008F7780937A0014B817B81AB815B818B8F7
:100C60001BB80FB6F894A895D09260000FBEE09222
:100C700060008091600080648093600083B7817F12
:100C8000846083BFF89483B7816083BF789488952C
:100C900083B78E7F83BF78941092DA01529A5A9A62
:100CA00080917A00806880937A0087E592E00197CE
:100CB000F1F700C0000080B7886180BF559A549A50
:100CC0003B9A3A9A3D9A3C9AEFE1FEE43197F1F76C
:100CD00000C000008091DA0181115CC055985498E1
:100CE0003B983A983D983C9852CF8091EC01811105
:100CF00025C01092B3001092B4001092ED0147CFBE
:100D00004899ECCF559A54983B983A983D983C981E
:100D10008FEC97E00197F1F700C0000055985498C8
:100D20003B983A983D983C989FEFE1EEF4E0915063
:100D3000E040F040E1F700C0000029CF9091EC01C5
:100D40008091ED01981709F422CF8091EC018093F6
:100D5000ED018091EC01813009F441C08091EC01FA
:100D60001092B3009092B400823009F449C090927E
:100D7000B3009092B4008FE295E70197F1F700C0BD
:100D800000008091C5019091C6019093B3008093BB
:100D9000B400FDCE559A549A3B983A983D983C98A9
:100DA000FFEF20E782E0F15020408040E1F700C0F3
:100DB000000094CF559854983B9A3A9A3D983C98A5
:100DC000E6CE559A549A3B983A983D983C98DFCE97
:100DD000559854983B983A983D9A3C9AD8CE909220
:100DE000B3001092B4008FE295E70197F1F700C0CD
:100DF00000008091C8018093B3001092B400C7CE68
:100E0000EFE2F5E73197F1F700C000008091C701EC
:100E10001092B3008093B400BACE9C01892B49F0A4
:100E20008FEC97E00197F1F700C0000021503109E5
:100E3000B9F708958093B3006093B40008958FEFDD
:100E40008093B3008093B4008FEC97E00197F1F7A3
:100E500000C000008FEC97E00197F1F700C00000A0
:100E60008FEC97E00197F1F700C000008FEC97E05E
:100E70000197F1F700C000008FEC97E00197F1F7C0
:100E800000C000008FEC97E00197F1F700C0000070
:100E90008FEC97E00197F1F700C000008FEC97E02E
:100EA0000197F1F700C000008FEC97E00197F1F790
:100EB00000C000008FEC97E00197F1F700C0000040
:100EC0008FEC97E00197F1F700C000008FEC97E0FE
:100ED0000197F1F700C000008FEC97E00197F1F760
:100EE00000C000008FEC97E00197F1F700C0000010
:100EF0008FEC97E00197F1F700C000000895809112
:100F0000DA0181111EC0F89487E080937C0083E8A9
:100F100080937A0080917A00806480937A00809137
:100F20007A0086FDFCCF8091780090917900109234
:100F30007C0023EA20937A0021E020937B007894C0
:100F400008958FEF9FEF08958091DA0181111EC0FF
:100F5000F89488EC80937C0087E880937A008091F5
:100F60007A00806480937A0080917A0086FDFCCFBD
:100F7000809178009091790010927C0023EA209370
:100F80007A0021E020937B00789408958FEF9FEF03
:100F900008951F93CF93DF93F0E0E0E080E016E048
:100FA000D3E8C3EA71E0A1E0B0E060E8F894109300
:100FB0007C00D0937A0090917A00906490937A00AC
:100FC00090917A0096FDFCCF2091780030917900C5
:100FD000217090917A00906490937A0090917A00B9
:100FE00096FDFCCF409178005091790010927C00E2
:100FF000C0937A0070937B0078944170241302C0F0
:101000006150A1F6222339F09D010E2E01C0220F5E
:101010000A94EAF7822B3196E830F10531F6DF9138
:10102000CF911F91089580910201982F990F990FE8
:10103000990F98278091EB0121E0280F2093EB0175
:10104000869586958927929596959770892780939E
:10105000020108958093020108958091DA018111BF
:1010600016C0F89486E080937C0083E880937A0031
:1010700080917A00806480937A0080917A0086FD66
:10108000FCCF8091780090917900789408958FEF4B
:101090009FEF08952F923F924F925F926F927F92AF
:1010A0008F929F92AF92BF92CF92DF92EF92FF9278
:1010B0000F931F93CF93DF93CDB7DEB728970FB66B
:1010C000F894DEBF0FBECDBF7C01DC0112960D90FF
:1010D000BC91A02DB887AF83A438E3E0BE070CF421
:1010E00077C0DC01ED90FC9080918D0190918E0194
:1010F000DD24DA948E159F0508F43BC200918F0120
:10110000109190010E151F0508F44AC3009191013A
:10111000109192010E151F0508F447C30091930129
:10112000109194010E151F0508F444C30091950118
:10113000109196010E151F0508F441C30091970107
:10114000109198010E151F0508F43EC300919901F6
:1011500010919A010E151F0508F43BC300919B01E5
:1011600010919C010E151F0508F43CC300919D01D0
:1011700010919E010E151F0508F43DC300919F01BB
:101180001091A0010E151F0508F446C20091A1019F
:101190001091A2010E151F0508F436C30091A3019A
:1011A0001091A4010E151F0508F437C30091A50185
:1011B0001091A6010E151F0508F438C30091A70170
:1011C0001091A8010E151F0508F439C31AE520C1B6
:1011D0008091A9019091AA018A179B0708F4B1C1D7
:1011E0000091AB011091AC010A171B0708F4DBC199
:1011F0000091AD011091AE010A171B0708F4EEC271
:101200000091AF011091B0010A171B0708F4EFC25B
:101210000091B1011091B2010A171B0708F4F8C13F
:101220000091B3011091B4010A171B0708F4E8C23A
:101230000091B5011091B6010A171B0708F4E9C225
:101240000091B7011091B8010A171B0708F4EAC210
:101250000091B9011091BA010A171B0708F4EBC2FB
:101260000091BB011091BC010A171B0708F4ECC2E6
:101270000091BD011091BE010A171B0708F4E8C2D6
:101280000091BF011091C0010A171B0708F4E4C2C6
:101290000091C1011091C2010A171B0708F4E0C2B6
:1012A0000091C3011091C4018DE02DE030E00A17D8
:1012B0001B0708F47BC1412C512C30ED3D8340E4E9
:1012C0004E832CE0C22ED12CF601EE0FFF1FE75506
:1012D000FE4F80819181D801A81BB90B9D0150E080
:1012E00040E029833A834B835C83CA01BD010E949D
:1012F00069159B01AC0169837A838B839C83698127
:101300007A818B819C810E9450145B016C018F81DA
:101310009885092E000CAA0BBB0B89839A83AB839B
:10132000BC83BC01CD010E946B153B014C019801AF
:1013300050E040E029833A834B835C83CA01B801C3
:101340000E9469151B018C0192014D815E81A98269
:10135000BA82CB82DC8269817A818B819C810E94F6
:101360001B169B01AC0129823A820B831C83698185
:101370007A818B819C810E944F149B01AC01698210
:101380007A828B829C8269817A818B819C810E9486
:101390004F1420E030E040E251E469837A838B838C
:1013A0009C8369817A818B819C810E941B16698351
:1013B0007A838B839C8369817A818B819C810E9453
:1013C00033158B01A982BA82CB82DC8269817A8152
:1013D0008B819C810E94331569837A838B839C83E4
:1013E000C80169817A810E94B913D62E4F81588530
:1013F0004D3B52400CF409C1D701ED90FC90809117
:101400008D0190918E018E159F0508F077CE10E02A
:10141000BFEF81E2810FDB1609F4ACC02D2D30E067
:1014200050E040E029833A834B835C83CA01B901D1
:101430000E9469156B017C01812F90E0B0E0A0E073
:1014400089839A83AB83BC83BC01CD010E9469155B
:101450004B015C012F813885032E000C440B550B8A
:1014600029833A834B835C83CA01B9010E946B15BF
:101470008B018E839D839B01AC0160E070E081E66F
:1014800094E40E944F149601A70169837A838B83A9
:101490009C8369817A818B819C810E941B166B01E0
:1014A0007C0120E030E04FE254E409831A838E810E
:1014B0008B839D819C8369817A818B819C810E9431
:1014C0004F149401A50169837A838B839C8369817E
:1014D0007A818B819C810E941B169B01AC01C98281
:1014E000DA82EB82FC8269817A818B819C810E9405
:1014F000501420E030E048E453E469837A838B831E
:101500009C8369817A818B819C810E94C11420E037
:1015100030E044E052E469837A838B839C83698161
:101520007A818B819C810E94501469837A838B839A
:101530009C8369817A818B819C810E943A15862FD8
:1015400019C0AD3BB240ACF0D701ED90FC9080915A
:101550008D0190918E01D12C8E159F0508F0CECD76
:10156000812C912CA12CB12CC12CD12CE12CF12C53
:1015700071CF81E228960FB6F894DEBF0FBECDBFC3
:10158000DF91CF911F910F91FF90EF90DF90CF905F
:10159000BF90AF909F908F907F906F905F904F9093
:1015A0003F902F90089581E021E030E06901F1E063
:1015B000CF1AD108282F30E050E040E029833A8349
:1015C0004B835C83CA01B9010E94691520E030E0B9
:1015D00040E05FE369837A838B839C8369817A81AE
:1015E0008B819C810E941B1620E030E0A901698359
:1015F0007A838B839C8369817A818B819C810E9411
:1016000050142B018D839E835FCE81E2860FB2CF73
:1016100084E024E030E0CACF59E0652EE9E0F0E054
:10162000EE0FFF1FE557FE4F80819181D801A81B67
:10163000B90B9D0150E040E029833A834B835C83E2
:10164000CA01BD010E9469159B01AC0169837A83BF
:101650008B839C8369817A818B819C810E94501449
:10166000962EA72EB82EC92EC701FF0CAA0BBB0BB6
:1016700089839A83AB83BC83BC01CD010E946B1527
:10168000762E872E7C01980150E040E029833A8332
:101690004B835C83CA01B8010E9469152B018C0140
:1016A000862D90E0B0E0A0E089839A83AB83BC8371
:1016B000BC01CD010E94691520E030E040E05FE30D
:1016C00069837A838B839C8369817A818B819C81F6
:1016D0000E941B1620E030E0A90169837A838B8386
:1016E0009C8369817A818B819C810E945014292D71
:1016F0003A2D4B2D5C2D69837A838B839C83698182
:101700007A818B819C810E941B169B01AC014982CE
:101710005A820B831C8369817A818B819C810E9410
:101720004F149B01AC0179828A82EB82FC82698131
:101730007A818B819C810E944F1420E030E040E24E
:1017400051E469837A838B839C8369817A818B815D
:101750009C810E941B1669837A838B839C83698199
:101760007A818B819C810E9433158B019982AA8298
:10177000BB82CC8269817A818B819C810E943315E6
:1017800069837A838B839C83C80169817A810E94F3
:10179000B913162F6F3F09F03BCE81E28D0DEACED3
:1017A00066246394E1E0F0E03BCF82E0682EE2E063
:1017B000F0E036CFB3E06B2EE3E0F0E031CFA4E011
:1017C0006A2EE4E0F0E02CCFF5E06F2EE5E0F0E0EB
:1017D00027CFE6E06E2EE6E0F0E022CF82E022E0C6
:1017E00030E0E4CE77E0672EE7E0F0E019CF83E069
:1017F00023E030E0DBCE68E0662EE8E0F0E010CFDA
:1018000085E025E030E0D2CE4AE0642EEAE0F0E068
:1018100007CF86E026E030E0C9CE3BE0632EEBE068
:10182000F0E0FECE87E027E030E0C0CE2CE0622E74
:10183000ECE0F0E0F5CE88E028E030E0B7CE9DE0C7
:10184000692EEDE0F0E0ECCE89E029E030E0AECEAC
:101850008AE02AE030E0AACE8BE02BE030E0A6CE92
:101860008CE02CE030E0A2CE1F920F920FB60F92C8
:1018700011242F933F934F935F936F937F938F9395
:101880009F93AF93BF93EF93FF938091D10190917A
:10189000D2012091CF013091D001820F931F9093FC
:1018A000D2018093D1018FEF90E09093D00180938B
:1018B000CF018FEF87BD8091CB019091CC01A0919A
:1018C000CD01B091CE010196A11DB11D8093CB0138
:1018D0009093CC01A093CD01B093CE018091DA0119
:1018E00081110FC08091D3019091D4012091D10139
:1018F0003091D2018217930720F48091EE01843059
:1019000089F0FF91EF91BF91AF919F918F917F915E
:101910006F915F914F913F912F910F900FBE0F905C
:101920001F901895E0910501F09106010995009727
:1019300041F30E94B60F882351F0E0910301F0912A
:10194000040109951092D2011092D101DACF0E94C0
:101950004B179C0199279093D0018093CF0127BD0D
:10196000D0CF80FF11C0559A81FF11C0549A82FFD9
:1019700011C03B9A83FF11C03A9A84FF11C03D9A6F
:1019800085FF11C03C9A0895559881FDEFCF54987A
:1019900082FDEFCF3B9883FDEFCF3A9884FDEFCFE8
:1019A0003D9885FDEFCF3C9808951F921FB61F927A
:1019B00011248F939F9310928100109285001092B2
:1019C000840081E08093D9018093D8011092DA01DC
:1019D00010927C0093EA90937A0080937B009F9111
:1019E0008F911F901FBE1F9018951F920F920FB6D8
:1019F0000F9211240F931F932F933F934F935F9355
:101A00006F937F938F939F93AF93BF93EF93FF93C6
:101A1000CF93DF9300D000D0CDB7DEB72091840004
:101A20003091850041E04093DA018091D90188230B
:101A3000D9F1109285001092840040938100109299
:101A4000D6011092D9018091D8018823A1F080910C
:101A50007A0086FDFCCF8091780090917900909378
:101A6000DE018093DD0181E080937C0093EA909316
:101A70007A0080937B000F900F900F900F90DF9172
:101A8000CF91FF91EF91BF91AF919F918F917F91F6
:101A90006F915F914F913F912F911F910F910F90F7
:101AA0000FBE0F901F901895C90187589109843770
:101AB0009940A0F01092810010928500109284004D
:101AC0004093D9014093D8011092DA0110927C0022
:101AD00083EA80937A0040937B00CDCF265831096A
:101AE000A4EFB0E00E94F51369837A838B839C8313
:101AF000AA27BB271B81183008F465C04093D90181
:101B00008091D80181113CC08091D701E82FF0E08D
:101B1000E152FE4F9091D60190838F5F8093D70161
:101B20008C3009F0A8CF109281001092850010929D
:101B300084004093D8011092DA010091E9011091DC
:101B4000EA018FED91E00E94FE0E0817190709F0D7
:101B500092CFE091E801E7FF47C098E79E0F9330EE
:101B600030F0539823981092B4001092B300E058CC
:101B7000EB3008F080CFF0E0E85DF64E0C94EF1308
:101B800080917A0086FDFCCF809178009091790059
:101B90009093DC018093DB0110927C0083EA8093B8
:101BA0007A0081E080937B009091D6019923B9F06F
:101BB0001092810010928500109284008093D801C9
:101BC0001092DA0158CF21E030E001C0220F8A954F
:101BD000EAF78091D601822B8093D6014CCF1092E8
:101BE000D8011092D70147CFE0910701F091080189
:101BF0006BED71E08FED91E009953DCF8091DF01B4
:101C0000823009F485C008F06CC0882309F4BEC096
:101C10008091E0019091E1019093CA018093C90104
:101C20001092EC018091EE01863009F424CF539A92
:101C3000239A1092B4001092B30086E08093EE01D4
:101C40001ACF8091EE01863099F0539A239A109220
:101C5000B4001092B300559854983B983A983D9828
:101C60003C981092EC011092ED0186E08093EE0119
:101C70002091DF0181E090E002C0880F991F2A9532
:101C8000E2F72091C9013091CA0182239323892B65
:101C900009F479C081E08093EC01EDCE82E080937D
:101CA000EE01E9CE85E08093EE01E5CE81E0809300
:101CB000EE01E1CE1092EE01DECE8091EE01833096
:101CC00009F4D9CE8091EE01843009F4D4CE539A30
:101CD000239A1092B4001092B30083E08093EE0137
:101CE000CACE833061F1843009F09CCF2091EC01A1
:101CF0008091E5019091E4012330C1F01092ED0153
:101D000023E02093EC019093C6018093C5018ACF14
:101D10009091EC018091E2019130F9F01092ED0187
:101D200091E09093EC018093C8017CCF2091C50194
:101D30002813E4CF2091C6019213E0CF73CF909186
:101D4000EC018091E301923069F01092ED0192E094
:101D50009093EC018093C70165CF9091C8019813CF
:101D6000DDCF60CF9091C7019813EFCF5BCFF0E04C
:101D7000E0E0099580916E008D7F80936E0016BC27
:101D8000E0E0F0E709951092EC0175CE8091EE014C
:101D9000863009F070CE6091C90180EB90E00E941E
:101DA000DF186091CA0181EB90E00E94DF1860911A
:101DB000C80185E090E00E94DF186091C70189E0CA
:101DC00090E00E94DF186091C6018CE090E00E94D4
:101DD000DF186091C50184E190E00E94DF185398FC
:101DE00023981092B4001092B30081E08093EE012A
:101DF0008091DF01882309F43ECE14CFFC012081BD
:101E00008FEF9FEF8227082E8295807F8025092EF5
:101E1000982F82958F700826869598278927880F96
:101E2000880F880F802521818227082E8295807F48
:101E30008025092E982F82958F70082686959827E1
:101E40008927880F880F880F802522818227082EF6
:101E50008295807F8025092E982F82958F70082685
:101E6000869598278927880F880F880F80252381DA
:101E70008227082E8295807F8025092E982F8295B3
:101E80008F700826869598278927880F880F880FD6
:101E9000802524818227082E8295807F8025092E27
:101EA000982F82958F700826869598278927880F06
:101EB000880F880F802525818227082E8295807FB4
:101EC0008025092E982F82958F7008268695982751
:101ED0008927880F880F880F802526818227082E62
:101EE0008295807F8025092E982F82958F700826F5
:101EF000869598278927880F880F880F8025278146
:101F00008227082E8295807F8025092E982F829522
:101F10008F700826869598278927880F880F880F45
:101F2000802520858227082E8295807F8025092E96
:101F3000982F82958F700826869598278927880F75
:101F4000880F880F802521858227082E8295807F23
:101F50008025092E982F82958F70082686959827C0
:101F60008927880F880F880F802508950FB6F89469
:101F7000A4B12091D5012A2B24B921E03091D501BB
:101F8000203029F0000025B1232B25B904C0000022
:101F90000000000000C0000000000000309525B1E6
:101FA000232325B92EEA2A95F1F72BEE30B735FF1A
:101FB0000AC0A4B93091D501309525B1232325B9A4
:101FC0000FBE80E0089500002A9581F721E030914E
:101FD000D501203029F0000025B1232B25B904C0FC
:101FE00000000000000000C000000000000030956C
:101FF00025B1232325B9000024E52A95F1F7FC013A
:102000008CE0619170E0660F771F616072609AE00A
:1020100041E050E09A0126233723232B3091D5014C
:10202000203029F0000025B1232B25B904C0000081
:102030000000000000C0000000000000309525B145
:10204000232325B9000021E52A95F1F7440F551FF8
:102050009A9501F78A95A9F620B7206120BFA4B907
:102060003091D501309525B1232325B90FBE81E0EC
:102070000895A3E1B0E0EFE3F0E10C9404147C01D7
:102080001B015A01DC0117961C921E92169713969B
:102090008C9181FF4DC3FE0131964F01D7011396FC
:1020A0009C91F10193FD859193FF81911F018823FC
:1020B00009F4F1C2853239F493FD859193FF819142
:1020C0001F01853239F4B70190E00E94491865017B
:1020D0005601E4CF10E0712C612CBFE1B61538F049
:1020E0008B3211F190F4803209F1833229F167FCCF
:1020F0003CC020ED280F2A3050F566FE20C0EAE0F3
:102100001E9F200D1124122F06C08D3291F08033B6
:1021100071F7689460F8F10193FD859193FF8191C7
:102120001F018111DACF21C0689461F8689462F8C8
:10213000F2CF689463F8EFCF689464F8ECCFFAE0DC
:102140007F9E200D1124722E689465F8E4CF8E32A4
:1021500029F466FCA0C2689466F8DDCF8C3619F4C9
:10216000689467F8D8CF8836B1F29BEB980F93301C
:1021700008F06FC0689464F8805E66FE16E0262D55
:102180002F73622E853609F06CC0689466F867FE7E
:1021900072C0812F1C3308F08BE344244394480E13
:1021A00027E0D5014D915D916D917D916D014C8739
:1021B0005D876E877F87042DA4016C857D858E8564
:1021C0009F850E945B175C01B981BC87B0FF03C08B
:1021D0000DE2B3FF07C00BE261FC04C0062D0470E2
:1021E00062FC00E2EC85EC705E2E09F454C0011133
:1021F000A2C2F3E0512CF715A0F483E0572C581A33
:1022000063FC08C0B70180E290E00E9449185A942C
:102210005110F8CF002329F0B701802F90E00E94E1
:102220004918FC8508E610E0F3FD02C00CE610E05A
:10223000262D2071622EF8018491811123C0552032
:1022400009F446CFB70180E290E00E9449185A9401
:10225000F6CF9BE9980F933008F02DC1E89464F80D
:102260008CCF863619F4689467F891CF112309F45E
:102270008ECF11508CCF212F183010F027E017E0AF
:10228000412C8FCF61108052B70190E00E94491815
:102290000F5F1F4FD0CF67FE7AC04A0CFC85F4FF5A
:1022A00004C08A81813309F44A9414140CF092C05A
:1022B00028E0241510F488E0482E85E090E067FEC1
:1022C00006C0C501B7FE02C080E090E00196011192
:1022D0000196112331F0212F30E02F5F3F4F820F05
:1022E000931F7816190619F014F0572C581A862DDA
:1022F000897011F4511073C0002329F0B701802FA9
:1023000090E00E94491863FC02C051106FC067FE44
:1023100088C03501B7FE02C0712C612CC501861939
:102320009709A401480F591F598B488BB5016419AF
:1023300071097B8B6A8B012F10E0119501951109B2
:10234000A614B7040CF459C0AA89BB89A615B70511
:102350000CF053C0E889F9898181F1E06F1A7108A6
:10236000601671060CF44BC0B70190E00E9449184A
:102370002FEF6216720629F4B7018EE290E00E94F8
:102380004918888999890196998B888BD9CF66FCE1
:1023900094CFE12FF0E0EA15FB053CF03CEFA316EB
:1023A0003FEFB30614F0689467F83296E80DF91D14
:1023B00001C01150112319F082918033D1F367FECF
:1023C0007CCF44244394410E1A151B0431F02CF0A9
:1023D0001A1973CF4424439470CF10E06ECFB70125
:1023E00080E290E00E9449185A9484CFB70180E3BC
:1023F00090E00E9449185A9488CF80E3AECFA6148B
:10240000B70441F49A81963350F4953319F43C851E
:1024100034FF05C0B70190E00E94491810CF81E356
:10242000F9CF8A81813319F04C854F7E4C87B701F3
:1024300090E00E944918112399F0B7018EE290E0D4
:102440000E9449181E5F02E0802F0F5FF401E80F21
:10245000F11D8081B70190E00E9449181013F4CF5C
:1024600085E664FC85E490E0B7010E944918B7FC5A
:1024700006C0A114B104C1F45C8554FF15C0B19429
:10248000A194B1088DE2B70190E00E94491880E361
:102490007AE0A716B10454F4B70190E00E944918FD
:1024A000B701C501C096B8CF8BE2EDCF8F5F6AE070
:1024B000A61AB108EDCF8336B9F0833709F43AC0D4
:1024C000833509F04DC0D501AD90BD906D01612FF0
:1024D00070E066FC02C06FEF7FEFC5010E94331809
:1024E0008C01689467F80CC0650182E0C80ED11CAD
:1024F000D5018C91898301E010E05401E89467F8DC
:1025000063FC04C07016110609F018F5572C01156C
:10251000110509F494CEF50167FC859167FE819160
:102520005F01B70190E00E94491851105A94015080
:102530001109EDCFF501A190B1906F01612F70E00D
:1025400066FC02C06FEF7FEFC5010E943E188C0150
:10255000D5CFB70180E290E00E9449187A94D2CF9B
:10256000843619F0893609F06FC067FE64C0F50142
:1025700061917191819191916F01B62DBF766B2E12
:1025800097FF09C090958095709561957F4F8F4F0B
:102590009F4F689467F82AE030E0A4010E94791800
:1025A000A82EA818BA2C062D66FE0AC00E7FA1160A
:1025B00038F464FE04C062FC02C0062D0E7EB12E0B
:1025C00004FF8EC0FE01EA0DF11D8081803309F009
:1025D00080C0097E502F5870552E03FD90C000FF1B
:1025E0008AC01A2DB71410F4170D1B1904FF8DC0E3
:1025F000B70180E390E00E94491802FF07C088E716
:1026000001FD88E590E0B7010E944918A11608F481
:1026100088C0AA940A2D10E00F5F1F4F080D191DE6
:10262000D8018E918D01B70190E00E9449180815DC
:102630001905B1F704CED5016D917D916D01072E7D
:10264000000C880B990B99CF062D8537E1F40F7E8E
:102650002AE030E007FF35C0D5014D915D916D91C5
:102660007D916D014C875D876E877F87A4016C85A6
:102670007D858E859F850E947918A82EA818602ECA
:10268000E89467F88FCF097F803791F058F4883548
:1026900089F08F36A1F0F701868197816396E2E198
:1026A0000C9420148837B9F704FD046020E1D1CFE1
:1026B0000061FACF64FC066020E132E0CBCF28E075
:1026C000C8CFF501819191916F01AC0170E060E09C
:1026D000C9CF02FD02C0B3947DCFB394B3947ACF37
:1026E000802F867809F476CFF6CFB70180E290E0AC
:1026F0000E944918B394B714C0F3512C77CF572CCC
:102700005B18B71408F472CFF8CF802F867809F4DD
:102710007DCF8BE201FF80E207FD8DE2B70190E003
:1027200073CFB70180E390E00E94491811506ECF3B
:102730008FEF9FEFB3CF24E0512C271508F06CCD1D
:1027400084E05CCD0E94BE0485EE90E09093080189
:102750008093070180EE90E090930601809305013D
:1027600066E873E08FE191E00E94B80590E080E0B8
:10277000089597FB072E16F4009407D077FD09D033
:102780000E943B1407FC05D03EF4909581959F4F25
:102790000895709561957F4F0895A1E21A2EAA1BA6
:1027A000BB1BFD010DC0AA1FBB1FEE1FFF1FA21701
:1027B000B307E407F50720F0A21BB30BE40BF50BFE
:1027C000661F771F881F991F1A9469F76095709587
:1027D000809590959B01AC01BD01CF010895EE0F4E
:1027E000FF1F0590F491E02D0994A29FB001B39FC3
:1027F000C001A39F700D811D1124911DB29F700D0A
:10280000811D1124911D08952F923F924F925F9246
:102810006F927F928F929F92AF92BF92CF92DF92F0
:10282000EF92FF920F931F93CF93DF93CDB7DEB755
:10283000CA1BDB0B0FB6F894DEBF0FBECDBF0994E9
:102840002A88398848885F846E847D848C849B8440
:10285000AA84B984C884DF80EE80FD800C811B814E
:10286000AA81B981CE0FD11D0FB6F894DEBF0FBE7D
:10287000CDBFED010895AA1BBB1B51E107C0AA1FE4
:10288000BB1FA617B70710F0A61BB70B881F991F11
:102890005A95A9F780959095BC01CD01089550589F
:1028A000BB27AA270E9467140C94E1150E94D31538
:1028B00038F00E94DA1520F039F49F3F19F426F41D
:1028C0000C94D0150EF4E095E7FB0C94CA15E92F93
:1028D0000E94F21558F3BA17620773078407950729
:1028E00020F079F4A6F50C9414160EF4E0950B2E56
:1028F000BA2FA02D0B01B90190010C01CA01A00152
:102900001124FF27591B99F0593F50F4503E68F1AC
:102910001A16F040A22F232F342F4427585FF3CFED
:10292000469537952795A795F0405395C9F77EF4BE
:102930001F16BA0B620B730B840BBAF09150A1F007
:10294000FF0FBB1F661F771F881FC2F70EC0BA0F8D
:10295000621F731F841F48F4879577956795B79515
:10296000F7959E3F08F0B0CF9395880F08F0992710
:10297000EE0F9795879508950E94A61508F481E0BB
:1029800008950E94D5140C94E1150E94DA1558F0B0
:102990000E94D31540F029F45F3F29F00C94CA152A
:1029A00051110C9415160C94D0150E94F21568F371
:1029B0009923B1F3552391F3951B550BBB27AA27F8
:1029C00062177307840738F09F5F5F4F220F331F32
:1029D000441FAA1FA9F335D00E2E3AF0E0E832D0FA
:1029E00091505040E695001CCAF72BD0FE2F29D0FD
:1029F000660F771F881FBB1F261737074807AB07CF
:102A0000B0E809F0BB0B802DBF01FF2793585F4F43
:102A10003AF09E3F510578F00C94CA150C941516A7
:102A20005F3FE4F3983ED4F3869577956795B79525
:102A3000F7959F5FC9F7880F911D9695879597F930
:102A40000895E1E0660F771F881FBB1F62177307A9
:102A50008407BA0720F0621B730B840BBA0BEE1FBE
:102A600088F7E09508950E943A156894B1110C9486
:102A7000151608950E94FA1588F09F5798F0B92FFF
:102A80009927B751B0F0E1F0660F771F881F991FA3
:102A90001AF0BA95C9F714C0B13091F00E9414161B
:102AA000B1E008950C941416672F782F8827B85F2B
:102AB00039F0B93FCCF3869577956795B395D9F7FB
:102AC0003EF490958095709561957F4F8F4F9F4F05
:102AD0000895E89409C097FB3EF490958095709511
:102AE00061957F4F8F4F9F4F9923A9F0F92F96E95A
:102AF000BB279395F695879577956795B795F111CF
:102B0000F8CFFAF4BB0F11F460FF1BC06F5F7F4F6B
:102B10008F4F9F4F16C0882311F096E911C077237D
:102B200021F09EE8872F762F05C0662371F096E886
:102B3000862F70E060E02AF09A95660F771F881F55
:102B4000DAF7880F9695879597F90895990F0008F9
:102B5000550FAA0BE0E8FEEF16161706E807F9076F
:102B6000C0F012161306E407F50798F0621B730B0A
:102B7000840B950B39F40A2661F0232B242B252B8B
:102B800021F408950A2609F4A140A6958FEF811D2E
:102B9000811D089597F99F6780E870E060E00895CF
:102BA0009FEF80EC089500240A9416161706180665
:102BB0000906089500240A94121613061406050641
:102BC0000895092E0394000C11F4882352F0BB0FD2
:102BD00040F4BF2B11F460FF04C06F5F7F4F8F4F35
:102BE0009F4F089557FD9058440F551F59F05F3F70
:102BF00071F04795880F97FB991F61F09F3F79F01F
:102C000087950895121613061406551FF2CF4695A0
:102C1000F1DF08C0161617061806991FF1CF869522
:102C20007105610508940895E894BB276627772706
:102C3000CB0197F908950E942E160C94E1150E947D
:102C4000D31538F00E94DA1520F0952311F00C947A
:102C5000CA150C94D01511240C9415160E94F21567
:102C600070F3959FC1F3950F50E0551F629FF001DF
:102C7000729FBB27F00DB11D639FAA27F00DB11DF8
:102C8000AA1F649F6627B00DA11D661F829F222781
:102C9000B00DA11D621F739FB00DA11D621F839F08
:102CA000A00D611D221F749F3327A00D611D231FDE
:102CB000849F600D211D822F762F6A2F11249F572C
:102CC00050409AF0F1F088234AF0EE0FFF1FBB1F2F
:102CD000661F771F881F91505040A9F79E3F5105EE
:102CE00080F00C94CA150C9415165F3FE4F3983EDF
:102CF000D4F3869577956795B795F795E7959F5F98
:102D0000C1F7FE2B880F911D9695879597F9089529
:102D100019F416F40C94D0150C94CE160E94FA15E2
:102D2000B8F39923C9F3B6F39F57550B87FF0E9459
:102D3000DC160024A0E640EA90018058569597954D
:102D400028F4805C660F771F881F20F0261737074E
:102D5000480730F4621B730B840B202931294A2B5E
:102D6000A69517940794202531254A2758F7660F12
:102D7000771F881F20F026173707480730F4620BAB
:102D8000730B840B200D311D411DA09581F7B901F6
:102D9000842F9158880F9695879508959F3F31F01D
:102DA000915020F4879577956795B795880F911D79
:102DB0009695879597F9089591505040660F771F23
:102DC000881FD2F70895CF92DF92EF92FF92CF93B0
:102DD000DF93CDB7DEB72A970FB6F894DEBF0FBEEC
:102DE000CDBF89879A87A985BA852D913D914D914F
:102DF0005C9129833A834B835C83232B242B252BE3
:102E000041F424E239ED4BE557E029833A834B83C3
:102E10005C8369817A818B819C812DE133EF41E074
:102E200050E00E94ED1869017A01A7EAB1E49B0124
:102E3000AC010E940C1969837A838B839C83ACEE6E
:102E4000B4EFA70196010E941A199B01AC01898178
:102E50009A81AB81BC81820F931FA41FB51FB7FF5E
:102E600003C00197A109B048E985FA858083918361
:102E7000A283B3839F772A960FB6F894DEBF0FBE66
:102E8000CDBFDF91CF91FF90EF90DF90CF9008956D
:102E90000E94E316089589E091E00E94E3160895E8
:102EA000B0E0A0E08093090190930A01A0930B0188
:102EB000B0930C010895283008F027E03327DA0199
:102EC000990F311D87FD916000966105710539F4F8
:102ED00032602E5F3D9330E32A95E1F708959F3FDE
:102EE00030F080387105610509F03C5F3C5F3D932F
:102EF000913008F08068911DDF93CF931F930F935B
:102F0000FF92EF92192F987F9695E92F96959695B7
:102F1000E90FFF27E653FF4F99273327EE24FF24BD
:102F2000A701E70105900894079428F4360FE71EDF
:102F3000F81E491F511D660F771F881F991F0694A1
:102F4000A1F70590079428F4E70EF81E491F561FB5
:102F5000C11D770F881F991F661F0694A1F7059062
:102F6000079428F4F80E491F561FC71FD11D880F5C
:102F7000991F661F771F0694A1F70590079420F408
:102F8000490F561FC71FD81F990F661F771F881F2D
:102F90000694A9F784911095177041F0D695C795BE
:102FA00057954795F794E7941A95C1F7E0E7F0E055
:102FB00068941590159135916591959105907FE2F2
:102FC0007395E118F10A430B560BC90BD009C0F7F2
:102FD000E10CF11E431F561FC91FD01D7EF4703334
:102FE00011F48A95E6CFE894015030F0080F0AF406
:102FF0000027021708F4202F2395022F7A3328F098
:1030000079E37D932A95E9F710C07D932A9589F697
:10301000069497956795379517951794E118F10AD7
:10302000430B560BC90BD00998F023957E917395ED
:103030007A3308F070E37C932013B8F77E917061C7
:103040007D9330F0839571E37D9370E32A95E1F7EA
:103050001124EF90FF900F911F91CF91DF9199274D
:1030600087FD90950895FC01059061507040011016
:10307000D8F7809590958E0F9F1F0895FC016150A1
:10308000704001900110D8F7809590958E0F9F1F8A
:1030900008950F931F93CF93DF93182F092FEB0100
:1030A0008B8181FD09C01FEF0FEF812F902FDF91E2
:1030B000CF911F910F91089582FF14C02E813F81FF
:1030C0008C819D81281739073CF4E881F981CF0173
:1030D00001969983888310838E819F8101969F83B7
:1030E0008E83E3CFE885F985812F0995892BA1F39C
:1030F000DACFFA01AA27283051F1203181F1E89482
:103100006F936E7F6E5F7F4F8F4F9F4FAF4FB1E0DA
:103110003ED0B4E03CD0670F781F891F9A1FA11DD5
:10312000680F791F8A1F911DA11D6A0F711D811DD6
:10313000911DA11D20D009F468943F912AE0269F9B
:1031400011243019305D3193DEF6CF010895462FFA
:103150004770405D4193B3E00FD0C9F7F6CF462FDB
:103160004F70405D4A3318F0495D31FD4052419344
:1031700002D0A9F7EACFB4E0A69597958795779501
:103180006795BA95C9F700976105710508959B0188
:10319000AC010A2E06945795479537952795BA9511
:1031A000C9F7620F731F841F951FA01D0895F99919
:1031B000FECF92BD81BDF89A992780B50895262F3C
:1031C000F999FECF1FBA92BD81BD20BD0FB6F8940C
:1031D000FA9AF99A0FBE01960895052E97FB1EF4F0
:1031E00000940E94041957FD07D00E94CD1307FCDC
:1031F00003D04EF40C9404195095409530952195C8
:103200003F4F4F4F5F4F0895909580957095619512
:103210007F4F8F4F9F4F08950E94F513A59F900DEC
:10322000B49F900DA49F800D911D11240895B7FFA8
:103230000C940C190E940C19821B930B0895F8949E
:10324000FFCF22060606DA05D005D70580067506EB
:10325000BA0E3B0D3B0DB70E5A0E560E520E4E0EC9
:063260005D0E210EFE0DC3
:0E3266000E01AABD04BA04B904010000000064
:00000001FF
