:100000000C94B5000C94DE000C94DE000C94DE0021
:100010000C94DE000C94DE000C9474080C94DE004A
:100020000C94DE000C94DE000C94DE000C947F0E29
:100030000C94DE000C94DE000C94DF0D0C94DE00BA
:100040000C94DE000C94DE000C94DE000C94DE00B8
:100050000C94DE000C94DE000C94DE000C949F0ED9
:100060000C94DE000C94DE006E616E00696E66001A
:1000700000407A10F35A00A0724E18090010A5D45F
:10008000E80000E87648170000E40B54020000CABC
:100090009A3B000000E1F505000080969800000002
:1000A00040420F000000A086010000001027000061
:1000B0000000E803000000006400000000000A00E7
:1000C000000000000100000000002C76D888DC67EA
:1000D0004F0823DFC1DFAE59E1B1B796E5E3E45342
:1000E000C63AE651997696E8E6C28426EB898C9B5F
:1000F00062ED407C6FFCEFBC9C9F40F2BAA56FA5FF
:10010000F490055A2AF75C936B6CF9676DC11BFC80
:10011000E0E40D47FEF520E6B500D0ED902E03009B
:10012000943577050080841E080000204E0A0000E8
:1001300000C80C333333330F986E12831141EF8DA7
:100140002114893BE65516CFFEE6DB18D1844B38E7
:100150001BF77C1D901DA4BBE424203284725E2218
:100160008100C9F124ECA1E53D2711241FBECFEF8A
:10017000D8E0DEBFCDBF14BE0FB6F894A89580912D
:100180006000886180936000109260000FBE11E0F3
:10019000A0E0B1E0EAEEF7E302C005900D92A431D1
:1001A000B107D9F721E0A4E1B1E001C01D92A93F58
:1001B000B207E1F70E943C150C94E11B0C9400007F
:1001C00080910001909101010895CF93DF93DC01AC
:1001D000E0910001F0910101EB01488159816A81B0
:1001E0007B81458756876787708B81E0848711966E
:1001F0004C91119750E070E060E047AB50AF61AFB9
:1002000072AF12964C91129750E070E060E043AFED
:1002100054AF65AF76AFEF01EF9613964C911397FD
:1002200050E070E060E0488359836A837B83E45840
:10023000FF4F14968C918083DF91CF910895CF93D7
:10024000DF9300D000D000D0CDB7DEB78091F401AD
:100250008B5E0E94E30A20910001309101013A83F4
:1002600029838091F4019091F501B0E0A0E0F901BB
:10027000868F978FA0A3B1A388EC90E00E94881886
:10028000FC01A981BA81A55ABF4F8D939C93A98186
:10029000BA81A55BBF4F1D921D921D921C921397B0
:1002A000A981BA81A95ABF4F1D921D921D921C921D
:1002B0001397A981BA81A95BBF4F1D921D921D9210
:1002C0001C921397A981BA81DB961D921D921D92F3
:1002D0001C92DE97A35ABF4F1D921D921D921C9235
:1002E0001397A981BA81AF59BF4F1D921D921D92DC
:1002F0001C921397A981BA81A759BF4F1D921D92D5
:100300001D921C92139788ECDF011D928A95E9F7E4
:10031000E981FA8112A213A214A215A213AA14AAA7
:1003200015AA16AA16A617A610AA11AA8091BE0190
:100330009091BF01A091C001B091C101EB58FF4F56
:1003400080839183A283B383A981BA8196961D92FB
:100350001D921D921C929997FD0112A613A614A638
:1003600015A6E15BFF4F1082118212821382349630
:1003700010821182128213829D0127583F4FD901AA
:100380001C9280E00E945C0E2091F4013091F501F6
:1003900081E02231310509F080E091E0243131051E
:1003A00009F090E0892BE0910001F0910101DF015B
:1003B000AA5BBF4F81115DC02F31310509F459C0CF
:1003C0001C92138A148A158A168A178A84EB808FE6
:1003D00088E790E0A0E0B0E0818F928FA38FB48F88
:1003E0000E94CB0AE0910001F0910101FE83ED83B0
:1003F000282F30E050E040E029833A834B835C8330
:10040000218D328D438D548D69817A818B819C81C0
:100410000E94671569837A838B839C83DC01CB01FF
:100420000196A11DB11DED81FE81838B948BA58B5F
:10043000B68BEC5BFF4F1082ED81FE81E458FF4FDD
:100440001082AD81BE815D968C91882349F060E079
:1004500080E00E94CD09E0910001F0910101158E2C
:1004600026960FB6F894DEBF0FBECDBFDF91CF91B9
:10047000089581E08C93A5CFCF93DF93C82FD62F1B
:10048000811113C0662359F08091B400811107C017
:100490006FEF0E94CD098FE090E00E94C2096D2F9E
:1004A0008C2FDF91CF910C94CD099091B30081E016
:1004B000911111C08195DD2349F09091B4009923E9
:1004C00039F3882361F38FEF60E0E3CF882339F3BA
:1004D00060E08FEFDECF80E08195D111EECFF6CFD7
:1004E0001F93CF93DF93C82FE0910001F09101019A
:1004F000858D8C1779F0C230A1F1C330F1F0C13095
:1005000069F060E080E00E94CD09E0910001F09187
:100510000101C58FDF91CF911F9108951091F701CF
:10052000D091F601D11132C0112309F441C080915C
:10053000B40081113DC06FEF35C0D091E401DD23DF
:1005400059F08091B400811107C06FEF0E94CD096E
:100550008FE090E00E94C2096D2F80E00E94CD09DB
:10056000D4CFD091F801DD2361F08091B3008111E7
:1005700008C060E08FEF0E94CD098FE090E00E94FC
:10058000C20960E08D2F0E94CD09BFCF9091B300CA
:1005900081E0911180E0819511110FC0882341F015
:1005A00060E08FEF0E94CD098FE090E00E94C209C9
:1005B000612F8D2F0E94CD09A8CF9091B40099236F
:1005C00009F4B9CF8823A1F38FEF60E0EBCF089552
:1005D0000F931F93E0910001F0910101858D81300F
:1005E00009F461C09EEF980F923008F04EC0409120
:1005F000BE015091BF016091C0017091C101278976
:1006000083899489A589B689820F911DA11DB11D89
:1006100084179507A607B707A8F58091BE019091AA
:10062000BF01A091C001B091C101838B948BA58BB8
:10063000B68B0091F7011091F601112309F488C0DF
:100640009091B30081E09111ACC08195002309F431
:10065000AAC09091B400992309F481C0882341F085
:100660008FEF60E00E94CD098FE090E00E94C20908
:10067000602F812F0E94CD09E0910001F0910101CE
:1006800081E0858F1F910F9108958823D9F360E051
:1006900080E00E94CD09E0910001F0910101158EEA
:1006A0001F910F9108954091BE015091BF0160913B
:1006B000C0017091C10183899489A589B689018D92
:1006C000128D238D348D800F911FA21FB31F8417AD
:1006D0009507A607B707B0F68091BE019091BF01BC
:1006E000A091C001B091C101838B948BA58BB68B77
:1006F0000E94CB0AE0910001F091010180FF31C01E
:10070000858D8230D1F01091F801112361F0809134
:10071000B300811108C060E08FEF0E94CD098FE027
:1007200090E00E94C20960E0812F0E94CD09E09113
:100730000001F091010182E0858F0E94CB0AE091D7
:100740000001F091010180FD29C08AE5878B9ACFD5
:10075000002309F48DCF8091B400811189CF6FEF10
:1007600081CF858D833049F31091E401112359F035
:100770008091B400811107C06FEF0E94CD098FE016
:1007800090E00E94C209612F80E00E94CD09E091B3
:100790000001F091010183E0858FCFCF84EB878B3F
:1007A00071CF80E052CF882309F462CF60E08FEFF1
:1007B00059CFCF93DF93C0910001D09101018E8D6D
:1007C00089838AA18A838BA98B83FE01E758FF4F17
:1007D00080818C83CE010E9497109B878A87DF914E
:1007E000CF910895E0910001F0910101DF01A55B37
:1007F000BF4F1D921D921D921C9213971C961D9225
:100800001D921D921C92139750971D921D921D923E
:100810001C92139713AE14AE15AE16AE56961D92DB
:100820001D921D921C92139714961D921D921D925B
:100830001C92139718961D921D921D921C9213974D
:10084000E55AFF4F0190F081E02D88ECDF011D9209
:100850008A95E9F70895CF93DF93E0910001F09135
:100860000101EF01C55ADF4F87A990AD880F991F8D
:10087000880F991FA881B981A80FB91F4D915D916B
:100880006D917C911397452B462B472B79F541E0D1
:1008900050E060E070E04D935D936D937C9313970F
:1008A000649788819981AA81BB810196A11DB11DA0
:1008B00088839983AA83BB8383AD94ADA5ADB6AD80
:1008C00081309105A105B105A1F00297A105B105FF
:1008D00069F4E95AFF4F80819181A281B381019629
:1008E000A11DB11D80839183A283B383DF91CF913A
:1008F0000895E55BFF4F80819181A281B3810196CC
:10090000A11DB11D80839183A283B383DF91CF9119
:100910000895CF93DF93C0910001D09101018C85A0
:10092000813009F41C86FE01E758FF4F8081209139
:10093000F4013091F5012131310509F487C0DE0160
:10094000AA5BBF4F3C914FA958AD69AD7AADD69621
:100950002C91A1E0281301C0A0E0313009F459C066
:1009600091E0443151056105710509F090E0B1E075
:100970004F3151056105710509F0B0E09B2B4151E4
:10098000510961097109B1E04230510561057105F4
:1009900098F49B2B39F091E0311194C09A2311F017
:1009A0002083822F8823C9F0813021F18C8581300A
:1009B00059F1DF91CF910895B0E09B2B61F7F2CF11
:1009C00018828091BE019091BF01A091C001B091A9
:1009D000C10180839183A283B38381E00E945C0E76
:1009E000C0910001D0910101FE01E758FF4F8081C5
:1009F0008130E1F680E10E945C0EC0910001D0914F
:100A000001018C858130A9F61C86DF91CF910C9471
:100A10002B04413151056105710521F6AA2311F21C
:100A200020838E8D89838AA18A838BA98B832C83D3
:100A3000CE010E9497109B878A87C0910001D091B8
:100A40000101FE01E758FF4F8081ACCF9E8D998355
:100A50009AA19A839BA99B838C83CE010E949710B5
:100A60009B878A87C0910001D09101014091BE010E
:100A70005091BF016091C0017091C101FE01EB581E
:100A8000FF4F80819181A281B3818C599F4FAF4FDD
:100A9000BF4F481759076A077B07B0F0C758DF4FA9
:100AA000888181118DCF81E088838091BE019091F2
:100AB000BF01A091C001B091C10180839183A28345
:100AC000B38398CF90E06ACF349680816BCF4F92FA
:100AD0005F926F927F928F929F92AF92BF92CF92CE
:100AE000DF92EF92FF920F931F93CF93DF9300D08B
:100AF00000D000D0CDB7DEB72091000130910101C8
:100B00003E832D83F90186A197A1A0A5B1A50197E8
:100B1000A105B10509F43BC1E95BFF4FC080D1805D
:100B2000E280F380F901C114D104E104F10409F079
:100B3000ACC0E15BFF4F1082118212821382ED8103
:100B4000FE81ED5AFF4F108211821282138224E03F
:100B500030E040E050E084E0E82EF12C00E010E0CE
:100B6000ED81FE81E35AFF4FE082F182028313831D
:100B7000AD81BE81AF59BF4F2C9311963C93119715
:100B800012964C93129713965C930E94CB0AA090F6
:100B90000001B090010199E2899F912D1124929555
:100BA0009F70B4E69B9F8019112490E0B0E0A0E014
:100BB000A50147595F4FFA0180839183A283B383D4
:100BC0004C505109FA010081118122813381801733
:100BD0009107A207B307C8F441E050E060E070E07D
:100BE000F50142A353A364A375A3C090BE01D090A6
:100BF000BF01E090C001F090C101C2A6D3A6E4A657
:100C0000F5A646A757A760AB71ABB5016F597F4FEB
:100C1000FB014081518162817381400F511F621F2E
:100C2000731F081719072A073B0708F490C04817D5
:100C300059076A077B0790F4D50192961D921D9281
:100C40001D921C929597F50116A617A610AA11AA37
:100C50009A961D921D921D921C929D9726960FB6F4
:100C6000F894DEBF0FBECDBFDF91CF911F910F91E2
:100C7000FF90EF90DF90CF90BF90AF909F908F90BC
:100C80007F906F905F904F900895E55BFF4F2081BC
:100C9000318142815381A4E6B0E00E949E15A701F4
:100CA00096010E94671549015A01ED81FE81E15BC1
:100CB000FF4F80829182A282B382ED81FE81E95A48
:100CC000FF4F2081318142815381A4E6B0E00E9430
:100CD0009E15A70196010E94671529013A01ED8131
:100CE000FE81ED5AFF4F4082518262827382ACE3F3
:100CF000B0E0A50194010E949E159B01AC01205714
:100D00003E4F4F4F5F4F94E6892E912CA12CB12C72
:100D1000CA01B901A50194010E94671579018A01F0
:100D2000ACE3B0E0A30192010E949E15DC01CB016F
:100D300080579E4FAF4FBF4F89839A83AB83BC834D
:100D4000BC01CD01A50194010E94671509CF481788
:100D500059076A077B0708F46ACF82E090E0A0E0B9
:100D6000B0E0F50182A393A3A4A3B5A386A797A798
:100D7000A0ABB1AB8091BE019091BF01A091C00129
:100D8000B091C10182A793A7A4A7B5A767CF12A26C
:100D900013A214A215A213AA14AA15AA16AA12A67F
:100DA00013A614A615A616A217A210A611A656CF12
:100DB0008F929F92AF92BF92EF92FF920F931F93E9
:100DC000CF93DF93CDB7DEB762970FB6F894DEBF4F
:100DD0000FBECDBF4B015C018D829E82AF82B88673
:100DE000C901DA0189879A87AB87BC870D871E877F
:100DF0002D813E814F815885CA01B9010E94C017DB
:100E00005B018C0129853A854B855C85CA01B90156
:100E10000E94C0179B01AC01A982BA820B831C837C
:100E200069817A818B819C810E94F51569837A831F
:100E30008B839C8369817A818B819C810E9433188A
:100E40008B015C0120E030E048E453E469831A83BD
:100E50008B83BC8269817A818B819C810E9461161F
:100E600087FD42C08D819E81AF81B885B0588D834A
:100E70009E83AF83B8879801A501BC01CD010E9474
:100E800066166F87788B898B9A8BAD85BE856D933F
:100E90007D938D939C93139789859A85AB85BC85AB
:100EA000B05889879A87AB87BC879801A501BC0198
:100EB000CD010E946616D7016D937D938D939C930F
:100EC000139781E090E062960FB6F894DEBF0FBEF4
:100ED000CDBFDF91CF911F910F91FF90EF90BF9009
:100EE000AF909F908F90089590E080E0ECCF0895B0
:100EF00090E080E008950895559854983B9A3A9A66
:100F00003D983C980895559A549A3B983A983D9844
:100F10003C980895559854983B983A983D983C9839
:100F20000895AF92BF92DF92EF92FF920F931F93BB
:100F3000CF93DF93F89414B817B81AB815B818B847
:100F40001BB8529A5A9A14BC85E085BD8FEF87BDB5
:100F500082E080936E0010928000109281002FE852
:100F60003BE0309389002093880080936F00539872
:100F7000239891EA9093B0008093B1001092B4004E
:100F80001092B3008BE080BF83E080937F0086E007
:100F900080937C0083E880937A0080917A0080645B
:100FA00080937A0080917A0086FDFCCF10927C00BD
:100FB00083EA80937A0081E080937B0081E090E077
:100FC0000E94A41B8F3F11F0809366001092C20113
:100FD000C1E0C0939B01C093DF011092B901109250
:100FE000F30180E990E00E94A41B8093B8018091F6
:100FF000B801887311F0C093B8011092E301109208
:10100000E2018FEF90E09093E1018093E001109274
:10101000BE011092BF011092C0011092C10181E087
:101020008093960182E49FE09093F2018093F10116
:1010300080EB90E00E94A41BC82F81EB90E00E94FF
:10104000A41BD82FD093F501C093F40185E090E064
:101050000E94A41B8093F80189E090E00E94A41BE9
:101060008093E4018CE090E00E94A41B8093F60141
:1010700084E190E00E94A41B8093F70103EC11E04F
:101080008CE9E82E81E0F82E9FEDA92E91E0B92E93
:10109000C0E2D0E0CE010E94A41BD82ECE01019662
:1010A0000E94A41B9D2DF801819391938F01CE0185
:1010B000C0960E94A41BD82ECE01C1960E94A41BEC
:1010C0009D2DF701819391937F012296A016B10681
:1010D00009F77894DF91CF911F910F91FF90EF90D6
:1010E000DF90BF90AF9008950F920FB60F921F92AE
:1010F00011248F930FB6F894A895809160008861B1
:1011000080936000109260000FBE8F911F900F902F
:101110000FBE0F9018953C01EB0110E099249A94B2
:1011200084E0C82E96E0A92E23E8B22E38E1D32E13
:1011300049E2E42EE0919601E730E0F7F0E0ED516E
:10114000F44E0C948915111102C0F3010995C09257
:10115000960111E0FE010995EDCF8091C201811148
:10116000E9C0F894A0927C00B0927A0080917A0055
:10117000806480937A0080917A0086FDFCCF809114
:1011800078009091790078948B3AE2E09E070CF019
:10119000CEC08938F2E09F070CF0CFC0873692406E
:1011A0000CF4C8C0559A549A3B9A3A9A3D983C9888
:1011B000C1CF0E947C07EFECF7E03197F1F700C058
:1011C00000000E948A07FFEF21EE84E0F1502040EA
:1011D0008040E1F700C00000ADCFF89480B7877F72
:1011E00080BF80917A008F7780937A0014B817B807
:1011F0001AB815B818B81BB80FB6F894A895D092BD
:1012000060000FBEE0926000809160008064809377
:10121000600083B7817F846083BFF89483B7816067
:1012200083BF7894889583B78E7F83BF789410921C
:10123000C201529A5A9A80917A00806880937A000B
:1012400087E592E00197F1F700C0000080B7886160
:1012500080BF559A549A3B9A3A9A3D9A3C9AEFE14C
:10126000FEE43197F1F700C000008091C2018111C6
:1012700052C00E948A075ECF80919401811121C0E3
:101280001092B3001092B4001092950153CF489978
:10129000F0CF559A54983B983A983D983C988FECEB
:1012A00097E00197F1F700C000000E948A079FEFC6
:1012B000E1EEF4E09150E040F040E1F700C00000C2
:1012C00039CF9091940180919501981709F432CF0C
:1012D0008091940180939501809194018130A1F1D6
:1012E000809194011092B3009092B4008230E9F1A1
:1012F0009092B3009092B4008FE295E70197F1F7D6
:1013000000C000008091F7019091F6019093B30026
:101310008093B4000FCF0E948307FFEF20E782E0A5
:10132000F15020408040E1F700C00000A2CF0E94B1
:101330007C0700CF0E948307FDCE559854983B98B8
:101340003A983D9A3C9AF6CE9092B3001092B4002F
:101350008FE295E70197F1F700C000008091F80156
:101360008093B3001092B400E5CEEFE2F5E7319739
:10137000F1F700C000008091E4011092B300809367
:10138000B400D8CE07C0EFECF7E03197F1F700C01A
:10139000000001970097B9F708958093B300609318
:1013A000B40008958FEF8093B3008093B4008FEC66
:1013B00097E00197F1F700C000008FEC97E00197EC
:1013C000F1F700C000008FEC97E00197F1F700C043
:1013D00000008FEC97E00197F1F700C000008FEC60
:1013E00097E00197F1F700C000008FEC97E00197BC
:1013F000F1F700C000008FEC97E00197F1F700C013
:1014000000008FEC97E00197F1F700C000008FEC2F
:1014100097E00197F1F700C000008FEC97E001978B
:10142000F1F700C000008FEC97E00197F1F700C0E2
:1014300000008FEC97E00197F1F700C000008FECFF
:1014400097E00197F1F700C000008FEC97E001975B
:10145000F1F700C000008FEC97E00197F1F700C0B2
:10146000000008958091C20181111EC0F89487E0A8
:1014700080937C0083E880937A0080917A00806476
:1014800080937A0080917A0086FDFCCF809178006D
:101490009091790010927C0023EA20937A0021E059
:1014A00020937B00789408958FEF9FEF08958091AB
:1014B000C20181111EC0F89488EC80937C0087E8FB
:1014C00080937A0080917A00806480937A00809182
:1014D0007A0086FDFCCF809178009091790010927F
:1014E0007C0023EA20937A0021E020937B0078940B
:1014F00008958FEF9FEF08950F931F93CF93DF937E
:10150000F0E0E0E080E006E013E8D3EAC1E0A1E02B
:10151000B0E060E870E0F89400937C0010937A00EB
:1015200090917A00906490937A0090917A0096FD61
:10153000FCCF2091780030917900217090917A0051
:10154000906490937A0090917A0096FDFCCF409140
:1015500078005091790010927C00D0937A00C0936B
:101560007B0078944170241303C06150710999F68F
:10157000222339F09D010E2E01C0220F0A94EAF7B2
:10158000822B3196E830F10509F0C3CFDF91CF917E
:101590001F910F91089520910201822F880F880FCB
:1015A000880F28279091930181E0890F8093930100
:1015B000822F8295869587708227969596958927A2
:1015C0008093020108958093020108958091C201E1
:1015D000811116C0F89486E080937C0083E88093A4
:1015E0007A0080917A00806480937A0080917A00FA
:1015F00086FDFCCF809178009091790078940895D1
:101600008FEF9FEF08952F923F924F925F926F92CC
:101610007F928F929F92AF92BF92CF92DF92EF9282
:10162000FF920F931F93CF93DF9300D000D000D091
:10163000CDB7DEB71C01DC0112960D90BC91A02D38
:10164000BE83AD83A438E3E0BE072CF1DC01ED904E
:10165000FC908091C3019091C4018E159F0508F004
:10166000C1C181E226960FB6F894DEBF0FBECDBF92
:10167000DF91CF911F910F91FF90EF90DF90CF906E
:10168000BF90AF909F908F907F906F905F904F90A2
:101690003F902F90089580919C0190919D018A1711
:1016A0009B0708F079C0AD3BB240DCF2D101ED9070
:1016B000FC908091C3019091C4018E159F0508F4A0
:1016C000B0C119820091C5011091C6010E151F0508
:1016D00008F4B1C10091C7011091C8010E151F0592
:1016E00008F409C20091C9011091CA010E151F0525
:1016F00008F406C20091CB011091CC010E151F0514
:1017000008F403C20091CD011091CE010E151F0502
:1017100008F400C20091CF011091D0010E151F05F1
:1017200008F4FDC10091D1011091D2010E151F05E1
:1017300008F402C20091D3011091D4010E151F05C7
:1017400008F403C20091D5011091D6010E151F05B2
:1017500008F400C20091D7011091D8010E151F05A1
:1017600008F401C20091D9011091DA010E151F058C
:1017700008F4FEC10091DB011091DC010E151F057C
:1017800008F403C20091DD011091DE010E151F0562
:1017900008F404C21AE5D6C000919E0110919F0181
:1017A0000A171B0708F4C0C10091A0011091A10104
:1017B0000A171B0708F4BCC10091A2011091A301F4
:1017C0000A171B0708F4BDC10091A4011091A501DF
:1017D0000A171B0708F42BC10091A6011091A7015D
:1017E0000A171B0708F4BBC10091A8011091A901B9
:1017F0000A171B0708F4C1C10091AA011091AB019F
:101800000A171B0708F4BDC10091AC011091AD018E
:101810000A171B0708F4BEC10091AE011091AF0179
:101820000A171B0708F4E1C00091B0011091B10143
:101830000A171B0708F4B7C10091B2011091B30158
:101840000A171B0708F4B3C10091B4011091B50148
:101850000A171B0708F4AFC10091B6011091B70138
:101860006DE08DE090E00A171B0708F4C1C080E02E
:1018700090E0A0EDB0E489839A83AB83BC832CE035
:10188000E22EF12CF701EE0FFF1FE456FE4F808190
:101890009181B801681B790B90E080E00E940E17DF
:1018A0009B01AC010E94F5156B017C01AD81BE81ED
:1018B000BD01BB0F880B990B0E9410174B015C01F7
:1018C000B80190E080E00E940E172B013C012981B5
:1018D0003A814B815C81C701B6010E94C0179B0110
:1018E000AC01C301B2010E94F4159B01AC01C5011A
:1018F000B4010E94F41520E030E040E251E40E947F
:10190000C0170E94D8168B01C701B6010E94D816D5
:10191000AB01C801BA010E9453156983ED81FE81B4
:1019200081E2860FED3BF2400CF49CCED101ED90AC
:10193000FC908091C3019091C4018E159F0508F021
:10194000C1CE10E0B98181E2810FBF3F09F48ACE98
:101950006B2F70E090E080E00E940E174B015C015D
:10196000612F70E090E080E00E940E172B013C0197
:101970002D813E81B901330F880B990B0E941017FE
:101980006B017C01AC019B0160E070E081E694E4B6
:101990000E94F415A50194010E94C0174B015C013F
:1019A00020E030E04FE254E4C701B6010E94F41594
:1019B000A30192010E94C0179B01AC01C501B401B3
:1019C0000E94F51520E030E048E453E40E946616DA
:1019D00020E030E044E052E40E94F5150E94DF165A
:1019E000862F40CEBFEFB9836DCE69E089E090E0ED
:1019F0007C01F1E0EF1AF10870E090E080E00E94D5
:101A00000E1720E030E040E05FE30E94C01720E0C6
:101A100030E0A9010E94F51569837A838B839C834A
:101A200031CF412C512C320153014201A1CF64E04E
:101A300084E090E0DDCF33243394E1E0F0E0EE0F7A
:101A4000FF1FEF53FE4F80819181B801681B790B16
:101A500090E080E00E940E179B01AC010E94F515FA
:101A60004B015C01B701FF0C880B990B0E9410170A
:101A70002B013C01B80190E080E00E940E176B0141
:101A80007C01632D70E090E080E00E940E1720E062
:101A900030E040E05FE30E94C01720E030E0A901A1
:101AA0000E94F515A50194010E94C0179B01AC018D
:101AB000C701B6010E94F4159B01AC01C301B2013C
:101AC0000E94F41520E030E040E251E40E94C0178B
:101AD0000E94D8168B01C501B4010E94D816AB0133
:101AE000C801BA010E945315162F6F3F09F02ACF83
:101AF00089818F5DB7CD82E0382EE2E0F0E09FCFA4
:101B0000B3E03B2EE3E0F0E09ACFA4E03A2EE4E02D
:101B1000F0E095CFF5E03F2EE5E0F0E090CFE6E095
:101B20003E2EE6E0F0E08BCF61E081E090E060CF18
:101B300062E082E090E05CCF77E0372EE7E0F0E013
:101B40007ECF63E083E090E053CF68E0362EE8E09C
:101B5000F0E075CF59E0352EE9E0F0E070CF65E0B8
:101B600085E090E045CF4AE0342EEAE0F0E067CF30
:101B70003BE0332EEBE0F0E062CF66E086E090E001
:101B800037CF67E087E090E033CF2CE0322EECE0F7
:101B9000F0E055CF68E088E090E02ACF9DE0392E54
:101BA000EDE0F0E04CCF6AE08AE090E021CF6BE01E
:101BB0008BE090E01DCF6CE08CE090E019CF1F929D
:101BC0000F920FB60F9211242F933F934F935F9371
:101BD0006F937F938F939F93AF93BF93EF93FF93F5
:101BE0008091E2019091E3012091E0013091E101C7
:101BF000820F931F9093E3018093E2018FEF90E0B7
:101C00009093E1018093E0018FEF87BD8091BE0149
:101C10009091BF01A091C001B091C1010196A11D99
:101C2000B11D8093BE019093BF01A093C001B093FA
:101C3000C1018091C20181110FC08091F101909189
:101C4000F2012091E2013091E3018217930720F421
:101C500080919601843089F0FF91EF91BF91AF910F
:101C60009F918F917F916F915F914F913F912F91B4
:101C70000F900FBE0F901F901895E0910501F09105
:101C800006010995009741F30E945011882351F0F5
:101C9000E0910301F091040109951092E301109283
:101CA000E201DACF0E94181A9C0133273093E10138
:101CB0002093E00187BDD0CF80FF16C0559A81FFE9
:101CC00016C0549A82FF16C03B9A83FF16C03A9AF8
:101CD00084FF05C03D9A85FF05C03C9A08953D9854
:101CE00085FDFBCF3C980895559881FDEACF549827
:101CF00082FDEACF3B9883FDEACF3A98E9CF1F9265
:101D00001FB61F9211248F939F93109281001092FF
:101D100085001092840081E080939B018093DF0115
:101D20001092C20110927C0093EA90937A00809303
:101D30007B009F918F911F901FBE1F9018951F923F
:101D40000F920FB60F9211242F933F934F935F93EF
:101D50006F937F938F939F93AF93BF93CF93DF93B3
:101D6000EF93FF93209184003091850041E04093F0
:101D7000C20180919B018823A9F1109285001092E5
:101D80008400409381001092F30110929B01809196
:101D9000DF018823A1F080917A0086FDFCCF80913D
:101DA0007800909179009093BD018093BC0181E00F
:101DB00080937C0093EA90937A0080937B00FF915C
:101DC000EF91DF91CF91BF91AF919F918F917F91D3
:101DD0006F915F914F913F912F910F900FBE0F9098
:101DE0001F901895C9018758910984379940A0F030
:101DF00010928100109285001092840040939B0104
:101E00004093DF011092C20110927C0083EA80931C
:101E10007A0040937B00D3CF26583109A4EFB0E07D
:101E20000E948F15AA27BB27883008F465C040930D
:101E30009B018091DF0181113CC08091B901E82FA5
:101E4000F0E0EB51FE4F9091F30190838F5F809310
:101E5000B9018C3009F0B3CF109281001092850047
:101E6000109284004093DF011092C201C091EF01F3
:101E7000D091F00185EE91E00E949710C817D90724
:101E800009F09DCFE091EE01E7FF47C098E79E0F74
:101E9000933030F0539823981092B4001092B3000E
:101EA000E058EB3008F08BCFF0E0E651F44E0C94A4
:101EB000891580917A0086FDFCCF80917800909101
:101EC00079009093BB018093BA0110927C0083EA61
:101ED00080937A0081E080937B009091F3019923B5
:101EE000B9F01092810010928500109284008093C6
:101EF000DF011092C20163CF21E030E001C0220F68
:101F00008A95EAF78091F301822B8093F30157CFF2
:101F10001092DF011092B90152CFE0910701F091C8
:101F200008016AEB71E085EE91E0099548CF809158
:101F3000E501823009F4E3C008F06BC0882309F49E
:101F4000A6C0813009F0D7C08091E6019091E701E9
:101F50009093F5018093F401109294018091960181
:101F6000863009F42CCF539A239A1092B400109221
:101F7000B30086E08093960122CF8091960186304F
:101F800079F0539A239A1092B4001092B3000E94F1
:101F90008A07109294011092950186E08093960131
:101FA0002091E50181E090E002C0880F991F2A95F9
:101FB000E2F72091F4013091F50182239323892BDC
:101FC00009F462C081E080939401F9CE809196017A
:101FD000833009F4F4CE80919601843009F4EFCE79
:101FE000539A239A1092B4001092B30083E0809326
:101FF0009601E5CE82E080939601E1CE85E0809364
:102000009601DDCE81E080939601D9CE10929601A3
:10201000D6CE833051F1843009F06DC02091940107
:102020008091EB019091EA012330B1F0109295017B
:1020300023E0209394019093F6018093F7018ECFD3
:10204000F0E0E0E0099580916E008D7F80936E0056
:1020500016BCE0E0F0E709952091F7012813E6CFE0
:102060002091F6012913E2CF79CF909194018091CC
:10207000E901923009F451C01092950192E09093D9
:1020800094018093E4016ACF1092940198CE8091DC
:102090009601863009F093CE6091F40180EB90E0D8
:1020A0000E94AC1B6091F50181EB90E00E94AC1B9B
:1020B0006091F80185E090E00E94AC1B6091E40122
:1020C00089E090E00E94AC1B6091F6018CE090E00A
:1020D0000E94AC1B6091F70184E190E00E94AC1B70
:1020E000539823981092B4001092B30081E080932B
:1020F00096018091E501882309F461CE2FCF90915C
:1021000094018091E801913069F01092950191E07D
:10211000909394018093F80121CF9091E40198135A
:10212000ABCF1CCF9091F8019813EFCF17CFFC01E4
:1021300080812FEF3FEF2827022E2295207F202538
:10214000032E322F22952F70022626953227232721
:10215000220F220F220F202581812827022E22956F
:10216000207F2025032E322F22952F7002262695C0
:1021700032272327220F220F220F20258281282792
:10218000022E2295207F2025032E322F22952F709C
:102190000226269532272327220F220F220F2025E1
:1021A00083812827022E2295207F2025032E322F7F
:1021B00022952F700226269532272327220F220FE1
:1021C000220F202584812827022E2295207F20257A
:1021D000032E322F22952F70022626953227232791
:1021E000220F220F220F202585812827022E2295DB
:1021F000207F2025032E322F22952F700226269530
:1022000032272327220F220F220F202586812827FD
:10221000022E2295207F2025032E322F22952F700B
:102220000226269532272327220F220F220F202550
:1022300087812827022E2295207F2025032E322FEA
:1022400022952F700226269532272327220F220F50
:10225000220F202580852827022E2295207F2025E9
:10226000032E322F22952F70022626953227232700
:10227000220F220F220F20254185C9018427082E15
:102280008295807F8025092E982F82958F70082651
:10229000869598278927880F880F880F80250895AD
:1022A0000FB6F894A4B12091B8012A2B24B921E0EB
:1022B0003091B801203029F0000025B1232B25B939
:1022C00004C000000000000000C00000000000008A
:1022D000309525B1232325B92EEA2A95F1F72BEE67
:1022E00030B735FF0AC0A4B93091B801309525B197
:1022F000232325B90FBE80E0089500002A9581F7B9
:1023000021E03091B801203029F0000025B1232BC5
:1023100025B904C000000000000000C0000000005B
:102320000000309525B1232325B9000024E52A9526
:10233000F1F7FC018CE0619170E0660F771F61603E
:1023400072609AE041E050E09A0126233723232B64
:102350003091B801203029F0000025B1232B25B998
:1023600004C000000000000000C0000000000000E9
:10237000309525B1232325B9000021E52A95F1F7F1
:10238000440F551F9A9501F78A95A9F620B7206149
:1023900020BFA4B93091B801309525B1232325B9C8
:1023A0000FBE81E00895A3E1B0E0E9EDF1E10C9406
:1023B000A9157C011B015A01DC0117961C921E9283
:1023C000169713968C9181FF4DC3FE0131964F01F4
:1023D000D70113969C91F10193FD859193FF819113
:1023E0001F01882309F4F1C2853239F493FD8591E8
:1023F00093FF81911F01853239F4B70190E00E946B
:10240000161B65015601E4CF10E0712C612CBFE171
:10241000B61538F08B3211F190F4803209F1833225
:1024200029F167FC3CC020ED280F2A3050F566FEEC
:1024300020C0EAE01E9F200D1124122F06C08D320D
:1024400091F0803371F7689460F8F10193FD859104
:1024500093FF81911F018111DACF21C0689461F847
:10246000689462F8F2CF689463F8EFCF689464F8E8
:10247000ECCFFAE07F9E200D1124722E689465F84F
:10248000E4CF8E3229F466FCA0C2689466F8DDCFF2
:102490008C3619F4689467F8D8CF8836B1F29BEB84
:1024A000980F933008F06FC0689464F8805E66FE01
:1024B00016E0262D2F73622E853609F06CC06894C5
:1024C00066F867FE72C0812F1C3308F08BE344244A
:1024D0004394480E27E0D5014D915D916D917D911A
:1024E0006D014C875D876E877F87042DA4016C8505
:1024F0007D858E859F850E94281A5C01B981BC87E5
:10250000B0FF03C00DE2B3FF07C00BE261FC04C0E3
:10251000062D047062FC00E2EC85EC705E2E09F47E
:1025200054C00111A2C2F3E0512CF715A0F483E0CE
:10253000572C581A63FC08C0B70180E290E00E9453
:10254000161B5A945110F8CF002329F0B701802FA1
:1025500090E00E94161BFC8508E610E0F3FD02C027
:102560000CE610E0262D2071622EF8018491811175
:1025700023C0552009F446CFB70180E290E00E94C5
:10258000161B5A94F6CF9BE9980F933008F02DC193
:10259000E89464F88CCF863619F4689467F891CF84
:1025A000112309F48ECF11508CCF212F183010F049
:1025B00027E017E0412C8FCF61108052B70190E0E7
:1025C0000E94161B0F5F1F4FD0CF67FE7AC04A0CC8
:1025D000FC85F4FF04C08A81813309F44A94141401
:1025E0000CF092C028E0241510F488E0482E85E015
:1025F00090E067FE06C0C501B7FE02C080E090E033
:10260000019601110196112331F0212F30E02F5F47
:102610003F4F820F931F7816190619F014F0572CAC
:10262000581A862D897011F4511073C0002329F0B7
:10263000B701802F90E00E94161B63FC02C051106E
:102640006FC067FE88C03501B7FE02C0712C612CD7
:10265000C50186199709A401480F591F598B488B4A
:10266000B501641971097B8B6A8B012F10E01195FC
:1026700001951109A614B7040CF459C0AA89BB89A5
:10268000A615B7050CF053C0E889F9898181F1E0FE
:102690006F1A7108601671060CF44BC0B70190E018
:1026A0000E94161B2FEF6216720629F4B7018EE204
:1026B00090E00E94161B888999890196998B888BD6
:1026C000D9CF66FC94CFE12FF0E0EA15FB053CF092
:1026D0003CEFA3163FEFB30614F0689467F8329608
:1026E000E80DF91D01C01150112319F082918033BA
:1026F000D1F367FE7CCF44244394410E1A151B048A
:1027000031F02CF01A1973CF4424439470CF10E0A9
:102710006ECFB70180E290E00E94161B5A9484CFDE
:10272000B70180E390E00E94161B5A9488CF80E3A3
:10273000AECFA614B70441F49A81963350F4953382
:1027400019F43C8534FF05C0B70190E00E94161BC8
:1027500010CF81E3F9CF8A81813319F04C854F7E08
:102760004C87B70190E00E94161B112399F0B70126
:102770008EE290E00E94161B1E5F02E0802F0F5F2A
:10278000F401E80FF11D8081B70190E00E94161B53
:102790001013F4CF85E664FC85E490E0B7010E9455
:1027A000161BB7FC06C0A114B104C1F45C8554FF2C
:1027B00015C0B194A194B1088DE2B70190E00E94D8
:1027C000161B80E37AE0A716B10454F4B70190E039
:1027D0000E94161BB701C501C096B8CF8BE2EDCFA2
:1027E0008F5F6AE0A61AB108EDCF8336B9F0833760
:1027F00009F43AC0833509F04DC0D501AD90BD90C4
:102800006D01612F70E066FC02C06FEF7FEFC501C4
:102810000E94001B8C01689467F80CC0650182E07F
:10282000C80ED11CD5018C91898301E010E05401C0
:10283000E89467F863FC04C07016110609F018F5F7
:10284000572C0115110509F494CEF50167FC85910B
:1028500067FE81915F01B70190E00E94161B511045
:102860005A9401501109EDCFF501A190B1906F017B
:10287000612F70E066FC02C06FEF7FEFC5010E9420
:102880000B1B8C01D5CFB70180E290E00E94161B94
:102890007A94D2CF843619F0893609F06FC067FE7A
:1028A00064C0F50161917191819191916F01B62D93
:1028B000BF766B2E97FF09C09095809570956195B6
:1028C0007F4F8F4F9F4F689467F82AE030E0A40154
:1028D0000E94461BA82EA818BA2C062D66FE0AC018
:1028E0000E7FA11638F464FE04C062FC02C0062DFF
:1028F0000E7EB12E04FF8EC0FE01EA0DF11D808117
:10290000803309F080C0097E502F5870552E03FD8A
:1029100090C000FF8AC01A2DB71410F4170D1B19B0
:1029200004FF8DC0B70180E390E00E94161B02FFF8
:1029300007C088E701FD88E590E0B7010E94161BFB
:10294000A11608F488C0AA940A2D10E00F5F1F4F4B
:10295000080D191DD8018E918D01B70190E00E94DC
:10296000161B08151905B1F704CED5016D917D919F
:102970006D01072E000C880B990B99CF062D85371A
:10298000E1F40F7E2AE030E007FF35C0D5014D911C
:102990005D916D917D916D014C875D876E877F871D
:1029A000A4016C857D858E859F850E94461BA82E7F
:1029B000A818602EE89467F88FCF097F803791F0D0
:1029C00058F4883589F08F36A1F0F7018681978118
:1029D0006396E2E10C94C5158837B9F704FD0460ED
:1029E00020E1D1CF0061FACF64FC066020E132E043
:1029F000CBCF28E0C8CFF501819191916F01AC0157
:102A000070E060E0C9CF02FD02C0B3947DCFB39403
:102A1000B3947ACF802F867809F476CFF6CFB701BA
:102A200080E290E00E94161BB394B714C0F3512CBF
:102A300077CF572C5B18B71408F472CFF8CF802FDC
:102A4000867809F47DCF8BE201FF80E207FD8DE2FD
:102A5000B70190E073CFB70180E390E00E94161BAE
:102A600011506ECF8FEF9FEFB3CF24E0512C27157D
:102A700008F06CCD84E05CCD0E94910785EE90E07B
:102A8000909308018093070180EE90E090930601F7
:102A90008093050169E874E08FE191E00E948B0862
:102AA00090E080E0089597FB072E16F4009407D07D
:102AB00077FD09D00E94E01507FC05D03EF4909503
:102AC00081959F4F0895709561957F4F0895A1E27C
:102AD0001A2EAA1BBB1BFD010DC0AA1FBB1FEE1F98
:102AE000FF1FA217B307E407F50720F0A21BB30BE3
:102AF000E40BF50B661F771F881F991F1A9469F75F
:102B000060957095809590959B01AC01BD01CF01BA
:102B10000895EE0FFF1F0590F491E02D0994A29FF8
:102B2000B001B39FC001A39F700D811D1124911DA1
:102B3000B29F700D811D1124911D08950E948F1563
:102B4000A59F900DB49F900DA49F800D911D112401
:102B500008952F923F924F925F926F927F928F9241
:102B60009F92AF92BF92CF92DF92EF92FF920F931C
:102B70001F93CF93DF93CDB7DEB7CA1BDB0B0FB626
:102B8000F894DEBF0FBECDBF09942A8839884888E3
:102B90005F846E847D848C849B84AA84B984C88479
:102BA000DF80EE80FD800C811B81AA81B981CE0F70
:102BB000D11D0FB6F894DEBF0FBECDBFED01089555
:102BC000AA1BBB1B51E107C0AA1FBB1FA617B70753
:102BD00010F0A61BB70B881F991F5A95A9F780956F
:102BE0009095BC01CD0108955058BB27AA270E949B
:102BF0000C160C9486170E94781738F00E947F17E5
:102C000020F039F49F3F19F426F40C9475170EF454
:102C1000E095E7FB0C946F17E92F0E94971758F384
:102C2000BA17620773078407950720F079F4A6F5B1
:102C30000C94B9170EF4E0950B2EBA2FA02D0B01B2
:102C4000B90190010C01CA01A0011124FF27591BF1
:102C500099F0593F50F4503E68F11A16F040A22FF7
:102C6000232F342F4427585FF3CF46953795279568
:102C7000A795F0405395C9F77EF41F16BA0B620B67
:102C8000730B840BBAF09150A1F0FF0FBB1F661FAE
:102C9000771F881FC2F70EC0BA0F621F731F841FF1
:102CA00048F4879577956795B795F7959E3F08F017
:102CB000B0CF9395880F08F09927EE0F97958795D9
:102CC00008950E944B1708F481E008950E947A1637
:102CD0000C9486170E947F1758F00E94781740F0D6
:102CE00029F45F3F29F00C946F1751110C94BA1717
:102CF0000C9475170E94971768F39923B1F3552325
:102D000091F3951B550BBB27AA27621773078407FE
:102D100038F09F5F5F4F220F331F441FAA1FA9F394
:102D200035D00E2E3AF0E0E832D091505040E69582
:102D3000001CCAF72BD0FE2F29D0660F771F881FE3
:102D4000BB1F261737074807AB07B0E809F0BB0BD6
:102D5000802DBF01FF2793585F4F3AF09E3F5105EA
:102D600078F00C946F170C94BA175F3FE4F3983E19
:102D7000D4F3869577956795B795F7959F5FC9F7D3
:102D8000880F911D9695879597F90895E1E0660F54
:102D9000771F881FBB1F621773078407BA0720F0CD
:102DA000621B730B840BBA0BEE1F88F7E095089536
:102DB0000E94DF166894B1110C94BA1708950E940E
:102DC0009F1788F09F5798F0B92F9927B751B0F007
:102DD000E1F0660F771F881F991F1AF0BA95C9F79F
:102DE00014C0B13091F00E94B917B1E008950C946D
:102DF000B917672F782F8827B85F39F0B93FCCF320
:102E0000869577956795B395D9F73EF4909580951B
:102E1000709561957F4F8F4F9F4F0895E89409C03B
:102E200097FB3EF490958095709561957F4F8F4FFD
:102E30009F4F9923A9F0F92F96E9BB279395F69513
:102E4000879577956795B795F111F8CFFAF4BB0F91
:102E500011F460FF1BC06F5F7F4F8F4F9F4F16C0F5
:102E6000882311F096E911C0772321F09EE8872F7F
:102E7000762F05C0662371F096E8862F70E060E03B
:102E80002AF09A95660F771F881FDAF7880F9695B4
:102E9000879597F90895990F0008550FAA0BE0E858
:102EA000FEEF16161706E807F907C0F0121613060C
:102EB000E407F50798F0621B730B840B950B39F44C
:102EC0000A2661F0232B242B252B21F408950A26B2
:102ED00009F4A140A6958FEF811D811D089597F9F2
:102EE0009F6780E870E060E008959FEF80EC0895B0
:102EF00000240A94161617061806090608950024D9
:102F00000A9412161306140605060895092E039452
:102F1000000C11F4882352F0BB0F40F4BF2B11F4C6
:102F200060FF04C06F5F7F4F8F4F9F4F089557FD25
:102F30009058440F551F59F05F3F71F04795880F27
:102F400097FB991F61F09F3F79F0879508951216BE
:102F500013061406551FF2CF4695F1DF08C016166A
:102F600017061806991FF1CF86957105610508941B
:102F70000895E894BB2766277727CB0197F9089532
:102F80000E94D3170C9486170E94781738F00E947D
:102F90007F1720F0952311F00C946F170C94751780
:102FA00011240C94BA170E94971770F3959FC1F3E0
:102FB000950F50E0551F629FF001729FBB27F00DE7
:102FC000B11D639FAA27F00DB11DAA1F649F66273C
:102FD000B00DA11D661F829F2227B00DA11D621F8B
:102FE000739FB00DA11D621F839FA00D611D221F45
:102FF000749F3327A00D611D231F849F600D211D29
:10300000822F762F6A2F11249F5750409AF0F1F0AB
:1030100088234AF0EE0FFF1FBB1F661F771F881F14
:1030200091505040A9F79E3F510580F00C946F17C6
:103030000C94BA175F3FE4F3983ED4F386957795E6
:103040006795B795F795E7959F5FC1F7FE2B880FBA
:10305000911D9695879597F9089519F416F40C9497
:1030600075170C9473180E949F17B8F39923C9F32E
:10307000B6F39F57550B87FF0E9481180024A0E6E6
:1030800040EA900180585695979528F4805C660F29
:10309000771F881F20F026173707480730F4621B78
:1030A000730B840B202931294A2BA695179407947A
:1030B000202531254A2758F7660F771F881F20F0F3
:1030C00026173707480730F4620B730B840B200D6B
:1030D000311D411DA09581F7B901842F9158880FAA
:1030E0009695879508959F3F31F0915020F48795EC
:1030F00077956795B795880F911D9695879597F960
:10310000089591505040660F771F881FD2F7089599
:103110000F931F93CF93DF939C01029710F422E04B
:1031200030E0E0919701F091980190E080E0B0E00C
:10313000A0E0309791F4009709F445C0821B930BEF
:1031400084309105B8F58A819B816115710569F11B
:10315000FB0193838283FE0111C040815181028172
:10316000138142175307F0F04217530799F4109751
:1031700061F012960C93129713961C933296CF011E
:10318000DF91CF911F910F910895009397011093B4
:103190009801F4CF009719F04817590718F4CA019D
:1031A000BD01EF01DF01F801C4CF90939801809336
:1031B0009701D1CFFE01E80FF91F219331930297B8
:1031C00099838883DCCF8091990190919A01892B12
:1031D00041F480910B0190910C0190939A0180939E
:1031E00099018091090190910A01009741F48DB7EE
:1031F0009EB740910D0150910E01841B950B40919B
:10320000990150919A014817590708F0B8CF841BCB
:10321000950B8217930708F4B2CFB9016E5F7F4F09
:103220008617970708F4ABCF640F751F70939A0148
:1032300060939901FA0121933193A1CFCF93DF934A
:103240009C010097E9F0FC01329713821282C09131
:103250009701D0919801DE0190E080E02097A1F4E1
:1032600080819181280F391F8091990190919A0155
:103270008217930709F067C0F0939A01E0939901D0
:10328000DF91CF910895DA01AE17BF0708F041C072
:1032900012964D915C911397CD014115510599F707
:1032A000DC011396FC93EE9312974D915D91A40F60
:1032B000B51FEA17FB0781F4208131812E5F3F4F54
:1032C000240F351FDC0111963C932E93228133810C
:1032D00013963C932E931297B0E0A0E08A819B81D5
:1032E0000097B1F5FE0181919191E80FF91F80914E
:1032F000990190919A018E179F0711F6109759F531
:103300001092980110929701D0939A01C09399015D
:10331000B7CFB383A28340815181240F351FA217F9
:10332000B30771F44E5F5F4F2D913C911197420F9F
:10333000531F5183408312962D913C9133832283F6
:10334000009709F0ADCFF0939801E093970198CFE3
:10335000DE01EC01C3CF13961C921E921297D4CFBC
:10336000CF92DF92EF92FF92CF93DF93CDB7DEB78C
:103370002A970FB6F894DEBF0FBECDBF89879A8714
:10338000A985BA852D913D914D915C9129833A8310
:103390004B835C83232B242B252B41F424E239ED32
:1033A0004BE557E029833A834B835C8369817A81BB
:1033B0008B819C812DE133EF41E050E00E94BA1BEC
:1033C00069017A01A7EAB1E49B01AC010E949E1554
:1033D00069837A838B839C83ACEEB4EFA70196015B
:1033E0000E94DC1B9B01AC0189819A81AB81BC816D
:1033F000820F931FA41FB51FB7FF03C00197A10938
:10340000B048E985FA8580839183A283B3839F774F
:103410002A960FB6F894DEBF0FBECDBFDF91CF91D5
:10342000FF90EF90DF90CF9008950E94B01908951B
:103430008FE091E00E94B0190895B0E0A0E0809381
:103440000F0190931001A0931101B0931201089500
:10345000283008F027E03327DA01990F311D87FD66
:10346000916000966105710539F432602E5F3D93DD
:1034700030E32A95E1F708959F3F30F080387105D9
:10348000610509F03C5F3C5F3D93913008F0806836
:10349000911DDF93CF931F930F93FF92EF92192FFC
:1034A000987F9695E92F96959695E90FFF27E65315
:1034B000FF4F99273327EE24FF24A701E70105904A
:1034C0000894079428F4360FE71EF81E491F511D73
:1034D000660F771F881F991F0694A1F70590079420
:1034E00028F4E70EF81E491F561FC11D770F881FCD
:1034F000991F661F0694A1F70590079428F4F80E0B
:10350000491F561FC71FD11D880F991F661F771FA0
:103510000694A1F70590079420F4490F561FC71F82
:10352000D81F990F661F771F881F0694A9F78491EB
:103530001095177041F0D695C79557954795F79414
:10354000E7941A95C1F7E0E7F0E0689415901591BB
:1035500035916591959105907FE27395E118F10A97
:10356000430B560BC90BD009C0F7E10CF11E431FEA
:10357000561FC91FD01D7EF4703311F48A95E6CF13
:10358000E894015030F0080F0AF40027021708F4FD
:10359000202F2395022F7A3328F079E37D932A9503
:1035A000E9F710C07D932A9589F60694979567955B
:1035B000379517951794E118F10A430B560BC90B71
:1035C000D00998F023957E9173957A3308F070E3D3
:1035D0007C932013B8F77E9170617D9330F08395D2
:1035E00071E37D9370E32A95E1F71124EF90FF904A
:1035F0000F911F91CF91DF91992787FD90950895A5
:10360000FC010590615070400110D8F780959095AD
:103610008E0F9F1F0895FC016150704001900110B2
:10362000D8F7809590958E0F9F1F08950F931F9345
:10363000CF93DF93182F092FEB018B8181FD09C0F8
:103640001FEF0FEF812F902FDF91CF911F910F91DF
:10365000089582FF14C02E813F818C819D8128179F
:1036600039073CF4E881F981CF0101969983888379
:1036700010838E819F8101969F838E83E3CFE8859F
:10368000F985812F0995892BA1F3DACFFA01AA27B1
:10369000283051F1203181F1E8946F936E7F6E5F95
:1036A0007F4F8F4F9F4FAF4FB1E03ED0B4E03CD043
:1036B000670F781F891F9A1FA11D680F791F8A1F26
:1036C000911DA11D6A0F711D811D911DA11D20D08D
:1036D00009F468943F912AE0269F11243019305D47
:1036E0003193DEF6CF010895462F4770405D419338
:1036F000B3E00FD0C9F7F6CF462F4F70405D4A3385
:1037000018F0495D31FD4052419302D0A9F7EACF4C
:10371000B4E0A6959795879577956795BA95C9F77B
:1037200000976105710508959B01AC010A2E06946E
:103730005795479537952795BA95C9F7620F731F27
:10374000841F951FA01D0895F999FECF92BD81BDDC
:10375000F89A992780B50895262FF999FECF1FBAB8
:1037600092BD81BD20BD0FB6F894FA9AF99A0FBEAA
:1037700001960895052E97FB1EF400940E94D11B1C
:1037800057FD07D00E94671507FC03D04EF40C9438
:10379000D11B50954095309521953F4F4F4F5F4F2E
:1037A000089590958095709561957F4F8F4F9F4FAD
:1037B0000895B7FF0C949E150E949E15821B930BD3
:1037C0000895F894FFCFED08D908AD08A308AA081A
:1037D00047093C092310DF0EDF0E201006100210EF
:0A37E000FE0FFA0FE60FBD0F970F62
:1037EA001401AA7B07780777070000F90120000176
:0437FA0000000000CB
:00000001FF
