:100000000C94B5000C94DE000C94DE000C94DE0021
:100010000C94DE000C94DE000C94C2020C94DE0002
:100020000C94DE000C94DE000C94DE000C94F609B7
:100030000C94DE000C94DE000C9455090C94DE0048
:100040000C94DE000C94DE000C94DE000C94DE00B8
:100050000C94DE000C94DE000C94DE000C94160A66
:100060000C94DE000C94DE006E616E00696E66001A
:1000700000407A10F35A00A0724E18090010A5D45F
:10008000E80000E87648170000E40B54020000CABC
:100090009A3B000000E1F505000080969800000002
:1000A00040420F000000A086010000001027000061
:1000B0000000E803000000006400000000000A00E7
:1000C000000000000100000000002C76D888DC67EA
:1000D0004F0823DFC1DFAE59E1B1B796E5E3E45342
:1000E000C63AE651997696E8E6C28426EB898C9B5F
:1000F00062ED407C6FFCEFBC9C9F40F2BAA56FA5FF
:10010000F490055A2AF75C936B6CF9676DC11BFC80
:10011000E0E40D47FEF520E6B500D0ED902E03009B
:10012000943577050080841E080000204E0A0000E8
:1001300000C80C333333330F986E12831141EF8DA7
:100140002114893BE65516CFFEE6DB18D1844B38E7
:100150001BF77C1D901DA4BBE424203284725E2218
:100160008100C9F124ECA1E53D2711241FBECFEF8A
:10017000D8E0DEBFCDBF14BE0FB6F894A89580912D
:100180006000886180936000109260000FBE11E0F3
:10019000A0E0B1E0E6ECFBE202C005900D92A234D3
:1001A000B107D9F721E0A2E4B1E001C01D92AD3C56
:1001B000B207E1F70E94C6100C94CF150C94000012
:1001C0008093C6008091C00085FFFCCF90E080E066
:1001D000089580910E0190910F010895E0910E0114
:1001E000F0910F018091A1019091A201B0E0A0E0F7
:1001F000818B928BA38BB48B158A168A178A108EEB
:10020000118E80E00C94D2091F93CF93DF9300D01E
:1002100000D000D0CDB7DEB720910E0130910F0194
:100220003E832D83F90185899689A789B08D9C012C
:10023000AD012F5F3F4F4F4F5F4F258B368B478B65
:10024000508F118DCA01B90120E233E040E050E047
:100250000E94ED1069837A838B839C836F31734096
:100260008105910521F41F5FED81FE81118F1D3104
:1002700009F469C01F3F09F462C080E00E94D209FE
:1002800020910E0130910F013A832983D9015196B3
:100290008C91519711968C93119712961C921297EC
:1002A00059968C91599713968C93139719961C9283
:1002B000C9010E941F0CE981FA8193878287E0912E
:1002C0000E01F0910F01808D8F9387898F9386891E
:1002D0008F9385898F938BE191E09F938F930E94F9
:1002E00015158091A3019091A401A091A501B09151
:1002F000A601BF93AF939F938F938AE291E09F9360
:100300008F930E941515E0910E01F0910F01818DE0
:100310001F928F9386E391E09F938F930E94151510
:100320000FB6F894DEBF0FBECDBF26960FB6F89479
:10033000DEBF0FBECDBFDF91CF911F91089588E141
:100340000E94D2099DCF84E00E94D20999CFF894EF
:10035000519A8CE090E09093C5008093C400E0EC4B
:10036000F0E080818D7F8083E2ECF0E08081866028
:100370008083E1ECF0E080818860808380E091E020
:100380009093CA018093C90178940895CF93DF9325
:10039000C0910E01D0910F01898989831A82898DBC
:1003A0008B831986CE010E941F0C9B878A87DF9161
:1003B000CF910895089590E080E008950895BF9248
:1003C000CF92DF92EF92FF920F931F93CF93DF9321
:1003D000F89414B817B81AB815B818B81BB8529AC8
:1003E0005A9A14BC85E085BD8FEF87BD82E080936B
:1003F0006E0010928000109281002FE83BE0309355
:1004000089002093880080936F005398239891EA85
:100410009093B0008093B1001092B4001092B3009A
:100420008BE080BF83E080937F0086E080937C0038
:1004300083E880937A0080917A00806480937A00C8
:1004400080917A0086FDFCCF10927C0083EA809335
:100450007A0081E080937B0081E090E00E94871524
:100460008F3F11F0809366001092B201C1E0C093FB
:10047000B101C093B0011092AF011092AE0180E9BA
:1004800090E00E9487158093AD018091AD01887343
:1004900011F0C093AD011092AA011092A9018FEF43
:1004A00090E09093A8018093A7011092A30110926D
:1004B000A4011092A5011092A60181E08093C601CB
:1004C00082E49FE09093AC018093AB0180EB90E0DD
:1004D0000E948715C82F81EB90E00E948715D82FC6
:1004E000D093A201C093A10185E090E00E948715FE
:1004F0008093A00189E090E00E94871580939F017E
:100500008CE090E00E94871580939E0184E190E04A
:100510000E94871580939D0105E611E081E8E82E91
:1005200081E0F82E91E8C92E91E0D92EC0E2D0E00A
:10053000CE010E948715B82ECE0101960E94871524
:100540009B2DF801819391938F01CE01C0960E945B
:100550008715B82ECE01C1960E9487159B2DF701F5
:10056000819391937F012296C016D10609F7789462
:10057000DF91CF911F910F91FF90EF90DF90CF907F
:10058000BF9008950F920FB60F921F9211248F9370
:100590000FB6F894A8958091600088618093600000
:1005A000109260000FBE8F911F900F900FBE0F90A2
:1005B00018953C01EB0110E099249A9484E0C82E30
:1005C00096E0A92E23E8B22E38E1D32E49E2E42E9C
:1005D000E091C601E730E0F7F0E0EF52FA4E0C94FC
:1005E0000F11111102C0F3010995C092C60111E06B
:1005F000FE010995EDCF8091B201811103C1F894FC
:10060000A0927C00B0927A0080917A0080648093FE
:100610007A0080917A0086FDFCCF809178009091DD
:10062000790078948B3AE2E09E070CF0E4C08938B8
:10063000F2E09F070CF0EDC0873692400CF4E2C068
:10064000559A549A3B9A3A9A3D983C98C1CF5598FE
:1006500054983B9A3A9A3D983C98EFECF7E03197E2
:10066000F1F700C00000559854983B983A983D988F
:100670003C98FFEF21EE84E0F15020408040E1F70C
:1006800000C00000A5CFF89480B7877F80BF80911D
:100690007A008F7780937A0014B817B81AB815B813
:1006A00018B81BB80FB6F894A895D09260000FBE8A
:1006B000E09260008091600080648093600083B766
:1006C000817F846083BFF89483B7816083BF78940F
:1006D000889583B78E7F83BF78941092B201529A27
:1006E0005A9A80917A00806880937A0087E592E038
:1006F0000197F1F700C0000080B7886180BF559A6C
:10070000549A3B9A3A9A3D9A3C9AEFE1FEE431972B
:10071000F1F700C000008091B20181115CC05598D2
:1007200054983B983A983D983C9852CF8091C40198
:10073000811125C01092B3001092B4001092C5012F
:1007400047CF4899ECCF559A54983B983A983D98A2
:100750003C988FEC97E00197F1F700C000005598A6
:1007600054983B983A983D983C989FEFE1EEF4E01E
:100770009150E040F040E1F700C0000029CF909197
:10078000C4018091C501981709F422CF8091C4015A
:100790008093C5018091C401813009F441C08091EA
:1007A000C4011092B3009092B400823009F449C0A1
:1007B0009092B3009092B4008FE295E70197F1F721
:1007C00000C0000080919D0190919E019093B30024
:1007D0008093B400FDCE559A549A3B983A983D9830
:1007E0003C98FFEF20E782E0F15020408040E1F7A5
:1007F00000C0000094CF559854983B9A3A9A3D987F
:100800003C98E6CE559A549A3B983A983D983C9835
:10081000DFCE559854983B983A983D9A3C9AD8CE5A
:100820009092B3001092B4008FE295E70197F1F730
:1008300000C000008091A0018093B3001092B4002A
:10084000C7CEEFE2F5E73197F1F700C000008091E5
:100850009F011092B3008093B400BACE9C01892B03
:1008600049F08FEC97E00197F1F700C000002150AC
:100870003109B9F708958093B3006093B4000895E7
:100880008FEF8093B3008093B4008FEC97E00197D3
:10089000F1F700C000008FEC97E00197F1F700C07E
:1008A00000008FEC97E00197F1F700C000008FEC9B
:1008B00097E00197F1F700C000008FEC97E00197F7
:1008C000F1F700C000008FEC97E00197F1F700C04E
:1008D00000008FEC97E00197F1F700C000008FEC6B
:1008E00097E00197F1F700C000008FEC97E00197C7
:1008F000F1F700C000008FEC97E00197F1F700C01E
:1009000000008FEC97E00197F1F700C000008FEC3A
:1009100097E00197F1F700C000008FEC97E0019796
:10092000F1F700C000008FEC97E00197F1F700C0ED
:1009300000008FEC97E00197F1F700C000000895E8
:100940008091B20181111EC0F89487E080937C00F1
:1009500083E880937A0080917A00806480937A00A3
:1009600080917A0086FDFCCF80917800909179008B
:1009700010927C0023EA20937A0021E020937B00F0
:10098000789408958FEF9FEF08958091B2018111BF
:100990001EC0F89488EC80937C0087E880937A00EE
:1009A00080917A00806480937A0080917A0086FD3D
:1009B000FCCF809178009091790010927C0023EA1E
:1009C00020937A0021E020937B00789408958FEFA4
:1009D0009FEF08951F93CF93DF93F0E0E0E080E076
:1009E00016E0D3E8C3EA71E0A1E0B0E060E8F89473
:1009F00010937C00D0937A0090917A009064909349
:100A00007A0090917A0096FDFCCF20917800309189
:100A10007900217090917A00906490937A0090917F
:100A20007A0096FDFCCF40917800509179001092A9
:100A30007C00C0937A0070937B00789441702413FB
:100A400002C06150A1F6222339F09D010E2E01C093
:100A5000220F0A94EAF7822B3196E830F10531F63D
:100A6000DF91CF911F91089580911001982F990FD8
:100A7000990F990F98278091C30121E0280F2093A7
:100A8000C3018695869589279295969597708927B3
:100A90008093100108958093100108958091B20110
:100AA000811116C0F89486E080937C0083E88093DF
:100AB0007A0080917A00806480937A0080917A0035
:100AC00086FDFCCF8091780090917900789408950C
:100AD0008FEF9FEF08952F923F924F925F926F9208
:100AE0007F928F929F92AF92BF92CF92DF92EF92BE
:100AF000FF920F931F93CF93DF93CDB7DEB7289765
:100B00000FB6F894DEBF0FBECDBF7C01DC0112969C
:100B10000D90BC91A02DB887AF83A438E3E0BE0749
:100B20000CF477C0DC01ED90FC9080916501909110
:100B30006601DD24DA948E159F0508F43BC200910E
:100B40006701109168010E151F0508F44AC3009152
:100B5000690110916A010E151F0508F447C3009141
:100B60006B0110916C010E151F0508F444C3009130
:100B70006D0110916E010E151F0508F441C300911F
:100B80006F01109170010E151F0508F43EC300910E
:100B90007101109172010E151F0508F43BC30091FD
:100BA0007301109174010E151F0508F43CC30091E8
:100BB0007501109176010E151F0508F43DC30091D3
:100BC0007701109178010E151F0508F446C20091B7
:100BD000790110917A010E151F0508F436C30091B2
:100BE0007B0110917C010E151F0508F437C300919D
:100BF0007D0110917E010E151F0508F438C3009188
:100C00007F01109180010E151F0508F439C31AE504
:100C100020C180918101909182018A179B0708F47D
:100C2000B1C100918301109184010A171B0708F4D8
:100C3000DBC100918501109186010A171B0708F49A
:100C4000EEC200918701109188010A171B0708F472
:100C5000EFC20091890110918A010A171B0708F45D
:100C6000F8C100918B0110918C010A171B0708F441
:100C7000E8C200918D0110918E010A171B0708F43C
:100C8000E9C200918F01109190010A171B0708F427
:100C9000EAC200919101109192010A171B0708F412
:100CA000EBC200919301109194010A171B0708F4FD
:100CB000ECC200919501109196010A171B0708F4E8
:100CC000E8C200919701109198010A171B0708F4D8
:100CD000E4C20091990110919A010A171B0708F4C8
:100CE000E0C200919B0110919C018DE02DE030E06D
:100CF0000A171B0708F47BC1412C512C30ED3D83B2
:100D000040E44E832CE0C22ED12CF601EE0FFF1FE3
:100D1000EF57FE4F80819181D801A81BB90B9D012F
:100D200050E040E029833A834B835C83CA01BD01D4
:100D30000E9484129B01AC0169837A838B839C831C
:100D400069817A818B819C810E9470115B016C01A9
:100D50008F819885092E000CAA0BBB0B89839A837F
:100D6000AB83BC83BC01CD010E9486123B014C01C8
:100D7000980150E040E029833A834B835C83CA01A9
:100D8000B8010E9484121B018C0192014D815E8189
:100D9000A982BA82CB82DC8269817A818B819C8133
:100DA0000E9412139B01AC0129823A820B831C839F
:100DB00069817A818B819C810E946F119B01AC01BA
:100DC00069827A828B829C8269817A818B819C8103
:100DD0000E946F1120E030E040E251E469837A83A1
:100DE0008B839C8369817A818B819C810E94121301
:100DF00069837A838B839C8369817A818B819C81CF
:100E00000E944E128B01A982BA82CB82DC82698158
:100E10007A818B819C810E944E1269837A838B83B5
:100E20009C83C80169817A810E94D910D62E4F8196
:100E300058854D3B52400CF409C1D701ED90FC9010
:100E400080916501909166018E159F0508F077CE1F
:100E500010E0BFEF81E2810FDB1609F4ACC02D2D4D
:100E600030E050E040E029833A834B835C83CA0141
:100E7000B9010E9484126B017C01812F90E0B0E0E7
:100E8000A0E089839A83AB83BC83BC01CD010E941F
:100E900084124B015C012F813885032E000C440B1A
:100EA000550B29833A834B835C83CA01B9010E94A5
:100EB00086128B018E839D839B01AC0160E070E004
:100EC00081E694E40E946F119601A70169837A83F9
:100ED0008B839C8369817A818B819C810E94121310
:100EE0006B017C0120E030E04FE254E409831A8377
:100EF0008E818B839D819C8369817A818B819C818A
:100F00000E946F119401A50169837A838B839C836E
:100F100069817A818B819C810E9412139B01AC01B3
:100F2000C982DA82EB82FC8269817A818B819C8121
:100F30000E94701120E030E048E453E469837A8332
:100F40008B839C8369817A818B819C810E94DC11D7
:100F500020E030E044E052E469837A838B839C8311
:100F600069817A818B819C810E94701169837A8367
:100F70008B839C8369817A818B819C810E9455122D
:100F8000862F19C0AD3BB240ACF0D701ED90FC907C
:100F90008091650190916601D12C8E159F0508F016
:100FA000CECD812C912CA12CB12CC12CD12CE12C9B
:100FB000F12C71CF81E228960FB6F894DEBF0FBEF8
:100FC000CDBFDF91CF911F910F91FF90EF90DF90F8
:100FD000CF90BF90AF909F908F907F906F905F90D9
:100FE0004F903F902F90089581E021E030E069011B
:100FF000F1E0CF1AD108282F30E050E040E02983FB
:101000003A834B835C83CA01B9010E94841220E0B9
:1010100030E040E05FE369837A838B839C8369815E
:101020007A818B819C810E94121320E030E0A9011B
:1010300069837A838B839C8369817A818B819C818C
:101040000E9470112B018D839E835FCE81E2860FFB
:10105000B2CF84E024E030E0CACF59E0652EE9E069
:10106000F0E0EE0FFF1FED59FE4F80819181D80116
:10107000A81BB90B9D0150E040E029833A834B83C4
:101080005C83CA01BD010E9484129B01AC0169838B
:101090007A838B839C8369817A818B819C810E9476
:1010A0007011962EA72EB82EC92EC701FF0CAA0BC1
:1010B000BB0B89839A83AB83BC83BC01CD010E94A7
:1010C0008612762E872E7C01980150E040E029831D
:1010D0003A834B835C83CA01B8010E9484122B01BE
:1010E0008C01862D90E0B0E0A0E089839A83AB83E9
:1010F000BC83BC01CD010E94841220E030E040E0BE
:101100005FE369837A838B839C8369817A818B8196
:101110009C810E94121320E030E0A90169837A8348
:101120008B839C8369817A818B819C810E94701161
:10113000292D3A2D4B2D5C2D69837A838B839C83DB
:1011400069817A818B819C810E9412139B01AC0181
:1011500049825A820B831C8369817A818B819C81AD
:101160000E946F119B01AC0179828A82EB82FC8222
:1011700069817A818B819C810E946F1120E030E02F
:1011800040E251E469837A838B839C8369817A810D
:101190008B819C810E94121369837A838B839C8349
:1011A00069817A818B819C810E944E128B01998288
:1011B000AA82BB82CC8269817A818B819C810E94C8
:1011C0004E1269837A838B839C83C80169817A81FB
:1011D0000E94D910162F6F3F09F03BCE81E28D0D92
:1011E000EACE66246394E1E0F0E03BCF82E0682E33
:1011F000E2E0F0E036CFB3E06B2EE3E0F0E031CF99
:10120000A4E06A2EE4E0F0E02CCFF5E06F2EE5E0FC
:10121000F0E027CFE6E06E2EE6E0F0E022CF82E0BD
:1012200022E030E0E4CE77E0672EE7E0F0E019CF8F
:1012300083E023E030E0DBCE68E0662EE8E0F0E01B
:1012400010CF85E025E030E0D2CE4AE0642EEAE01F
:10125000F0E007CF86E026E030E0C9CE3BE0632E29
:10126000EBE0F0E0FECE87E027E030E0C0CE2CE0FF
:10127000622EECE0F0E0F5CE88E028E030E0B7CE7A
:101280009DE0692EEDE0F0E0ECCE89E029E030E071
:10129000AECE8AE02AE030E0AACE8BE02BE030E050
:1012A000A6CE8CE02CE030E0A2CE1F920F920FB6BB
:1012B0000F9211242F933F934F935F936F937F93DC
:1012C0008F939F93AF93BF93EF93FF938091A90167
:1012D0009091AA012091A7013091A801820F931F3C
:1012E0009093AA018093A9018FEF90E09093A801B9
:1012F0008093A7018FEF87BD8091A3019091A401F6
:10130000A091A501B091A6010196A11DB11D8093E8
:10131000A3019093A401A093A501B093A60180918D
:10132000B20181110FC08091AB019091AC0120916D
:10133000A9013091AA018217930720F48091C60178
:10134000843089F0FF91EF91BF91AF919F918F9180
:101350007F916F915F914F913F912F910F900FBEB1
:101360000F901F901895E0911301F09114010995C9
:10137000009741F30E94D70C882351F0E0911101AE
:10138000F091120109951092AA011092A901DACFE9
:101390000E94E7139C0199279093A8018093A701CD
:1013A00027BDD0CF80FF11C0559A81FF11C0549A3C
:1013B00082FF11C03B9A83FF11C03A9A84FF11C08B
:1013C0003D9A85FF11C03C9A0895559881FDEFCF55
:1013D000549882FDEFCF3B9883FDEFCF3A9884FD80
:1013E000EFCF3D9885FDEFCF3C9808951F921FB633
:1013F0001F9211248F939F93109281001092850069
:101400001092840081E08093B1018093B00110922A
:10141000B20110927C0093EA90937A0080937B0053
:101420009F918F911F901FBE1F9018951F920F9232
:101430000FB60F9211240F931F932F933F934F9347
:101440005F936F937F938F939F93AF93BF93EF932C
:10145000FF93CF93DF9300D000D0CDB7DEB72091BC
:1014600084003091850041E04093B2018091B10148
:101470008823D9F110928500109284004093810056
:101480001092AE011092B1018091B0018823A1F0B9
:1014900080917A0086FDFCCF809178009091790050
:1014A0009093B6018093B50181E080937C0093EA2C
:1014B00090937A0080937B000F900F900F900F9085
:1014C000DF91CF91FF91EF91BF91AF919F918F915C
:1014D0007F916F915F914F913F912F911F910F914C
:1014E0000F900FBE0F901F901895C9018758910952
:1014F00084379940A0F010928100109285001092DC
:1015000084004093B1014093B0011092B201109257
:101510007C0083EA80937A0040937B00CDCF2658ED
:101520003109A4EFB0E00E94151169837A838B839F
:101530009C83AA27BB271B81183008F465C0409301
:10154000B1018091B00181113CC08091AF01E82FC1
:10155000F0E0E954FE4F9091AE0190838F5F80934D
:10156000AF018C3009F0A8CF109281001092850055
:10157000109284004093B0011092B2010091C10119
:101580001091C20187EB91E00E941F0C0817190708
:1015900009F092CFE091C001E7FF47C098E79E0FA6
:1015A000933030F0539823981092B4001092B30007
:1015B000E058EB3008F080CFF0E0E852FA4E0C949F
:1015C0000F1180917A0086FDFCCF80917800909178
:1015D00079009093B4018093B30110927C0083EA68
:1015E00080937A0081E080937B009091AE019923F3
:1015F000B9F01092810010928500109284008093BF
:10160000B0011092B20158CF21E030E001C0220FAA
:101610008A95EAF78091AE01822B8093AE014CCF80
:101620001092B0011092AF0147CFE0911501F091F7
:10163000160163EB71E087EB91E009953DCF809156
:10164000B701823009F485C008F06CC0882309F422
:10165000BEC08091B8019091B9019093A20180938E
:10166000A1011092C4018091C601863009F424CFF3
:10167000539A239A1092B4001092B30086E080939C
:10168000C6011ACF8091C601863099F0539A239AE9
:101690001092B4001092B300559854983B983A9821
:1016A0003D983C981092C4011092C50186E0809349
:1016B000C6012091B70181E090E002C0880F991F18
:1016C0002A95E2F72091A1013091A2018223932370
:1016D000892B09F479C081E08093C401EDCE82E0CA
:1016E0008093C601E9CE85E08093C601E5CE81E016
:1016F0008093C601E1CE1092C601DECE8091C60174
:10170000833009F4D9CE8091C601843009F4D4CE57
:10171000539A239A1092B4001092B30083E08093FE
:10172000C601CACE833061F1843009F09CCF20918C
:10173000C4018091BD019091BC012330C1F0109291
:10174000C50123E02093C40190939E0180939D01E5
:101750008ACF9091C4018091BA019130F9F0109232
:10176000C50191E09093C4018093A0017CCF2091AA
:101770009D012813E4CF20919E019213E0CF73CFF7
:101780009091C4018091BB01923069F01092C50123
:1017900092E09093C40180939F0165CF9091A00146
:1017A0009813DDCF60CF90919F019813EFCF5BCF5F
:1017B000F0E0E0E0099580916E008D7F80936E00EF
:1017C00016BCE0E0F0E709951092C40175CE809157
:1017D000C601863009F070CE6091A10180EB90E0E7
:1017E0000E948F156091A20181EB90E00E948F15FD
:1017F0006091A00185E090E00E948F1560919F01AB
:1018000089E090E00E948F1560919E018CE090E04D
:101810000E948F1560919D0184E190E00E948F15D8
:10182000539823981092B4001092B30081E08093F3
:10183000C6018091B701882309F43ECE14CFFC0184
:1018400020818FEF9FEF8227082E8295807F802551
:10185000092E982F82958F700826869598278927BC
:10186000880F880F880F802521818227082E829576
:10187000807F8025092E982F82958F700826869567
:1018800098278927880F880F880F80252281822733
:10189000082E8295807F8025092E982F82958F7043
:1018A0000826869598278927880F880F880F802516
:1018B00023818227082E8295807F8025092E982FEC
:1018C00082958F700826869598278927880F880F1C
:1018D000880F802524818227082E8295807F80258D
:1018E000092E982F82958F7008268695982789272C
:1018F000880F880F880F802525818227082E8295E2
:10190000807F8025092E982F82958F7008268695D6
:1019100098278927880F880F880F8025268182279E
:10192000082E8295807F8025092E982F82958F70B2
:101930000826869598278927880F880F880F802585
:1019400027818227082E8295807F8025092E982F57
:1019500082958F700826869598278927880F880F8B
:10196000880F802520858227082E8295807F8025FC
:10197000092E982F82958F7008268695982789279B
:10198000880F880F880F802521858227082E829551
:10199000807F8025092E982F82958F700826869546
:1019A00098278927880F880F880F802508950FB6FC
:1019B000F894A4B12091AD012A2B24B921E03091F3
:1019C000AD01203029F0000025B1232B25B904C03A
:1019D00000000000000000C0000000000000309582
:1019E00025B1232325B92EEA2A95F1F72BEE30B73E
:1019F00035FF0AC0A4B93091AD01309525B123233C
:101A000025B90FBE80E0089500002A9581F721E0F6
:101A10003091AD01203029F0000025B1232B25B9EC
:101A200004C000000000000000C000000000000032
:101A3000309525B1232325B9000024E52A95F1F737
:101A4000FC018CE0619170E0660F771F616072604D
:101A50009AE041E050E09A0126233723232B30916E
:101A6000AD01203029F0000025B1232B25B904C099
:101A700000000000000000C00000000000003095E1
:101A800025B1232325B9000021E52A95F1F7440F5C
:101A9000551F9A9501F78A95A9F620B7206120BFB6
:101AA000A4B93091AD01309525B1232325B90FBEDE
:101AB00081E00895A3E1B0E0E0E6FDE00C9424119C
:101AC0007C011B015A01DC0117961C921E9216978D
:101AD00013968C9181FF50C3FE0131964F01D701BF
:101AE00013969C91F10193FD859193FF81911F01C4
:101AF000882309F4F4C2853239F493FD859193FF6C
:101B000081911F01853239F4B70190E00E94E514FC
:101B100065015601E4CF10E0712C612CBFE1B615D0
:101B200038F08B3211F190F4803209F1833229F1CF
:101B300067FC3CC020ED280F2A3050F566FE20C01F
:101B4000EAE01E9F200D1124122F06C08D3291F065
:101B5000803371F7689460F8F10193FD859193FFEC
:101B600081911F018111DACF21C0689461F86894D6
:101B700062F8F2CF689463F8EFCF689464F8ECCF22
:101B8000FAE07F9E200D1124722E689465F8E4CF50
:101B90008E3229F466FCA3C2689466F8DDCF8C36D9
:101BA00019F4689467F8D8CF8836B1F29BEB980F98
:101BB000933008F065C0689464F8805E66FE16E0B5
:101BC000262D2F73622E853609F062C0689466F860
:101BD00067FE68C0812F1C3308F08BE344244394D4
:101BE000480E27E0D5014D915D916D917D916D017C
:101BF0004C875D876E877F87042DA4016C857D856A
:101C00008E859F850E94F7135C01B981BC87B0FF68
:101C100003C00DE2B3FF0AC00BE261FC07C062FA29
:101C2000882780F9082F0295000F007EEC85EC7064
:101C30005E2E09F454C00111A2C2F3E0512CF71535
:101C4000A0F483E0572C581A63FC08C0B70180E267
:101C500090E00E94E5145A945110F8CF002329F027
:101C6000B701802F90E00E94E514FC8508E610E0A3
:101C7000F3FD02C00CE610E0262D2071622E21C07B
:101C80009BE9980F933008F03AC1E89464F896CF36
:101C9000863619F4689467F89BCF112309F498CF1E
:101CA000115096CF212F183010F027E017E0412C6B
:101CB00099CF61108052B70190E00E94E5140F5F48
:101CC0001F4FF80184918111F4CF552009F421CFE1
:101CD000B70180E290E00E94E5145A94F6CF67FEC7
:101CE0007DC0842D8A0DFC85F4FF04C09A81913358
:101CF00009F4815044244394181634F4482E28E003
:101D0000281710F488E0482E85E090E067FE06C0B2
:101D1000C501B7FE02C080E090E001960111019676
:101D2000112331F0212F30E02F5F3F4F820F931F9F
:101D30007816190619F014F0572C581A862D897048
:101D400011F4511070C0002329F0B701802F90E0EA
:101D50000E94E51463FC02C051106CC067FE85C090
:101D60003501B7FE02C0712C612CC5018619970997
:101D7000A401480F591F598B488BB501641971098B
:101D80007B8B6A8B012F10E0119501951109A61428
:101D9000B7040CF456C0AA89BB89A615B7050CF088
:101DA00050C0E889F9898181F1E06F1A71086016E5
:101DB00071060CF448C0B70190E00E94E5142FEFC3
:101DC0006216720629F4B7018EE290E00E94E514D3
:101DD000888999890196998B888BD9CF66FC94CF95
:101DE000E12FF0E0EA15FB053CF03CEFA3163FEFD6
:101DF000B30614F0689467F83296E80DF91D01C037
:101E00001150112319F082918033D1F367FE7CCFFA
:101E100044244394410E1A151B0419F014F01A19A6
:101E200073CF10E071CFB70180E290E00E94E5141B
:101E30005A9487CFB70180E390E00E94E5145A944A
:101E40008BCF80E3B1CFA614B70441F49A819633C7
:101E500050F4953319F43C8534FF05C0B70190E088
:101E60000E94E51432CF81E3F9CF8A81813319F0E2
:101E70004C854F7E4C87B70190E00E94E5141123FA
:101E800099F0B7018EE290E00E94E5141E5F02E037
:101E9000802F0F5FF401E80FF11D8081B70190E002
:101EA0000E94E5141013F4CF85E664FC85E490E00D
:101EB000B7010E94E514B7FC06C0A114B104C1F437
:101EC0005C8554FF15C0B194A194B1088DE2B701AF
:101ED00090E00E94E51480E37AE0A716B10454F480
:101EE000B70190E00E94E514B701C501C096B8CFD4
:101EF0008BE2EDCF8F5F6AE0A61AB108EDCF833693
:101F0000B1F0833741F1833509F04DC0D501AD9073
:101F1000BD906D01612F70E066FC02C06FEF7FEF36
:101F2000C5010E94CF148C01689467F80CC065014C
:101F300082E0C80ED11CD5018C91898301E010E0AC
:101F40005401E89467F863FC04C07016110609F0A8
:101F500088F4572C24C0F501A190B1906F01612F36
:101F600070E066FC02C06FEF7FEFC5010E94DA14DB
:101F70008C01E7CFB70180E290E00E94E5147A94EB
:101F8000E4CFF50167FC859167FE81915F01B701A0
:101F900090E00E94E51451105A9401501109011566
:101FA000110579F792CE843619F0893609F070C0A0
:101FB00067FE65C0F50161917191819191916F0109
:101FC000B62DBF766B2E97FF09C0909580957095C2
:101FD00061957F4F8F4F9F4F689467F82AE030E0FC
:101FE000A4010E942915A82EA818BA2C062D66FE59
:101FF0000AC00E7FA11638F464FE04C062FC02C061
:10200000062D0E7EB12E04FF8FC0FE01EA0DF11DDC
:102010008081803309F081C0097E502F5870552E81
:1020200003FD91C000FF8BC01A2DB71418F47A0C71
:10203000172D1B1904FF8DC0B70180E390E00E94AB
:10204000E51402FF07C088E701FD88E590E0B701CD
:102050000E94E514A11608F488C0AA940A2D10E085
:102060000F5F1F4F080D191DD8018E918D01B7010B
:1020700090E00E94E51408151905B1F726CED501A8
:102080006D917D916D01072E000C880B990B98CFF7
:10209000062D8537E1F40F7E2AE030E007FF35C0DA
:1020A000D5014D915D916D917D916D014C875D875D
:1020B0006E877F87A4016C857D858E859F850E94B4
:1020C0002915A82EA818602EE89467F88ECF097FEE
:1020D000803791F058F4883589F08F36A1F0F701F8
:1020E000868197816396E2E10C9440118837B9F7B5
:1020F00004FD046020E1D1CF0061FACF64FC0660EA
:1021000020E132E0CBCF28E0C8CFF5018191919159
:102110006F01AC0170E060E0C9CF02FD02C0B39472
:102120007CCFB394B39479CF802F867809F475CFA0
:10213000F6CFB70180E290E00E94E514B394B714A3
:10214000C0F3512C77CF572C5B18B71408F472CF1B
:10215000F8CF802F867809F47DCF8BE201FF80E2F3
:1021600007FD8DE2B70190E073CFB70180E390E007
:102170000E94E51411506ECF8FEF9FEFB3CF24E094
:10218000512C271508F06CCD84E05CCD0E94DF0156
:102190000E94A70189EE90E09093140180931301AF
:1021A00064E071E08EEE90E00E94D90290E080E061
:1021B000089597FB072E16F4009407D077FD09D0F9
:1021C0000E945B1107FC05D03EF4909581959F4FCE
:1021D0000895709561957F4F0895A1E21A2EAA1B6C
:1021E000BB1BFD010DC0AA1FBB1FEE1FFF1FA217C7
:1021F000B307E407F50720F0A21BB30BE40BF50BC4
:10220000661F771F881F991F1A9469F7609570954C
:10221000809590959B01AC01BD01CF010895EE0F13
:10222000FF1F0590F491E02D0994A29FB001B39F88
:10223000C001A39F700D811D1124911DB29F700DCF
:10224000811D1124911D08952F923F924F925F920C
:102250006F927F928F929F92AF92BF92CF92DF92B6
:10226000EF92FF920F931F93CF93DF93CDB7DEB71B
:10227000CA1BDB0B0FB6F894DEBF0FBECDBF0994AF
:102280002A88398848885F846E847D848C849B8406
:10229000AA84B984C884DF80EE80FD800C811B8114
:1022A000AA81B981CE0FD11D0FB6F894DEBF0FBE43
:1022B000CDBFED010895AA1BBB1B51E107C0AA1FAA
:1022C000BB1FA617B70710F0A61BB70B881F991FD7
:1022D0005A95A9F780959095BC01CD010895505865
:1022E000BB27AA270E9487110C94D8120E94CA12F9
:1022F00038F00E94D11220F039F49F3F19F426F4EF
:102300000C94C7120EF4E095E7FB0C94C112E92F70
:102310000E94E91258F3BA176207730784079507FA
:1023200020F079F4A6F50C940B130EF4E0950B2E27
:10233000BA2FA02D0B01B90190010C01CA01A00117
:102340001124FF27591B99F0593F50F4503E68F172
:102350001A16F040A22F232F342F4427585FF3CFB3
:10236000469537952795A795F0405395C9F77EF484
:102370001F16BA0B620B730B840BBAF09150A1F0CD
:10238000FF0FBB1F661F771F881FC2F70EC0BA0F53
:10239000621F731F841F48F4879577956795B795DB
:1023A000F7959E3F08F0B0CF9395880F08F09927D6
:1023B000EE0F9795879508950E94F0110C94D8120E
:1023C0000E94D11258F00E94CA1240F029F45F3FD7
:1023D00029F00C94C11251110C940C130C94C712D7
:1023E0000E94E91268F39923B1F3552391F3951BE9
:1023F000550BBB27AA2762177307840738F09F5F26
:102400005F4F220F331F441FAA1FA9F335D00E2E92
:102410003AF0E0E832D091505040E695001CCAF7FF
:102420002BD0FE2F29D0660F771F881FBB1F2617C2
:1024300037074807AB07B0E809F0BB0B802DBF0199
:10244000FF2793585F4F3AF09E3F510578F00C9468
:10245000C1120C940C135F3FE4F3983ED4F38695BD
:1024600077956795B795F7959F5FC9F7880F911D89
:102470009695879597F90895E1E0660F771F881F75
:10248000BB1F621773078407BA0720F0621B730B28
:10249000840BBA0BEE1F88F7E09508950E94551241
:1024A0006894B1110C940C1308950E94F11288F0F5
:1024B0009F5798F0B92F9927B751B0F0E1F0660F08
:1024C000771F881F991F1AF0BA95C9F714C0B13049
:1024D00091F00E940B13B1E008950C940B13672F39
:1024E000782F8827B85F39F0B93FCCF38695779578
:1024F0006795B395D9F73EF4909580957095619561
:102500007F4F8F4F9F4F0895E89409C097FB3EF48B
:1025100090958095709561957F4F8F4F9F4F992330
:10252000A9F0F92F96E9BB279395F69587957795AE
:102530006795B795F111F8CFFAF4BB0F11F460FF6E
:102540001BC06F5F7F4F8F4F9F4F16C0882311F0C6
:1025500096E911C0772321F09EE8872F762F05C0DA
:10256000662371F096E8862F70E060E02AF09A9575
:10257000660F771F881FDAF7880F9695879597F96A
:10258000089597F99F6780E870E060E008959FEFF5
:1025900080EC089500240A941616170618060906FA
:1025A000089500240A9412161306140605060895C9
:1025B000092E0394000C11F4882352F0BB0F40F451
:1025C000BF2B11F460FF04C06F5F7F4F8F4F9F4F91
:1025D000089557FD9058440F551F59F05F3F71F013
:1025E0004795880F97FB991F61F09F3F79F087957A
:1025F0000895121613061406551FF2CF4695F1DF03
:1026000008C0161617061806991FF1CF8695710592
:10261000610508940895E894BB2766277727CB01C6
:1026200097F908950E9425130C94D8120E94CA129B
:1026300038F00E94D11220F0952311F00C94C112B1
:102640000C94C71211240C940C130E94E91270F31D
:10265000959FC1F3950F50E0551F629FF001729F47
:10266000BB27F00DB11D639FAA27F00DB11DAA1F56
:10267000649F6627B00DA11D661F829F2227B00DA3
:10268000A11D621F739FB00DA11D621F839FA00D2E
:10269000611D221F749F3327A00D611D231F849F7E
:1026A000600D211D822F762F6A2F11249F575040D5
:1026B0009AF0F1F088234AF0EE0FFF1FBB1F661F50
:1026C000771F881F91505040A9F79E3F510580F019
:1026D0000C94C1120C940C135F3FE4F3983ED4F3B6
:1026E000869577956795B795F795E7959F5FC1F7BD
:1026F000FE2B880F911D9695879597F90895CF9297
:10270000DF92EF92FF92CF93DF93CDB7DEB72A9798
:102710000FB6F894DEBF0FBECDBF89879A87A98513
:10272000BA852D913D914D915C9129833A834B83DC
:102730005C83232B242B252B41F424E239ED4BE53C
:1027400057E029833A834B835C8369817A818B814B
:102750009C812DE133EF41E050E00E949D1569011D
:102760007A01A7EAB1E49B01AC010E94BC15698320
:102770007A838B839C83ACEEB4EFA70196010E9411
:10278000CA159B01AC0189819A81AB81BC81820F02
:10279000931FA41FB51FB7FF03C00197A109B0483D
:1027A000E985FA8580839183A283B3839F772A96F4
:1027B0000FB6F894DEBF0FBECDBFDF91CF91FF9073
:1027C000EF90DF90CF9008950E947F13089587E1E6
:1027D00091E00E947F130895B0E0A0E0809317017C
:1027E00090931801A0931901B0931A01089528300D
:1027F00008F027E03327DA01990F311D87FD91603A
:1028000000966105710539F432602E5F3D9330E327
:102810002A95E1F708959F3F30F0803871056105F2
:1028200009F03C5F3C5F3D93913008F08068911D5A
:10283000DF93CF931F930F93FF92EF92192F987FFF
:102840009695E92F96959695E90FFF27E653FF4F4A
:1028500099273327EE24FF24A701E7010590089468
:10286000079428F4360FE71EF81E491F511D660F06
:10287000771F881F991F0694A1F70590079428F4E5
:10288000E70EF81E491F561FC11D770F881F991F9D
:10289000661F0694A1F70590079428F4F80E491FC7
:1028A000561FC71FD11D880F991F661F771F0694DB
:1028B000A1F70590079420F4490F561FC71FD81F92
:1028C000990F661F771F881F0694A9F784911095AA
:1028D000177041F0D695C79557954795F794E794AB
:1028E0001A95C1F7E0E7F0E06894159015913591DD
:1028F0006591959105907FE27395E118F10A430B7C
:10290000560BC90BD009C0F7E10CF11E431F561F2F
:10291000C91FD01D7EF4703311F48A95E6CFE89478
:10292000015030F0080F0AF40027021708F4202F96
:102930002395022F7A3328F079E37D932A95E9F7DE
:1029400010C07D932A9589F60694979567953795DB
:1029500017951794E118F10A430B560BC90BD009D0
:1029600098F023957E9173957A3308F070E37C9309
:102970002013B8F77E9170617D9330F0839571E3F9
:102980007D9370E32A95E1F71124EF90FF900F916A
:102990001F91CF91DF91992787FD90950895FC01B4
:1029A0000590615070400110D8F7809590958E0F7A
:1029B0009F1F0895FC016150704001900110D8F7ED
:1029C000809590958E0F9F1F08950F931F93CF931F
:1029D000DF93182F092FEB018B8181FD09C01FEFB9
:1029E0000FEF812F902FDF91CF911F910F910895BD
:1029F00082FF14C02E813F818C819D812817390769
:102A00003CF4E881F981CF01019699838883108392
:102A10008E819F8101969F838E83E3CFE885F98520
:102A2000812F0995892BA1F3DACFB0E0A0E0EBE18B
:102A3000F5E10C943411FE01359661917191AF016D
:102A40008091C9019091CA010E945A0DE2E00C9454
:102A50005011FA01AA27283051F1203181F1E89470
:102A60006F936E7F6E5F7F4F8F4F9F4FAF4FB1E081
:102A70003ED0B4E03CD0670F781F891F9A1FA11D7C
:102A8000680F791F8A1F911DA11D6A0F711D811D7D
:102A9000911DA11D20D009F468943F912AE0269F42
:102AA00011243019305D3193DEF6CF010895462FA1
:102AB0004770405D4193B3E00FD0C9F7F6CF462F82
:102AC0004F70405D4A3318F0495D31FD40524193EB
:102AD00002D0A9F7EACFB4E0A695979587957795A8
:102AE0006795BA95C9F700976105710508959B012F
:102AF000AC010A2E06945795479537952795BA95B8
:102B0000C9F7620F731F841F951FA01D0895F999BF
:102B1000FECF92BD81BDF89A992780B50895262FE2
:102B2000F999FECF1FBA92BD81BD20BD0FB6F894B2
:102B3000FA9AF99A0FBE01960895052E97FB1EF496
:102B400000940E94B41557FD07D00E94ED1007FCB9
:102B500003D04EF40C94B4155095409530952195C2
:102B60003F4F4F4F5F4F08959095809570956195B9
:102B70007F4F8F4F9F4F08950E941511A59F900D75
:102B8000B49F900DA49F800D911D11240895B7FF4F
:102B90000C94BC150E94BC15821B930B0895F894ED
:102BA000FFCF43032703FB02F102F802A1039603C0
:102BB000DB0B5C0A5C0AD80B7B0B770B730B6F0B80
:062BC0007E0B420B1F0B0F
:102BC6000000000200000000E000000000004201DA
:102BD600AADE01DB01DA0101000000436F6E7461B9
:102BE600646F723A20256C640A005469636B733A09
:102BF60020256C640A004369636C6F733A20256470
:022C06000A00C2
:00000001FF
