:100000000C94B5000C94DE000C94DE000C94DE0021
:100010000C94DE000C94DE000C9410090C94DE00AD
:100020000C94DE000C94DE000C94DE000C94441062
:100030000C94DE000C94DE000C94A30F0C94DE00F4
:100040000C94DE000C94DE000C94DE000C94DE00B8
:100050000C94DE000C94DE000C94DE000C94641012
:100060000C94DE000C94DE006E616E00696E66001A
:1000700000407A10F35A00A0724E18090010A5D45F
:10008000E80000E87648170000E40B54020000CABC
:100090009A3B000000E1F505000080969800000002
:1000A00040420F000000A086010000001027000061
:1000B0000000E803000000006400000000000A00E7
:1000C000000000000100000000002C76D888DC67EA
:1000D0004F0823DFC1DFAE59E1B1B796E5E3E45342
:1000E000C63AE651997696E8E6C28426EB898C9B5F
:1000F00062ED407C6FFCEFBC9C9F40F2BAA56FA5FF
:10010000F490055A2AF75C936B6CF9676DC11BFC80
:10011000E0E40D47FEF520E6B500D0ED902E03009B
:10012000943577050080841E080000204E0A0000E8
:1001300000C80C333333330F986E12831141EF8DA7
:100140002114893BE65516CFFEE6DB18D1844B38E7
:100150001BF77C1D901DA4BBE424203284725E2218
:100160008100C9F124ECA1E53D2711241FBECFEF8A
:10017000D8E0DEBFCDBF14BE0FB6F894A89580912D
:100180006000886180936000109260000FBE11E0F3
:10019000A0E0B1E0E6ECFBE302C005900D92A235D1
:1001A000B107D9F722E0A2E5B1E001C01D92AD315F
:1001B000B207E1F70E9414170C94CF1D0C940000B5
:1001C0008093C6008091C00085FFFCCF90E080E066
:1001D000089580910E0190910F010895CF93DF93C0
:1001E000DC01E0910E01F0910F01EB014881598192
:1001F0006A817B81458756876787708B81E084871A
:1002000011964C91119750E070E060E047A750AB19
:1002100061AB72AB12964C91129750E070E060E0C7
:1002200043AB54AB65AB76ABE25AFF4F13968C9160
:100230008083DF91CF910895CF93DF9300D000D0DA
:1002400000D0CDB7DEB7E0910E01F0910F0188EC40
:10025000818B8091ED01845D0E94990B20910E01AC
:1002600030910F013A8329838091ED019091EE0145
:10027000B0E0A0E0F901878F90A3A1A3B2A380EA28
:1002800090E00E94621AFC01A981BA81A55BBF4F70
:100290008D939C93A981BA81DB961D921D921D922C
:1002A0001C92DE97A95BBF4F1D921D921D921C925E
:1002B0001397A981BA81D7961D921D921D921C9207
:1002C000DA97D3961D921D921D921C92D697A35B2E
:1002D000BF4F1D921D921D921C921397A981BA8146
:1002E000AF5ABF4F1D921D921D921C921397A98168
:1002F000BA81A75ABF4F1D921D921D921C9213974F
:1003000080EADF011D928A95E9F7E981FA8113A25B
:1003100014A215A216A2DF0117A210A611A612A6FA
:10032000FF961082118212821382349610821182FB
:1003300012821382FD01148A158A168A178A108E7A
:1003400084EB818F88E790E0A0E0B0E0828F938F0C
:10035000A48FB58F0E94820B20910E0130910F0166
:100360003E832D83282F30E050E040E029833A83FC
:100370004B835C83AD81BE815A962D913D914D9109
:100380005C915D9769817A818B819C810E94411784
:1003900069837A838B839C83DC01CB010196A11D49
:1003A000B11DED81FE81848B958BA68BB78BE35AB3
:1003B000FF4F1082ED81FE81E25AFF4F1082ED81E6
:1003C000FE81878D90A1A1A1B2A182319105A105E5
:1003D000B105A9F14497A105B10589F1868D813058
:1003E00029F1F091E901FD832091EA01298322237B
:1003F000B1F19091B30081E0911180E081953D8150
:10040000311135C0882341F060E08FEF0E94890AE6
:100410008FE090E00E947C0A6D8189810E94890AA8
:10042000E0910E01F0910F0181E0868F26960FB6C4
:10043000F894DEBF0FBECDBFDF91CF910895AD819F
:10044000BE815E968C91882389F360E080E00E94F3
:10045000890AE0910E01F0910F01168EE7CFFF237C
:10046000D9F28091B4008111D7CF6FEFCFCF9091A7
:10047000B4009923D1F3882379F28FEF60E0C6CFDF
:10048000F894519A8CE090E09093C5008093C4005A
:10049000E0ECF0E080818D7F8083E2ECF0E0808111
:1004A00086608083E1ECF0E080818860808380E07A
:1004B00091E090931A028093190278940895CF9353
:1004C000DF93C82FD62F811113C0662359F0809176
:1004D000B400811107C06FEF0E94890A8FE090E09D
:1004E0000E947C0A6D2F8C2FDF91CF910C94890A8A
:1004F0009091B30081E0911111C08195DD2349F005
:100500009091B400992339F3882361F38FEF60E071
:10051000E3CF882339F360E08FEFDECF80E0819571
:10052000D111EECFF6CF1F93CF93DF93C82FE09179
:100530000E01F0910F01868D8C1779F0C230A1F178
:10054000C330F1F0C13069F060E080E00E94890AB8
:10055000E0910E01F0910F01C68FDF91CF911F91B5
:1005600008951091E901D091EA01D11132C011230F
:1005700009F441C08091B40081113DC06FEF35C0D6
:10058000D091EB01DD2359F08091B400811107C0B7
:100590006FEF0E94890A8FE090E00E947C0A6D2F25
:1005A00080E00E94890AD4CFD091EC01DD2361F074
:1005B0008091B300811108C060E08FEF0E94890A2A
:1005C0008FE090E00E947C0A60E08D2F0E94890AF3
:1005D000BFCF9091B30081E0911180E0819511111E
:1005E0000FC0882341F060E08FEF0E94890A8FE0FE
:1005F00090E00E947C0A612F8D2F0E94890AA8CF6B
:100600009091B400992309F4B9CF8823A1F38FEF17
:1006100060E0EBCF0F931F93CF93DF93E0910E0138
:10062000F0910F01868D813001F18250823008F007
:1006300071C04091EF015091F0016091F101709112
:10064000F201208D84899589A689B789820F911D31
:10065000A11DB11D84179507A607B70708F481C02F
:10066000DF91CF911F910F9108954091EF0150912B
:10067000F0016091F1017091F20184899589A68958
:10068000B789028D138D248D358D800F911FA21F88
:10069000B31F84179507A607B70710F78091EF01DE
:1006A0009091F001A091F101B091F201848B958BB2
:1006B000A68BB78B0E94820BE0910E01F0910F0187
:1006C00080FF78C0868D8230D1F0C091EC01CC23C0
:1006D00061F08091B300811108C060E08FEF0E944B
:1006E000890A8FE090E00E947C0A60E08C2F0E94D3
:1006F000890AE0910E01F0910F0182E0868F0E943D
:10070000820BE0910E01F0910F0180FD71C08AE52E
:10071000808FA6CFD091E901C091EA01CC2399F155
:100720009091B30081E091113FC08195D11133C008
:10073000882341F060E08FEF0E94890A8FE090E00B
:100740000E947C0A6D2F8C2F0E94890AE0910E0175
:10075000F0910F0181E0868FDF91CF911F910F9172
:1007600008958091EF019091F001A091F101B09175
:10077000F201848B958BA68BB78BD091E901C09148
:10078000EA01C111CDCFDD23E9F28091B4008111DE
:10079000D9CF6FEFD1CF9091B4009923D1F38823B3
:1007A00089F28FEF60E0C8CF80E08195DD2309F406
:1007B000BFCFF1CF868D833009F4A1CFC091EB017B
:1007C000CC2359F08091B400811107C06FEF0E94D3
:1007D000890A8FE090E00E947C0A6C2F80E00E94E2
:1007E000890AE0910E01F0910F0183E0868F87CF97
:1007F00084EB808F35CFCF93DF93C0910E01D091E2
:100800000F018F8D89838BA18A83FE01E35AFF4FED
:1008100080818B83CE010E946D129B878A87DF9136
:10082000CF910895E0910E01F0910F0113AE14AE37
:1008300015AE16AEDF01A95BBF4F1D921D921D9232
:100840001C92139717AA10AE11AE12AE13AA14AAD7
:1008500015AA16AA16961D921D921D921C92139708
:1008600014961D921D921D921C92139718961D921C
:100870001D921D921C921397E55BFF4F0190F08132
:10088000E02D80EADF011D928A95E9F70895CF9364
:10089000DF93C0910E01D0910F018FA598A9A9A94E
:1008A000BAA9AC01BD014151510961097109423038
:1008B00051056105710520F04497A105B10519F4B2
:1008C000DF91CF910895CE010D960E94B90B898BCF
:1008D000E0910E01F0910F01DF01A55BBF4F87A5ED
:1008E00090A9880F991F880F991F0D90BC91A02D7A
:1008F000A80FB91F4D915D916D917C911397452B78
:10090000462B472BE9F681898734D0F641E050E049
:1009100060E070E04D935D936D937C93139787A98E
:1009200090ADA1ADB2AD0196A11DB11D87AB90AF49
:10093000A1AFB2AF83A994A9A5A9B6A982309105A8
:10094000A105B10599F00497A105B10509F0B8CF4B
:10095000E95BFF4F80819181A281B3810196A11D46
:10096000B11D80839183A283B383AACF83AD94AD5D
:10097000A5ADB6AD0196A11DB11D83AF94AFA5AFD6
:10098000B6AF9ECF4F925F926F927F92AF92BF921F
:10099000CF92DF92EF92FF920F931F93CF93DF934B
:1009A00000D000D000D0CDB7DEB720910E0130913D
:1009B0000F013E832D83F90187A190A5A1A5B2A5C2
:1009C0000197A105B10509F42FC1C7A8D0ACE1ACCE
:1009D000F2ACC114D104E104F10409F0AEC0FF96F9
:1009E000108211821282138228E030E040E050E051
:1009F00088E0A82EB12C00E010E0ED81FE81ED5BD7
:100A0000FF4FC082D182E282F382ED81FE81E35BFF
:100A1000FF4FA082B182028313838D819E818F5A02
:100A20009F4F9A838983FC012083318342835383C0
:100A30000E94820BA0900E01B0900F0199E2899F55
:100A4000912D112492959F70F4E69F9F8019112497
:100A500090E0B0E0A0E0A501475A5F4FFA01808323
:100A60009183A283B3834C505109FA01C080D18095
:100A7000E280F3808C159D05AE05BF0508F4E1C04A
:100A8000A5014F5A5F4FFA01408151816281738104
:100A90004C0D5D1D6E1D7F1DC816D906EA06FB06AE
:100AA00088F5481759076A077B0760F184E090E0F2
:100AB000A0E0B0E0F50183A394A3A5A3B6A380E1D1
:100AC0000E942010A0900E01B0900F01D501A75AEE
:100AD000BF4F8D919D910D90BC91A02D9501235BF1
:100AE0003F4F85010F5A1F4FF901408151816281AB
:100AF0007381F8010081118122813381400F511FE0
:100B0000621F731F481759076A077B0708F4BAC0AA
:100B100026960FB6F894DEBF0FBECDBFDF91CF9102
:100B20001F910F91FF90EF90DF90CF90BF90AF900B
:100B30007F906F905F904F90089523AD34AD45AD99
:100B400056ADA4E6B0E00E947817A70196010E9476
:100B5000411729013A01ED81FE81FF9640825182C1
:100B600062827382ED81FE81E95BFF4F20813181DA
:100B700042815381A4E6B0E00E947817A701960154
:100B80000E94411769017A01D301C201880F991FA0
:100B9000AA1FBB1F880F991FAA1FBB1F840D951D7D
:100BA000A61DB71D880F991FAA1FBB1F880F991F6D
:100BB000AA1FBB1F9C01AD01205E3C4F4F4F5F4FF2
:100BC00064E6462E512C612C712CCA01B901A30197
:100BD00092010E94411759018A01D701C601880F6D
:100BE000991FAA1FBB1F880F991FAA1FBB1F8C0D1F
:100BF0009D1DAE1DBF1D880F991FAA1FBB1F880F0B
:100C0000991FAA1FBB1F9C01AD01205E3C4F4F4F97
:100C10005F4F29833A834B835C83CA01B901A301E7
:100C200092010E944117E9CE13A214A215A216A2A6
:100C300013A614A615A616A617A210A611A612A6EC
:100C400067CF82E090E0A0E0B0E0F50183A394A339
:100C5000A5A3B6A384E00E942010A0900E01B0903E
:100C60000F01D501A75ABF4F8D919D910D90BC9159
:100C7000A02DA501435B5F4FFA01C080D180E280C7
:100C8000F380FECEF50113A214A215A216A281E0F4
:100C90000E942010E0910E01F0910F0113A614A6FE
:100CA00015A616A635CFCF92DF92EF92FF920F9343
:100CB0001F93CF93DF93C0910E01D0910F01FE01DE
:100CC000E25AFF4F80818E3108F076C08E8D8823E6
:100CD00049F060E080E00E94890AC0910E01D09145
:100CE0000F011E8E4F8D58A169A17AA10BA11CA1E5
:100CF0002DA13EA1FE01E35AFF4F808149830A8363
:100D00008B83CE010E946D129B878A87E0910E0132
:100D1000F0910F0186A18F9385A18F9384A18F936A
:100D200083A18F9388E391E09F938F930E94201D6E
:100D3000E0910E01F0910F0186A58F9385A58F9309
:100D400084A58F9383A58F9381E291E09F938F93E6
:100D50000E94201DE0910E01F0910F0182A58F935A
:100D600081A58F9380A58F9387A18F9382E391E0D4
:100D70009F938F930E94201DE0910E01F0910F012F
:100D8000E35AFF4F80811F928F9386E491E09F93F7
:100D90008F930E94201D8DB79EB746960FB6F8948C
:100DA0009EBF0FBE8DBFDF91CF911F910F91FF901E
:100DB000EF90DF90CF9008958F8D98A1A9A1BAA14F
:100DC00082319105A105B10521F04497A105B10536
:100DD000E9F48C85813009F085CF1C860E94470498
:100DE000C0910E01D0910F01FE01E25AFF4F8081A8
:100DF000319790819817A8F04F8D58A169A17AA1D9
:100E00000BA11CA12DA13EA1892F78CF0E940A031E
:100E1000C0910E01D0910F018C85813009F062CF15
:100E2000DCCF80834F8D58A169A17AA10BA11CA1B1
:100E30002DA13EA1423151056105710509F45ECF36
:100E4000443151056105710509F458CF01151105AB
:100E50002105310509F456C0CBA4DCA4EDA4FEA401
:100E6000BFEFCB1ADB0AEB0AFB0ACBA6DCA6EDA68A
:100E7000FEA6C016D106E206F30609F03FCF1BA27C
:100E80001CA21DA21EA281E00E942010C0910E0192
:100E9000D0910F0181E090E0A0E0B0E08FA398A78F
:100EA000A9A7BAA71BA61CA61DA61EA61BAE1CAEF4
:100EB0001DAE1EAEFE01E95BFF4F10821182128251
:100EC00013821FAA18AE19AE1AAE1BAA1CAA1DAA1D
:100ED0001EAA3696108211821282138234961082D4
:100EE000118212821382389610821182128213822A
:100EF0003E970190F081E02D80EADF011D928A95F6
:100F0000E9F7F0CE0E94C204C0910E01D0910F010A
:100F1000CDCF8F929F92AF92BF92EF92FF920F939D
:100F20001F93CF93DF93CDB7DEB762970FB6F894D8
:100F3000DEBF0FBECDBF4B015C018D829E82AF82B2
:100F4000B886C901DA0189879A87AB87BC870D8784
:100F50001E872D813E814F815885CA01B9010E94AB
:100F60009A195B018C0129853A854B855C85CA01FC
:100F7000B9010E949A199B01AC01A982BA820B8324
:100F80001C8369817A818B819C810E94CF17698340
:100F90007A838B839C8369817A818B819C810E9477
:100FA0000D1A8B015C0120E030E048EC53E46983CA
:100FB0001A838B83BC8269817A818B819C810E9498
:100FC0003B1887FD42C08D819E81AF81B885B058A6
:100FD0008D839E83AF83B8879801A501BC01CD01A5
:100FE0000E9440186F87788B898B9A8BAD85BE8560
:100FF0006D937D938D939C93139789859A85AB858B
:10100000BC85B05889879A87AB87BC879801A501B2
:10101000BC01CD010E944018D7016D937D938D9343
:101020009C93139781E090E062960FB6F894DEBF30
:101030000FBECDBFDF91CF911F910F91FF90EF9029
:10104000BF90AF909F908F90089590E080E0ECCF9C
:10105000089590E080E008950895BF92CF92DF92C6
:10106000EF92FF920F931F93CF93DF93F89414B8EE
:1010700017B81AB815B818B81BB8529A5A9A14BCAF
:1010800085E085BD8FEF87BD82E080936E00109272
:101090008000109281002FE83BE03093890020937C
:1010A000880080936F005398239891EA9093B00042
:1010B0008093B1001092B4001092B3008BE080BF17
:1010C00083E080937F0086E080937C0083E88093B8
:1010D0007A0080917A00806480937A0080917A000F
:1010E00086FDFCCF10927C0083EA80937A0081E039
:1010F00080937B0081E090E00E94921D8F3F11F071
:10110000809366001092FE01C1E0C093FD01C09380
:10111000FC011092FB011092FA0180E990E00E941C
:10112000921D8093F9018091F901887311F0C093A9
:10113000F9011092F6011092F5018FEF90E0909373
:10114000F4018093F3011092EF011092F0011092DC
:10115000F1011092F20181E08093120282E49FE09B
:101160009093F8018093F70180EB90E00E94921D2C
:10117000C82F81EB90E00E94921DD82FD093EE01F2
:10118000C093ED0185E090E00E94921D8093EC01F8
:1011900089E090E00E94921D8093EB018CE090E04A
:1011A0000E94921D8093EA0184E190E00E94921DCA
:1011B0008093E90101EB11E08DECE82E81E0F82E3F
:1011C0009DECC92E91E0D92EC0E2D0E0CE010E9464
:1011D000921DB82ECE0101960E94921D9B2DF80102
:1011E000819391938F01CE01C0960E94921DB82EDB
:1011F000CE01C1960E94921D9B2DF7018193919380
:101200007F012296C016D10609F77894DF91CF911D
:101210001F910F91FF90EF90DF90CF90BF900895B6
:101220000F920FB60F921F9211248F930FB6F8945E
:10123000A8958091600088618093600010926000A2
:101240000FBE8F911F900F900FBE0F9018953C010D
:10125000EB0110E099249A9484E0C82E96E0A92E20
:1012600023E8B22E38E1D32E49E2E42EE0911202B7
:10127000E730E0F7F0E0EF52F24E0C9463171111F3
:1012800002C0F3010995C092120211E0FE01099516
:10129000EDCF8091FE01811103C1F894A0927C00F2
:1012A000B0927A0080917A00806480937A00809175
:1012B0007A0086FDFCCF8091780090917900789437
:1012C0008B3AE2E09E070CF0E4C08938F2E09F0719
:1012D0000CF0EDC0873692400CF4E2C0559A549A57
:1012E0003B9A3A9A3D983C98C1CF559854983B9A6E
:1012F0003A9A3D983C98EFECF7E03197F1F700C04F
:101300000000559854983B983A983D983C98FFEFC8
:1013100021EE84E0F15020408040E1F700C0000061
:10132000A5CFF89480B7877F80BF80917A008F77B0
:1013300080937A0014B817B81AB815B818B81BB843
:101340000FB6F894A895D09260000FBEE0926000AE
:101350008091600080648093600083B7817F8460A7
:1013600083BFF89483B7816083BF7894889583B7EF
:101370008E7F83BF78941092FE01529A5A9A809180
:101380007A00806880937A0087E592E00197F1F710
:1013900000C0000080B7886180BF559A549A3B9A7C
:1013A0003A9A3D9A3C9AEFE1FEE43197F1F700C09A
:1013B00000008091FE0181115CC0559854983B98C3
:1013C0003A983D983C9852CF80911002811125C0E7
:1013D0001092B3001092B4001092110247CF4899B6
:1013E000ECCF559A54983B983A983D983C988FEC9E
:1013F00097E00197F1F700C00000559854983B988A
:101400003A983D983C989FEFE1EEF4E09150E0402F
:10141000F040E1F700C0000029CF909110028091C8
:101420001102981709F422CF8091100280931102C3
:1014300080911002813009F441C080911002109215
:10144000B3009092B400823009F449C09092B30086
:101450009092B4008FE295E70197F1F700C0000089
:101460008091E9019091EA019093B3008093B400D8
:10147000FDCE559A549A3B983A983D983C98FFEF88
:1014800020E782E0F15020408040E1F700C00000FA
:1014900094CF559854983B9A3A9A3D983C98E6CE0A
:1014A000559A549A3B983A983D983C98DFCE559877
:1014B00054983B983A983D9A3C9AD8CE9092B30073
:1014C0001092B4008FE295E70197F1F700C0000099
:1014D0008091EC018093B3001092B400C7CEEFE28C
:1014E000F5E73197F1F700C000008091EB01109211
:1014F000B3008093B400BACE9C01892B49F08FECE5
:1015000097E00197F1F700C0000021503109B9F7C9
:1015100008958093B3006093B40008958FEF809393
:10152000B3008093B4008FEC97E00197F1F700C00F
:1015300000008FEC97E00197F1F700C000008FECFE
:1015400097E00197F1F700C000008FEC97E001975A
:10155000F1F700C000008FEC97E00197F1F700C0B1
:1015600000008FEC97E00197F1F700C000008FECCE
:1015700097E00197F1F700C000008FEC97E001972A
:10158000F1F700C000008FEC97E00197F1F700C081
:1015900000008FEC97E00197F1F700C000008FEC9E
:1015A00097E00197F1F700C000008FEC97E00197FA
:1015B000F1F700C000008FEC97E00197F1F700C051
:1015C00000008FEC97E00197F1F700C000008FEC6E
:1015D00097E00197F1F700C0000008958091FE01A7
:1015E00081111EC0F89487E080937C0083E880938B
:1015F0007A0080917A00806480937A0080917A00EA
:1016000086FDFCCF809178009091790010927C004B
:1016100023EA20937A0021E020937B0078940895B8
:101620008FEF9FEF08958091FE0181111EC0F89405
:1016300088EC80937C0087E880937A0080917A0020
:10164000806480937A0080917A0086FDFCCF80913F
:1016500078009091790010927C0023EA20937A0020
:1016600021E020937B00789408958FEF9FEF0895F9
:101670001F93CF93DF93F0E0E0E080E016E0D3E843
:10168000C3EA71E0A1E0B0E060E8F89410937C0058
:10169000D0937A0090917A00906490937A00909120
:1016A0007A0096FDFCCF209178003091790021706E
:1016B00090917A00906490937A0090917A0096FDD0
:1016C000FCCF409178005091790010927C00C0933B
:1016D0007A0070937B0078944170241302C06150AB
:1016E000A1F6222339F09D010E2E01C0220F0A948B
:1016F000EAF7822B3196E830F10531F6DF91CF9190
:101700001F91089580911001982F990F990F990FAB
:10171000982780910F0221E0280F20930F028695D1
:1017200086958927929596959770892780931001C1
:1017300008958093100108958091FE01811116C0D3
:10174000F89486E080937C0083E880937A0080910F
:101750007A00806480937A0080917A0086FDFCCFC5
:101760008091780090917900789408958FEF9FEFA1
:1017700008952F923F924F925F926F927F928F9235
:101780009F92AF92BF92CF92DF92EF92FF920F9310
:101790001F93CF93DF93CDB7DEB728970FB6F8949A
:1017A000DEBF0FBECDBF7C01DC0112960D90BC9157
:1017B000A02DB887AF83A438E3E0BE070CF477C050
:1017C000DC01ED90FC908091B1019091B201DD249B
:1017D000DA948E159F0508F43BC20091B301109175
:1017E000B4010E151F0508F44AC30091B50110910C
:1017F000B6010E151F0508F447C30091B7011091FB
:10180000B8010E151F0508F444C30091B9011091E9
:10181000BA010E151F0508F441C30091BB011091D8
:10182000BC010E151F0508F43EC30091BD011091C7
:10183000BE010E151F0508F43BC30091BF011091B6
:10184000C0010E151F0508F43CC30091C1011091A1
:10185000C2010E151F0508F43DC30091C30110918C
:10186000C4010E151F0508F446C20091C501109170
:10187000C6010E151F0508F436C30091C70110916B
:10188000C8010E151F0508F437C30091C901109156
:10189000CA010E151F0508F438C30091CB01109141
:1018A000CC010E151F0508F439C31AE520C180913B
:1018B000CD019091CE018A179B0708F4B1C1009128
:1018C000CF011091D0010A171B0708F4DBC100916A
:1018D000D1011091D2010A171B0708F4EEC2009142
:1018E000D3011091D4010A171B0708F4EFC200912D
:1018F000D5011091D6010A171B0708F4F8C1009111
:10190000D7011091D8010A171B0708F4E8C200910B
:10191000D9011091DA010A171B0708F4E9C20091F6
:10192000DB011091DC010A171B0708F4EAC20091E1
:10193000DD011091DE010A171B0708F4EBC20091CC
:10194000DF011091E0010A171B0708F4ECC20091B7
:10195000E1011091E2010A171B0708F4E8C20091A7
:10196000E3011091E4010A171B0708F4E4C2009197
:10197000E5011091E6010A171B0708F4E0C2009187
:10198000E7011091E8018DE02DE030E00A171B0718
:1019900008F47BC1412C512C30ED3D8340E44E8353
:1019A0002CE0C22ED12CF601EE0FFF1FE353FE4FA9
:1019B00080819181D801A81BB90B9D0150E040E0C6
:1019C00029833A834B835C83CA01BD010E94E818D6
:1019D0009B01AC0169837A838B839C8369817A81C3
:1019E0008B819C810E94CF175B016C018F81988550
:1019F000092E000CAA0BBB0B89839A83AB83BC8393
:101A0000BC01CD010E94EA183B014C01980150E055
:101A100040E029833A834B835C83CA01B8010E946A
:101A2000E8181B018C0192014D815E81A982BA8266
:101A3000CB82DC8269817A818B819C810E949A1998
:101A40009B01AC0129823A820B831C8369817A81D4
:101A50008B819C810E94CE179B01AC0169827A82A6
:101A60008B829C8269817A818B819C810E94CE17B6
:101A700020E030E040E251E469837A838B839C83E9
:101A800069817A818B819C810E949A1969837A830A
:101A90008B839C8369817A818B819C810E94B2189F
:101AA0008B01A982BA82CB82DC8269817A818B81A7
:101AB0009C810E94B21869837A838B839C83C801BE
:101AC00069817A810E942D17D62E4F8158854D3B12
:101AD00052400CF409C1D701ED90FC908091B10106
:101AE0009091B2018E159F0508F077CE10E0BFEF00
:101AF00081E2810FDB1609F4ACC02D2D30E050E0FF
:101B000040E029833A834B835C83CA01B9010E9478
:101B1000E8186B017C01812F90E0B0E0A0E08983A0
:101B20009A83AB83BC83BC01CD010E94E8184B01B2
:101B30005C012F813885032E000C440B550B298343
:101B40003A834B835C83CA01B9010E94EA188B0176
:101B50008E839D839B01AC0160E070E081E694E49C
:101B60000E94CE179601A70169837A838B839C8399
:101B700069817A818B819C810E949A196B017C0119
:101B800020E030E04FE254E409831A838E818B8396
:101B90009D819C8369817A818B819C810E94CE1773
:101BA0009401A50169837A838B839C8369817A81FF
:101BB0008B819C810E949A199B01AC01C982DA82B7
:101BC000EB82FC8269817A818B819C810E94CF1794
:101BD00020E030E048E453E469837A838B839C837C
:101BE00069817A818B819C810E94401820E030E0DD
:101BF00044E052E469837A838B839C8369817A8190
:101C00008B819C810E94CF1769837A838B839C830D
:101C100069817A818B819C810E94B918862F19C0B5
:101C2000AD3BB240ACF0D701ED90FC908091B1019A
:101C30009091B201D12C8E159F0508F0CECD812C4C
:101C4000912CA12CB12CC12CD12CE12CF12C71CFD9
:101C500081E228960FB6F894DEBF0FBECDBFDF91AC
:101C6000CF911F910F91FF90EF90DF90CF90BF9099
:101C7000AF909F908F907F906F905F904F903F902C
:101C80002F90089581E021E030E06901F1E0CF1A62
:101C9000D108282F30E050E040E029833A834B837D
:101CA0005C83CA01B9010E94E81820E030E040E0FE
:101CB0005FE369837A838B839C8369817A818B81DB
:101CC0009C810E949A1920E030E0A90169837A83FF
:101CD0008B839C8369817A818B819C810E94CF1741
:101CE0002B018D839E835FCE81E2860FB2CF84E08D
:101CF00024E030E0CACF59E0652EE9E0F0E0EE0FD5
:101D0000FF1FE155FE4F80819181D801A81BB90BBF
:101D10009D0150E040E029833A834B835C83CA01F4
:101D2000BD010E94E8189B01AC0169837A838B8313
:101D30009C8369817A818B819C810E94CF17962E2A
:101D4000A72EB82EC92EC701FF0CAA0BBB0B898387
:101D50009A83AB83BC83BC01CD010E94EA18762E26
:101D6000872E7C01980150E040E029833A834B8321
:101D70005C83CA01B8010E94E8182B018C01862DF2
:101D800090E0B0E0A0E089839A83AB83BC83BC0180
:101D9000CD010E94E81820E030E040E05FE3698375
:101DA0007A838B839C8369817A818B819C810E9459
:101DB0009A1920E030E0A90169837A838B839C83A0
:101DC00069817A818B819C810E94CF17292D3A2DC0
:101DD0004B2D5C2D69837A838B839C8369817A8107
:101DE0008B819C810E949A199B01AC0149825A8285
:101DF0000B831C8369817A818B819C810E94CE1721
:101E00009B01AC0179828A82EB82FC8269817A81B2
:101E10008B819C810E94CE1720E030E040E251E4AB
:101E200069837A838B839C8369817A818B819C818E
:101E30000E949A1969837A838B839C8369817A8152
:101E40008B819C810E94B2188B019982AA82BB82ED
:101E5000CC8269817A818B819C810E94B2186983CE
:101E60007A838B839C83C80169817A810E942D17B4
:101E7000162F6F3F09F03BCE81E28D0DEACE66242E
:101E80006394E1E0F0E03BCF82E0682EE2E0F0E036
:101E900036CFB3E06B2EE3E0F0E031CFA4E06A2E62
:101EA000E4E0F0E02CCFF5E06F2EE5E0F0E027CFA6
:101EB000E6E06E2EE6E0F0E022CF82E022E030E0C5
:101EC000E4CE77E0672EE7E0F0E019CF83E023E08F
:101ED00030E0DBCE68E0662EE8E0F0E010CF85E091
:101EE00025E030E0D2CE4AE0642EEAE0F0E007CF11
:101EF00086E026E030E0C9CE3BE0632EEBE0F0E088
:101F0000FECE87E027E030E0C0CE2CE0622EECE091
:101F1000F0E0F5CE88E028E030E0B7CE9DE0692E15
:101F2000EDE0F0E0ECCE89E029E030E0AECE8AE0F2
:101F30002AE030E0AACE8BE02BE030E0A6CE8CE0A9
:101F40002CE030E0A2CE1F920F920FB60F92112418
:101F50002F933F934F935F936F937F938F939F93B1
:101F6000AF93BF93EF93FF938091F5019091F601AA
:101F70002091F3013091F401820F931F9093F601A9
:101F80008093F5018FEF90E09093F4018093F3013B
:101F90008FEF87BD8091EF019091F001A091F10149
:101FA000B091F2010196A11DB11D8093EF019093B4
:101FB000F001A093F101B093F2018091FE01811133
:101FC0000FC08091F7019091F8012091F5013091B7
:101FD000F6018217930720F480911202843089F071
:101FE000FF91EF91BF91AF919F918F917F916F91F1
:101FF0005F914F913F912F910F900FBE0F901F90C7
:102000001895E0911301F09114010995009741F39F
:102010000E942513882351F0E0911101F0911201E3
:1020200009951092F6011092F501DACF0E94F21B89
:102030009C0199279093F4018093F30127BDD0CFA1
:1020400080FF11C0559A81FF11C0549A82FF11C0C0
:102050003B9A83FF11C03A9A84FF11C03D9A85FFD5
:1020600011C03C9A0895559881FDEFCF549882FD98
:10207000EFCF3B9883FDEFCF3A9884FDEFCF3D98AB
:1020800085FDEFCF3C9808951F921FB61F92112433
:102090008F939F931092810010928500109284007C
:1020A00081E08093FD018093FC011092FE0110926B
:1020B0007C0093EA90937A0080937B009F918F91AC
:1020C0001F901FBE1F9018951F920F920FB60F9270
:1020D00011240F931F932F933F934F935F936F930D
:1020E0007F938F939F93AF93BF93EF93FF93CF9380
:1020F000DF9300D000D0CDB7DEB7209184003091BF
:10210000850041E04093FE018091FD018823D9F1D3
:102110001092850010928400409381001092FA0181
:102120001092FD018091FC018823A1F080917A003A
:1021300086FDFCCF80917800909179009093020207
:102140008093010281E080937C0093EA90937A006F
:1021500080937B000F900F900F900F90DF91CF91A5
:10216000FF91EF91BF91AF919F918F917F916F916F
:102170005F914F913F912F911F910F910F900FBE43
:102180000F901F901895C90187589109843799407D
:10219000A0F010928100109285001092840040936C
:1021A000FD014093FC011092FE0110927C0083EA35
:1021B00080937A0040937B00CDCF26583109A4EF5D
:1021C000B0E00E94691769837A838B839C83AA2776
:1021D000BB271B81183008F465C04093FD01809136
:1021E000FC0181113CC08091FB01E82FF0E0ED5F24
:1021F000FD4F9091FA0190838F5F8093FB018C30AB
:1022000009F0A8CF109281001092850010928400EE
:102210004093FC011092FE0100910D0210910E02FC
:1022200083E092E00E946D120817190709F092CF1F
:10223000E0910C02E7FF47C098E79E0F933030F023
:10224000539823981092B4001092B300E058EB30EA
:1022500008F080CFF0E0E852F24E0C9463178091C2
:102260007A0086FDFCCF8091780090917900909360
:1022700000028093FF0110927C0083EA80937A0031
:1022800081E080937B009091FA019923B9F010923C
:10229000810010928500109284008093FC011092BE
:1022A000FE0158CF21E030E001C0220F8A95EAF705
:1022B0008091FA01822B8093FA014CCF1092FC019D
:1022C0001092FB0147CFE0911501F09116016FEFDD
:1022D00071E083E092E009953DCF80910302823066
:1022E00009F485C008F06CC0882309F4BEC0809151
:1022F0000402909105029093EE018093ED011092FB
:10230000100280911202863009F424CF539A239A46
:102310001092B4001092B30086E0809312021ACF9C
:1023200080911202863099F0539A239A1092B40049
:102330001092B300559854983B983A983D983C9821
:10234000109210021092110286E0809312022091E6
:10235000030281E090E002C0880F991F2A95E2F7FE
:102360002091ED013091EE0182239323892B09F412
:1023700079C081E080931002EDCE82E0809312025A
:10238000E9CE85E080931202E5CE81E080931202CF
:10239000E1CE10921202DECE80911202833009F457
:1023A000D9CE80911202843009F4D4CE539A239A64
:1023B0001092B4001092B30083E080931202CACE50
:1023C000833061F1843009F09CCF2091100280911C
:1023D0000902909108022330C1F01092110223E00B
:1023E000209310029093EA018093E9018ACF9091A3
:1023F0001002809106029130F9F01092110291E0E2
:10240000909310028093EC017CCF2091E901281376
:10241000E4CF2091EA019213E0CF73CF90911002A4
:1024200080910702923069F01092110292E090932D
:1024300010028093EB0165CF9091EC019813DDCFF2
:1024400060CF9091EB019813EFCF5BCFF0E0E0E02D
:10245000099580916E008D7F80936E0016BCE0E040
:10246000F0E709951092100275CE80911202863025
:1024700009F070CE6091ED0180EB90E00E949A1D12
:102480006091EE0181EB90E00E949A1D6091EC0159
:1024900085E090E00E949A1D6091EB0189E090E058
:1024A0000E949A1D6091EA018CE090E00E949A1DC2
:1024B0006091E90184E190E00E949A1D539823986D
:1024C0001092B4001092B30081E0809312028091C8
:1024D0000302882309F43ECE14CFFC0120818FEF44
:1024E0009FEF8227082E8295807F8025092E982FC6
:1024F00082958F700826869598278927880F880FE0
:10250000880F802521818227082E8295807F802553
:10251000092E982F82958F700826869598278927EF
:10252000880F880F880F802522818227082E8295A8
:10253000807F8025092E982F82958F70082686959A
:1025400098278927880F880F880F80252381822765
:10255000082E8295807F8025092E982F82958F7076
:102560000826869598278927880F880F880F802549
:1025700024818227082E8295807F8025092E982F1E
:1025800082958F700826869598278927880F880F4F
:10259000880F802525818227082E8295807F8025BF
:1025A000092E982F82958F7008268695982789275F
:1025B000880F880F880F802526818227082E829514
:1025C000807F8025092E982F82958F70082686950A
:1025D00098278927880F880F880F802527818227D1
:1025E000082E8295807F8025092E982F82958F70E6
:1025F0000826869598278927880F880F880F8025B9
:1026000020858227082E8295807F8025092E982F8D
:1026100082958F700826869598278927880F880FBE
:10262000880F802521858227082E8295807F80252E
:10263000092E982F82958F700826869598278927CE
:10264000880F880F880F802508950FB6F894A4B1DD
:102650002091F9012A2B24B921E03091F901203091
:1026600029F0000025B1232B25B904C0000000008B
:10267000000000C0000000000000309525B12323B9
:1026800025B92EEA2A95F1F72BEE30B735FF0AC0AF
:10269000A4B93091F901309525B1232325B90FBE96
:1026A00080E0089500002A9581F721E03091F9013A
:1026B000203029F0000025B1232B25B904C00000EB
:1026C0000000000000C0000000000000309525B1AF
:1026D000232325B9000024E52A95F1F7FC018CE0BD
:1026E000619170E0660F771F616072609AE041E06F
:1026F00050E09A0126233723232B3091F901203013
:1027000029F0000025B1232B25B904C000000000EA
:10271000000000C0000000000000309525B1232318
:1027200025B9000021E52A95F1F7440F551F9A9528
:1027300001F78A95A9F620B7206120BFA4B930918E
:10274000F901309525B1232325B90FBE81E0089505
:10275000A3E1B0E0EEEAF3E10C9483177C011B01E6
:102760005A01DC0117961C921E92169713968C91B3
:1027700081FF50C3FE0131964F01D70113969C9102
:10278000F10193FD859193FF81911F01882309F445
:10279000F4C2853239F493FD859193FF81911F0135
:1027A000853239F4B70190E00E94F01C65015601B2
:1027B000E4CF10E0712C612CBFE1B61538F08B32FC
:1027C00011F190F4803209F1833229F167FC3CC0A9
:1027D00020ED280F2A3050F566FE20C0EAE01E9F4B
:1027E000200D1124122F06C08D3291F0803371F725
:1027F000689460F8F10193FD859193FF81911F0129
:102800008111DACF21C0689461F8689462F8F2CF40
:10281000689463F8EFCF689464F8ECCFFAE07F9E99
:10282000200D1124722E689465F8E4CF8E3229F4BD
:1028300066FCA3C2689466F8DDCF8C3619F4689400
:1028400067F8D8CF8836B1F29BEB980F933008F039
:1028500065C0689464F8805E66FE16E0262D2F73CE
:10286000622E853609F062C0689466F867FE68C01B
:10287000812F1C3308F08BE344244394480E27E057
:10288000D5014D915D916D917D916D014C875D8775
:102890006E877F87042DA4016C857D858E859F853D
:1028A0000E94021C5C01B981BC87B0FF03C00DE22D
:1028B000B3FF0AC00BE261FC07C062FA882780F907
:1028C000082F0295000F007EEC85EC705E2E09F457
:1028D00054C00111A2C2F3E0512CF715A0F483E01B
:1028E000572C581A63FC08C0B70180E290E00E94A0
:1028F000F01C5A945110F8CF002329F0B701802F13
:1029000090E00E94F01CFC8508E610E0F3FD02C098
:102910000CE610E0262D2071622E21C09BE9980F55
:10292000933008F03AC1E89464F896CF863619F4EB
:10293000689467F89BCF112309F498CF115096CF74
:10294000212F183010F027E017E0412C99CF6110AB
:102950008052B70190E00E94F01C0F5F1F4FF801FA
:1029600084918111F4CF552009F421CFB70180E281
:1029700090E00E94F01C5A94F6CF67FE7DC0842D33
:102980008A0DFC85F4FF04C09A81913309F48150CB
:1029900044244394181634F4482E28E0281710F4E1
:1029A00088E0482E85E090E067FE06C0C501B7FECE
:1029B00002C080E090E0019601110196112331F0F0
:1029C000212F30E02F5F3F4F820F931F781619069B
:1029D00019F014F0572C581A862D897011F45110E3
:1029E00070C0002329F0B701802F90E00E94F01CF6
:1029F00063FC02C051106CC067FE85C03501B7FE94
:102A000002C0712C612CC50186199709A401480FD9
:102A1000591F598B488BB501641971097B8B6A8BDF
:102A2000012F10E0119501951109A614B7040CF4BB
:102A300056C0AA89BB89A615B7050CF050C0E88915
:102A4000F9898181F1E06F1A7108601671060CF442
:102A500048C0B70190E00E94F01C2FEF621672068A
:102A600029F4B7018EE290E00E94F01C88899989D0
:102A70000196998B888BD9CF66FC94CFE12FF0E03B
:102A8000EA15FB053CF03CEFA3163FEFB30614F04C
:102A9000689467F83296E80DF91D01C011501123B2
:102AA00019F082918033D1F367FE7CCF44244394A4
:102AB000410E1A151B0419F014F01A1973CF10E007
:102AC00071CFB70180E290E00E94F01C5A9487CF4A
:102AD000B70180E390E00E94F01C5A948BCF80E312
:102AE000B1CFA614B70441F49A81963350F49533CC
:102AF00019F43C8534FF05C0B70190E00E94F01C3A
:102B000032CF81E3F9CF8A81813319F04C854F7E32
:102B10004C87B70190E00E94F01C112399F0B70197
:102B20008EE290E00E94F01C1E5F02E0802F0F5F9B
:102B3000F401E80FF11D8081B70190E00E94F01CC4
:102B40001013F4CF85E664FC85E490E0B7010E94A1
:102B5000F01CB7FC06C0A114B104C1F45C8554FF9D
:102B600015C0B194A194B1088DE2B70190E00E9424
:102B7000F01C80E37AE0A716B10454F4B70190E0AA
:102B80000E94F01CB701C501C096B8CF8BE2EDCF13
:102B90008F5F6AE0A61AB108EDCF8336B1F08337B4
:102BA00041F1833509F04DC0D501AD90BD906D0167
:102BB000612F70E066FC02C06FEF7FEFC5010E94DD
:102BC000DA1C8C01689467F80CC0650182E0C80EBD
:102BD000D11CD5018C91898301E010E05401E89467
:102BE00067F863FC04C07016110609F088F4572CCE
:102BF00024C0F501A190B1906F01612F70E066FCD7
:102C000002C06FEF7FEFC5010E94E51C8C01E7CF8A
:102C1000B70180E290E00E94F01C7A94E4CFF501C5
:102C200067FC859167FE81915F01B70190E00E948A
:102C3000F01C51105A94015011090115110579F732
:102C400092CE843619F0893609F070C067FE65C0EF
:102C5000F50161917191819191916F01B62DBF76CE
:102C60006B2E97FF09C090958095709561957F4F69
:102C70008F4F9F4F689467F82AE030E0A4010E94CC
:102C8000341DA82EA818BA2C062D66FE0AC00E7F89
:102C9000A11638F464FE04C062FC02C0062D0E7E4C
:102CA000B12E04FF8FC0FE01EA0DF11D808180333B
:102CB00009F081C0097E502F5870552E03FD91C038
:102CC00000FF8BC01A2DB71418F47A0C172D1B199E
:102CD00004FF8DC0B70180E390E00E94F01C02FF6A
:102CE00007C088E701FD88E590E0B7010E94F01C6D
:102CF000A11608F488C0AA940A2D10E00F5F1F4F98
:102D0000080D191DD8018E918D01B70190E00E9428
:102D1000F01C08151905B1F726CED5016D917D91EE
:102D20006D01072E000C880B990B98CF062D853767
:102D3000E1F40F7E2AE030E007FF35C0D5014D9168
:102D40005D916D917D916D014C875D876E877F8769
:102D5000A4016C857D858E859F850E94341DA82EDB
:102D6000A818602EE89467F88ECF097F803791F01D
:102D700058F4883589F08F36A1F0F7018681978164
:102D80006396E2E10C949F178837B9F704FD04605D
:102D900020E1D1CF0061FACF64FC066020E132E08F
:102DA000CBCF28E0C8CFF501819191916F01AC01A3
:102DB00070E060E0C9CF02FD02C0B3947CCFB39451
:102DC000B39479CF802F867809F475CFF6CFB70109
:102DD00080E290E00E94F01CB394B714C0F3512C31
:102DE00077CF572C5B18B71408F472CFF8CF802F29
:102DF000867809F47DCF8BE201FF80E207FD8DE24A
:102E0000B70190E073CFB70180E390E00E94F01C1F
:102E100011506ECF8FEF9FEFB3CF24E0512C2715C9
:102E200008F06CCD84E05CCD0E942D080E94400229
:102E30008EEE90E0909316018093150189EE90E05C
:102E4000909314018093130163E576E08CE191E0A7
:102E50000E94270990E080E0089597FB072E16F462
:102E6000009407D077FD09D00E94BA1707FC05D05F
:102E70003EF4909581959F4F0895709561957F4F91
:102E80000895A1E21A2EAA1BBB1BFD010DC0AA1FAB
:102E9000BB1FEE1FFF1FA217B307E407F50720F0C3
:102EA000A21BB30BE40BF50B661F771F881F991F3E
:102EB0001A9469F760957095809590959B01AC0187
:102EC000BD01CF010895EE0FFF1F0590F491E02D95
:102ED0000994A29FB001B39FC001A39F700D811DF3
:102EE0001124911DB29F700D811D1124911D089513
:102EF0000E946917A59F900DB49F900DA49F800D0F
:102F0000911D112408952F923F924F925F926F92DC
:102F10007F928F929F92AF92BF92CF92DF92EF9269
:102F2000FF920F931F93CF93DF93CDB7DEB7CA1BEA
:102F3000DB0B0FB6F894DEBF0FBECDBF09942A8815
:102F4000398848885F846E847D848C849B84AA84BD
:102F5000B984C884DF80EE80FD800C811B81AA814A
:102F6000B981CE0FD11D0FB6F894DEBF0FBECDBF15
:102F7000ED010895AA1BBB1B51E107C0AA1FBB1F8F
:102F8000A617B70710F0A61BB70B881F991F5A95F5
:102F9000A9F780959095BC01CD0108955058BB27A5
:102FA000AA270E94E6170C9460190E94521938F063
:102FB0000E94591920F039F49F3F19F426F40C941B
:102FC0004F190EF4E095E7FB0C944919E92F0E9484
:102FD000711958F3BA17620773078407950720F031
:102FE00079F4A6F50C9493190EF4E0950B2EBA2FF4
:102FF000A02D0B01B90190010C01CA01A0011124FF
:10300000FF27591B99F0593F50F4503E68F11A16AA
:10301000F040A22F232F342F4427585FF3CF46953B
:1030200037952795A795F0405395C9F77EF41F165D
:10303000BA0B620B730B840BBAF09150A1F0FF0F27
:10304000BB1F661F771F881FC2F70EC0BA0F621F13
:10305000731F841F48F4879577956795B795F79503
:103060009E3F08F0B0CF9395880F08F09927EE0F98
:103070009795879508950E94251908F481E0089591
:103080000E9454180C9460190E94591958F00E941B
:10309000521940F029F45F3F29F00C94491951115D
:1030A0000C9494190C944F190E94711968F3992388
:1030B000B1F3552391F3951B550BBB27AA27621734
:1030C0007307840738F09F5F5F4F220F331F441F41
:1030D000AA1FA9F335D00E2E3AF0E0E832D0915075
:1030E0005040E695001CCAF72BD0FE2F29D0660F62
:1030F000771F881FBB1F261737074807AB07B0E8A5
:1031000009F0BB0B802DBF01FF2793585F4F3AF0AA
:103110009E3F510578F00C9449190C9494195F3F27
:10312000E4F3983ED4F3869577956795B795F79530
:103130009F5FC9F7880F911D9695879597F9089518
:10314000E1E0660F771F881FBB1F621773078407B4
:10315000BA0720F0621B730B840BBA0BEE1F88F7C3
:10316000E09508950E94B9186894B1110C949419CF
:1031700008950E94791988F09F5798F0B92F9927E0
:10318000B751B0F0E1F0660F771F881F991F1AF052
:10319000BA95C9F714C0B13091F00E949319B1E00B
:1031A00008950C949319672F782F8827B85F39F00A
:1031B000B93FCCF3869577956795B395D9F73EF4EB
:1031C00090958095709561957F4F8F4F9F4F089593
:1031D000E89409C097FB3EF49095809570956195B1
:1031E0007F4F8F4F9F4F9923A9F0F92F96E9BB2767
:1031F0009395F695879577956795B795F111F8CFE3
:10320000FAF4BB0F11F460FF1BC06F5F7F4F8F4F4D
:103210009F4F16C0882311F096E911C0772321F043
:103220009EE8872F762F05C0662371F096E8862FDB
:1032300070E060E02AF09A95660F771F881FDAF732
:10324000880F9695879597F90895990F0008550F5F
:10325000AA0BE0E8FEEF16161706E807F907C0F01C
:1032600012161306E407F50798F0621B730B840B24
:10327000950B39F40A2661F0232B242B252B21F4FE
:1032800008950A2609F4A140A6958FEF811D811D9E
:10329000089597F99F6780E870E060E008959FEFD8
:1032A00080EC089500240A941616170618060906DD
:1032B000089500240A9412161306140605060895AC
:1032C000092E0394000C11F4882352F0BB0F40F434
:1032D000BF2B11F460FF04C06F5F7F4F8F4F9F4F74
:1032E000089557FD9058440F551F59F05F3F71F0F6
:1032F0004795880F97FB991F61F09F3F79F087955D
:103300000895121613061406551FF2CF4695F1DFE5
:1033100008C0161617061806991FF1CF8695710575
:10332000610508940895E894BB2766277727CB01A9
:1033300097F908950E94AD190C9460190E945219D2
:1033400038F00E94591920F0952311F00C94491976
:103350000C944F1911240C9494190E94711970F354
:10336000959FC1F3950F50E0551F629FF001729F2A
:10337000BB27F00DB11D639FAA27F00DB11DAA1F39
:10338000649F6627B00DA11D661F829F2227B00D86
:10339000A11D621F739FB00DA11D621F839FA00D11
:1033A000611D221F749F3327A00D611D231F849F61
:1033B000600D211D822F762F6A2F11249F575040B8
:1033C0009AF0F1F088234AF0EE0FFF1FBB1F661F33
:1033D000771F881F91505040A9F79E3F510580F0FC
:1033E0000C9449190C9494195F3FE4F3983ED4F37C
:1033F000869577956795B795F795E7959F5FC1F7A0
:10340000FE2B880F911D9695879597F9089519F4CD
:1034100016F40C944F190C944D1A0E947919B8F3B4
:103420009923C9F3B6F39F57550B87FF0E945B1A88
:103430000024A0E640EA900180585695979528F41C
:10344000805C660F771F881F20F026173707480714
:1034500030F4621B730B840B202931294A2BA6956B
:1034600017940794202531254A2758F7660F771FB0
:10347000881F20F026173707480730F4620B730BBC
:10348000840B200D311D411DA09581F7B901842FBA
:103490009158880F9695879508959F3F31F09150E8
:1034A00020F4879577956795B795880F911D969528
:1034B000879597F9089591505040660F771F881FA0
:1034C000D2F708950F931F93CF93DF939C01029738
:1034D00010F422E030E0E0911302F091140290E049
:1034E00080E0B0E0A0E0309791F4009709F445C087
:1034F000821B930B84309105B8F58A819B816115FD
:10350000710569F1FB0193838283FE0111C0408143
:1035100051810281138142175307F0F0421753077C
:1035200099F4109761F012960C93129713961C93CE
:103530003296CF01DF91CF911F910F9108950093A3
:10354000130210931402F4CF009719F0481759078B
:1035500018F4CA01BD01EF01DF01F801C4CF909357
:10356000140280931302D1CFFE01E80FF91F2193BB
:103570003193029799838883DCCF809115029091D3
:103580001602892B41F48091190190911A019093B0
:1035900016028093150280911701909118010097EF
:1035A00041F48DB79EB740911B0150911C01841BC3
:1035B000950B40911502509116024817590708F0D3
:1035C000B8CF841B950B8217930708F4B2CFB901CB
:1035D0006E5F7F4F8617970708F4ABCF640F751F98
:1035E0007093160260931502FA0121933193A1CFD3
:1035F000CF93DF939C010097E9F0FC01329713828F
:103600001282C0911302D0911402DE0190E080E09A
:103610002097A1F480819181280F391F8091150294
:10362000909116028217930709F067C0F093160273
:10363000E0931502DF91CF910895DA01AE17BF072D
:1036400008F041C012964D915C911397CD01411540
:10365000510599F7DC011396FC93EE9312974D9167
:103660005D91A40FB51FEA17FB0781F4208131811A
:103670002E5F3F4F240F351FDC0111963C932E9394
:103680002281338113963C932E931297B0E0A0E0F1
:103690008A819B810097B1F5FE0181919191E80F9C
:1036A000F91F80911502909116028E179F0711F64F
:1036B000109759F51092140210921302D09316022B
:1036C000C0931502B7CFB383A28340815181240FE9
:1036D000351FA217B30771F44E5F5F4F2D913C91D8
:1036E0001197240F351F3183208312962D913C9121
:1036F00033832283009709F0ADCFF0931402E09357
:10370000130298CFDE01EC01C3CF13961C921E92D8
:103710001297D4CFCF92DF92EF92FF92CF93DF93A5
:10372000CDB7DEB72A970FB6F894DEBF0FBECDBF78
:1037300089879A87A985BA852D913D914D915C9194
:1037400029833A834B835C83232B242B252B41F441
:1037500024E239ED4BE557E029833A834B835C83C0
:1037600069817A818B819C812DE133EF41E050E0CA
:103770000E94A81D69017A01A7EAB1E49B01AC018E
:103780000E94781769837A838B839C83ACEEB4EFB5
:10379000A70196010E94CA1D9B01AC0189819A81F3
:1037A000AB81BC81820F931FA41FB51FB7FF03C05D
:1037B0000197A109B048E985FA8580839183A283A6
:1037C000B3839F772A960FB6F894DEBF0FBECDBFA6
:1037D000DF91CF91FF90EF90DF90CF9008950E94FE
:1037E0008A1B08958DE191E00E948A1B0895B0E044
:1037F000A0E080931D0190931E01A0931F01B09340
:1038000020010895283008F027E03327DA01990FC6
:10381000311D87FD916000966105710539F43260B4
:103820002E5F3D9330E32A95E1F708959F3F30F0F6
:1038300080387105610509F03C5F3C5F3D93913034
:1038400008F08068911DDF93CF931F930F93FF9231
:10385000EF92192F987F9695E92F96959695E90FF7
:10386000FF27E653FF4F99273327EE24FF24A701B4
:10387000E70105900894079428F4360FE71EF81E18
:10388000491F511D660F771F881F991F0694A1F7C6
:103890000590079428F4E70EF81E491F561FC11D16
:1038A000770F881F991F661F0694A1F7059007944C
:1038B00028F4F80E491F561FC71FD11D880F991FE6
:1038C000661F771F0694A1F70590079420F4490F0F
:1038D000561FC71FD81F990F661F771F881F069492
:1038E000A9F784911095177041F0D695C795579513
:1038F0004795F794E7941A95C1F7E0E7F0E06894EC
:103900001590159135916591959105907FE273958C
:10391000E118F10A430B560BC90BD009C0F7E10CB3
:10392000F11E431F561FC91FD01D7EF4703311F4C2
:103930008A95E6CFE894015030F0080F0AF400278A
:10394000021708F4202F2395022F7A3328F079E309
:103950007D932A95E9F710C07D932A9589F6069400
:1039600097956795379517951794E118F10A430BCA
:10397000560BC90BD00998F023957E9173957A3335
:1039800008F070E37C932013B8F77E9170617D930B
:1039900030F0839571E37D9370E32A95E1F711246C
:1039A000EF90FF900F911F91CF91DF91992787FDA5
:1039B00090950895FC010590615070400110D8F772
:1039C000809590958E0F9F1F0895FC016150704067
:1039D00001900110D8F7809590958E0F9F1F089544
:1039E0000F931F93CF93DF93182F092FEB018B8138
:1039F00081FD09C01FEF0FEF812F902FDF91CF9135
:103A00001F910F91089582FF14C02E813F818C81F8
:103A10009D81281739073CF4E881F981CF0101968F
:103A20009983888310838E819F8101969F838E83E3
:103A3000E3CFE885F985812F0995892BA1F3DACFAA
:103A4000B0E0A0E0E6E2FDE10C949317FE013596AC
:103A500061917191AF018091190290911A020E94B7
:103A6000A813E2E00C94AF17FA01AA27283051F10D
:103A7000203181F1E8946F936E7F6E5F7F4F8F4F9F
:103A80009F4FAF4FB1E03ED0B4E03CD0670F781FFE
:103A9000891F9A1FA11D680F791F8A1F911DA11DE3
:103AA0006A0F711D811D911DA11D20D009F468941C
:103AB0003F912AE0269F11243019305D3193DEF6C4
:103AC000CF010895462F4770405D4193B3E00FD07A
:103AD000C9F7F6CF462F4F70405D4A3318F0495D65
:103AE00031FD4052419302D0A9F7EACFB4E0A69548
:103AF0009795879577956795BA95C9F7009761056A
:103B0000710508959B01AC010A2E069457954795BF
:103B100037952795BA95C9F7620F731F841F951FB4
:103B2000A01D0895F999FECF92BD81BDF89A9927FD
:103B300080B50895262FF999FECF1FBA92BD81BD99
:103B400020BD0FB6F894FA9AF99A0FBE019608951F
:103B5000052E97FB1EF400940E94BF1D57FD07D051
:103B60000E94411707FC03D04EF40C94BF1D5095E2
:103B70004095309521953F4F4F4F5F4F0895909559
:103B80008095709561957F4F8F4F9F4F0895B7FF38
:103B90000C9478170E947817821B930B0895F89461
:103BA000FFCF9109750949093F094609EF09E40961
:103BB0002912AA10AA102612C911C511C111BD11CE
:063BC000CC1190116D1103
:103BC6000000000200000000E000000000005201BA
:103BD600AA2C082908280800001D02200001000060
:103BE6000064616E63655F74696D653A20256C6477
:103BF6000A0069207761732064616E63696E673AB3
:103C060020256C640A006379636C653A2025640A92
:023C16000000AC
:00000001FF
