:100000000C94B5000C94DE000C94DE000C94DE0021
:100010000C94DE000C94DE000C9473090C94DE004A
:100020000C94DE000C94DE000C94DE000C94A710FF
:100030000C94DE000C94DE000C9406100C94DE0090
:100040000C94DE000C94DE000C94DE000C94DE00B8
:100050000C94DE000C94DE000C94DE000C94C710AF
:100060000C94DE000C94DE006E616E00696E66001A
:1000700000407A10F35A00A0724E18090010A5D45F
:10008000E80000E87648170000E40B54020000CABC
:100090009A3B000000E1F505000080969800000002
:1000A00040420F000000A086010000001027000061
:1000B0000000E803000000006400000000000A00E7
:1000C000000000000100000000002C76D888DC67EA
:1000D0004F0823DFC1DFAE59E1B1B796E5E3E45342
:1000E000C63AE651997696E8E6C28426EB898C9B5F
:1000F00062ED407C6FFCEFBC9C9F40F2BAA56FA5FF
:10010000F490055A2AF75C936B6CF9676DC11BFC80
:10011000E0E40D47FEF520E6B500D0ED902E03009B
:10012000943577050080841E080000204E0A0000E8
:1001300000C80C333333330F986E12831141EF8DA7
:100140002114893BE65516CFFEE6DB18D1844B38E7
:100150001BF77C1D901DA4BBE424203284725E2218
:100160008100C9F124ECA1E53D2711241FBECFEF8A
:10017000D8E0DEBFCDBF14BE0FB6F894A89580912D
:100180006000886180936000109260000FBE11E0F3
:10019000A0E0B1E0EAE5FCE302C005900D92A431D5
:1001A000B107D9F721E0A4E1B1E001C01D92A13F60
:1001B000B207E1F70E9474170C94191E0C9400000A
:1001C00080910001909101010895CF93DF93DC01AC
:1001D000E0910001F0910101EB01488159816A81B0
:1001E0007B81458756876787708B81E0848711966E
:1001F0004C91119750E070E060E047AB50AF61AFB9
:1002000072AF12964C91129750E070E060E043AFED
:1002100054AF65AF76AFEF01EF9613964C911397FD
:1002200050E070E060E0488359836A837B83EA583A
:10023000FF4F14968C918083DF91CF910895CF93D7
:10024000DF9300D000D000D0CDB7DEB78091C701DA
:10025000815C0E94FC0B20910001309101013A83E6
:1002600029838091C7019091C801B0E0A0E0F90115
:10027000868F978FA0A3B1A380EA90E00E94C01A56
:10028000FC01A981BA81A95ABF4F8D939C93A98182
:10029000BA81A95BBF4F1D921D921D921C921397AC
:1002A000A981BA81AD5ABF4F1D921D921D921C9219
:1002B0001397A981BA81AD5BBF4F1D921D921D920C
:1002C0001C921397A981BA81DB961D921D921D92F3
:1002D0001C92DE97A75ABF4F1D921D921D921C9231
:1002E0001397A981BA81A35ABF4F1D921D921D92E7
:1002F0001C921397A981BA81AB59BF4F1D921D92D1
:100300001D921C92139780EADF011D928A95E9F7EE
:10031000E981FA8112A213A214A215A2DF0113AA85
:1003200014AA15AA16AA16A617A610AA11AAEF585B
:10033000FF4F108211821282138296961D921D9297
:100340001D921C929997FD0112A613A614A615A63C
:10035000E55BFF4F10821182128213823496108265
:1003600011821282138253961D921D921D921C922D
:10037000569757961C92579784EB58968C9388E71C
:1003800090E0A0E0B0E0E981FA81818F928FA38FA5
:10039000B48F0E94E50B20910001309101013E8352
:1003A0002D83282F30E050E040E029833A834B83AF
:1003B0005C83AD81BE8159962D913D914D915C91AB
:1003C0005C9769817A818B819C810E949F176983E8
:1003D0007A838B839C83DC01CB010196A11DB11D27
:1003E000ED81FE81838B948BA58BB68BEB58FF4FF1
:1003F0001082ED81FE81EA58FF4F1082ED81FE816F
:10040000EF58FF4F1082118212821382ED81FE811C
:10041000868D978DA0A1B1A182319105A105B1056D
:10042000B9F14497A105B10599F1858D813029F184
:10043000F091C301FD832091C40129832223C1F1DE
:100440009091B30081E0911180E081953D8131115F
:1004500037C0882341F060E08FEF0E94EC0A8FE004
:1004600090E00E94DF0A6D8189810E94EC0AE09190
:100470000001F091010181E0858F80E026960FB6A2
:10048000F894DEBF0FBECDBFDF91CF910C948310E7
:10049000AD81BE815D968C91882379F360E080E028
:1004A0000E94EC0AE0910001F0910101158EE5CF68
:1004B000FF23C9F28091B4008111D5CF6FEFCDCF6A
:1004C0009091B4009923D1F3882369F28FEF60E013
:1004D000C4CFCF93DF93C82FD62F811113C06623CB
:1004E00059F08091B400811107C06FEF0E94EC0AAF
:1004F0008FE090E00E94DF0A6D2F8C2FDF91CF916B
:100500000C94EC0A9091B30081E0911111C0819597
:10051000DD2349F09091B400992339F3882361F3E6
:100520008FEF60E0E3CF882339F360E08FEFDECF19
:1005300080E08195D111EECFF6CF1F93CF93DF935B
:10054000C82FE0910001F0910101858D8C1779F0A1
:10055000C230A1F1C330F1F0C13069F060E080E059
:100560000E94EC0AE0910001F0910101C58FDF913A
:10057000CF911F9108951091C301D091C401D11161
:1005800032C0112309F441C08091B40081113DC0F3
:100590006FEF35C0D091C501DD2359F08091B400D3
:1005A000811107C06FEF0E94EC0A8FE090E00E947B
:1005B000DF0A6D2F80E00E94EC0AD4CFD091C601F3
:1005C000DD2361F08091B300811108C060E08FEFFE
:1005D0000E94EC0A8FE090E00E94DF0A60E08D2F1D
:1005E0000E94EC0ABFCF9091B30081E0911180E0AE
:1005F000819511110FC0882341F060E08FEF0E94B8
:10060000EC0A8FE090E00E94DF0A612F8D2F0E949C
:10061000EC0AA8CF9091B400992309F4B9CF8823AC
:10062000A1F38FEF60E0EBCF0F931F93E0910001F8
:10063000F0910101858D8130F9F09EEF980F923095
:1006400008F06FC04091C9015091CA016091CB017F
:100650007091CC01278983899489A589B689820FF5
:10066000911DA11DB11D84179507A607B70708F4B2
:1006700067C01F910F9108954091C9015091CA011F
:100680006091CB017091CC0183899489A589B68949
:10069000018D128D238D348D800F911FA21FB31FEA
:1006A00084179507A607B70720F78091C901909195
:1006B000CA01A091CB01B091CC01838B948BA58B07
:1006C000B68B0E94E50BE0910001F091010180FFE3
:1006D00070C0858D8230D1F01091C601112361F078
:1006E0008091B300811108C060E08FEF0E94EC0A96
:1006F0008FE090E00E94DF0A60E0812F0E94EC0A08
:10070000E0910001F091010182E0858F0E94E50BEC
:10071000E0910001F091010180FD69C08AE5878BBD
:10072000A8CF882309F4A5CF60E080E00E94EC0AFE
:10073000E0910001F0910101158E1F910F91089534
:100740008091C9019091CA01A091CB01B091CC01D7
:10075000838B948BA58BB68B0091C3011091C40140
:10076000111108C00023C1F08091B400811114C0A0
:100770006FEF0CC09091B30081E0911180E0819502
:10078000011138C0882341F060E08FEF0E94EC0A2D
:100790008FE090E00E94DF0A602F812F0E94EC0A18
:1007A000E0910001F091010181E0858F1F910F918F
:1007B0000895858D833009F4A9CF1091C5011123C7
:1007C00059F08091B400811107C06FEF0E94EC0ACC
:1007D0008FE090E00E94DF0A612F80E00E94EC0A27
:1007E000E0910001F091010183E0858F8FCF84EBD0
:1007F000878B3FCF9091B400992309F4B9CF882318
:1008000059F28FEF60E0C2CFCF93DF93C091000128
:10081000D09101018E8D89838AA18A838BA98B83D4
:10082000FE01EB58FF4F80818C83CE010E94D012D5
:100830009B878A87DF91CF910895E0910001F09125
:100840000101DF01A95BBF4F1D921D921D921C92F9
:1008500013971C961D921D921D921C9213975097F0
:100860001D921D921D921C92139713AE14AE15AEDD
:1008700016AE56961D921D921D921C9213971496B9
:100880001D921D921D921C92139718961D921D92F7
:100890001D921C92139712A613A614A615A6E95A28
:1008A000FF4F0190F081E02D80EADF011D928A95D3
:1008B000E9F70895CF93DF93E0910001F0910101F2
:1008C000DF01A95ABF4F87A990AD880F991F880FE4
:1008D000991F0D90BC91A02DA80FB91F4D915D914E
:1008E0006D917C911397452B462B472B89F541E061
:1008F00050E060E070E04D935D936D937C931397AF
:10090000EF01CD5BDF4F88819981AA81BB81019680
:10091000A11DB11D88839983AA83BB8383AD94AD48
:10092000A5ADB6AD81309105A105B105A1F0029745
:10093000A105B10569F4ED5AFF4F80819181A28133
:10094000B3810196A11DB11D80839183A283B383DE
:10095000DF91CF910895E95BFF4F80819181A28162
:10096000B3810196A11DB11D80839183A283B383BE
:10097000DF91CF9108954F925F926F927F92AF92E5
:10098000BF92CF92DF92EF92FF920F931F93CF937C
:10099000DF9300D000D000D0CDB7DEB720910001AA
:1009A000309101013E832D83F90186A197A1A0A575
:1009B000B1A50197A105B10509F421C1ED5BFF4F78
:1009C000C080D180E280F380F901C114D104E10438
:1009D000F10409F0BAC0E55BFF4F10821182128268
:1009E000138224E030E040E050E084E0A82EB12CF7
:1009F00000E010E0ED81FE81E15BFF4FC082D1821B
:100A0000E282F382ED81FE81E75AFF4FA082B1823C
:100A100002831383AD81BE81A35ABF4F2C931196DD
:100A20003C93119712964C93129713965C930E94E5
:100A3000E50BA0900001B090010199E2899F912DF2
:100A4000112492959F70B4E69B9F8019112490E029
:100A5000B0E0A0E0A5014B595F4FFA01808391837C
:100A6000A283B3834C505109FA01C080D180E28047
:100A7000F3808C159D05AE05BF0508F4D1C0A50116
:100A8000435A5F4FFA0140815181628173814C0D5D
:100A90005D1D6E1D7F1DC816D906EA06FB06D0F542
:100AA000481759076A077B07A8F182E090E0A0E0A9
:100AB000B0E0F50182A393A3A4A3B5A384E00E94B0
:100AC0008310A0900001B090010181E496E0A0E0C5
:100AD000B0E0F50186A797A7A0ABB1ABD501AB59A4
:100AE000BF4F8D919D910D90BC91A02D9501275ADE
:100AF0003F4F8501035A1F4FF901408151816281A7
:100B00007381F8010081118122813381400F511FCF
:100B1000621F731F481759076A077B0708F4A9C0AB
:100B200026960FB6F894DEBF0FBECDBFDF91CF91F2
:100B30001F910F91FF90EF90DF90CF90BF90AF90FB
:100B40007F906F905F904F900895E95BFF4F2081F9
:100B5000318142815381A4E6B0E00E94D617A701FB
:100B600096010E949F1729013A01ED81FE81E55B04
:100B7000FF4F4082518262827382ED81FE81ED5A85
:100B8000FF4F2081318142815381A4E6B0E00E9471
:100B9000D617A70196010E949F1769017A01ACE35D
:100BA000B0E0A30192010E94D6179B01AC0120572F
:100BB0003E4F4F4F5F4F94E6492E512C612C712CC4
:100BC000CA01B901A30192010E949F1759018A012C
:100BD000ACE3B0E0A70196010E94D617DC01CB017F
:100BE00080579E4FAF4FBF4F89839A83AB83BC839F
:100BF000BC01CD01A30192010E949F17FBCE12A25E
:100C000013A214A215A213AA14AA15AA16AA12A610
:100C100013A614A615A616A217A210A611A680CF79
:100C200081E090E0A0E0B0E0F50182A393A3A4A34B
:100C3000B5A30E948310A0900001B090010181E94A
:100C400091E0A0E0B0E0F50186A797A7A0ABB1AB1B
:100C5000D501AB59BF4F8D919D910D90BC91A02DA9
:100C6000A501475A5F4FFA01C080D180E280F3802E
:100C700006CFD50192961D921D921D921C929597BA
:100C800080E10E948310E0910001F091010116A61D
:100C900017A610AA11AA12A613A614A615A640CF2D
:100CA000CF92DF92EF92FF920F931F93CF93DF9338
:100CB00000D000D000D0CDB7DEB720910001309138
:100CC00001013E832D83F901868D978DA0A1B1A1ED
:100CD00082319105A105B10521F04497A105B10527
:100CE000C9F5AD81BE811C968C911C97813009F4A9
:100CF00041C0FD01468D578D60A171A1C2A0D3A056
:100D0000E4A0F5A0EB58FF4F808111964C9311970A
:100D10001296CC921297D3969C91D39713969C934C
:100D2000139714968C931497CD010E94D012ED81E5
:100D3000FE819387828726960FB6F894DEBF0FBE9A
:100D4000CDBFDF91CF911F910F91FF90EF90DF907A
:100D5000CF9008950E941403209100013091010169
:100D60003E832D83AD81BE811C968C911C97813072
:100D700009F0BFCF1C961C920E945A04ED81FE819F
:100D8000EA58FF4F80810D811E810B581F4FF801DB
:100D90009081981708F054C08083AD81BE815E9623
:100DA0004D915D916D917C9191979296CD90DD9052
:100DB000ED90FC909597423151056105710509F45C
:100DC000A4CF443151056105710509F49ECFC114CA
:100DD000D104E104F10409F443C0FD0182A593A507
:100DE000A4A5B5A59C01AD012F5F3F4F4F4F5F4FAD
:100DF00022A733A744A755A7CA01B901A7019601A5
:100E00000E949F1769837A838B839C83D701C601D5
:100E10000197A109B10929813A814B815C81281789
:100E200039074A075B0709F479C0AD81BE815E9638
:100E30004D915D916D917C919197F801808165CF85
:100E4000AD81BE815E964D915D916D917C91919742
:100E50009296CD90DD90ED90FC909597892F55CF8F
:100E60000E94BB04E0910001F0910101FE83ED833B
:100E7000E95BFF4F1082118212821382ED81FE81A5
:100E8000ED5AFF4F1082118212821382ED81FE8192
:100E9000ED5BFF4F1082118212821382AD81BE8101
:100EA000DB961D921D921D921C92DE97FD01E75A62
:100EB000FF4F1082118212821382349610821182A7
:100EC0001282138238961082118212821382FD01DF
:100ED00012A613A614A615A6E95AFF4F0190F08199
:100EE000E02D80EADF011D928A95E9F7AD81BE8190
:100EF0009A962D913D914D915C919D9729833A83CE
:100F00004B835C839296CD90DD90ED90FC9095970D
:100F10008D010B581F4FCA01B90170CFAD81BE8141
:100F200092961D921D921D921C92959781E090E0E1
:100F3000A0E0B0E0ED81FE8186A397A3A0A7B1A7B2
:100F4000E95BFF4F1082118212821382ED81FE81D4
:100F5000ED5AFF4F1082118212821382ED81FE81C1
:100F6000ED5BFF4F1082118212821382AD81BE8130
:100F7000DB961D921D921D921C92DE97FD01E75A91
:100F8000FF4F1082118212821382349610821182D6
:100F90001282138238961082118212821382FD010E
:100FA00012A613A614A615A6E95AFF4F0190F081C8
:100FB000E02D80EADF011D928A95E9F7ED81FE813F
:100FC000468D578D60A171A1C2A0D3A0E4A0F5A069
:100FD000D8018C91DF0199CE8F929F92AF92BF92F0
:100FE000EF92FF920F931F93CF93DF93CDB7DEB7AE
:100FF00062970FB6F894DEBF0FBECDBF4B015C0108
:101000008D829E82AF82B886C901DA0189879A876C
:10101000AB87BC870D871E872D813E814F81588508
:10102000CA01B9010E94F8195B018C0129853A8532
:101030004B855C85CA01B9010E94F8199B01AC017E
:10104000A982BA820B831C8369817A818B819C81FE
:101050000E942D1869837A838B839C8369817A81AE
:101060008B819C810E946B1A8B015C0120E030E037
:1010700048EC53E469831A838B83BC8269817A814B
:101080008B819C810E94991887FD42C08D819E8131
:10109000AF81B885B0588D839E83AF83B8879801A0
:1010A000A501BC01CD010E949E186F87788B898BAA
:1010B0009A8BAD85BE856D937D938D939C9313978D
:1010C00089859A85AB85BC85B05889879A87AB8717
:1010D000BC879801A501BC01CD010E949E18D701D3
:1010E0006D937D938D939C93139781E090E062962E
:1010F0000FB6F894DEBF0FBECDBFDF91CF911F9129
:101100000F91FF90EF90BF90AF909F908F900895B8
:1011100090E080E0ECCF089590E080E0089508959D
:10112000BF92CF92DF92EF92FF920F931F93CF93D4
:10113000DF93F89414B817B81AB815B818B81BB8D4
:10114000529A5A9A14BC85E085BD8FEF87BD82E024
:1011500080936E0010928000109281002FE83BE097
:10116000309389002093880080936F0053982398D0
:1011700091EA9093B0008093B1001092B400109265
:10118000B3008BE080BF83E080937F0086E0809394
:101190007C0083E880937A0080917A008064809359
:1011A0007A0080917A0086FDFCCF10927C0083EA61
:1011B00080937A0081E080937B0081E090E00E9440
:1011C000DC1D8F3F11F0809366001092D801C1E0C2
:1011D000C093D701C093D6011092D5011092D401CB
:1011E00080E990E00E94DC1D8093D3018091D301BF
:1011F000887311F0C093D3011092D0011092CF01E7
:101200008FEF90E09093CE018093CD011092C901B1
:101210001092CA011092CB011092CC0181E0809310
:10122000EC0182E49FE09093D2018093D10180EBA6
:1012300090E00E94DC1DC82F81EB90E00E94DC1D35
:10124000D82FD093C801C093C70185E090E00E94D9
:10125000DC1D8093C60189E090E00E94DC1D809334
:10126000C5018CE090E00E94DC1D8093C40184E104
:1012700090E00E94DC1D8093C3010BE811E087EA37
:10128000E82E81E0F82E97EAC92E91E0D92EC0E22F
:10129000D0E0CE010E94DC1DB82ECE0101960E9446
:1012A000DC1D9B2DF801819391938F01CE01C09697
:1012B0000E94DC1DB82ECE01C1960E94DC1D9B2D24
:1012C000F701819391937F012296C016D10609F709
:1012D0007894DF91CF911F910F91FF90EF90DF9065
:1012E000CF90BF9008950F920FB60F921F921124C6
:1012F0008F930FB6F894A8958091600088618093D1
:101300006000109260000FBE8F911F900F900FBE73
:101310000F9018953C01EB0110E099249A9484E019
:10132000C82E96E0A92E23E8B22E38E1D32E49E24A
:10133000E42EE091EC01E730E0F7F0E0E55EF14EFD
:101340000C94C117111102C0F3010995C092EC0170
:1013500011E0FE010995EDCF8091D801811103C103
:10136000F894A0927C00B0927A0080917A00806418
:1013700080937A0080917A0086FDFCCF809178007E
:101380009091790078948B3AE2E09E070CF0E4C0EB
:101390008938F2E09F070CF0EDC0873692400CF4DC
:1013A000E2C0559A549A3B9A3A9A3D983C98C1CFDC
:1013B000559854983B9A3A9A3D983C98EFECF7E050
:1013C0003197F1F700C00000559854983B983A982F
:1013D0003D983C98FFEF21EE84E0F15020408040A2
:1013E000E1F700C00000A5CFF89480B7877F80BFE9
:1013F00080917A008F7780937A0014B817B81AB862
:1014000015B818B81BB80FB6F894A895D09260001C
:101410000FBEE09260008091600080648093600065
:1014200083B7817F846083BFF89483B7816083BF73
:101430007894889583B78E7F83BF78941092D80173
:10144000529A5A9A80917A00806880937A0087E550
:1014500092E00197F1F700C0000080B7886180BF7B
:10146000559A549A3B9A3A9A3D9A3C9AEFE1FEE497
:101470003197F1F700C000008091D80181115CC064
:10148000559854983B983A983D983C9852CF809103
:10149000EA01811125C01092B3001092B40010929D
:1014A000EB0147CF4899ECCF559A54983B983A981E
:1014B0003D983C988FEC97E00197F1F700C0000051
:1014C000559854983B983A983D983C989FEFE1EE98
:1014D000F4E09150E040F040E1F700C0000029CF77
:1014E0009091EA018091EB01981709F422CF809145
:1014F000EA018093EB018091EA01813009F441C057
:101500008091EA011092B3009092B400823009F405
:1015100049C09092B3009092B4008FE295E7019792
:10152000F1F700C000008091C3019091C401909335
:10153000B3008093B400FDCE559A549A3B983A98E4
:101540003D983C98FFEF20E782E0F150204080403A
:10155000E1F700C0000094CF559854983B9A3A9A0E
:101560003D983C98E6CE559A549A3B983A983D98C7
:101570003C98DFCE559854983B983A983D9A3C9ABF
:10158000D8CE9092B3001092B4008FE295E7019705
:10159000F1F700C000008091C6018093B300109263
:1015A000B400C7CEEFE2F5E73197F1F700C00000D5
:1015B0008091C5011092B3008093B400BACE9C0113
:1015C000892B49F08FEC97E00197F1F700C00000FC
:1015D00021503109B9F708958093B3006093B400A6
:1015E00008958FEF8093B3008093B4008FEC97E061
:1015F0000197F1F700C000008FEC97E00197F1F739
:1016000000C000008FEC97E00197F1F700C00000E8
:101610008FEC97E00197F1F700C000008FEC97E0A6
:101620000197F1F700C000008FEC97E00197F1F708
:1016300000C000008FEC97E00197F1F700C00000B8
:101640008FEC97E00197F1F700C000008FEC97E076
:101650000197F1F700C000008FEC97E00197F1F7D8
:1016600000C000008FEC97E00197F1F700C0000088
:101670008FEC97E00197F1F700C000008FEC97E046
:101680000197F1F700C000008FEC97E00197F1F7A8
:1016900000C000008FEC97E00197F1F700C0000058
:1016A00008958091D80181111EC0F89487E080933D
:1016B0007C0083E880937A0080917A008064809334
:1016C0007A0080917A0086FDFCCF8091780090911D
:1016D000790010927C0023EA20937A0021E0209385
:1016E0007B00789408958FEF9FEF08958091D80143
:1016F00081111EC0F89488EC80937C0087E8809369
:101700007A0080917A00806480937A0080917A00D8
:1017100086FDFCCF809178009091790010927C003A
:1017200023EA20937A0021E020937B0078940895A7
:101730008FEF9FEF08951F93CF93DF93F0E0E0E0EA
:1017400080E016E0D3E8C3EA71E0A1E0B0E060E831
:10175000F89410937C00D0937A0090917A00906472
:1017600090937A0090917A0096FDFCCF20917800BA
:1017700030917900217090917A00906490937A0072
:1017800090917A0096FDFCCF4091780050917900BD
:1017900010927C00C0937A0070937B007894417023
:1017A000241302C06150A1F6222339F09D010E2EB0
:1017B00001C0220F0A94EAF7822B3196E830F10536
:1017C00031F6DF91CF911F91089580910201982FFA
:1017D000990F990F990F98278091E90121E0280F1F
:1017E0002093E9018695869589279295969597701D
:1017F00089278093020108958093020108958091C2
:10180000D801811116C0F89486E080937C0083E8AB
:1018100080937A0080917A00806480937A0080912E
:101820007A0086FDFCCF80917800909179007894C1
:1018300008958FEF9FEF08952F923F924F925F92FE
:101840006F927F928F929F92AF92BF92CF92DF92D0
:10185000EF92FF920F931F93CF93DF93CDB7DEB735
:1018600028970FB6F894DEBF0FBECDBF7C01DC0118
:1018700012960D90BC91A02DB887AF83A438E3E0F9
:10188000BE070CF477C0DC01ED90FC9080918B01D9
:1018900090918C01DD24DA948E159F0508F43BC2EB
:1018A00000918D0110918E010E151F0508F44AC399
:1018B00000918F01109190010E151F0508F447C388
:1018C00000919101109192010E151F0508F444C377
:1018D00000919301109194010E151F0508F441C366
:1018E00000919501109196010E151F0508F43EC355
:1018F00000919701109198010E151F0508F43BC344
:101900000091990110919A010E151F0508F43CC32E
:1019100000919B0110919C010E151F0508F43DC319
:1019200000919D0110919E010E151F0508F446C2FD
:1019300000919F011091A0010E151F0508F436C3F8
:101940000091A1011091A2010E151F0508F437C3E3
:101950000091A3011091A4010E151F0508F438C3CE
:101960000091A5011091A6010E151F0508F439C3B9
:101970001AE520C18091A7019091A8018A179B07C1
:1019800008F4B1C10091A9011091AA010A171B071F
:1019900008F4DBC10091AB011091AC010A171B07E1
:1019A00008F4EEC20091AD011091AE010A171B07B9
:1019B00008F4EFC20091AF011091B0010A171B07A4
:1019C00008F4F8C10091B1011091B2010A171B0788
:1019D00008F4E8C20091B3011091B4010A171B0783
:1019E00008F4E9C20091B5011091B6010A171B076E
:1019F00008F4EAC20091B7011091B8010A171B0759
:101A000008F4EBC20091B9011091BA010A171B0743
:101A100008F4ECC20091BB011091BC010A171B072E
:101A200008F4E8C20091BD011091BE010A171B071E
:101A300008F4E4C20091BF011091C0010A171B070E
:101A400008F4E0C20091C1011091C2018DE02DE0C7
:101A500030E00A171B0708F47BC1412C512C30EDF4
:101A60003D8340E44E832CE0C22ED12CF601EE0FD4
:101A7000FF1FE955FE4F80819181D801A81BB90B4A
:101A80009D0150E040E029833A834B835C83CA0187
:101A9000BD010E9446199B01AC0169837A838B8347
:101AA0009C8369817A818B819C810E942D185B01C6
:101AB0006C018F819885092E000CAA0BBB0B8983C2
:101AC0009A83AB83BC83BC01CD010E9448193B01C2
:101AD0004C01980150E040E029833A834B835C83BA
:101AE000CA01B8010E9446191B018C0192014D8167
:101AF0005E81A982BA82CB82DC8269817A818B8104
:101B00009C810E94F8199B01AC0129823A820B83C7
:101B10001C8369817A818B819C810E942C189B0196
:101B2000AC0169827A828B829C8269817A818B8105
:101B30009C810E942C1820E030E040E251E469834F
:101B40007A838B839C8369817A818B819C810E94BB
:101B5000F81969837A838B839C8369817A818B816D
:101B60009C810E9410198B01A982BA82CB82DC82EF
:101B700069817A818B819C810E94101969837A83A3
:101B80008B839C83C80169817A810E948B17D62E32
:101B90004F8158854D3B52400CF409C1D701ED905F
:101BA000FC9080918B0190918C018E159F0508F01F
:101BB00077CE10E0BFEF81E2810FDB1609F4ACC0F5
:101BC0002D2D30E050E040E029833A834B835C8345
:101BD000CA01B9010E9446196B017C01812F90E076
:101BE000B0E0A0E089839A83AB83BC83BC01CD01C4
:101BF0000E9446194B015C012F813885032E000C91
:101C0000440B550B29833A834B835C83CA01B9018A
:101C10000E9448198B018E839D839B01AC0160E07B
:101C200070E081E694E40E942C189601A701698374
:101C30007A838B839C8369817A818B819C810E94CA
:101C4000F8196B017C0120E030E04FE254E4098395
:101C50001A838E818B839D819C8369817A818B819C
:101C60009C810E942C189401A50169837A838B833F
:101C70009C8369817A818B819C810E94F8199B01E8
:101C8000AC01C982DA82EB82FC8269817A818B8124
:101C90009C810E942D1820E030E048E453E46983E1
:101CA0007A838B839C8369817A818B819C810E945A
:101CB0009E1820E030E044E052E469837A838B830D
:101CC0009C8369817A818B819C810E942D18698314
:101CD0007A838B839C8369817A818B819C810E942A
:101CE0001719862F19C0AD3BB240ACF0D701ED906B
:101CF000FC9080918B0190918C01D12C8E159F05C9
:101D000008F0CECD812C912CA12CB12CC12CD12C42
:101D1000E12CF12C71CF81E228960FB6F894DEBF4A
:101D20000FBECDBFDF91CF911F910F91FF90EF902C
:101D3000DF90CF90BF90AF909F908F907F906F90EB
:101D40005F904F903F902F90089581E021E030E028
:101D50006901F1E0CF1AD108282F30E050E040E0CF
:101D600029833A834B835C83CA01B9010E944619D7
:101D700020E030E040E05FE369837A838B839C83DB
:101D800069817A818B819C810E94F81920E030E082
:101D9000A90169837A838B839C8369817A818B8192
:101DA0009C810E942D182B018D839E835FCE81E242
:101DB000860FB2CF84E024E030E0CACF59E0652E30
:101DC000E9E0F0E0EE0FFF1FE757FE4F80819181C1
:101DD000D801A81BB90B9D0150E040E029833A834C
:101DE0004B835C83CA01BD010E9446199B01AC0173
:101DF00069837A838B839C8369817A818B819C81BF
:101E00000E942D18962EA72EB82EC92EC701FF0CA2
:101E1000AA0BBB0B89839A83AB83BC83BC01CD0126
:101E20000E944819762E872E7C01980150E040E0F0
:101E300029833A834B835C83CA01B8010E94461907
:101E40002B018C01862D90E0B0E0A0E089839A837D
:101E5000AB83BC83BC01CD010E94461920E030E079
:101E600040E05FE369837A838B839C8369817A8115
:101E70008B819C810E94F81920E030E0A9016983E0
:101E80007A838B839C8369817A818B819C810E9478
:101E90002D18292D3A2D4B2D5C2D69837A838B8348
:101EA0009C8369817A818B819C810E94F8199B01B6
:101EB000AC0149825A820B831C8369817A818B81B0
:101EC0009C810E942C189B01AC0179828A82EB8252
:101ED000FC8269817A818B819C810E942C1820E090
:101EE00030E040E251E469837A838B839C8369818B
:101EF0007A818B819C810E94F81969837A838B8314
:101F00009C8369817A818B819C810E9410198B014D
:101F10009982AA82BB82CC8269817A818B819C81E1
:101F20000E94101969837A838B839C83C80169811D
:101F30007A810E948B17162F6F3F09F03BCE81E20A
:101F40008D0DEACE66246394E1E0F0E03BCF82E0C1
:101F5000682EE2E0F0E036CFB3E06B2EE3E0F0E095
:101F600031CFA4E06A2EE4E0F0E02CCFF5E06F2E54
:101F7000E5E0F0E027CFE6E06E2EE6E0F0E022CFED
:101F800082E022E030E0E4CE77E0672EE7E0F0E0A8
:101F900019CF83E023E030E0DBCE68E0662EE8E096
:101FA000F0E010CF85E025E030E0D2CE4AE0642EAC
:101FB000EAE0F0E007CF86E026E030E0C9CE3BE083
:101FC000632EEBE0F0E0FECE87E027E030E0C0CE0D
:101FD0002CE0622EECE0F0E0F5CE88E028E030E086
:101FE000B7CE9DE0692EEDE0F0E0ECCE89E029E08F
:101FF00030E0AECE8AE02AE030E0AACE8BE02BE0E3
:1020000030E0A6CE8CE02CE030E0A2CE1F920F9202
:102010000FB60F9211242F933F934F935F936F93BB
:102020007F938F939F93AF93BF93EF93FF93809191
:10203000CF019091D0012091CD013091CE01820F3E
:10204000931F9093D0018093CF018FEF90E09093F6
:10205000CE018093CD018FEF87BD8091C901909112
:10206000CA01A091CB01B091CC010196A11DB11D77
:102070008093C9019093CA01A093CB01B093CC0186
:102080008091D80181110FC08091D1019091D2012E
:102090002091CF013091D0018217930720F48091D5
:1020A000EC01843089F0FF91EF91BF91AF919F9146
:1020B0008F917F916F915F914F913F912F910F90F1
:1020C0000FBE0F901F901895E0910501F091060149
:1020D0000995009741F30E948813882351F0E091FD
:1020E0000301F091040109951092D0011092CF01E3
:1020F000DACF0E94501C9C0199279093CE018093C7
:10210000CD0127BDD0CF80FF11C0559A81FF11C0EE
:10211000549A82FF11C03B9A83FF11C03A9A84FF00
:1021200011C03D9A85FF11C03C9A0895559881FDD4
:10213000EFCF549882FDEFCF3B9883FDEFCF3A98D5
:1021400084FDEFCF3D9885FDEFCF3C9808951F9219
:102150001FB61F9211248F939F93109281001092AB
:1021600085001092840081E08093D7018093D6018E
:102170001092D80110927C0093EA90937A00809399
:102180007B009F918F911F901FBE1F9018951F92EB
:102190000F920FB60F9211240F931F932F933F931B
:1021A0004F935F936F937F938F939F93AF93BF935F
:1021B000EF93FF93CF93DF9300D000D0CDB7DEB77E
:1021C000209184003091850041E04093D8018091B6
:1021D000D7018823D9F11092850010928400409392
:1021E00081001092D4011092D7018091D6018823EA
:1021F000A1F080917A0086FDFCCF809178009091CB
:1022000079009093DC018093DB0181E080937C0076
:1022100093EA90937A0080937B000F900F900F9039
:102220000F90DF91CF91FF91EF91BF91AF919F916F
:102230008F917F916F915F914F913F912F911F915E
:102240000F910F900FBE0F901F901895C9018758DE
:10225000910984379940A0F0109281001092850076
:10226000109284004093D7014093D6011092D80178
:1022700010927C0083EA80937A0040937B00CDCF5C
:1022800026583109A4EFB0E00E94C71769837A830A
:102290008B839C83AA27BB271B81183008F465C059
:1022A0004093D7018091D60181113CC08091D50126
:1022B000E82FF0E0E352FE4F9091D40190838F5FBE
:1022C0008093D5018C3009F0A8CF10928100109234
:1022D0008500109284004093D6011092D80100919D
:1022E000E7011091E8018DED91E00E94D0120817EE
:1022F000190709F092CFE091E601E7FF47C098E7A0
:102300009E0F933030F0539823981092B40010929F
:10231000B300E058EB3008F080CFF0E0EE5DF14E16
:102320000C94C11780917A0086FDFCCF80917800D3
:10233000909179009093DA018093D90110927C00FA
:1023400083EA80937A0081E080937B009091D401AE
:102350009923B9F0109281001092850010928400A8
:102360008093D6011092D80158CF21E030E001C00F
:10237000220F8A95EAF78091D401822B8093D401B1
:102380004CCF1092D6011092D50147CFE0910701B2
:10239000F091080169ED71E08DED91E009953DCF77
:1023A0008091DD01823009F485C008F06CC088237B
:1023B00009F4BEC08091DE019091DF019093C801C5
:1023C0008093C7011092EA018091EC01863009F4F4
:1023D00024CF539A239A1092B4001092B30086E04F
:1023E0008093EC011ACF8091EC01863099F0539ADA
:1023F000239A1092B4001092B300559854983B98C9
:102400003A983D983C981092EA011092EB0186E0D0
:102410008093EC012091DD0181E090E002C0880F03
:10242000991F2A95E2F72091C7013091C8018223B4
:102430009323892B09F479C081E08093EA01EDCEE2
:1024400082E08093EC01E9CE85E08093EC01E5CE5B
:1024500081E08093EC01E1CE1092EC01DECE809120
:10246000EC01833009F4D9CE8091EC01843009F479
:10247000D4CE539A239A1092B4001092B30083E002
:102480008093EC01CACE833061F1843009F09CCF97
:102490002091EA018091E3019091E2012330C1F0A3
:1024A0001092EB0123E02093EA019093C401809302
:1024B000C3018ACF9091EA018091E0019130F9F057
:1024C0001092EB0191E09093EA018093C6017CCFDA
:1024D0002091C3012813E4CF2091C4019213E0CFCF
:1024E00073CF9091EA018091E101923069F01092EE
:1024F000EB0192E09093EA018093C50165CF909142
:10250000C6019813DDCF60CF9091C5019813EFCF2E
:102510005BCFF0E0E0E0099580916E008D7F8093C5
:102520006E0016BCE0E0F0E709951092EA0175CE66
:102530008091EC01863009F070CE6091C70180EB8C
:1025400090E00E94E41D6091C80181EB90E00E9440
:10255000E41D6091C60185E090E00E94E41D609159
:10256000C50189E090E00E94E41D6091C4018CE007
:1025700090E00E94E41D6091C30184E190E00E941C
:10258000E41D539823981092B4001092B30081E098
:102590008093EC018091DD01882309F43ECE14CFB5
:1025A000FC0120818FEF9FEF8227082E8295807F8C
:1025B0008025092E982F82958F700826869598275A
:1025C0008927880F880F880F802521818227082E70
:1025D0008295807F8025092E982F82958F700826FE
:1025E000869598278927880F880F880F8025228154
:1025F0008227082E8295807F8025092E982F82952C
:102600008F700826869598278927880F880F880F4E
:10261000802523818227082E8295807F8025092EA0
:10262000982F82958F700826869598278927880F7E
:10263000880F880F802524818227082E8295807F2D
:102640008025092E982F82958F70082686959827C9
:102650008927880F880F880F802525818227082EDB
:102660008295807F8025092E982F82958F7008266D
:10267000869598278927880F880F880F80252681BF
:102680008227082E8295807F8025092E982F82959B
:102690008F700826869598278927880F880F880FBE
:1026A000802527818227082E8295807F8025092E0C
:1026B000982F82958F700826869598278927880FEE
:1026C000880F880F802520858227082E8295807F9D
:1026D0008025092E982F82958F7008268695982739
:1026E0008927880F880F880F802521858227082E4B
:1026F0008295807F8025092E982F82958F700826DD
:10270000869598278927880F880F880F8025089538
:102710000FB6F894A4B12091D3012A2B24B921E05B
:102720003091D301203029F0000025B1232B25B9A9
:1027300004C000000000000000C000000000000015
:10274000309525B1232325B92EEA2A95F1F72BEEF2
:1027500030B735FF0AC0A4B93091D301309525B107
:10276000232325B90FBE80E0089500002A9581F744
:1027700021E03091D301203029F0000025B1232B36
:1027800025B904C000000000000000C000000000E7
:102790000000309525B1232325B9000024E52A95B2
:1027A000F1F7FC018CE0619170E0660F771F6160CA
:1027B00072609AE041E050E09A0126233723232BF0
:1027C0003091D301203029F0000025B1232B25B909
:1027D00004C000000000000000C000000000000075
:1027E000309525B1232325B9000021E52A95F1F77D
:1027F000440F551F9A9501F78A95A9F620B72061D5
:1028000020BFA4B93091D301309525B1232325B938
:102810000FBE81E00895A3E1B0E0E1E1F4E10C94A2
:10282000E1177C011B015A01DC0117961C921E92D4
:10283000169713968C9181FF4DC3FE0131964F017F
:10284000D70113969C91F10193FD859193FF81919E
:102850001F01882309F4F1C2853239F493FD859173
:1028600093FF81911F01853239F4B70190E00E94F6
:102870004E1D65015601E4CF10E0712C612CBFE1C3
:10288000B61538F08B3211F190F4803209F18332B1
:1028900029F167FC3CC020ED280F2A3050F566FE78
:1028A00020C0EAE01E9F200D1124122F06C08D3299
:1028B00091F0803371F7689460F8F10193FD859190
:1028C00093FF81911F018111DACF21C0689461F8D3
:1028D000689462F8F2CF689463F8EFCF689464F874
:1028E000ECCFFAE07F9E200D1124722E689465F8DB
:1028F000E4CF8E3229F466FCA0C2689466F8DDCF7E
:102900008C3619F4689467F8D8CF8836B1F29BEB0F
:10291000980F933008F06FC0689464F8805E66FE8C
:1029200016E0262D2F73622E853609F06CC0689450
:1029300066F867FE72C0812F1C3308F08BE34424D5
:102940004394480E27E0D5014D915D916D917D91A5
:102950006D014C875D876E877F87042DA4016C8590
:102960007D858E859F850E94601C5C01B981BC8736
:10297000B0FF03C00DE2B3FF07C00BE261FC04C06F
:10298000062D047062FC00E2EC85EC705E2E09F40A
:1029900054C00111A2C2F3E0512CF715A0F483E05A
:1029A000572C581A63FC08C0B70180E290E00E94DF
:1029B0004E1D5A945110F8CF002329F0B701802FF3
:1029C00090E00E944E1DFC8508E610E0F3FD02C079
:1029D0000CE610E0262D2071622EF8018491811101
:1029E00023C0552009F446CFB70180E290E00E9451
:1029F0004E1D5A94F6CF9BE9980F933008F02DC1E5
:102A0000E89464F88CCF863619F4689467F891CF0F
:102A1000112309F48ECF11508CCF212F183010F0D4
:102A200027E017E0412C8FCF61108052B70190E072
:102A30000E944E1D0F5F1F4FD0CF67FE7AC04A0C19
:102A4000FC85F4FF04C08A81813309F44A9414148C
:102A50000CF092C028E0241510F488E0482E85E0A0
:102A600090E067FE06C0C501B7FE02C080E090E0BE
:102A7000019601110196112331F0212F30E02F5FD3
:102A80003F4F820F931F7816190619F014F0572C38
:102A9000581A862D897011F4511073C0002329F043
:102AA000B701802F90E00E944E1D63FC02C05110C0
:102AB0006FC067FE88C03501B7FE02C0712C612C63
:102AC000C50186199709A401480F591F598B488BD6
:102AD000B501641971097B8B6A8B012F10E0119588
:102AE00001951109A614B7040CF459C0AA89BB8931
:102AF000A615B7050CF053C0E889F9898181F1E08A
:102B00006F1A7108601671060CF44BC0B70190E0A3
:102B10000E944E1D2FEF6216720629F4B7018EE255
:102B200090E00E944E1D888999890196998B888B27
:102B3000D9CF66FC94CFE12FF0E0EA15FB053CF01D
:102B40003CEFA3163FEFB30614F0689467F8329693
:102B5000E80DF91D01C01150112319F08291803345
:102B6000D1F367FE7CCF44244394410E1A151B0415
:102B700031F02CF01A1973CF4424439470CF10E035
:102B80006ECFB70180E290E00E944E1D5A9484CF30
:102B9000B70180E390E00E944E1D5A9488CF80E3F5
:102BA000AECFA614B70441F49A81963350F495330E
:102BB00019F43C8534FF05C0B70190E00E944E1D1A
:102BC00010CF81E3F9CF8A81813319F04C854F7E94
:102BD0004C87B70190E00E944E1D112399F0B70178
:102BE0008EE290E00E944E1D1E5F02E0802F0F5F7C
:102BF000F401E80FF11D8081B70190E00E944E1DA5
:102C00001013F4CF85E664FC85E490E0B7010E94E0
:102C10004E1DB7FC06C0A114B104C1F45C8554FF7D
:102C200015C0B194A194B1088DE2B70190E00E9463
:102C30004E1D80E37AE0A716B10454F4B70190E08A
:102C40000E944E1DB701C501C096B8CF8BE2EDCFF3
:102C50008F5F6AE0A61AB108EDCF8336B9F08337EB
:102C600009F43AC0833509F04DC0D501AD90BD904F
:102C70006D01612F70E066FC02C06FEF7FEFC50150
:102C80000E94381D8C01689467F80CC0650182E0D1
:102C9000C80ED11CD5018C91898301E010E054014C
:102CA000E89467F863FC04C07016110609F018F583
:102CB000572C0115110509F494CEF50167FC859197
:102CC00067FE81915F01B70190E00E944E1D511097
:102CD0005A9401501109EDCFF501A190B1906F0107
:102CE000612F70E066FC02C06FEF7FEFC5010E94AC
:102CF000431D8C01D5CFB70180E290E00E944E1DAC
:102D00007A94D2CF843619F0893609F06FC067FE05
:102D100064C0F50161917191819191916F01B62D1E
:102D2000BF766B2E97FF09C0909580957095619541
:102D30007F4F8F4F9F4F689467F82AE030E0A401DF
:102D40000E947E1DA82EA818BA2C062D66FE0AC069
:102D50000E7FA11638F464FE04C062FC02C0062D8A
:102D60000E7EB12E04FF8EC0FE01EA0DF11D8081A2
:102D7000803309F080C0097E502F5870552E03FD16
:102D800090C000FF8AC01A2DB71410F4170D1B193C
:102D900004FF8DC0B70180E390E00E944E1D02FF4A
:102DA00007C088E701FD88E590E0B7010E944E1D4D
:102DB000A11608F488C0AA940A2D10E00F5F1F4FD7
:102DC000080D191DD8018E918D01B70190E00E9468
:102DD0004E1D08151905B1F704CED5016D917D91F1
:102DE0006D01072E000C880B990B99CF062D8537A6
:102DF000E1F40F7E2AE030E007FF35C0D5014D91A8
:102E00005D916D917D916D014C875D876E877F87A8
:102E1000A4016C857D858E859F850E947E1DA82ED0
:102E2000A818602EE89467F88FCF097F803791F05B
:102E300058F4883589F08F36A1F0F70186819781A3
:102E40006396E2E10C94FD178837B9F704FD04603E
:102E500020E1D1CF0061FACF64FC066020E132E0CE
:102E6000CBCF28E0C8CFF501819191916F01AC01E2
:102E700070E060E0C9CF02FD02C0B3947DCFB3948F
:102E8000B3947ACF802F867809F476CFF6CFB70146
:102E900080E290E00E944E1DB394B714C0F3512C11
:102EA00077CF572C5B18B71408F472CFF8CF802F68
:102EB000867809F47DCF8BE201FF80E207FD8DE289
:102EC000B70190E073CFB70180E390E00E944E1D00
:102ED00011506ECF8FEF9FEFB3CF24E0512C271509
:102EE00008F06CCD84E05CCD0E94900885EE90E007
:102EF000909308018093070180EE90E09093060183
:102F00008093050160E576E08FE191E00E948A09F7
:102F100090E080E0089597FB072E16F4009407D008
:102F200077FD09D00E94181807FC05D03EF4909553
:102F300081959F4F0895709561957F4F0895A1E207
:102F40001A2EAA1BBB1BFD010DC0AA1FBB1FEE1F23
:102F5000FF1FA217B307E407F50720F0A21BB30B6E
:102F6000E40BF50B661F771F881F991F1A9469F7EA
:102F700060957095809590959B01AC01BD01CF0146
:102F80000895EE0FFF1F0590F491E02D0994A29F84
:102F9000B001B39FC001A39F700D811D1124911D2D
:102FA000B29F700D811D1124911D08950E94C717B5
:102FB000A59F900DB49F900DA49F800D911D11248D
:102FC00008952F923F924F925F926F927F928F92CD
:102FD0009F92AF92BF92CF92DF92EF92FF920F93A8
:102FE0001F93CF93DF93CDB7DEB7CA1BDB0B0FB6B2
:102FF000F894DEBF0FBECDBF09942A88398848886F
:103000005F846E847D848C849B84AA84B984C88404
:10301000DF80EE80FD800C811B81AA81B981CE0FFB
:10302000D11D0FB6F894DEBF0FBECDBFED010895E0
:10303000AA1BBB1B51E107C0AA1FBB1FA617B707DE
:1030400010F0A61BB70B881F991F5A95A9F78095FA
:103050009095BC01CD0108955058BB27AA270E9426
:1030600044180C94BE190E94B01938F00E94B71988
:1030700020F039F49F3F19F426F40C94AD190EF4A6
:10308000E095E7FB0C94A719E92F0E94CF1958F39C
:10309000BA17620773078407950720F079F4A6F53D
:1030A0000C94F1190EF4E0950B2EBA2FA02D0B0104
:1030B000B90190010C01CA01A0011124FF27591B7D
:1030C00099F0593F50F4503E68F11A16F040A22F83
:1030D000232F342F4427585FF3CF469537952795F4
:1030E000A795F0405395C9F77EF41F16BA0B620BF3
:1030F000730B840BBAF09150A1F0FF0FBB1F661F3A
:10310000771F881FC2F70EC0BA0F621F731F841F7C
:1031100048F4879577956795B795F7959E3F08F0A2
:10312000B0CF9395880F08F09927EE0F9795879564
:1031300008950E94831908F481E008950E94B2184E
:103140000C94BE190E94B71958F00E94B01940F0B3
:1031500029F45F3F29F00C94A71951110C94F2192E
:103160000C94AD190E94CF1968F39923B1F355233C
:1031700091F3951B550BBB27AA276217730784078A
:1031800038F09F5F5F4F220F331F441FAA1FA9F320
:1031900035D00E2E3AF0E0E832D091505040E6950E
:1031A000001CCAF72BD0FE2F29D0660F771F881F6F
:1031B000BB1F261737074807AB07B0E809F0BB0B62
:1031C000802DBF01FF2793585F4F3AF09E3F510576
:1031D00078F00C94A7190C94F2195F3FE4F3983E31
:1031E000D4F3869577956795B795F7959F5FC9F75F
:1031F000880F911D9695879597F90895E1E0660FE0
:10320000771F881FBB1F621773078407BA0720F058
:10321000621B730B840BBA0BEE1F88F7E0950895C1
:103220000E9417196894B1110C94F21908950E9424
:10323000D71988F09F5798F0B92F9927B751B0F058
:10324000E1F0660F771F881F991F1AF0BA95C9F72A
:1032500014C0B13091F00E94F119B1E008950C94BE
:10326000F119672F782F8827B85F39F0B93FCCF371
:10327000869577956795B395D9F73EF490958095A7
:10328000709561957F4F8F4F9F4F0895E89409C0C7
:1032900097FB3EF490958095709561957F4F8F4F89
:1032A0009F4F9923A9F0F92F96E9BB279395F6959F
:1032B000879577956795B795F111F8CFFAF4BB0F1D
:1032C00011F460FF1BC06F5F7F4F8F4F9F4F16C081
:1032D000882311F096E911C0772321F09EE8872F0B
:1032E000762F05C0662371F096E8862F70E060E0C7
:1032F0002AF09A95660F771F881FDAF7880F969540
:10330000879597F90895990F0008550FAA0BE0E8E3
:10331000FEEF16161706E807F907C0F01216130697
:10332000E407F50798F0621B730B840B950B39F4D7
:103330000A2661F0232B242B252B21F408950A263D
:1033400009F4A140A6958FEF811D811D089597F97D
:103350009F6780E870E060E008959FEF80EC08953B
:1033600000240A9416161706180609060895002464
:103370000A9412161306140605060895092E0394DE
:10338000000C11F4882352F0BB0F40F4BF2B11F452
:1033900060FF04C06F5F7F4F8F4F9F4F089557FDB1
:1033A0009058440F551F59F05F3F71F04795880FB3
:1033B00097FB991F61F09F3F79F08795089512164A
:1033C00013061406551FF2CF4695F1DF08C01616F6
:1033D00017061806991FF1CF8695710561050894A7
:1033E0000895E894BB2766277727CB0197F90895BE
:1033F0000E940B1A0C94BE190E94B01938F00E945A
:10340000B71920F0952311F00C94A7190C94AD195D
:1034100011240C94F2190E94CF1970F3959FC1F3F7
:10342000950F50E0551F629FF001729FBB27F00D72
:10343000B11D639FAA27F00DB11DAA1F649F6627C7
:10344000B00DA11D661F829F2227B00DA11D621F16
:10345000739FB00DA11D621F839FA00D611D221FD0
:10346000749F3327A00D611D231F849F600D211DB4
:10347000822F762F6A2F11249F5750409AF0F1F037
:1034800088234AF0EE0FFF1FBB1F661F771F881FA0
:1034900091505040A9F79E3F510580F00C94A71918
:1034A0000C94F2195F3FE4F3983ED4F38695779538
:1034B0006795B795F795E7959F5FC1F7FE2B880F46
:1034C000911D9695879597F9089519F416F40C9423
:1034D000AD190C94AB1A0E94D719B8F39923C9F30C
:1034E000B6F39F57550B87FF0E94B91A0024A0E638
:1034F00040EA900180585695979528F4805C660FB5
:10350000771F881F20F026173707480730F4621B03
:10351000730B840B202931294A2BA6951794079405
:10352000202531254A2758F7660F771F881F20F07E
:1035300026173707480730F4620B730B840B200DF6
:10354000311D411DA09581F7B901842F9158880F35
:103550009695879508959F3F31F0915020F4879577
:1035600077956795B795880F911D9695879597F9EB
:10357000089591505040660F771F881FD2F7089525
:103580000F931F93CF93DF939C01029710F422E0D7
:1035900030E0E091ED01F091EE0190E080E0B0E0EC
:1035A000A0E0309791F4009709F445C0821B930B7B
:1035B00084309105B8F58A819B816115710569F1A7
:1035C000FB0193838283FE0111C0408151810281FE
:1035D000138142175307F0F04217530799F41097DD
:1035E00061F012960C93129713961C933296CF01AA
:1035F000DF91CF911F910F9108950093ED011093EA
:10360000EE01F4CF009719F04817590718F4CA01D2
:10361000BD01EF01DF01F801C4CF9093EE0180936B
:10362000ED01D1CFFE01E80FF91F219331930297ED
:1036300099838883DCCF8091EF019091F001892BF1
:1036400041F480910B0190910C019093F0018093D3
:10365000EF018091090190910A01009741F48DB723
:103660009EB740910D0150910E01841B950B409126
:10367000EF015091F0014817590708F0B8CF841BAB
:10368000950B8217930708F4B2CFB9016E5F7F4F95
:103690008617970708F4ABCF640F751F7093F0017E
:1036A0006093EF01FA0121933193A1CFCF93DF9380
:1036B0009C010097E9F0FC01329713821282C091BD
:1036C000ED01D091EE01DE0190E080E02097A1F4C1
:1036D00080819181280F391F8091EF019091F00135
:1036E0008217930709F067C0F093F001E093EF01B0
:1036F000DF91CF910895DA01AE17BF0708F041C0FE
:1037000012964D915C911397CD014115510599F792
:10371000DC011396FC93EE9312974D915D91A40FEB
:10372000B51FEA17FB0781F4208131812E5F3F4FDF
:10373000240F351FDC0111963C932E932281338197
:1037400013963C932E931297B0E0A0E08A819B8160
:103750000097B1F5FE0181919191E80FF91F8091D9
:10376000EF019091F0018E179F0711F6109759F510
:103770001092EE011092ED01D093F001C093EF0191
:10378000B7CFB383A28340815181240F351FA21785
:10379000B30771F44E5F5F4F2D913C911197420F2B
:1037A000531F5183408312962D913C913383228382
:1037B000009709F0ADCFF093EE01E093ED0198CFC3
:1037C000DE01EC01C3CF13961C921E921297D4CF48
:1037D000CF92DF92EF92FF92CF93DF93CDB7DEB718
:1037E0002A970FB6F894DEBF0FBECDBF89879A87A0
:1037F000A985BA852D913D914D915C9129833A839C
:103800004B835C83232B242B252B41F424E239EDBD
:103810004BE557E029833A834B835C8369817A8146
:103820008B819C812DE133EF41E050E00E94F21D3D
:1038300069017A01A7EAB1E49B01AC010E94D617A5
:1038400069837A838B839C83ACEEB4EFA7019601E6
:103850000E94141E9B01AC0189819A81AB81BC81BD
:10386000820F931FA41FB51FB7FF03C00197A109C3
:10387000B048E985FA8580839183A283B3839F77DB
:103880002A960FB6F894DEBF0FBECDBFDF91CF9161
:10389000FF90EF90DF90CF9008950E94E81B08956D
:1038A0008FE091E00E94E81B0895B0E0A0E08093D3
:1038B0000F0190931001A0931101B093120108958C
:1038C000283008F027E03327DA01990F311D87FDF2
:1038D000916000966105710539F432602E5F3D9369
:1038E00030E32A95E1F708959F3F30F08038710565
:1038F000610509F03C5F3C5F3D93913008F08068C2
:10390000911DDF93CF931F930F93FF92EF92192F87
:10391000987F9695E92F96959695E90FFF27E653A0
:10392000FF4F99273327EE24FF24A701E7010590D5
:103930000894079428F4360FE71EF81E491F511DFE
:10394000660F771F881F991F0694A1F705900794AB
:1039500028F4E70EF81E491F561FC11D770F881F58
:10396000991F661F0694A1F70590079428F4F80E96
:10397000491F561FC71FD11D880F991F661F771F2C
:103980000694A1F70590079420F4490F561FC71F0E
:10399000D81F990F661F771F881F0694A9F7849177
:1039A0001095177041F0D695C79557954795F794A0
:1039B000E7941A95C1F7E0E7F0E068941590159147
:1039C00035916591959105907FE27395E118F10A23
:1039D000430B560BC90BD009C0F7E10CF11E431F76
:1039E000561FC91FD01D7EF4703311F48A95E6CF9F
:1039F000E894015030F0080F0AF40027021708F489
:103A0000202F2395022F7A3328F079E37D932A958E
:103A1000E9F710C07D932A9589F6069497956795E6
:103A2000379517951794E118F10A430B560BC90BFC
:103A3000D00998F023957E9173957A3308F070E35E
:103A40007C932013B8F77E9170617D9330F083955D
:103A500071E37D9370E32A95E1F71124EF90FF90D5
:103A60000F911F91CF91DF91992787FD9095089530
:103A7000FC010590615070400110D8F78095909539
:103A80008E0F9F1F0895FC0161507040019001103E
:103A9000D8F7809590958E0F9F1F08950F931F93D1
:103AA000CF93DF93182F092FEB018B8181FD09C084
:103AB0001FEF0FEF812F902FDF91CF911F910F916B
:103AC000089582FF14C02E813F818C819D8128172B
:103AD00039073CF4E881F981CF0101969983888305
:103AE00010838E819F8101969F838E83E3CFE8852B
:103AF000F985812F0995892BA1F3DACFFA01AA273D
:103B0000283051F1203181F1E8946F936E7F6E5F20
:103B10007F4F8F4F9F4FAF4FB1E03ED0B4E03CD0CE
:103B2000670F781F891F9A1FA11D680F791F8A1FB1
:103B3000911DA11D6A0F711D811D911DA11D20D018
:103B400009F468943F912AE0269F11243019305DD2
:103B50003193DEF6CF010895462F4770405D4193C3
:103B6000B3E00FD0C9F7F6CF462F4F70405D4A3310
:103B700018F0495D31FD4052419302D0A9F7EACFD8
:103B8000B4E0A6959795879577956795BA95C9F707
:103B900000976105710508959B01AC010A2E0694FA
:103BA0005795479537952795BA95C9F7620F731FB3
:103BB000841F951FA01D0895F999FECF92BD81BD68
:103BC000F89A992780B50895262FF999FECF1FBA44
:103BD00092BD81BD20BD0FB6F894FA9AF99A0FBE36
:103BE00001960895052E97FB1EF400940E94091E6D
:103BF00057FD07D00E949F1707FC03D04EF40C948A
:103C0000091E50954095309521953F4F4F4F5F4F7E
:103C1000089590958095709561957F4F8F4F9F4F38
:103C20000895B7FF0C94D6170E94D617821B930BEA
:103C30000895F894FFCFF409D809AC09A209A9099D
:103C4000520A470A8C120D110D1189122C122812DA
:0A3C5000241220122F12F311D011DC
:103C5A001401AA8F088C088B080000F101200001CA
:043C6A000000000056
:00000001FF
