:100000000C94B5000C94DE000C94DE000C94DE0021
:100010000C94DE000C94DE000C94AD040C94DE0015
:100020000C94DE000C94DE000C94DE000C94B80AF4
:100030000C94DE000C94DE000C94180A0C94DE0084
:100040000C94DE000C94DE000C94DE000C94DE00B8
:100050000C94DE000C94DE000C94DE000C94D80AA4
:100060000C94DE000C94DE006E616E00696E66001A
:1000700000407A10F35A00A0724E18090010A5D45F
:10008000E80000E87648170000E40B54020000CABC
:100090009A3B000000E1F505000080969800000002
:1000A00040420F000000A086010000001027000061
:1000B0000000E803000000006400000000000A00E7
:1000C000000000000100000000002C76D888DC67EA
:1000D0004F0823DFC1DFAE59E1B1B796E5E3E45342
:1000E000C63AE651997696E8E6C28426EB898C9B5F
:1000F00062ED407C6FFCEFBC9C9F40F2BAA56FA5FF
:10010000F490055A2AF75C936B6CF9676DC11BFC80
:10011000E0E40D47FEF520E6B500D0ED902E03009B
:10012000943577050080841E080000204E0A0000E8
:1001300000C80C333333330F986E12831141EF8DA7
:100140002114893BE65516CFFEE6DB18D1844B38E7
:100150001BF77C1D901DA4BBE424203284725E2218
:100160008100C9F124ECA1E53D2711241FBECFEF8A
:10017000D8E0DEBFCDBF14BE0FB6F894A89580912D
:100180006000886180936000109260000FBE11E0F3
:10019000A0E0B1E0ECE6FFE202C005900D92A431D0
:1001A000B107D9F721E0A4E1B1E001C01D92A73A5F
:1001B000B207E1F70E9475110C94A2170C9400008D
:1001C000CF93DF93E0910001F0910101DC018C916C
:1001D00090E0B0E0A0E0868F978FA0A3B1A3EB01E1
:1001E00088819981AA81BB8182A393A3A4A3B5A38B
:1001F00081E0818FDF91CF910895809100019091EE
:1002000001010D960895CF93DF93C0910001D09125
:1002100001018091A2019091A301B0E0A0E08A8F3A
:100220009B8FAC8FBD8F198E1E8ACE010D960E94BA
:10023000D00C988F8F8B8091A2018F5F0E941C073A
:10024000E0910001F0910101128213821482158263
:10025000168280EC878388E790E0A0E0B0E080879A
:100260009187A287B3871486D091A501C091A4017C
:10027000C11138C0D11155C06D2F8C2F0E940606B8
:10028000C0910001D091010181E08C8718A682E322
:1002900090E00E941C14FC019FA38EA3108281E0B9
:1002A00090E0E0910001F091010106A0F7A1E02D9E
:1002B000E80FF91F108201968233910591F7809122
:1002C0006C0190916D01A0916E01B0916F01E09170
:1002D0000001F091010181A792A7A3A7B4A7DF9124
:1002E000CF9108959091B30081E0911115C081954F
:1002F000DD2361F09091B400911118C06FEF0E945E
:1003000006068FE090E00E94FB05B6CF882309F433
:10031000B3CF60E08FEFF3CF80E08195D111EACFCA
:10032000F5CF8091B400882349F3A6CF882309F440
:10033000A3CF8FEF60E0E3CFCF93DF93C82FD62F0B
:10034000811113C0662359F08091B400811107C058
:100350006FEF0E9406068FE090E00E94FB056D2F74
:100360008C2FDF91CF910C9406069091B30081E021
:10037000911111C08195DD2349F09091B40099232A
:1003800039F3882361F38FEF60E0E3CF882339F3FB
:1003900060E08FEFDECF80E08195D111EECFF6CF18
:1003A0001F93CF93DF93C82FE0910001F0910101DB
:1003B00084858C1779F0C230A1F1C330F1F0C130DF
:1003C00069F060E080E00E940606E0910001F09193
:1003D0000101C487DF91CF911F9108951091A5016C
:1003E000D091A401D11132C0112309F441C08091F0
:1003F000B40081113DC06FEF35C0D0919201DD2373
:1004000059F08091B400811107C06FEF0E94060679
:100410008FE090E00E94FB056D2F80E00E940606B1
:10042000D4CFD091A601DD2361F08091B30081117A
:1004300008C060E08FEF0E9406068FE090E00E9407
:10044000FB0560E08D2F0E940606BFCF9091B300A0
:1004500081E0911180E0819511110FC0882341F056
:1004600060E08FEF0E9406068FE090E00E94FB059F
:10047000612F8D2F0E940606A8CF9091B40099237A
:1004800009F4B9CF8823A1F38FEF60E0EBCF0F938E
:100490001F93E0910001F09101018485813009F4FE
:1004A00061C09EEF980F923008F04EC040916C01F1
:1004B00050916D0160916E0170916F012681828172
:1004C0009381A481B581820F911DA11DB11D841757
:1004D0009507A607B707A8F580916C0190916D016B
:1004E000A0916E01B0916F0182839383A483B58341
:1004F0000091A5011091A401112309F48BC09091E2
:10050000B30081E09111ACC08195002309F4AAC029
:100510009091B400992309F484C0882341F08FEFAF
:1005200060E00E9406068FE090E00E94FB05602FCD
:10053000812F0E940606E0910001F091010181E007
:1005400084871F910F9108958823D9F360E080E09C
:100550000E940606E0910001F091010114861F91AE
:100560000F91089540916C0150916D0160916E0161
:1005700070916F0182819381A481B581008511857D
:1005800022853385800F911FA21FB31F8417950703
:10059000A607B707B0F680916C0190916D01A0910C
:1005A0006E01B0916F0182839383A483B5830E940F
:1005B0000407E0910001F091010180FF34C08485BF
:1005C0008230D1F01091A601112361F08091B30027
:1005D000811108C060E08FEF0E9406068FE090E076
:1005E0000E94FB0560E0812F0E940606E091000159
:1005F000F091010182E084870E940407E0910001EC
:10060000F091010167810E948C119F5F96831F9179
:100610000F910895002309F48ACF8091B4008111CD
:1006200086CF6FEF7ECF8485833031F310919201B6
:10063000112359F08091B400811107C06FEF0E941F
:1006400006068FE090E00E94FB05612F80E00E948B
:100650000606E0910001F091010183E08487CCCF90
:1006600080E052CF882309F462CF60E08FEF59CF4A
:10067000CF93DF930E944702C0910001D091010106
:10068000898D813009F18A8D8D87CE010D960E946A
:10069000D00C988F8F8BE0910001F091010180A523
:1006A000882309F444C09FEF980F9930B8F196EF72
:1006B000980F953050F191EF980F9530E8F0853113
:1006C000B0F4DF91CF910895198EEEA1FFA12E8D88
:1006D0003F8DE20FF31F90819111D5CF98A59F5FB9
:1006E00098A78083C0910001D0910101CCCF85E112
:1006F000DF91CF910C94950A80E10E94950AE091D8
:100700000001F091010180A5DACF84E00E94950AF2
:10071000E0910001F091010180A5CDCF81E00E9420
:10072000950AE0910001F091010180A5C0CF0E94DF
:10073000950AE0910001F091010180A5B4CFCF931B
:10074000DF93C0910001D09101018A8D8D87CE0188
:100750000D960E94D00C988F8F8BDF91CF910895CA
:10076000089590E080E008950895559854983B9A34
:100770003A9A3D983C980895559A549A3B983A98DD
:100780003D983C980895559854983B983A983D98D0
:100790003C980895AF92BF92DF92EF92FF920F9331
:1007A0001F93CF93DF93F89414B817B81AB815B8FD
:1007B00018B81BB8529A5A9A14BC85E085BD8FEFC1
:1007C00087BD82E080936E001092800010928100BD
:1007D0002FE83BE0309389002093880080936F00DE
:1007E0005398239891EA9093B0008093B1001092AF
:1007F000B4001092B3008BE080BF83E080937F0051
:1008000086E080937C0083E880937A0080917A0070
:10081000806480937A0080917A0086FDFCCF1092EC
:100820007C0083EA80937A0081E080937B0081E002
:1008300090E00E9438178F3F11F08093660010926D
:100840007001C1E0C0934901C0938D01109267010E
:100850001092A10180E990E00E9438178093660110
:1008600080916601887311F0C09366011092910126
:10087000109290018FEF90E090938F0180938E0102
:1008800010926C0110926D0110926E0110926F0126
:1008900081E08093440182E49FE09093A0018093E3
:1008A0009F0180EB90E00E943817C82F81EB90E009
:1008B0000E943817D82FD093A301C093A20185E0DE
:1008C00090E00E9438178093A60189E090E00E9492
:1008D0003817809392018CE090E00E943817809343
:1008E000A40184E190E00E9438178093A50101E7FC
:1008F00011E08AE4E82E81E0F82E9DE8A92E91E02F
:10090000B92EC0E2D0E0CE010E943817D82ECE0119
:1009100001960E9438179D2DF801819391938F01C4
:10092000CE01C0960E943817D82ECE01C1960E94E3
:1009300038179D2DF701819391937F012296A01680
:10094000B10609F77894DF91CF911F910F91FF9035
:10095000EF90DF90BF90AF9008950F920FB60F9277
:100960001F9211248F930FB6F894A8958091600080
:10097000886180936000109260000FBE8F911F907D
:100980000F900FBE0F9018953C01EB0110E09924D9
:100990009A9484E0C82E96E0A92E23E8B22E38E17E
:1009A000D32E49E2E42EE0914401E730E0F7F0E095
:1009B000EC55F84E0C94AC11111102C0F3010995DD
:1009C000C092440111E0FE010995EDCF80917001C4
:1009D0008111E9C0F894A0927C00B0927A008091D5
:1009E0007A00806480937A0080917A0086FDFCCF43
:1009F000809178009091790078948B3AE2E09E079C
:100A00000CF0CEC08938F2E09F070CF0CFC08736DB
:100A100092400CF4C8C0559A549A3B9A3A9A3D9821
:100A20003C98C1CF0E94B503EFECF7E03197F1F7A6
:100A300000C000000E94C303FFEF21EE84E0F150EC
:100A400020408040E1F700C00000ADCFF89480B7AF
:100A5000877F80BF80917A008F7780937A0014B867
:100A600017B81AB815B818B81BB80FB6F894A895E7
:100A7000D09260000FBEE0926000809160008064C0
:100A80008093600083B7817F846083BFF89483B7CD
:100A9000816083BF7894889583B78E7F83BF789475
:100AA00010927001529A5A9A80917A0080688093CD
:100AB0007A0087E592E00197F1F700C0000080B767
:100AC000886180BF559A549A3B9A3A9A3D9A3C9ACB
:100AD000EFE1FEE43197F1F700C000008091700172
:100AE000811152C00E94C3035ECF809142018111E7
:100AF00021C01092B3001092B4001092430153CF62
:100B00004899F0CF559A54983B983A983D983C981C
:100B10008FEC97E00197F1F700C000000E94C3033B
:100B20009FEFE1EEF4E09150E040F040E1F700C0CB
:100B3000000039CF9091420180914301981709F448
:100B400032CF8091420180934301809142018130F4
:100B5000A1F1809142011092B3009092B4008230D2
:100B6000E9F19092B3009092B4008FE295E701977B
:100B7000F1F700C000008091A5019091A40190932D
:100B8000B3008093B4000FCF0E94BC03FFEF20E7B7
:100B900082E0F15020408040E1F700C00000A2CF89
:100BA0000E94B50300CF0E94BC03FDCE5598549817
:100BB0003B983A983D9A3C9AF6CE9092B3001092A8
:100BC000B4008FE295E70197F1F700C00000809133
:100BD000A6018093B3001092B400E5CEEFE2F5E7F2
:100BE0003197F1F700C00000809192011092B3009C
:100BF0008093B400D8CE07C0EFECF7E03197F1F75F
:100C000000C0000001970097B9F708958093B300E2
:100C10006093B40008958FEF8093B3008093B40085
:100C20008FEC97E00197F1F700C000008FEC97E0A0
:100C30000197F1F700C000008FEC97E00197F1F702
:100C400000C000008FEC97E00197F1F700C00000B2
:100C50008FEC97E00197F1F700C000008FEC97E070
:100C60000197F1F700C000008FEC97E00197F1F7D2
:100C700000C000008FEC97E00197F1F700C0000082
:100C80008FEC97E00197F1F700C000008FEC97E040
:100C90000197F1F700C000008FEC97E00197F1F7A2
:100CA00000C000008FEC97E00197F1F700C0000052
:100CB0008FEC97E00197F1F700C000008FEC97E010
:100CC0000197F1F700C000008FEC97E00197F1F772
:100CD00000C0000008958091700181111EC0F89439
:100CE00087E080937C0083E880937A0080917A008B
:100CF000806480937A0080917A0086FDFCCF809199
:100D000078009091790010927C0023EA20937A0079
:100D100021E020937B00789408958FEF9FEF089552
:100D20008091700181111EC0F89488EC80937C0042
:100D300087E880937A0080917A00806480937A00BB
:100D400080917A0086FDFCCF8091780090917900A7
:100D500010927C0023EA20937A0021E020937B000C
:100D6000789408958FEF9FEF08950F931F93CF937B
:100D7000DF93F0E0E0E080E006E013E8D3EAC1E0D2
:100D8000A1E0B0E060E870E0F89400937C0010937C
:100D90007A0090917A00906490937A0090917A0012
:100DA00096FDFCCF209178003091790021709091D0
:100DB0007A00906490937A0090917A0096FDFCCF2F
:100DC000409178005091790010927C00D0937A0085
:100DD000C0937B0078944170241303C06150710963
:100DE00099F6222339F09D010E2E01C0220F0A949C
:100DF000EAF7822B3196E830F10509F0C3CFDF9195
:100E0000CF911F910F91089520910201822F880F99
:100E1000880F880F28279091410181E0890F8093E6
:100E20004101822F829586958770822796959695A7
:100E3000892780930201089580930201089580918B
:100E40007001811116C0F89486E080937C0083E8DD
:100E500080937A0080917A00806480937A008091F8
:100E60007A0086FDFCCF809178009091790078948B
:100E700008958FEF9FEF08952F923F924F925F92C8
:100E80006F927F928F929F92AF92BF92CF92DF929A
:100E9000EF92FF920F931F93CF93DF9300D000D078
:100EA00000D0CDB7DEB71C01DC0112960D90BC91CD
:100EB000A02DBE83AD83A438E3E0BE072CF1DC0196
:100EC000ED90FC9080917101909172018E159F05BB
:100ED00008F0C1C181E226960FB6F894DEBF0FBEBE
:100EE000CDBFDF91CF911F910F91FF90EF90DF90D9
:100EF000CF90BF90AF909F908F907F906F905F90BA
:100F00004F903F902F90089580914A0190914B010E
:100F10008A179B0708F079C0AD3BB240DCF2D101E3
:100F2000ED90FC9080917101909172018E159F055A
:100F300008F4B0C1198200917301109174010E156B
:100F40001F0508F4B1C100917501109176010E15CD
:100F50001F0508F409C200917701109178010E1560
:100F60001F0508F406C20091790110917A010E154F
:100F70001F0508F403C200917B0110917C010E153E
:100F80001F0508F400C200917D0110917E010E152D
:100F90001F0508F4FDC100917F01109180010E151D
:100FA0001F0508F402C200918101109182010E1503
:100FB0001F0508F403C200918301109184010E15EE
:100FC0001F0508F400C200918501109186010E15DD
:100FD0001F0508F401C200918701109188010E15C8
:100FE0001F0508F4FEC10091890110918A010E15B8
:100FF0001F0508F403C200918B0110918C010E159E
:101000001F0508F404C21AE5D6C000914C011091E6
:101010004D010A171B0708F4C0C100914E01109141
:101020004F010A171B0708F4BCC100915001109131
:1010300051010A171B0708F4BDC10091520110911C
:1010400053010A171B0708F42BC10091540110919A
:1010500055010A171B0708F4BBC1009156011091F6
:1010600057010A171B0708F4C1C1009158011091DC
:1010700059010A171B0708F4BDC100915A011091CC
:101080005B010A171B0708F4BEC100915C011091B7
:101090005D010A171B0708F4E1C000915E01109181
:1010A0005F010A171B0708F4B7C100916001109196
:1010B00061010A171B0708F4B3C100916201109186
:1010C00063010A171B0708F4AFC100916401109176
:1010D00065016DE08DE090E00A171B0708F4C1C0C0
:1010E00080E090E0A0EDB0E489839A83AB83BC8379
:1010F0002CE0E22EF12CF701EE0FFF1FE65BFE4F16
:1011000080819181B801681B790B90E080E00E949A
:1011100021139B01AC010E940D126B017C01AD817A
:10112000BE81BD01BB0F880B990B0E9423134B019D
:101130005C01B80190E080E00E9421132B013C018A
:1011400029813A814B815C81C701B6010E94AF13AE
:101150009B01AC01C301B2010E940C129B01AC01C6
:10116000C501B4010E940C1220E030E040E251E4DD
:101170000E94AF130E94EB128B01C701B6010E94BF
:10118000EB12AB01C801BA010E9498116983ED818D
:10119000FE8181E2860FED3BF2400CF49CCED10142
:1011A000ED90FC9080917101909172018E159F05D8
:1011B00008F0C1CE10E0B98181E2810FBF3F09F490
:1011C0008ACE6B2F70E090E080E00E9421134B01EB
:1011D0005C01612F70E090E080E00E9421132B0100
:1011E0003C012D813E81B901330F880B990B0E9480
:1011F00023136B017C01AC019B0160E070E081E690
:1012000094E40E940C12A50194010E94AF134B01BB
:101210005C0120E030E04FE254E4C701B6010E94D7
:101220000C12A30192010E94AF139B01AC01C501F6
:10123000B4010E940D1220E030E048E453E40E9423
:10124000791220E030E044E052E40E940D120E9446
:10125000F212862F40CEBFEFB9836DCE69E089E0F0
:1012600090E07C01F1E0EF1AF10870E090E080E09E
:101270000E94211320E030E040E05FE30E94AF13C2
:1012800020E030E0A9010E940D1269837A838B83EC
:101290009C8331CF412C512C320153014201A1CF0B
:1012A00064E084E090E0DDCF33243394E1E0F0E0CB
:1012B000EE0FFF1FE159FE4F80819181B801681B3D
:1012C000790B90E080E00E9421139B01AC010E9409
:1012D0000D124B015C01B701FF0C880B990B0E94AA
:1012E00023132B013C01B80190E080E00E94211300
:1012F0006B017C01632D70E090E080E00E9421137F
:1013000020E030E040E05FE30E94AF1320E030E0F7
:10131000A9010E940D12A50194010E94AF139B0127
:10132000AC01C701B6010E940C129B01AC01C301C4
:10133000B2010E940C1220E030E040E251E40E9431
:10134000AF130E94EB128B01C501B4010E94EB1296
:10135000AB01C801BA010E949811162F6F3F09F026
:101360002ACF89818F5DB7CD82E0382EE2E0F0E0B0
:101370009FCFB3E03B2EE3E0F0E09ACFA4E03A2E1B
:10138000E4E0F0E095CFF5E03F2EE5E0F0E090CF2F
:10139000E6E03E2EE6E0F0E08BCF61E081E090E019
:1013A00060CF62E082E090E05CCF77E0372EE7E04C
:1013B000F0E07ECF63E083E090E053CF68E0362E2C
:1013C000E8E0F0E075CF59E0352EE9E0F0E070CFCD
:1013D00065E085E090E045CF4AE0342EEAE0F0E0B9
:1013E00067CF3BE0332EEBE0F0E062CF66E086E0D3
:1013F00090E037CF67E087E090E033CF2CE0322EEB
:10140000ECE0F0E055CF68E088E090E02ACF9DE086
:10141000392EEDE0F0E04CCF6AE08AE090E021CF99
:101420006BE08BE090E01DCF6CE08CE090E019CF9A
:101430001F920F920FB60F9211242F933F934F9349
:101440005F936F937F938F939F93AF93BF93EF932C
:10145000FF93809190019091910120918E013091A4
:101460008F01820F931F90939101809390018FEFD2
:1014700090E090938F0180938E018FEF87BD8091D4
:101480006C0190916D01A0916E01B0916F01019678
:10149000A11DB11D80936C0190936D01A0936E010D
:1014A000B0936F018091700181110FC080919F01F5
:1014B0009091A001209190013091910182179307A2
:1014C00020F480914401843089F0FF91EF91BF9125
:1014D000AF919F918F917F916F915F914F913F91CC
:1014E0002F910F900FBE0F901F901895E09105015E
:1014F000F09106010995009741F30E94890D882318
:1015000051F0E0910301F0910401099510929101CD
:1015100010929001DACF0E94AC159C0133273093D2
:101520008F0120938E0187BDD0CF80FF16C0559AC2
:1015300081FF16C0549A82FF16C03B9A83FF16C0E3
:101540003A9A84FF05C03D9A85FF05C03C9A0895EC
:101550003D9885FDFBCF3C980895559881FDEACFD5
:10156000549882FDEACF3B9883FDEACF3A98E9CFC1
:101570001F921FB61F9211248F939F931092810088
:10158000109285001092840081E08093490180933D
:101590008D011092700110927C0093EA90937A0072
:1015A00080937B009F918F911F901FBE1F90189575
:1015B0001F920F920FB60F9211242F933F934F93C8
:1015C0005F936F937F938F939F93AF93BF93CF93CB
:1015D000DF93EF93FF93209184003091850041E0E9
:1015E00040937001809149018823A9F110928500F0
:1015F00010928400409381001092A1011092490141
:1016000080918D018823A1F080917A0086FDFCCF26
:10161000809178009091790090936B0180936A019A
:1016200081E080937C0093EA90937A0080937B0022
:10163000FF91EF91DF91CF91BF91AF919F918F91EA
:101640007F916F915F914F913F912F910F900FBEBE
:101650000F901F901895C9018758910984379940B8
:10166000A0F01092810010928500109284004093A7
:10167000490140938D011092700110927C0083EA21
:1016800080937A0040937B00D3CF26583109A4EF92
:10169000B0E00E94B211AA27BB27883008F465C0C9
:1016A0004093490180918D0181113CC08091670177
:1016B000E82FF0E0ED56FE4F9091A10190838F5FEF
:1016C000809367018C3009F0B3CF109281001092A3
:1016D00085001092840040938D0110927001C0919A
:1016E0009D01D0919E0183E991E00E94D00CC81722
:1016F000D90709F09DCFE0919C01E7FF47C098E72B
:101700009E0F933030F0539823981092B4001092AB
:10171000B300E058EB3008F08BCFF0E0E555F84E21
:101720000C94AC1180917A0086FDFCCF80917800FA
:1017300090917900909369018093680110927C00E8
:1017400083EA80937A0081E080937B009091A101ED
:101750009923B9F0109281001092850010928400B4
:1017600080938D011092700163CF21E030E001C0C1
:10177000220F8A95EAF78091A101822B8093A10123
:1017800057CF10928D011092670152CFE09107015F
:10179000F091080168E671E083E991E0099548CF8E
:1017A00080919301823009F4E3C008F06BC0882374
:1017B00009F4A6C0813009F0D7C0809194019091BE
:1017C00095019093A3018093A20110924201809110
:1017D0004401863009F42CCF539A239A1092B40016
:1017E0001092B30086E08093440122CF809144019F
:1017F000863079F0539A239A1092B4001092B30075
:101800000E94C303109242011092430186E080932C
:1018100044012091930181E090E002C0880F991F5C
:101820002A95E2F72091A2013091A301822393230C
:10183000892B09F462C081E080934201F9CE809146
:101840004401833009F4F4CE80914401843009F4DA
:10185000EFCE539A239A1092B4001092B30083E013
:1018600080934401E5CE82E080934401E1CE85E09F
:1018700080934401DDCE81E080934401D9CE109263
:101880004401D6CE833051F1843009F06DC02091EF
:10189000420180919901909198012330B1F010920A
:1018A000430123E0209342019093A4018093A5017A
:1018B0008ECFF0E0E0E0099580916E008D7F8093FF
:1018C0006E0016BCE0E0F0E709952091A501281311
:1018D000E6CF2091A4012913E2CF79CF9091420164
:1018E00080919701923009F451C01092430192E027
:1018F00090934201809392016ACF1092420198CE58
:1019000080914401863009F093CE6091A20180EB72
:1019100090E00E9440176091A30181EB90E00E944B
:1019200040176091A60185E090E00E944017609109
:10193000920189E090E00E9440176091A4018CE040
:1019400090E00E9440176091A50184E190E00E9420
:101950004017539823981092B4001092B30081E07E
:101960008093440180919301882309F461CE2FCFA5
:101970009091420180919601913069F0109243015B
:1019800091E0909342018093A60121CF9091920122
:101990009813ABCF1CCF9091A6019813EFCF17CF20
:1019A000FC0180812FEF3FEF2827022E2295207F18
:1019B0002025032E322F22952F70022626953227BE
:1019C0002327220F220F220F202581812827022E74
:1019D0002295207F2025032E322F22952F7002265C
:1019E000269532272327220F220F220F20258281BE
:1019F0002827022E2295207F2025032E322F229584
:101A00002F700226269532272327220F220F220F1E
:101A1000202583812827022E2295207F2025032E32
:101A2000322F22952F700226269532272327220F48
:101A3000220F220F202584812827022E2295207F25
:101A40002025032E322F22952F700226269532272D
:101A50002327220F220F220F202585812827022EDF
:101A60002295207F2025032E322F22952F700226CB
:101A7000269532272327220F220F220F2025868129
:101A80002827022E2295207F2025032E322F2295F3
:101A90002F700226269532272327220F220F220F8E
:101AA000202587812827022E2295207F2025032E9E
:101AB000322F22952F700226269532272327220FB8
:101AC000220F220F202580852827022E2295207F95
:101AD0002025032E322F22952F700226269532279D
:101AE0002327220F220F220F20254185C901842799
:101AF000082E8295807F8025092E982F82958F70E1
:101B00000826869598278927880F880F880F8025B3
:101B100008950FB6F894A4B1209166012A2B24B938
:101B200021E030916601203029F0000025B1232BFF
:101B300025B904C000000000000000C00000000043
:101B40000000309525B1232325B92EEA2A95F1F717
:101B50002BEE30B735FF0AC0A4B93091660130953D
:101B600025B1232325B90FBE80E0089500002A95F2
:101B700081F721E030916601203029F0000025B185
:101B8000232B25B904C000000000000000C00000A5
:101B900000000000309525B1232325B9000024E57D
:101BA0002A95F1F7FC018CE0619170E0660F771FD8
:101BB000616072609AE041E050E09A012623372389
:101BC000232B30916601203029F0000025B1232B12
:101BD00025B904C000000000000000C000000000A3
:101BE0000000309525B1232325B9000021E52A9571
:101BF000F1F7440F551F9A9501F78A95A9F620B77A
:101C0000206120BFA4B930916601309525B123230E
:101C100025B90FBE81E00895A3E1B0E0E2E1FEE066
:101C20000C94C1117C011B015A01DC0117961C9216
:101C30001E92169713968C9181FF4DC3FE0131962B
:101C40004F01D70113969C91F10193FD859193FF6C
:101C500081911F01882309F4F1C2853239F493FD83
:101C6000859193FF81911F01853239F4B70190E08E
:101C70000E94AA1665015601E4CF10E0712C612C78
:101C8000BFE1B61538F08B3211F190F4803209F1D2
:101C9000833229F167FC3CC020ED280F2A3050F533
:101CA00066FE20C0EAE01E9F200D1124122F06C000
:101CB0008D3291F0803371F7689460F8F10193FDF3
:101CC000859193FF81911F018111DACF21C0689422
:101CD00061F8689462F8F2CF689463F8EFCF689483
:101CE00064F8ECCFFAE07F9E200D1124722E6894E8
:101CF00065F8E4CF8E3229F466FCA0C2689466F8D9
:101D0000DDCF8C3619F4689467F8D8CF8836B1F2F5
:101D10009BEB980F933008F06FC0689464F8805E76
:101D200066FE16E0262D2F73622E853609F06CC0F4
:101D3000689466F867FE72C0812F1C3308F08BE34D
:101D400044244394480E27E0D5014D915D916D9157
:101D50007D916D014C875D876E877F87042DA4017F
:101D60006C857D858E859F850E94BC155C01B9813F
:101D7000BC87B0FF03C00DE2B3FF07C00BE261FCFC
:101D800004C0062D047062FC00E2EC85EC705E2E4F
:101D900009F454C00111A2C2F3E0512CF715A0F4CC
:101DA00083E0572C581A63FC08C0B70180E290E02A
:101DB0000E94AA165A945110F8CF002329F0B701B7
:101DC000802F90E00E94AA16FC8508E610E0F3FD43
:101DD00002C00CE610E0262D2071622EF8018491DD
:101DE000811123C0552009F446CFB70180E290E06D
:101DF0000E94AA165A94F6CF9BE9980F933008F0E8
:101E00002DC1E89464F88CCF863619F4689467F88D
:101E100091CF112309F48ECF11508CCF212F183080
:101E200010F027E017E0412C8FCF61108052B701EE
:101E300090E00E94AA160F5F1F4FD0CF67FE7AC0B6
:101E40004A0CFC85F4FF04C08A81813309F44A946A
:101E500014140CF092C028E0241510F488E0482EE9
:101E600085E090E067FE06C0C501B7FE02C080E0D5
:101E700090E0019601110196112331F0212F30E0FD
:101E80002F5F3F4F820F931F7816190619F014F039
:101E9000572C581A862D897011F4511073C00023E5
:101EA00029F0B701802F90E00E94AA1663FC02C0BF
:101EB00051106FC067FE88C03501B7FE02C0712C9B
:101EC000612CC50186199709A401480F591F598B28
:101ED000488BB501641971097B8B6A8B012F10E067
:101EE000119501951109A614B7040CF459C0AA89DB
:101EF000BB89A615B7050CF053C0E889F989818123
:101F0000F1E06F1A7108601671060CF44BC0B7014E
:101F100090E00E94AA162FEF6216720629F4B7010C
:101F20008EE290E00E94AA16888999890196998B81
:101F3000888BD9CF66FC94CFE12FF0E0EA15FB0542
:101F40003CF03CEFA3163FEFB30614F0689467F83B
:101F50003296E80DF91D01C01150112319F082913C
:101F60008033D1F367FE7CCF44244394410E1A158D
:101F70001B0431F02CF01A1973CF4424439470CF12
:101F800010E06ECFB70180E290E00E94AA165A944A
:101F900084CFB70180E390E00E94AA165A9488CFBC
:101FA00080E3AECFA614B70441F49A81963350F47F
:101FB000953319F43C8534FF05C0B70190E00E94C9
:101FC000AA1610CF81E3F9CF8A81813319F04C85AD
:101FD0004F7E4C87B70190E00E94AA16112399F01A
:101FE000B7018EE290E00E94AA161E5F02E0802FE9
:101FF0000F5FF401E80FF11D8081B70190E00E94AE
:10200000AA161013F4CF85E664FC85E490E0B701CE
:102010000E94AA16B7FC06C0A114B104C1F45C85E5
:1020200054FF15C0B194A194B1088DE2B70190E0BE
:102030000E94AA1680E37AE0A716B10454F4B7010F
:1020400090E00E94AA16B701C501C096B8CF8BE2F6
:10205000EDCF8F5F6AE0A61AB108EDCF8336B9F0F5
:10206000833709F43AC0833509F04DC0D501AD90EE
:10207000BD906D01612F70E066FC02C06FEF7FEFD5
:10208000C5010E9494168C01689467F80CC0650124
:1020900082E0C80ED11CD5018C91898301E010E04B
:1020A0005401E89467F863FC04C07016110609F047
:1020B00018F5572C0115110509F494CEF50167FCAC
:1020C000859167FE81915F01B70190E00E94AA1699
:1020D00051105A9401501109EDCFF501A190B19022
:1020E0006F01612F70E066FC02C06FEF7FEFC501EA
:1020F0000E949F168C01D5CFB70180E290E00E942C
:10210000AA167A94D2CF843619F0893609F06FC0B6
:1021100067FE64C0F50161917191819191916F01A8
:10212000B62DBF766B2E97FF09C090958095709560
:1021300061957F4F8F4F9F4F689467F82AE030E09A
:10214000A4010E94DA16A82EA818BA2C062D66FE45
:102150000AC00E7FA11638F464FE04C062FC02C0FF
:10216000062D0E7EB12E04FF8EC0FE01EA0DF11D7C
:102170008081803309F080C0097E502F5870552E21
:1021800003FD90C000FF8AC01A2DB71410F4170D7C
:102190001B1904FF8DC0B70180E390E00E94AA16CE
:1021A00002FF07C088E701FD88E590E0B7010E94C3
:1021B000AA16A11608F488C0AA940A2D10E00F5F91
:1021C0001F4F080D191DD8018E918D01B70190E0A8
:1021D0000E94AA1608151905B1F704CED5016D9114
:1021E0007D916D01072E000C880B990B99CF062D60
:1021F0008537E1F40F7E2AE030E007FF35C0D501D6
:102200004D915D916D917D916D014C875D876E87DC
:102210007F87A4016C857D858E859F850E94DA1657
:10222000A82EA818602EE89467F88FCF097F803712
:1022300091F058F4883589F08F36A1F0F701868146
:1022400097816396E2E10C94DD118837B9F704FDBC
:10225000046020E1D1CF0061FACF64FC066020E188
:1022600032E0CBCF28E0C8CFF501819191916F0189
:10227000AC0170E060E0C9CF02FD02C0B3947DCF35
:10228000B394B3947ACF802F867809F476CFF6CFC3
:10229000B70180E290E00E94AA16B394B714C0F38D
:1022A000512C77CF572C5B18B71408F472CFF8CFA6
:1022B000802F867809F47DCF8BE201FF80E207FD55
:1022C0008DE2B70190E073CFB70180E390E00E9408
:1022D000AA1611506ECF8FEF9FEFB3CF24E0512C91
:1022E000271508F06CCD84E05CCD0E94CA0380EE17
:1022F00090E090930801809307018DEF90E0909318
:1023000006018093050168E373E083E091E00E9499
:10231000C40490E080E00895991B79E004C0991FFF
:10232000961708F0961B881F7A95C9F7809508952F
:1023300097FB072E16F4009407D077FD09D00E9472
:10234000F81107FC05D03EF4909581959F4F0895B4
:10235000709561957F4F0895EE0FFF1F0590F491E2
:10236000E02D0994A29FB001B39FC001A39F700DFF
:10237000811D1124911DB29F700D811D1124911D8D
:1023800008952F923F924F925F926F927F928F9219
:102390009F92AF92BF92CF92DF92EF92FF920F93F4
:1023A0001F93CF93DF93CDB7DEB7CA1BDB0B0FB6FE
:1023B000F894DEBF0FBECDBF09942A8839884888BB
:1023C0005F846E847D848C849B84AA84B984C88451
:1023D000DF80EE80FD800C811B81AA81B981CE0F48
:1023E000D11D0FB6F894DEBF0FBECDBFED0108952D
:1023F000AA1BBB1B51E107C0AA1FBB1FA617B7072B
:1024000010F0A61BB70B881F991F5A95A9F7809546
:102410009095BC01CD0108955058BB27AA270E9472
:1024200024120C9475130E94671338F00E946E13E7
:1024300020F039F49F3F19F426F40C9464130EF441
:10244000E095E7FB0C945E13E92F0E94861358F386
:10245000BA17620773078407950720F079F4A6F589
:102460000C94A8130EF4E0950B2EBA2FA02D0B019F
:10247000B90190010C01CA01A0011124FF27591BC9
:1024800099F0593F50F4503E68F11A16F040A22FCF
:10249000232F342F4427585FF3CF46953795279540
:1024A000A795F0405395C9F77EF41F16BA0B620B3F
:1024B000730B840BBAF09150A1F0FF0FBB1F661F86
:1024C000771F881FC2F70EC0BA0F621F731F841FC9
:1024D00048F4879577956795B795F7959E3F08F0EF
:1024E000B0CF9395880F08F09927EE0F97958795B1
:1024F00008950E948D120C9475130E946E1358F06B
:102500000E94671340F029F45F3F29F00C945E139A
:1025100051110C94A9130C9464130E94861368F350
:102520009923B1F3552391F3951B550BBB27AA278C
:1025300062177307840738F09F5F5F4F220F331FC6
:10254000441FAA1FA9F335D00E2E3AF0E0E832D08E
:1025500091505040E695001CCAF72BD0FE2F29D091
:10256000660F771F881FBB1F261737074807AB0763
:10257000B0E809F0BB0B802DBF01FF2793585F4FD8
:102580003AF09E3F510578F00C945E130C94A91319
:102590005F3FE4F3983ED4F3869577956795B795BA
:1025A000F7959F5FC9F7880F911D9695879597F9C5
:1025B0000895E1E0660F771F881FBB1F621773073E
:1025C0008407BA0720F0621B730B840BBA0BEE1F53
:1025D00088F7E09508950E94F2126894B1110C9466
:1025E000A91308950E948E1388F09F5798F0B92F71
:1025F0009927B751B0F0E1F0660F771F881F991F38
:102600001AF0BA95C9F714C0B13091F00E94A8131E
:10261000B1E008950C94A813672F782F8827B85F2E
:1026200039F0B93FCCF3869577956795B395D9F78F
:102630003EF490958095709561957F4F8F4F9F4F99
:102640000895E89409C097FB3EF4909580957095A5
:1026500061957F4F8F4F9F4F9923A9F0F92F96E9EE
:10266000BB279395F695879577956795B795F11163
:10267000F8CFFAF4BB0F11F460FF1BC06F5F7F4F00
:102680008F4F9F4F16C0882311F096E911C0772312
:1026900021F09EE8872F762F05C0662371F096E81B
:1026A000862F70E060E02AF09A95660F771F881FEA
:1026B000DAF7880F9695879597F9089597F99F67A8
:1026C00080E870E060E008959FEF80EC08950024BA
:1026D0000A941616170618060906089500240A9487
:1026E00012161306140605060895092E0394000C0D
:1026F00011F4882352F0BB0F40F4BF2B11F460FF9C
:1027000004C06F5F7F4F8F4F9F4F089557FD9058C4
:10271000440F551F59F05F3F71F04795880F97FBA5
:10272000991F61F09F3F79F087950895121613065F
:102730001406551FF2CF4695F1DF08C0161617068E
:102740001806991FF1CF86957105610508940895C3
:10275000E894BB2766277727CB0197F908950E9455
:10276000C2130C9475130E94671338F00E946E1305
:1027700020F0952311F00C945E130C946413112433
:102780000C94A9130E94861370F3959FC1F3950FC3
:1027900050E0551F629FF001729FBB27F00DB11DE5
:1027A000639FAA27F00DB11DAA1F649F6627B00D75
:1027B000A11D661F829F2227B00DA11D621F739F5E
:1027C000B00DA11D621F839FA00D611D221F749F6C
:1027D0003327A00D611D231F849F600D211D822FB3
:1027E000762F6A2F11249F5750409AF0F1F08823DA
:1027F0004AF0EE0FFF1FBB1F661F771F881F915007
:102800005040A9F79E3F510580F00C945E130C9444
:10281000A9135F3FE4F3983ED4F3869577956795C7
:10282000B795F795E7959F5FC1F7FE2B880F911D30
:102830009695879597F908950F931F93CF93DF93FC
:102840009C01029710F422E030E0E0914501F09104
:10285000460190E080E0B0E0A0E0309791F400976E
:1028600009F445C0821B930B84309105B8F58A8129
:102870009B816115710569F1FB0193838283FE01E0
:1028800011C0408151810281138142175307F0F03A
:102890004217530799F4109761F012960C93129710
:1028A00013961C933296CF01DF91CF911F910F9118
:1028B00008950093450110934601F4CF009719F055
:1028C0004817590718F4CA01BD01EF01DF01F801EB
:1028D000C4CF9093460180934501D1CFFE01E80F0C
:1028E000F91F21933193029799838883DCCF8091DC
:1028F000470190914801892B41F480910B019091FF
:102900000C019093480180934701809109019091B7
:102910000A01009741F48DB79EB740910D01509187
:102920000E01841B950B40914701509148014817B7
:10293000590708F0B8CF841B950B8217930708F44A
:10294000B2CFB9016E5F7F4F8617970708F4ABCF00
:10295000640F751F7093480160934701FA0121933A
:102960003193A1CFCF93DF939C010097E9F0FC0155
:10297000329713821282C0914501D0914601DE0147
:1029800090E080E02097A1F480819181280F391F89
:1029900080914701909148018217930709F067C021
:1029A000F0934801E0934701DF91CF910895DA0158
:1029B000AE17BF0708F041C012964D915C91139776
:1029C000CD014115510599F7DC011396FC93EE9367
:1029D00012974D915D91A40FB51FEA17FB0781F483
:1029E000208131812E5F3F4F240F351FDC0111966E
:1029F0003C932E932281338113963C932E9312970E
:102A0000B0E0A0E08A819B810097B1F5FE01819141
:102A10009191E80FF91F80914701909148018E171D
:102A20009F0711F6109759F5109246011092450133
:102A3000D0934801C0934701B7CFB383A2834081AD
:102A40005181240F351FA217B30771F44E5F5F4FFA
:102A50002D913C911197420F531F51834083129641
:102A60002D913C9133832283009709F0ADCFF093F1
:102A70004601E093450198CFDE01EC01C3CF1396E8
:102A80001C921E921297D4CFCF92DF92EF92FF92B8
:102A9000CF93DF93CDB7DEB72A970FB6F894DEBF9A
:102AA0000FBECDBF89879A87A985BA852D913D91A3
:102AB0004D915C9129833A834B835C83232B242B98
:102AC000252B41F424E239ED4BE557E029833A8385
:102AD0004B835C8369817A818B819C812DE133EF0B
:102AE00041E050E00E944E1769017A01A7EAB1E483
:102AF0009B01AC010E946D1769837A838B839C8351
:102B0000ACEEB4EFA70196010E947B179B01AC01CC
:102B100089819A81AB81BC81820F931FA41FB51F4D
:102B2000B7FF03C00197A109B048E985FA85808302
:102B30009183A283B3839F772A960FB6F894DEBF62
:102B40000FBECDBFDF91CF91FF90EF90DF90CF9080
:102B500008950E94441508958FE091E00E94441565
:102B60000895B0E0A0E080930F0190931001A0932E
:102B70001101B09312010895283008F027E033279F
:102B8000DA01990F311D87FD91600096610571058D
:102B900039F432602E5F3D9330E32A95E1F70895D2
:102BA0009F3F30F080387105610509F03C5F3C5F64
:102BB0003D93913008F08068911DDF93CF931F9370
:102BC0000F93FF92EF92192F987F9695E92F969584
:102BD0009695E90FFF27E653FF4F99273327EE24F9
:102BE000FF24A701E70105900894079428F4360F05
:102BF000E71EF81E491F511D660F771F881F991F7A
:102C00000694A1F70590079428F4E70EF81E491FD3
:102C1000561FC11D770F881F991F661F0694A1F7C5
:102C20000590079428F4F80E491F561FC71FD11DA1
:102C3000880F991F661F771F0694A1F705900794C8
:102C400020F4490F561FC71FD81F990F661F771F03
:102C5000881F0694A9F784911095177041F0D695B6
:102C6000C79557954795F794E7941A95C1F7E0E70C
:102C7000F0E06894159015913591659195910590C6
:102C80007FE27395E118F10A430B560BC90BD0098B
:102C9000C0F7E10CF11E431F561FC91FD01D7EF463
:102CA000703311F48A95E6CFE894015030F0080FA4
:102CB0000AF40027021708F4202F2395022F7A33F5
:102CC00028F079E37D932A95E9F710C07D932A9542
:102CD00089F6069497956795379517951794E11897
:102CE000F10A430B560BC90BD00998F023957E913E
:102CF00073957A3308F070E37C932013B8F77E91D4
:102D000070617D9330F0839571E37D9370E32A9534
:102D1000E1F71124EF90FF900F911F91CF91DF9178
:102D2000992787FD90950895FC01059061507040AA
:102D30000110D8F7809590958E0F9F1F0895FC0184
:102D40006150704001900110D8F7809590958E0FDA
:102D50009F1F08950F931F93CF93DF93182F092F71
:102D6000EB018B8181FD09C01FEF0FEF812F902FA9
:102D7000DF91CF911F910F91089582FF14C02E8192
:102D80003F818C819D81281739073CF4E881F981C6
:102D9000CF0101969983888310838E819F8101964C
:102DA0009F838E83E3CFE885F985812F0995892B51
:102DB000A1F3DACFFA01AA27283051F1203181F1AD
:102DC000E8946F936E7F6E5F7F4F8F4F9F4FAF4F33
:102DD000B1E03ED0B4E03CD0670F781F891F9A1F46
:102DE000A11D680F791F8A1F911DA11D6A0F711DFA
:102DF000811D911DA11D20D009F468943F912AE006
:102E0000269F11243019305D3193DEF6CF010895ED
:102E1000462F4770405D4193B3E00FD0C9F7F6CF1E
:102E2000462F4F70405D4A3318F0495D31FD4052E6
:102E3000419302D0A9F7EACFB4E0A695979587957C
:102E400077956795BA95C9F700976105710508955B
:102E50009B01AC010A2E0694579547953795279507
:102E6000BA95C9F7620F731F841F951FA01D08959F
:102E7000F999FECF92BD81BDF89A992780B5089542
:102E8000262FF999FECF1FBA92BD81BD20BD0FB686
:102E9000F894FA9AF99A0FBE01960895052E97FBB9
:102EA0001EF400940E94651757FD07D00E948017FA
:102EB00007FC03D04EF40C9465175095409530955F
:102EC00021953F4F4F4F5F4F089590958095709596
:102ED00061957F4F8F4F9F4F08950E94B211A59F1C
:102EE000900DB49F900DA49F800D911D1124089505
:102EF000B7FF0C946D170E946D17821B930B0895FA
:102F0000A1E21A2EAA1BBB1BFD010DC0AA1FBB1FED
:102F1000EE1FFF1FA217B307E407F50720F0A21B5F
:102F2000B30BE40BF50B661F771F881F991F1A94CC
:102F300069F760957095809590959B01AC01BD01F6
:102F4000CF010895F894FFCF26051205E604DC04AE
:102F5000E304800575055C0C180B180B590C3F0C2D
:0C2F60003B0C370C330C1F0CF60BD00B95
:102F6C001401AAB403B103B0030000A701200001AF
:042F7C000000000051
:00000001FF
