:100000000C94B5000C94DE000C94DE000C94DE0021
:100010000C94DE000C94DE000C948B090C94DE0032
:100020000C94DE000C94DE000C94DE000C94BF10E7
:100030000C94DE000C94DE000C941E100C94DE0078
:100040000C94DE000C94DE000C94DE000C94DE00B8
:100050000C94DE000C94DE000C94DE000C94DF1097
:100060000C94DE000C94DE006E616E00696E66001A
:1000700000407A10F35A00A0724E18090010A5D45F
:10008000E80000E87648170000E40B54020000CABC
:100090009A3B000000E1F505000080969800000002
:1000A00040420F000000A086010000001027000061
:1000B0000000E803000000006400000000000A00E7
:1000C000000000000100000000002C76D888DC67EA
:1000D0004F0823DFC1DFAE59E1B1B796E5E3E45342
:1000E000C63AE651997696E8E6C28426EB898C9B5F
:1000F00062ED407C6FFCEFBC9C9F40F2BAA56FA5FF
:10010000F490055A2AF75C936B6CF9676DC11BFC80
:10011000E0E40D47FEF520E6B500D0ED902E03009B
:10012000943577050080841E080000204E0A0000E8
:1001300000C80C333333330F986E12831141EF8DA7
:100140002114893BE65516CFFEE6DB18D1844B38E7
:100150001BF77C1D901DA4BBE424203284725E2218
:100160008100C9F124ECA1E53D2711241FBECFEF8A
:10017000D8E0DEBFCDBF14BE0FB6F894A89580912D
:100180006000886180936000109260000FBE11E0F3
:10019000A0E0B1E0E0E9FCE302C005900D92A431DB
:1001A000B107D9F721E0A4E1B1E001C01D92A33F5E
:1001B000B207E1F70E948F170C94341E0C940000D4
:1001C00080910001909101010895CF93DF93DC01AC
:1001D000E0910001F0910101EB01488159816A81B0
:1001E0007B81458756876787708B81E0848711966E
:1001F0008C91119780AF12964C91129750E070E05D
:1002000060E041AF52AF63AF74AFEF01ED9613966C
:100210004C91139750E070E060E0488359836A8303
:100220007B83E858FF4F14968C918083DF91CF91A8
:100230000895CF93DF9300D000D000D0CDB7DEB7C4
:10024000E0910001F091010188EC818B8091C9015E
:10025000835D0E94140C20910001309101013A83CA
:1002600029838091C9019091CA01B0E0A0E0F90111
:10027000878F90A3A1A3B2A380EA90E00E94DB1A2B
:10028000FC01A981BA81A75ABF4F8D939C93A98184
:10029000BA81A75BBF4F1D921D921D921C921397AE
:1002A000A981BA81AB5ABF4F1D921D921D921C921B
:1002B0001397A981BA81AF5BBF4F1D921D921D920A
:1002C0001C921397A981BA81D9961D921D921D92F5
:1002D0001C92DC97A55ABF4F1D921D921D921C9235
:1002E0001397A981BA81A15ABF4F1D921D921D92E9
:1002F0001C921397A981BA81A959BF4F1D921D92D3
:100300001D921C92139780EADF011D928A95E9F7EE
:10031000E981FA8113A214A215A216A2DF0114AA80
:1003200015AA16AA17AA17A610AA11AA12AAED585A
:10033000FF4F108211821282138297961D921D9296
:100340001D921C929A97FD0113A614A615A616A637
:10035000E35BFF4F10821182128213823496108267
:1003600011821282138254961D921D921D921C922C
:10037000579758961C92589784EB59968C9388E718
:1003800090E0A0E0B0E0E981FA81828F938FA48FA2
:10039000B58F0E94FD0B20910001309101013E8339
:1003A0002D83282F30E050E040E029833A834B83AF
:1003B0005C83AD81BE815A962D913D914D915C91AA
:1003C0005D9769817A818B819C810E94BA176983CC
:1003D0007A838B839C83DC01CB010196A11DB11D27
:1003E000ED81FE81848B958BA68BB78BE958FF4FEF
:1003F0001082ED81FE81E858FF4F1082ED81FE8171
:10040000ED58FF4F1082118212821382ED81FE811E
:10041000878D90A1A1A1B2A182319105A105B1055D
:10042000B9F14497A105B10599F1868D813029F183
:10043000F091C501FD832091C60129832223C1F1DA
:100440009091B30081E0911180E081953D8131115F
:1004500037C0882341F060E08FEF0E94040B8FE0EB
:1004600090E00E94F70A6D8189810E94040BE0915F
:100470000001F091010181E0868F80E026960FB6A1
:10048000F894DEBF0FBECDBFDF91CF910C949B10CF
:10049000AD81BE815E968C91882379F360E080E027
:1004A0000E94040BE0910001F0910101168EE5CF4E
:1004B000FF23C9F28091B4008111D5CF6FEFCDCF6A
:1004C0009091B4009923D1F3882369F28FEF60E013
:1004D000C4CFCF93DF93C82FD62F811113C06623CB
:1004E00059F08091B400811107C06FEF0E94040B96
:1004F0008FE090E00E94F70A6D2F8C2FDF91CF9153
:100500000C94040B9091B30081E0911111C081957E
:10051000DD2349F09091B400992339F3882361F3E6
:100520008FEF60E0E3CF882339F360E08FEFDECF19
:1005300080E08195D111EECFF6CF1F93CF93DF935B
:10054000C82FE0910001F0910101868D8C1779F0A0
:10055000C230A1F1C330F1F0C13069F060E080E059
:100560000E94040BE0910001F0910101C68FDF9120
:10057000CF911F9108951091C501D091C601D1115D
:1005800032C0112309F441C08091B40081113DC0F3
:100590006FEF35C0D091C701DD2359F08091B400D1
:1005A000811107C06FEF0E94040B8FE090E00E9462
:1005B000F70A6D2F80E00E94040BD4CFD091C801C0
:1005C000DD2361F08091B300811108C060E08FEFFE
:1005D0000E94040B8FE090E00E94F70A60E08D2FEC
:1005E0000E94040BBFCF9091B30081E0911180E095
:1005F000819511110FC0882341F060E08FEF0E94B8
:10060000040B8FE090E00E94F70A612F8D2F0E946B
:10061000040BA8CF9091B400992309F4B9CF882393
:10062000A1F38FEF60E0EBCF0F931F93E0910001F8
:10063000F0910101868D8130F9F09EEF980F923094
:1006400008F06FC04091CB015091CC016091CD0179
:100650007091CE01208D84899589A689B789820FF2
:10066000911DA11DB11D84179507A607B70708F4B2
:1006700067C01F910F9108954091CB015091CC011B
:100680006091CD017091CE0184899589A689B78941
:10069000028D138D248D358D800F911FA21FB31FE6
:1006A00084179507A607B70720F78091CB01909193
:1006B000CC01A091CD01B091CE01848B958BA68BFE
:1006C000B78B0E94FD0BE0910001F091010180FFCA
:1006D00070C0868D8230D1F01091C801112361F075
:1006E0008091B300811108C060E08FEF0E94040B7D
:1006F0008FE090E00E94F70A60E0812F0E94040BD7
:10070000E0910001F091010182E0868F0E94FD0BD3
:10071000E0910001F091010180FD69C08AE5808FC0
:10072000A8CF882309F4A5CF60E080E00E94040BE5
:10073000E0910001F0910101168E1F910F91089533
:100740008091CB019091CC01A091CD01B091CE01CF
:10075000848B958BA68BB78B0091C5011091C60138
:10076000111108C00023C1F08091B400811114C0A0
:100770006FEF0CC09091B30081E0911180E0819502
:10078000011138C0882341F060E08FEF0E94040B14
:100790008FE090E00E94F70A602F812F0E94040BE7
:1007A000E0910001F091010181E0868F1F910F918E
:1007B0000895868D833009F4A9CF1091C7011123C4
:1007C00059F08091B400811107C06FEF0E94040BB3
:1007D0008FE090E00E94F70A612F80E00E94040BF6
:1007E000E0910001F091010183E0868F8FCF84EBCF
:1007F000808F3FCF9091B400992309F4B9CF88231B
:1008000059F28FEF60E0C2CFCF93DF93C091000128
:10081000D09101018F8D89838BA18A838CA98B83D1
:10082000FE01E958FF4F80818C83CE010E94E812BF
:100830009B878A87DF91CF910895E0910001F09125
:100840000101DF01A75BBF4F1D921D921D921C92FB
:1008500013971C961D921D921D921C9213975497EC
:100860001D921D921D921C92139711AE12AE13AEE3
:1008700014AE5A961D921D921D921C9213971496B7
:100880001D921D921D921C92139718961D921D92F7
:100890001D921C92139713A614A615A616A6E75A26
:1008A000FF4F0190F081E02D80EADF011D928A95D3
:1008B000E9F70895CF93DF93C0910001D091010132
:1008C00088AD9FEE980F923010F0843119F4DF91CB
:1008D000CF910895CE010D960E94340C898BE09142
:1008E0000001F0910101DF01A75ABF4F80AD90E0F8
:1008F000880F991F880F991F0D90BC91A02DA80FEC
:10090000B91F4D915D916D917C911397452B462BAD
:10091000472BE9F681898734D0F641E050E060E06A
:1009200070E04D935D936D937C931397EF01CF5BD4
:10093000DF4F88819981AA81BB810196A11DB11DDC
:1009400088839983AA83BB8381AD92ADA3ADB4ADF7
:1009500081309105A105B10599F00297A105B10576
:1009600009F0B5CFEB5AFF4F80819181A281B3810D
:100970000196A11DB11D80839183A283B383A7CF6C
:10098000E75BFF4F80819181A281B3810196A11D18
:10099000B11D80839183A283B38399CFCF92DF92DD
:1009A000EF92FF920F931F93CF93DF9300D000D06D
:1009B00000D0CDB7DEB720910001309101013E8318
:1009C0002D83F90187A190A5A1A5B2A50197A10545
:1009D000B10509F4E1C0EF5BFF4FC080D180E28038
:1009E000F380C114D104E104F10409F08FC0F901CE
:1009F000E35BFF4F1082118212821382ED81FE8130
:100A0000EF5AFF4FC082D182E282F382ED81FE81F4
:100A1000E55AFF4F8AE090E0A0E0B0E08083918348
:100A2000A283B3832D813E81215A3F4FF9018083F8
:100A30009183A283B3830E94FD0B0091000110916A
:100A4000010199E2899F912D112492959F70F4E6FE
:100A50009F9F8019112490E0B0E0A0E0A8014959BF
:100A60005F4FFA0180839183A283B3834C50510975
:100A7000FA01C080D180E280F3808C159D05AE051F
:100A8000BF0588F441E050E060E070E0F80143A366
:100A900054A365A376A341E951E060E070E047A765
:100AA00050AB61AB72ABA801415A5F4FFA01408174
:100AB0005181628173814C0D5D1D6E1D7F1DC816B5
:100AC000D906EA06FB0608F44FC0481759076A071B
:100AD0007B0768F4F80113A214A215A216A217A6A8
:100AE00010AA11AA12AA13A614A615A616A626962F
:100AF0000FB6F894DEBF0FBECDBFDF91CF911F912F
:100B00000F91FF90EF90DF90CF9008958901F90148
:100B1000035B1F4FE75BFF4F20813181428153818F
:100B2000A4E6B0E00E94F117A70196010E94BA174F
:100B3000F8012083318342835383ED81FE81EB5A98
:100B4000FF4F2081318142815381A4E6B0E00E94B1
:100B5000F11769837A838B839C83A70196010E9496
:100B6000BA1769017A014ACF481759076A077B0704
:100B700008F4ABCF82E090E0A0E0B0E0F80183A3FE
:100B800094A3A5A3B6A381EB94E0A0E0B0E087A76F
:100B900090ABA1ABB2ABABCF13A214A215A216A21D
:100BA00014AA15AA16AA17AA13A614A615A616A65D
:100BB00017A210A611A612A69ACFAF92BF92CF92FB
:100BC000DF92EF92FF920F931F93CF93DF9300D0AA
:100BD00000D000D0CDB7DEB72091000130910101E7
:100BE0003E832D83F901878D90A1A1A1B2A182310D
:100BF0009105A105B10529F04497A105B10509F0BA
:100C000079C0AD81BE811C968C911C97813009F40E
:100C100081C0FD01C3A0D4A0E5A0F6A0E958FF4F14
:100C200080815F969C915F9711969C931197129685
:100C3000CC921297D4969C91D49713969C93139729
:100C400014968C931497CD010E94E812ED81FE81D9
:100C500093878287E0910001F0910101878D90A137
:100C6000A1A1B2A182319105A105B10591F14497ED
:100C7000A105B10571F1EB5BFF4F80819181A281EC
:100C8000B3810097A105B10509F4EDC08430910549
:100C9000A105B10508F4D9C0AC01BD01445051090A
:100CA00061097109433051056105710508F4BFC040
:100CB000AC01BD014750510961097109433051052B
:100CC0006105710508F4A5C00A97A105B10508F0F2
:100CD00085C026960FB6F894DEBF0FBECDBFDF915C
:100CE000CF911F910F91FF90EF90DF90CF90BF9029
:100CF000AF9008950E9414032091000130910101EA
:100D00003E832D83AD81BE811C968C911C978130D2
:100D100009F07FCF1C961C920E945A04E0910001BA
:100D2000F0910101FE83ED83E858FF4F90810D8122
:100D30001E8109581F4FD8018C91891708F061C096
:100D40009C93AD80BE80B1E4AB0EB11CF5018081F7
:100D50009181A281B381ED81FE81EB5BFF4F8083A6
:100D60009183A283B383AD81BE819396CD90DD90B4
:100D7000ED90FC909697C114D104E104F10409F4BC
:100D800080C0FD0183A594A5A5A5B6A59C01AD01D4
:100D90002F5F3F4F4F4F5F4F23A734A745A756A75D
:100DA000CA01B901A70196010E94BA1769837A8323
:100DB0008B839C83D701C6010197A109B1092981C1
:100DC0003A814B815C81281739074A075B0709F490
:100DD000C0C0D8018C91AD81BE8123CF80E1269621
:100DE0000FB6F894DEBF0FBECDBFDF91CF911F913C
:100DF0000F91FF90EF90DF90CF90BF90AF900C9449
:100E00009B10ED81FE81C3A0D4A0E5A0F6A0DF0178
:100E100008CF80E10E949B10E0910001F091010158
:100E2000EB5BFF4F80819181A281B3814DCF84E044
:100E30000E949B10E0910001F0910101EB5BFF4FDC
:100E400080819181A281B38133CF81E00E949B1088
:100E5000E0910001F0910101EB5BFF4F80819181F6
:100E6000A281B38119CF85E10E949B10E09100011E
:100E7000F0910101EB5BFF4F80819181A281B381F1
:100E800005CF0E94CE04E0910001F0910101FE83A4
:100E9000ED83E75BFF4F1082118212821382ED8196
:100EA000FE81EB5AFF4F1082118212821382AD80B5
:100EB000BE80F1E4AF0EB11CD5011D921D921D92B2
:100EC0001C921397ED81FE8111AE12AE13AE14AEDB
:100ED000E55AFF4F1082118212821382ED81FE814A
:100EE000E15AFF4F1082118212821382ED81FE813E
:100EF000E959FF4F1082118212821382AD81BE81A7
:100F00009B961D921D921D921C929E97FD01E75A81
:100F1000FF4F0190F081E02D80EADF011D928A955C
:100F2000E9F7AD81BE819B962D913D914D915C91EC
:100F30009E9729833A834B835C839396CD90DD9073
:100F4000ED90FC9096978D0109581F4FCA01B90189
:100F500029CFED81FE8113A214A215A216A281E071
:100F600090E0A0E0B0E087A390A7A1A7B2A7E75BBD
:100F7000FF4F1082118212821382ED81FE81EB5AA3
:100F8000FF4F1082118212821382D5011D921D9291
:100F90001D921C921397ED81FE8111AE12AE13AE1D
:100FA00014AEE55AFF4F1082118212821382ED8136
:100FB000FE81E15AFF4F1082118212821382ED816D
:100FC000FE81E959FF4F1082118212821382AD8196
:100FD000BE819B961D921D921D921C929E97FD01B3
:100FE000E75AFF4F0190F081E02D80EADF011D926A
:100FF0008A95E9F7ED81FE81C3A0D4A0E5A0F6A013
:10100000D8018C91DF010DCE8F929F92AF92BF924B
:10101000EF92FF920F931F93CF93DF93CDB7DEB77D
:1010200062970FB6F894DEBF0FBECDBF4B015C01D7
:101030008D829E82AF82B886C901DA0189879A873C
:10104000AB87BC870D871E872D813E814F815885D8
:10105000CA01B9010E94131A5B018C0129853A85E6
:101060004B855C85CA01B9010E94131A9B01AC0132
:10107000A982BA820B831C8369817A818B819C81CE
:101080000E94481869837A838B839C8369817A8163
:101090008B819C810E94861A8B015C0120E030E0EC
:1010A00048EC53E469831A838B83BC8269817A811B
:1010B0008B819C810E94B41887FD42C08D819E81E6
:1010C000AF81B885B0588D839E83AF83B887980170
:1010D000A501BC01CD010E94B9186F87788B898B5F
:1010E0009A8BAD85BE856D937D938D939C9313975D
:1010F00089859A85AB85BC85B05889879A87AB87E7
:10110000BC879801A501BC01CD010E94B918D70187
:101110006D937D938D939C93139781E090E06296FD
:101120000FB6F894DEBF0FBECDBFDF91CF911F91F8
:101130000F91FF90EF90BF90AF909F908F90089588
:1011400090E080E0ECCF089590E080E0089508956D
:10115000BF92CF92DF92EF92FF920F931F93CF93A4
:10116000DF93F89414B817B81AB815B818B81BB8A4
:10117000529A5A9A14BC85E085BD8FEF87BD82E0F4
:1011800080936E0010928000109281002FE83BE067
:10119000309389002093880080936F0053982398A0
:1011A00091EA9093B0008093B1001092B400109235
:1011B000B3008BE080BF83E080937F0086E0809364
:1011C0007C0083E880937A0080917A008064809329
:1011D0007A0080917A0086FDFCCF10927C0083EA31
:1011E00080937A0081E080937B0081E090E00E9410
:1011F000F71D8F3F11F0809366001092DA01C1E075
:10120000C093D901C093D8011092D7011092D60192
:1012100080E990E00E94F71D8093D5018091D5016F
:10122000887311F0C093D5011092D2011092D101B0
:101230008FEF90E09093D0018093CF011092CB017B
:101240001092CC011092CD011092CE0181E08093DA
:10125000EE0182E49FE09093D4018093D30180EB70
:1012600090E00E94F71DC82F81EB90E00E94F71DCF
:10127000D82FD093CA01C093C90185E090E00E94A5
:10128000F71D8093C80189E090E00E94F71D8093CC
:10129000C7018CE090E00E94F71D8093C60184E1B5
:1012A00090E00E94F71D8093C5010DE811E089EAE6
:1012B000E82E81E0F82E99EAC92E91E0D92EC0E2FD
:1012C000D0E0CE010E94F71DB82ECE0101960E94FB
:1012D000F71D9B2DF801819391938F01CE01C0964C
:1012E0000E94F71DB82ECE01C1960E94F71D9B2DBE
:1012F000F701819391937F012296C016D10609F7D9
:101300007894DF91CF911F910F91FF90EF90DF9034
:10131000CF90BF9008950F920FB60F921F92112495
:101320008F930FB6F894A8958091600088618093A0
:101330006000109260000FBE8F911F900F900FBE43
:101340000F9018953C01EB0110E099249A9484E0E9
:10135000C82E96E0A92E23E8B22E38E1D32E49E21A
:10136000E42EE091EE01E730E0F7F0E0EA5CF14EC8
:101370000C94DC17111102C0F3010995C092EE0123
:1013800011E0FE010995EDCF8091DA01811103C1D1
:10139000F894A0927C00B0927A0080917A008064E8
:1013A00080937A0080917A0086FDFCCF809178004E
:1013B0009091790078948B3AE2E09E070CF0E4C0BB
:1013C0008938F2E09F070CF0EDC0873692400CF4AC
:1013D000E2C0559A549A3B9A3A9A3D983C98C1CFAC
:1013E000559854983B9A3A9A3D983C98EFECF7E020
:1013F0003197F1F700C00000559854983B983A98FF
:101400003D983C98FFEF21EE84E0F1502040804071
:10141000E1F700C00000A5CFF89480B7877F80BFB8
:1014200080917A008F7780937A0014B817B81AB831
:1014300015B818B81BB80FB6F894A895D0926000EC
:101440000FBEE09260008091600080648093600035
:1014500083B7817F846083BFF89483B7816083BF43
:101460007894889583B78E7F83BF78941092DA0141
:10147000529A5A9A80917A00806880937A0087E520
:1014800092E00197F1F700C0000080B7886180BF4B
:10149000559A549A3B9A3A9A3D9A3C9AEFE1FEE467
:1014A0003197F1F700C000008091DA0181115CC032
:1014B000559854983B983A983D983C9852CF8091D3
:1014C000EC01811125C01092B3001092B40010926B
:1014D000ED0147CF4899ECCF559A54983B983A98EC
:1014E0003D983C988FEC97E00197F1F700C0000021
:1014F000559854983B983A983D983C989FEFE1EE68
:10150000F4E09150E040F040E1F700C0000029CF46
:101510009091EC018091ED01981709F422CF809110
:10152000EC018093ED018091EC01813009F441C020
:101530008091EC011092B3009092B400823009F4D3
:1015400049C09092B3009092B4008FE295E7019762
:10155000F1F700C000008091C5019091C601909301
:10156000B3008093B400FDCE559A549A3B983A98B4
:101570003D983C98FFEF20E782E0F150204080400A
:10158000E1F700C0000094CF559854983B9A3A9ADE
:101590003D983C98E6CE559A549A3B983A983D9897
:1015A0003C98DFCE559854983B983A983D9A3C9A8F
:1015B000D8CE9092B3001092B4008FE295E70197D5
:1015C000F1F700C000008091C8018093B300109231
:1015D000B400C7CEEFE2F5E73197F1F700C00000A5
:1015E0008091C7011092B3008093B400BACE9C01E1
:1015F000892B49F08FEC97E00197F1F700C00000CC
:1016000021503109B9F708958093B3006093B40075
:1016100008958FEF8093B3008093B4008FEC97E030
:101620000197F1F700C000008FEC97E00197F1F708
:1016300000C000008FEC97E00197F1F700C00000B8
:101640008FEC97E00197F1F700C000008FEC97E076
:101650000197F1F700C000008FEC97E00197F1F7D8
:1016600000C000008FEC97E00197F1F700C0000088
:101670008FEC97E00197F1F700C000008FEC97E046
:101680000197F1F700C000008FEC97E00197F1F7A8
:1016900000C000008FEC97E00197F1F700C0000058
:1016A0008FEC97E00197F1F700C000008FEC97E016
:1016B0000197F1F700C000008FEC97E00197F1F778
:1016C00000C000008FEC97E00197F1F700C0000028
:1016D00008958091DA0181111EC0F89487E080930B
:1016E0007C0083E880937A0080917A008064809304
:1016F0007A0080917A0086FDFCCF809178009091ED
:10170000790010927C0023EA20937A0021E0209354
:101710007B00789408958FEF9FEF08958091DA0110
:1017200081111EC0F89488EC80937C0087E8809338
:101730007A0080917A00806480937A0080917A00A8
:1017400086FDFCCF809178009091790010927C000A
:1017500023EA20937A0021E020937B007894089577
:101760008FEF9FEF08951F93CF93DF93F0E0E0E0BA
:1017700080E016E0D3E8C3EA71E0A1E0B0E060E801
:10178000F89410937C00D0937A0090917A00906442
:1017900090937A0090917A0096FDFCCF209178008A
:1017A00030917900217090917A00906490937A0042
:1017B00090917A0096FDFCCF40917800509179008D
:1017C00010927C00C0937A0070937B0078944170F3
:1017D000241302C06150A1F6222339F09D010E2E80
:1017E00001C0220F0A94EAF7822B3196E830F10506
:1017F00031F6DF91CF911F91089580910201982FCA
:10180000990F990F990F98278091EB0121E0280FEC
:101810002093EB01869586958927929596959770EA
:101820008927809302010895809302010895809191
:10183000DA01811116C0F89486E080937C0083E879
:1018400080937A0080917A00806480937A008091FE
:101850007A0086FDFCCF8091780090917900789491
:1018600008958FEF9FEF08952F923F924F925F92CE
:101870006F927F928F929F92AF92BF92CF92DF92A0
:10188000EF92FF920F931F93CF93DF93CDB7DEB705
:1018900028970FB6F894DEBF0FBECDBF7C01DC01E8
:1018A00012960D90BC91A02DB887AF83A438E3E0C9
:1018B000BE070CF477C0DC01ED90FC9080918D01A7
:1018C00090918E01DD24DA948E159F0508F43BC2B9
:1018D00000918F01109190010E151F0508F44AC365
:1018E00000919101109192010E151F0508F447C354
:1018F00000919301109194010E151F0508F444C343
:1019000000919501109196010E151F0508F441C331
:1019100000919701109198010E151F0508F43EC320
:101920000091990110919A010E151F0508F43BC30F
:1019300000919B0110919C010E151F0508F43CC3FA
:1019400000919D0110919E010E151F0508F43DC3E5
:1019500000919F011091A0010E151F0508F446C2C9
:101960000091A1011091A2010E151F0508F436C3C4
:101970000091A3011091A4010E151F0508F437C3AF
:101980000091A5011091A6010E151F0508F438C39A
:101990000091A7011091A8010E151F0508F439C385
:1019A0001AE520C18091A9019091AA018A179B078D
:1019B00008F4B1C10091AB011091AC010A171B07EB
:1019C00008F4DBC10091AD011091AE010A171B07AD
:1019D00008F4EEC20091AF011091B0010A171B0785
:1019E00008F4EFC20091B1011091B2010A171B0770
:1019F00008F4F8C10091B3011091B4010A171B0754
:101A000008F4E8C20091B5011091B6010A171B074E
:101A100008F4E9C20091B7011091B8010A171B0739
:101A200008F4EAC20091B9011091BA010A171B0724
:101A300008F4EBC20091BB011091BC010A171B070F
:101A400008F4ECC20091BD011091BE010A171B07FA
:101A500008F4E8C20091BF011091C0010A171B07EA
:101A600008F4E4C20091C1011091C2010A171B07DA
:101A700008F4E0C20091C3011091C4018DE02DE093
:101A800030E00A171B0708F47BC1412C512C30EDC4
:101A90003D8340E44E832CE0C22ED12CF601EE0FA4
:101AA000FF1FE755FE4F80819181D801A81BB90B1C
:101AB0009D0150E040E029833A834B835C83CA0157
:101AC000BD010E9461199B01AC0169837A838B83FC
:101AD0009C8369817A818B819C810E9448185B017B
:101AE0006C018F819885092E000CAA0BBB0B898392
:101AF0009A83AB83BC83BC01CD010E9463193B0177
:101B00004C01980150E040E029833A834B835C8389
:101B1000CA01B8010E9461191B018C0192014D811B
:101B20005E81A982BA82CB82DC8269817A818B81D3
:101B30009C810E94131A9B01AC0129823A820B837B
:101B40001C8369817A818B819C810E9447189B014B
:101B5000AC0169827A828B829C8269817A818B81D5
:101B60009C810E94471820E030E040E251E4698304
:101B70007A838B839C8369817A818B819C810E948B
:101B8000131A69837A838B839C8369817A818B8121
:101B90009C810E942B198B01A982BA82CB82DC82A4
:101BA00069817A818B819C810E942B1969837A8358
:101BB0008B839C83C80169817A810E94A617D62EE7
:101BC0004F8158854D3B52400CF409C1D701ED902F
:101BD000FC9080918D0190918E018E159F0508F0EB
:101BE00077CE10E0BFEF81E2810FDB1609F4ACC0C5
:101BF0002D2D30E050E040E029833A834B835C8315
:101C0000CA01B9010E9461196B017C01812F90E02A
:101C1000B0E0A0E089839A83AB83BC83BC01CD0193
:101C20000E9461194B015C012F813885032E000C45
:101C3000440B550B29833A834B835C83CA01B9015A
:101C40000E9463198B018E839D839B01AC0160E030
:101C500070E081E694E40E9447189601A701698329
:101C60007A838B839C8369817A818B819C810E949A
:101C7000131A6B017C0120E030E04FE254E4098349
:101C80001A838E818B839D819C8369817A818B816C
:101C90009C810E9447189401A50169837A838B83F4
:101CA0009C8369817A818B819C810E94131A9B019C
:101CB000AC01C982DA82EB82FC8269817A818B81F4
:101CC0009C810E94481820E030E048E453E4698396
:101CD0007A838B839C8369817A818B819C810E942A
:101CE000B91820E030E044E052E469837A838B83C2
:101CF0009C8369817A818B819C810E9448186983C9
:101D00007A838B839C8369817A818B819C810E94F9
:101D10003219862F19C0AD3BB240ACF0D701ED901F
:101D2000FC9080918D0190918E01D12C8E159F0594
:101D300008F0CECD812C912CA12CB12CC12CD12C12
:101D4000E12CF12C71CF81E228960FB6F894DEBF1A
:101D50000FBECDBFDF91CF911F910F91FF90EF90FC
:101D6000DF90CF90BF90AF909F908F907F906F90BB
:101D70005F904F903F902F90089581E021E030E0F8
:101D80006901F1E0CF1AD108282F30E050E040E09F
:101D900029833A834B835C83CA01B9010E9461198C
:101DA00020E030E040E05FE369837A838B839C83AB
:101DB00069817A818B819C810E94131A20E030E036
:101DC000A90169837A838B839C8369817A818B8162
:101DD0009C810E9448182B018D839E835FCE81E2F7
:101DE000860FB2CF84E024E030E0CACF59E0652E00
:101DF000E9E0F0E0EE0FFF1FE557FE4F8081918193
:101E0000D801A81BB90B9D0150E040E029833A831B
:101E10004B835C83CA01BD010E9461199B01AC0127
:101E200069837A838B839C8369817A818B819C818E
:101E30000E944818962EA72EB82EC92EC701FF0C57
:101E4000AA0BBB0B89839A83AB83BC83BC01CD01F6
:101E50000E946319762E872E7C01980150E040E0A5
:101E600029833A834B835C83CA01B8010E946119BC
:101E70002B018C01862D90E0B0E0A0E089839A834D
:101E8000AB83BC83BC01CD010E94611920E030E02E
:101E900040E05FE369837A838B839C8369817A81E5
:101EA0008B819C810E94131A20E030E0A901698394
:101EB0007A838B839C8369817A818B819C810E9448
:101EC0004818292D3A2D4B2D5C2D69837A838B83FD
:101ED0009C8369817A818B819C810E94131A9B016A
:101EE000AC0149825A820B831C8369817A818B8180
:101EF0009C810E9447189B01AC0179828A82EB8207
:101F0000FC8269817A818B819C810E94471820E044
:101F100030E040E251E469837A838B839C8369815A
:101F20007A818B819C810E94131A69837A838B83C7
:101F30009C8369817A818B819C810E942B198B0102
:101F40009982AA82BB82CC8269817A818B819C81B1
:101F50000E942B1969837A838B839C83C8016981D2
:101F60007A810E94A617162F6F3F09F03BCE81E2BF
:101F70008D0DEACE66246394E1E0F0E03BCF82E091
:101F8000682EE2E0F0E036CFB3E06B2EE3E0F0E065
:101F900031CFA4E06A2EE4E0F0E02CCFF5E06F2E24
:101FA000E5E0F0E027CFE6E06E2EE6E0F0E022CFBD
:101FB00082E022E030E0E4CE77E0672EE7E0F0E078
:101FC00019CF83E023E030E0DBCE68E0662EE8E066
:101FD000F0E010CF85E025E030E0D2CE4AE0642E7C
:101FE000EAE0F0E007CF86E026E030E0C9CE3BE053
:101FF000632EEBE0F0E0FECE87E027E030E0C0CEDD
:102000002CE0622EECE0F0E0F5CE88E028E030E055
:10201000B7CE9DE0692EEDE0F0E0ECCE89E029E05E
:1020200030E0AECE8AE02AE030E0AACE8BE02BE0B2
:1020300030E0A6CE8CE02CE030E0A2CE1F920F92D2
:102040000FB60F9211242F933F934F935F936F938B
:102050007F938F939F93AF93BF93EF93FF93809161
:10206000D1019091D2012091CF013091D001820F06
:10207000931F9093D2018093D1018FEF90E09093C2
:10208000D0018093CF018FEF87BD8091CB019091DC
:10209000CC01A091CD01B091CE010196A11DB11D41
:1020A0008093CB019093CC01A093CD01B093CE014E
:1020B0008091DA0181110FC08091D3019091D401F8
:1020C0002091D1013091D2018217930720F48091A1
:1020D000EE01843089F0FF91EF91BF91AF919F9114
:1020E0008F917F916F915F914F913F912F910F90C1
:1020F0000FBE0F901F901895E0910501F091060119
:102100000995009741F30E94A013882351F0E091B4
:102110000301F091040109951092D2011092D101AE
:10212000DACF0E946B1C9C0199279093D001809379
:10213000CF0127BDD0CF80FF11C0559A81FF11C0BC
:10214000549A82FF11C03B9A83FF11C03A9A84FFD0
:1021500011C03D9A85FF11C03C9A0895559881FDA4
:10216000EFCF549882FDEFCF3B9883FDEFCF3A98A5
:1021700084FDEFCF3D9885FDEFCF3C9808951F92E9
:102180001FB61F9211248F939F931092810010927B
:1021900085001092840081E08093D9018093D8015A
:1021A0001092DA0110927C0093EA90937A00809367
:1021B0007B009F918F911F901FBE1F9018951F92BB
:1021C0000F920FB60F9211240F931F932F933F93EB
:1021D0004F935F936F937F938F939F93AF93BF932F
:1021E000EF93FF93CF93DF9300D000D0CDB7DEB74E
:1021F000209184003091850041E04093DA01809184
:10220000D9018823D9F1109285001092840040935F
:1022100081001092D6011092D9018091D8018823B3
:10222000A1F080917A0086FDFCCF8091780090919A
:1022300079009093DE018093DD0181E080937C0042
:1022400093EA90937A0080937B000F900F900F9009
:102250000F90DF91CF91FF91EF91BF91AF919F913F
:102260008F917F916F915F914F913F912F911F912E
:102270000F910F900FBE0F901F901895C9018758AE
:10228000910984379940A0F0109281001092850046
:10229000109284004093D9014093D8011092DA0142
:1022A00010927C0083EA80937A0040937B00CDCF2C
:1022B00026583109A4EFB0E00E94E21769837A83BF
:1022C0008B839C83AA27BB271B81183008F465C029
:1022D0004093D9018091D80181113CC08091D701F0
:1022E000E82FF0E0E152FE4F9091D60190838F5F8E
:1022F0008093D7018C3009F0A8CF10928100109202
:102300008500109284004093D8011092DA01009168
:10231000E9011091EA018FED91E00E94E81208179F
:10232000190709F092CFE091E801E7FF47C098E76D
:102330009E0F933030F0539823981092B40010926F
:10234000B300E058EB3008F080CFF0E0E35CF14EF2
:102350000C94DC1780917A0086FDFCCF8091780088
:10236000909179009093DC018093DB0110927C00C6
:1023700083EA80937A0081E080937B009091D6017C
:102380009923B9F010928100109285001092840078
:102390008093D8011092DA0158CF21E030E001C0DB
:1023A000220F8A95EAF78091D601822B8093D6017D
:1023B0004CCF1092D8011092D70147CFE09107017E
:1023C000F09108016BED71E08FED91E009953DCF43
:1023D0008091DF01823009F485C008F06CC0882349
:1023E00009F4BEC08091E0019091E1019093CA018F
:1023F0008093C9011092EC018091EE01863009F4BE
:1024000024CF539A239A1092B4001092B30086E01E
:102410008093EE011ACF8091EE01863099F0539AA5
:10242000239A1092B4001092B300559854983B9898
:102430003A983D983C981092EC011092ED0186E09C
:102440008093EE012091DF0181E090E002C0880FCF
:10245000991F2A95E2F72091C9013091CA01822380
:102460009323892B09F479C081E08093EC01EDCEB0
:1024700082E08093EE01E9CE85E08093EE01E5CE27
:1024800081E08093EE01E1CE1092EE01DECE8091EC
:10249000EE01833009F4D9CE8091EE01843009F445
:1024A000D4CE539A239A1092B4001092B30083E0D2
:1024B0008093EE01CACE833061F1843009F09CCF65
:1024C0002091EC018091E5019091E4012330C1F06D
:1024D0001092ED0123E02093EC019093C6018093CC
:1024E000C5018ACF9091EC018091E2019130F9F021
:1024F0001092ED0191E09093EC018093C8017CCFA4
:102500002091C5012813E4CF2091C6019213E0CF9A
:1025100073CF9091EC018091E301923069F01092B9
:10252000ED0192E09093EC018093C70165CF90910B
:10253000C8019813DDCF60CF9091C7019813EFCFFA
:102540005BCFF0E0E0E0099580916E008D7F809395
:102550006E0016BCE0E0F0E709951092EC0175CE34
:102560008091EE01863009F070CE6091C90180EB58
:1025700090E00E94FF1D6091CA0181EB90E00E94F3
:10258000FF1D6091C80185E090E00E94FF1D6091F1
:10259000C70189E090E00E94FF1D6091C6018CE0B8
:1025A00090E00E94FF1D6091C50184E190E00E94CF
:1025B000FF1D539823981092B4001092B30081E04D
:1025C0008093EE018091DF01882309F43ECE14CF81
:1025D000FC0120818FEF9FEF8227082E8295807F5C
:1025E0008025092E982F82958F700826869598272A
:1025F0008927880F880F880F802521818227082E40
:102600008295807F8025092E982F82958F700826CD
:10261000869598278927880F880F880F8025228123
:102620008227082E8295807F8025092E982F8295FB
:102630008F700826869598278927880F880F880F1E
:10264000802523818227082E8295807F8025092E70
:10265000982F82958F700826869598278927880F4E
:10266000880F880F802524818227082E8295807FFD
:102670008025092E982F82958F7008268695982799
:102680008927880F880F880F802525818227082EAB
:102690008295807F8025092E982F82958F7008263D
:1026A000869598278927880F880F880F802526818F
:1026B0008227082E8295807F8025092E982F82956B
:1026C0008F700826869598278927880F880F880F8E
:1026D000802527818227082E8295807F8025092EDC
:1026E000982F82958F700826869598278927880FBE
:1026F000880F880F802520858227082E8295807F6D
:102700008025092E982F82958F7008268695982708
:102710008927880F880F880F802521858227082E1A
:102720008295807F8025092E982F82958F700826AC
:10273000869598278927880F880F880F8025089508
:102740000FB6F894A4B12091D5012A2B24B921E029
:102750003091D501203029F0000025B1232B25B977
:1027600004C000000000000000C0000000000000E5
:10277000309525B1232325B92EEA2A95F1F72BEEC2
:1027800030B735FF0AC0A4B93091D501309525B1D5
:10279000232325B90FBE80E0089500002A9581F714
:1027A00021E03091D501203029F0000025B1232B04
:1027B00025B904C000000000000000C000000000B7
:1027C0000000309525B1232325B9000024E52A9582
:1027D000F1F7FC018CE0619170E0660F771F61609A
:1027E00072609AE041E050E09A0126233723232BC0
:1027F0003091D501203029F0000025B1232B25B9D7
:1028000004C000000000000000C000000000000044
:10281000309525B1232325B9000021E52A95F1F74C
:10282000440F551F9A9501F78A95A9F620B72061A4
:1028300020BFA4B93091D501309525B1232325B906
:102840000FBE81E00895A3E1B0E0E9E2F4E10C9469
:10285000FC177C011B015A01DC0117961C921E9289
:10286000169713968C9181FF50C3FE0131964F014C
:10287000D70113969C91F10193FD859193FF81916E
:102880001F01882309F4F4C2853239F493FD859140
:1028900093FF81911F01853239F4B70190E00E94C6
:1028A000691D65015601E4CF10E0712C612CBFE178
:1028B000B61538F08B3211F190F4803209F1833281
:1028C00029F167FC3CC020ED280F2A3050F566FE48
:1028D00020C0EAE01E9F200D1124122F06C08D3269
:1028E00091F0803371F7689460F8F10193FD859160
:1028F00093FF81911F018111DACF21C0689461F8A3
:10290000689462F8F2CF689463F8EFCF689464F843
:10291000ECCFFAE07F9E200D1124722E689465F8AA
:10292000E4CF8E3229F466FCA3C2689466F8DDCF4A
:102930008C3619F4689467F8D8CF8836B1F29BEBDF
:10294000980F933008F065C0689464F8805E66FE66
:1029500016E0262D2F73622E853609F062C068942A
:1029600066F867FE68C0812F1C3308F08BE34424AF
:102970004394480E27E0D5014D915D916D917D9175
:102980006D014C875D876E877F87042DA4016C8560
:102990007D858E859F850E947B1C5C01B981BC87EB
:1029A000B0FF03C00DE2B3FF0AC00BE261FC07C039
:1029B00062FA882780F9082F0295000F007EEC85C7
:1029C000EC705E2E09F454C00111A2C2F3E0512C48
:1029D000F715A0F483E0572C581A63FC08C0B70120
:1029E00080E290E00E94691D5A945110F8CF0023B4
:1029F00029F0B701802F90E00E94691DFC8508E650
:102A000010E0F3FD02C00CE610E0262D2071622ECE
:102A100021C09BE9980F933008F03AC1E89464F81C
:102A200096CF863619F4689467F89BCF112309F482
:102A300098CF115096CF212F183010F027E017E0D3
:102A4000412C99CF61108052B70190E00E94691D1E
:102A50000F5F1F4FF80184918111F4CF552009F4C5
:102A600021CFB70180E290E00E94691D5A94F6CF11
:102A700067FE7DC0842D8A0DFC85F4FF04C09A8119
:102A8000913309F4815044244394181634F4482EA9
:102A900028E0281710F488E0482E85E090E067FED3
:102AA00006C0C501B7FE02C080E090E001960111AA
:102AB0000196112331F0212F30E02F5F3F4F820F1D
:102AC000931F7816190619F014F0572C581A862DF2
:102AD000897011F4511070C0002329F0B701802FC4
:102AE00090E00E94691D63FC02C051106CC067FE3B
:102AF00085C03501B7FE02C0712C612CC501861955
:102B00009709A401480F591F598B488BB5016419C7
:102B100071097B8B6A8B012F10E0119501951109CA
:102B2000A614B7040CF456C0AA89BB89A615B7052C
:102B30000CF050C0E889F9898181F1E06F1A7108C1
:102B4000601671060CF448C0B70190E00E94691D40
:102B50002FEF6216720629F4B7018EE290E00E9410
:102B6000691D888999890196998B888BD9CF66FCD4
:102B700094CFE12FF0E0EA15FB053CF03CEFA31603
:102B80003FEFB30614F0689467F83296E80DF91D2C
:102B900001C01150112319F082918033D1F367FEE7
:102BA0007CCF44244394410E1A151B0419F014F0F1
:102BB0001A1973CF10E071CFB70180E290E00E9444
:102BC000691D5A9487CFB70180E390E00E94691D88
:102BD0005A948BCF80E3B1CFA614B70441F49A8105
:102BE000963350F4953319F43C8534FF05C0B70192
:102BF00090E00E94691D32CF81E3F9CF8A81813351
:102C000019F04C854F7E4C87B70190E00E94691DFA
:102C1000112399F0B7018EE290E00E94691D1E5FBA
:102C200002E0802F0F5FF401E80FF11D8081B701F2
:102C300090E00E94691D1013F4CF85E664FC85E4E2
:102C400090E0B7010E94691DB7FC06C0A114B10451
:102C5000C1F45C8554FF15C0B194A194B1088DE214
:102C6000B70190E00E94691D80E37AE0A716B104E5
:102C700054F4B70190E00E94691DB701C501C096E8
:102C8000B8CF8BE2EDCF8F5F6AE0A61AB108EDCF27
:102C90008336B1F0833741F1833509F04DC0D5015A
:102CA000AD90BD906D01612F70E066FC02C06FEFCA
:102CB0007FEFC5010E94531D8C01689467F80CC01A
:102CC000650182E0C80ED11CD5018C91898301E099
:102CD00010E05401E89467F863FC04C07016110614
:102CE00009F088F4572C24C0F501A190B1906F0130
:102CF000612F70E066FC02C06FEF7FEFC5010E949C
:102D00005E1D8C01E7CFB70180E290E00E94691D53
:102D10007A94E4CFF50167FC859167FE81915F01AC
:102D2000B70190E00E94691D51105A940150110999
:102D30000115110579F792CE843619F0893609F01C
:102D400070C067FE65C0F5016191719181919191AB
:102D50006F01B62DBF766B2E97FF09C090958095B9
:102D6000709561957F4F8F4F9F4F689467F82AE069
:102D700030E0A4010E94991DA82EA818BA2C062D97
:102D800066FE0AC00E7FA11638F464FE04C062FC21
:102D900002C0062D0E7EB12E04FF8FC0FE01EA0D8B
:102DA000F11D8081803309F081C0097E502F587059
:102DB000552E03FD91C000FF8BC01A2DB71418F4D7
:102DC0007A0C172D1B1904FF8DC0B70180E390E02A
:102DD0000E94691D02FF07C088E701FD88E590E0B9
:102DE000B7010E94691DA11608F488C0AA940A2D93
:102DF00010E00F5F1F4F080D191DD8018E918D0136
:102E0000B70190E00E94691D08151905B1F726CE9B
:102E1000D5016D917D916D01072E000C880B990BEA
:102E200098CF062D8537E1F40F7E2AE030E007FFCA
:102E300035C0D5014D915D916D917D916D014C87AE
:102E40005D876E877F87A4016C857D858E859F85D4
:102E50000E94991DA82EA818602EE89467F88ECFBE
:102E6000097F803791F058F4883589F08F36A1F0CA
:102E7000F701868197816396E2E10C9418188837F0
:102E8000B9F704FD046020E1D1CF0061FACF64FC02
:102E9000066020E132E0CBCF28E0C8CFF501819178
:102EA00091916F01AC0170E060E0C9CF02FD02C0FA
:102EB000B3947CCFB394B39479CF802F867809F400
:102EC00075CFF6CFB70180E290E00E94691DB39400
:102ED000B714C0F3512C77CF572C5B18B71408F4F4
:102EE00072CFF8CF802F867809F47DCF8BE201FF77
:102EF00080E207FD8DE2B70190E073CFB70180E378
:102F000090E00E94691D11506ECF8FEF9FEFB3CFFD
:102F100024E0512C271508F06CCD84E05CCD0E9494
:102F2000A80885EE90E0909308018093070180EE59
:102F300090E090930601809305016DED75E089E1C5
:102F400091E00E94A20990E080E0089597FB072E8F
:102F500016F4009407D077FD09D00E94331807FCBF
:102F600005D03EF4909581959F4F08957095619599
:102F70007F4F0895A1E21A2EAA1BBB1BFD010DC0B5
:102F8000AA1FBB1FEE1FFF1FA217B307E407F50719
:102F900020F0A21BB30BE40BF50B661F771F881FF5
:102FA000991F1A9469F760957095809590959B018B
:102FB000AC01BD01CF010895EE0FFF1F0590F49104
:102FC000E02D0994A29FB001B39FC001A39F700D93
:102FD000811D1124911DB29F700D811D1124911D21
:102FE00008950E94E217A59F900DB49F900DA49F95
:102FF000800D911D112408952F923F924F925F9260
:103000006F927F928F929F92AF92BF92CF92DF92F8
:10301000EF92FF920F931F93CF93DF93CDB7DEB75D
:10302000CA1BDB0B0FB6F894DEBF0FBECDBF0994F1
:103030002A88398848885F846E847D848C849B8448
:10304000AA84B984C884DF80EE80FD800C811B8156
:10305000AA81B981CE0FD11D0FB6F894DEBF0FBE85
:10306000CDBFED010895AA1BBB1B51E107C0AA1FEC
:10307000BB1FA617B70710F0A61BB70B881F991F19
:103080005A95A9F780959095BC01CD0108955058A7
:10309000BB27AA270E945F180C94D9190E94CB194C
:1030A00038F00E94D21920F039F49F3F19F426F429
:1030B0000C94C8190EF4E095E7FB0C94C219E92FA3
:1030C0000E94EA1958F3BA17620773078407950735
:1030D00020F079F4A6F50C940C1A0EF4E0950B2E62
:1030E000BA2FA02D0B01B90190010C01CA01A0015A
:1030F0001124FF27591B99F0593F50F4503E68F1B5
:103100001A16F040A22F232F342F4427585FF3CFF5
:10311000469537952795A795F0405395C9F77EF4C6
:103120001F16BA0B620B730B840BBAF09150A1F00F
:10313000FF0FBB1F661F771F881FC2F70EC0BA0F95
:10314000621F731F841F48F4879577956795B7951D
:10315000F7959E3F08F0B0CF9395880F08F0992718
:10316000EE0F9795879508950E949E1908F481E0C7
:1031700008950E94CD180C94D9190E94D21958F0C4
:103180000E94CB1940F029F45F3F29F00C94C2193A
:1031900051110C940D1A0C94C8190E94EA1968F385
:1031A0009923B1F3552391F3951B550BBB27AA2700
:1031B00062177307840738F09F5F5F4F220F331F3A
:1031C000441FAA1FA9F335D00E2E3AF0E0E832D002
:1031D00091505040E695001CCAF72BD0FE2F29D005
:1031E000660F771F881FBB1F261737074807AB07D7
:1031F000B0E809F0BB0B802DBF01FF2793585F4F4C
:103200003AF09E3F510578F00C94C2190C940D1AB7
:103210005F3FE4F3983ED4F3869577956795B7952D
:10322000F7959F5FC9F7880F911D9695879597F938
:103230000895E1E0660F771F881FBB1F62177307B1
:103240008407BA0720F0621B730B840BBA0BEE1FC6
:1032500088F7E09508950E9432196894B1110C9492
:103260000D1A08950E94F21988F09F5798F0B92F0F
:103270009927B751B0F0E1F0660F771F881F991FAB
:103280001AF0BA95C9F714C0B13091F00E940C1A27
:10329000B1E008950C940C1A672F782F8827B85F37
:1032A00039F0B93FCCF3869577956795B395D9F703
:1032B0003EF490958095709561957F4F8F4F9F4F0D
:1032C0000895E89409C097FB3EF490958095709519
:1032D00061957F4F8F4F9F4F9923A9F0F92F96E962
:1032E000BB279395F695879577956795B795F111D7
:1032F000F8CFFAF4BB0F11F460FF1BC06F5F7F4F74
:103300008F4F9F4F16C0882311F096E911C0772385
:1033100021F09EE8872F762F05C0662371F096E88E
:10332000862F70E060E02AF09A95660F771F881F5D
:10333000DAF7880F9695879597F90895990F000801
:10334000550FAA0BE0E8FEEF16161706E807F90777
:10335000C0F012161306E407F50798F0621B730B12
:10336000840B950B39F40A2661F0232B242B252B93
:1033700021F408950A2609F4A140A6958FEF811D36
:10338000811D089597F99F6780E870E060E00895D7
:103390009FEF80EC089500240A941616170618066D
:1033A0000906089500240A94121613061406050649
:1033B0000895092E0394000C11F4882352F0BB0FDA
:1033C00040F4BF2B11F460FF04C06F5F7F4F8F4F3D
:1033D0009F4F089557FD9058440F551F59F05F3F78
:1033E00071F04795880F97FB991F61F09F3F79F027
:1033F00087950895121613061406551FF2CF4695A9
:10340000F1DF08C0161617061806991FF1CF86952A
:103410007105610508940895E894BB27662777270E
:10342000CB0197F908950E94261A0C94D9190E948D
:10343000CB1938F00E94D21920F0952311F00C948A
:10344000C2190C94C81911240C940D1A0E94EA197F
:1034500070F3959FC1F3950F50E0551F629FF001E7
:10346000729FBB27F00DB11D639FAA27F00DB11D00
:10347000AA1F649F6627B00DA11D661F829F222789
:10348000B00DA11D621F739FB00DA11D621F839F10
:10349000A00D611D221F749F3327A00D611D231FE6
:1034A000849F600D211D822F762F6A2F11249F5734
:1034B00050409AF0F1F088234AF0EE0FFF1FBB1F37
:1034C000661F771F881F91505040A9F79E3F5105F6
:1034D00080F00C94C2190C940D1A5F3FE4F3983EEF
:1034E000D4F3869577956795B795F795E7959F5FA0
:1034F000C1F7FE2B880F911D9695879597F9089532
:1035000019F416F40C94C8190C94C61A0E94F219F6
:10351000B8F39923C9F3B6F39F57550B87FF0E9461
:10352000D41A0024A0E640EA900180585695979559
:1035300028F4805C660F771F881F20F02617370756
:10354000480730F4621B730B840B202931294A2B66
:10355000A69517940794202531254A2758F7660F1A
:10356000771F881F20F026173707480730F4620BB3
:10357000730B840B200D311D411DA09581F7B901FE
:10358000842F9158880F9695879508959F3F31F025
:10359000915020F4879577956795B795880F911D81
:1035A0009695879597F9089591505040660F771F2B
:1035B000881FD2F708950F931F93CF93DF939C0139
:1035C000029710F422E030E0E091EF01F091F00179
:1035D00090E080E0B0E0A0E0309791F4009709F42B
:1035E00045C0821B930B84309105B8F58A819B817D
:1035F0006115710569F1FB0193838283FE0111C09E
:10360000408151810281138142175307F0F0421724
:10361000530799F4109761F012960C931297139632
:103620001C933296CF01DF91CF911F910F91089596
:103630000093EF011093F001F4CF009719F04817B1
:10364000590718F4CA01BD01EF01DF01F801C4CF29
:103650009093F0018093EF01D1CFFE01E80FF91FA5
:1036600021933193029799838883DCCF8091F10174
:103670009091F201892B41F480910B0190910C0102
:103680009093F2018093F1018091090190910A01D8
:10369000009741F48DB79EB740910D0150910E01F6
:1036A000841B950B4091F1015091F2014817590785
:1036B00008F0B8CF841B950B8217930708F4B2CF9C
:1036C000B9016E5F7F4F8617970708F4ABCF640F81
:1036D000751F7093F2016093F101FA012193319308
:1036E000A1CFCF93DF939C010097E9F0FC013297C3
:1036F00013821282C091EF01D091F001DE0190E0BF
:1037000080E02097A1F480819181280F391F80915A
:10371000F1019091F2018217930709F067C0F093CD
:10372000F201E093F101DF91CF910895DA01AE1734
:10373000BF0708F041C012964D915C911397CD01DF
:103740004115510599F7DC011396FC93EE931297FE
:103750004D915D91A40FB51FEA17FB0781F42081FD
:1037600031812E5F3F4F240F351FDC0111963C93B2
:103770002E932281338113963C932E931297B0E0BF
:10378000A0E08A819B810097B1F5FE018191919122
:10379000E80FF91F8091F1019091F2018E179F07B8
:1037A00011F6109759F51092F0011092EF01D09395
:1037B000F201C093F101B7CFB383A283408151815D
:1037C000240F351FA217B30771F44E5F5F4F2D9181
:1037D0003C911197240F351F3183208312962D9130
:1037E0003C9133832283009709F0ADCFF093F00131
:1037F000E093EF0198CFDE01EC01C3CF13961C924A
:103800001E921297D4CFCF92DF92EF92FF92CF9376
:10381000DF93CDB7DEB72A970FB6F894DEBF0FBEA1
:10382000CDBF89879A87A985BA852D913D914D9104
:103830005C9129833A834B835C83232B242B252B98
:1038400041F424E239ED4BE557E029833A834B8379
:103850005C8369817A818B819C812DE133EF41E02A
:1038600050E00E940D1E69017A01A7EAB1E49B01B4
:10387000AC010E94F11769837A838B839C83ACEE41
:10388000B4EFA70196010E942F1E9B01AC01898114
:103890009A81AB81BC81820F931FA41FB51FB7FF14
:1038A00003C00197A109B048E985FA858083918317
:1038B000A283B3839F772A960FB6F894DEBF0FBE1C
:1038C000CDBFDF91CF91FF90EF90DF90CF90089523
:1038D0000E94031C08958FE091E00E94031C08954C
:1038E000B0E0A0E080930F0190931001A09311012C
:1038F000B09312010895283008F027E03327DA0149
:10390000990F311D87FD916000966105710539F4AD
:1039100032602E5F3D9330E32A95E1F708959F3F93
:1039200030F080387105610509F03C5F3C5F3D93E4
:10393000913008F08068911DDF93CF931F930F9310
:10394000FF92EF92192F987F9695E92F969596956D
:10395000E90FFF27E653FF4F99273327EE24FF2473
:10396000A701E70105900894079428F4360FE71E95
:10397000F81E491F511D660F771F881F991F069457
:10398000A1F70590079428F4E70EF81E491F561F6B
:10399000C11D770F881F991F661F0694A1F7059018
:1039A000079428F4F80E491F561FC71FD11D880F12
:1039B000991F661F771F0694A1F70590079420F4BE
:1039C000490F561FC71FD81F990F661F771F881FE3
:1039D0000694A9F784911095177041F0D695C79574
:1039E00057954795F794E7941A95C1F7E0E7F0E00B
:1039F00068941590159135916591959105907FE2A8
:103A00007395E118F10A430B560BC90BD009C0F7A7
:103A1000E10CF11E431F561FC91FD01D7EF47033E9
:103A200011F48A95E6CFE894015030F0080F0AF4BB
:103A30000027021708F4202F2395022F7A3328F04D
:103A400079E37D932A95E9F710C07D932A9589F64D
:103A5000069497956795379517951794E118F10A8D
:103A6000430B560BC90BD00998F023957E917395A3
:103A70007A3308F070E37C932013B8F77E9170617D
:103A80007D9330F0839571E37D9370E32A95E1F7A0
:103A90001124EF90FF900F911F91CF91DF91992703
:103AA00087FD90950895FC010590615070400110CC
:103AB000D8F7809590958E0F9F1F0895FC01615057
:103AC000704001900110D8F7809590958E0F9F1F40
:103AD00008950F931F93CF93DF93182F092FEB01B6
:103AE0008B8181FD09C01FEF0FEF812F902FDF9198
:103AF000CF911F910F91089582FF14C02E813F81B5
:103B00008C819D81281739073CF4E881F981CF0128
:103B100001969983888310838E819F8101969F836C
:103B20008E83E3CFE885F985812F0995892BA1F351
:103B3000DACFFA01AA27283051F1203181F1E89437
:103B40006F936E7F6E5F7F4F8F4F9F4FAF4FB1E090
:103B50003ED0B4E03CD0670F781F891F9A1FA11D8B
:103B6000680F791F8A1F911DA11D6A0F711D811D8C
:103B7000911DA11D20D009F468943F912AE0269F51
:103B800011243019305D3193DEF6CF010895462FB0
:103B90004770405D4193B3E00FD0C9F7F6CF462F91
:103BA0004F70405D4A3318F0495D31FD40524193FA
:103BB00002D0A9F7EACFB4E0A695979587957795B7
:103BC0006795BA95C9F700976105710508959B013E
:103BD000AC010A2E06945795479537952795BA95C7
:103BE000C9F7620F731F841F951FA01D0895F999CF
:103BF000FECF92BD81BDF89A992780B50895262FF2
:103C0000F999FECF1FBA92BD81BD20BD0FB6F894C1
:103C1000FA9AF99A0FBE01960895052E97FB1EF4A5
:103C200000940E94241E57FD07D00E94BA1707FC7B
:103C300003D04EF40C94241E509540953095219558
:103C40003F4F4F4F5F4F08959095809570956195C8
:103C50007F4F8F4F9F4F0895B7FF0C94F1170E942D
:103C6000F117821B930B0895F894FFCF0C0AF0090B
:103C7000C409BA09C1096A0A5F0AA41225112511EB
:103C8000A112441240123C12381247120B12E811D2
:103C90001401AAA708A408A3080000F3012000014A
:043CA0000000000020
:00000001FF
